{
  "_format": "hh-sol-artifact-1",
  "contractName": "Escrow",
  "sourceName": "contracts/escrow_20_1155.sol",
  "abi": [
    {
      "inputs": [
        {
          "internalType": "address",
          "name": "_nftContractAddress",
          "type": "address"
        },
        {
          "internalType": "uint256",
          "name": "_tokenId",
          "type": "uint256"
        },
        {
          "internalType": "address",
          "name": "sncAddress",
          "type": "address"
        }
      ],
      "stateMutability": "nonpayable",
      "type": "constructor"
    },
    {
      "anonymous": false,
      "inputs": [
        {
          "indexed": false,
          "internalType": "uint256",
          "name": "tokenId",
          "type": "uint256"
        },
        {
          "indexed": false,
          "internalType": "address",
          "name": "_receiver",
          "type": "address"
        }
      ],
      "name": "sentNft",
      "type": "event"
    },
    {
      "anonymous": false,
      "inputs": [
        {
          "indexed": false,
          "internalType": "uint256",
          "name": "amount",
          "type": "uint256"
        },
        {
          "indexed": false,
          "internalType": "address",
          "name": "_receiver",
          "type": "address"
        }
      ],
      "name": "sentSnc",
      "type": "event"
    },
    {
      "inputs": [
        {
          "internalType": "address",
          "name": "",
          "type": "address"
        },
        {
          "internalType": "address",
          "name": "",
          "type": "address"
        },
        {
          "internalType": "uint256[]",
          "name": "",
          "type": "uint256[]"
        },
        {
          "internalType": "uint256[]",
          "name": "",
          "type": "uint256[]"
        },
        {
          "internalType": "bytes",
          "name": "",
          "type": "bytes"
        }
      ],
      "name": "onERC1155BatchReceived",
      "outputs": [
        {
          "internalType": "bytes4",
          "name": "",
          "type": "bytes4"
        }
      ],
      "stateMutability": "nonpayable",
      "type": "function"
    },
    {
      "inputs": [
        {
          "internalType": "address",
          "name": "",
          "type": "address"
        },
        {
          "internalType": "address",
          "name": "",
          "type": "address"
        },
        {
          "internalType": "uint256",
          "name": "",
          "type": "uint256"
        },
        {
          "internalType": "uint256",
          "name": "",
          "type": "uint256"
        },
        {
          "internalType": "bytes",
          "name": "",
          "type": "bytes"
        }
      ],
      "name": "onERC1155Received",
      "outputs": [
        {
          "internalType": "bytes4",
          "name": "",
          "type": "bytes4"
        }
      ],
      "stateMutability": "nonpayable",
      "type": "function"
    },
    {
      "inputs": [
        {
          "internalType": "address",
          "name": "receiver",
          "type": "address"
        }
      ],
      "name": "revertNft",
      "outputs": [
        {
          "internalType": "bool",
          "name": "",
          "type": "bool"
        }
      ],
      "stateMutability": "nonpayable",
      "type": "function"
    },
    {
      "inputs": [
        {
          "internalType": "bytes4",
          "name": "interfaceId",
          "type": "bytes4"
        }
      ],
      "name": "supportsInterface",
      "outputs": [
        {
          "internalType": "bool",
          "name": "",
          "type": "bool"
        }
      ],
      "stateMutability": "view",
      "type": "function"
    },
    {
      "inputs": [
        {
          "internalType": "address",
          "name": "userAddress",
          "type": "address"
        },
        {
          "internalType": "uint256",
          "name": "amount",
          "type": "uint256"
        }
      ],
      "name": "transferFromEscrowtoUser",
      "outputs": [
        {
          "internalType": "bool",
          "name": "",
          "type": "bool"
        }
      ],
      "stateMutability": "nonpayable",
      "type": "function"
    },
    {
      "inputs": [
        {
          "internalType": "address",
          "name": "userAddress",
          "type": "address"
        }
      ],
      "name": "transferNftFromEscrowtoUser",
      "outputs": [
        {
          "internalType": "bool",
          "name": "",
          "type": "bool"
        }
      ],
      "stateMutability": "nonpayable",
      "type": "function"
    }
  ],
  "bytecode": "0x60806040523480156200001157600080fd5b50604051620014e1380380620014e18339818101604052810190620000379190620003cb565b826000806101000a81548173ffffffffffffffffffffffffffffffffffffffff021916908373ffffffffffffffffffffffffffffffffffffffff1602179055508160028190555080600160006101000a81548173ffffffffffffffffffffffffffffffffffffffff021916908373ffffffffffffffffffffffffffffffffffffffff1602179055506000600160009054906101000a900473ffffffffffffffffffffffffffffffffffffffff1673ffffffffffffffffffffffffffffffffffffffff166370a08231306040518263ffffffff1660e01b81526004016200011e919062000438565b602060405180830381865afa1580156200013c573d6000803e3d6000fd5b505050506040513d601f19601f8201168201806040525081019062000162919062000455565b14620001a5576040517f08c379a00000000000000000000000000000000000000000000000000000000081526004016200019c90620004e8565b60405180910390fd5b60008060009054906101000a900473ffffffffffffffffffffffffffffffffffffffff1673ffffffffffffffffffffffffffffffffffffffff1662fdd58e30856040518363ffffffff1660e01b8152600401620002049291906200051b565b602060405180830381865afa15801562000222573d6000803e3d6000fd5b505050506040513d601f19601f8201168201806040525081019062000248919062000455565b146200028b576040517f08c379a0000000000000000000000000000000000000000000000000000000008152600401620002829062000598565b60405180910390fd5b60008054906101000a900473ffffffffffffffffffffffffffffffffffffffff1673ffffffffffffffffffffffffffffffffffffffff1663a22cb4653360016040518363ffffffff1660e01b8152600401620002e9929190620005d7565b600060405180830381600087803b1580156200030457600080fd5b505af115801562000319573d6000803e3d6000fd5b5050505050505062000604565b600080fd5b600073ffffffffffffffffffffffffffffffffffffffff82169050919050565b600062000358826200032b565b9050919050565b6200036a816200034b565b81146200037657600080fd5b50565b6000815190506200038a816200035f565b92915050565b6000819050919050565b620003a58162000390565b8114620003b157600080fd5b50565b600081519050620003c5816200039a565b92915050565b600080600060608486031215620003e757620003e662000326565b5b6000620003f78682870162000379565b93505060206200040a86828701620003b4565b92505060406200041d8682870162000379565b9150509250925092565b62000432816200034b565b82525050565b60006020820190506200044f600083018462000427565b92915050565b6000602082840312156200046e576200046d62000326565b5b60006200047e84828501620003b4565b91505092915050565b600082825260208201905092915050565b7f496e76616c696420455243323020436f6e747261637420616464726573730000600082015250565b6000620004d0601e8362000487565b9150620004dd8262000498565b602082019050919050565b600060208201905081810360008301526200050381620004c1565b9050919050565b620005158162000390565b82525050565b600060408201905062000532600083018562000427565b6200054160208301846200050a565b9392505050565b7f496e76616c6964204e465420436f6e7472616374000000000000000000000000600082015250565b60006200058060148362000487565b91506200058d8262000548565b602082019050919050565b60006020820190508181036000830152620005b38162000571565b9050919050565b60008115159050919050565b620005d181620005ba565b82525050565b6000604082019050620005ee600083018562000427565b620005fd6020830184620005c6565b9392505050565b610ecd80620006146000396000f3fe608060405234801561001057600080fd5b50600436106100625760003560e01c806301ffc9a7146100675780638f04a18f14610097578063bc197c81146100c7578063ceff9468146100f7578063d580408a14610127578063f23a6e6114610157575b600080fd5b610081600480360381019061007c919061071e565b610187565b60405161008e9190610766565b60405180910390f35b6100b160048036038101906100ac91906107df565b610201565b6040516100be9190610766565b60405180910390f35b6100e160048036038101906100dc9190610a50565b61037f565b6040516100ee9190610b2e565b60405180910390f35b610111600480360381019061010c91906107df565b610394565b60405161011e9190610766565b60405180910390f35b610141600480360381019061013c9190610b49565b61046f565b60405161014e9190610766565b60405180910390f35b610171600480360381019061016c9190610b89565b610633565b60405161017e9190610b2e565b60405180910390f35b60007f4e2312e0000000000000000000000000000000000000000000000000000000007bffffffffffffffffffffffffffffffffffffffffffffffffffffffff1916827bffffffffffffffffffffffffffffffffffffffffffffffffffffffff191614806101fa57506101f982610648565b5b9050919050565b60008060008054906101000a900473ffffffffffffffffffffffffffffffffffffffff1673ffffffffffffffffffffffffffffffffffffffff1662fdd58e306002546040518363ffffffff1660e01b8152600401610260929190610c3e565b602060405180830381865afa15801561027d573d6000803e3d6000fd5b505050506040513d601f19601f820116820180604052508101906102a19190610c7c565b1061033b5760008054906101000a900473ffffffffffffffffffffffffffffffffffffffff1673ffffffffffffffffffffffffffffffffffffffff1663f242432a308460025460016040518563ffffffff1660e01b81526004016103089493929190610d25565b600060405180830381600087803b15801561032257600080fd5b505af1158015610336573d6000803e3d6000fd5b505050505b7fe2d73ae83743672762e50ba9d1f270913a16bc698d3887fac465b25009bf64676002548360405161036e929190610d7d565b60405180910390a160019050919050565b600063bc197c8160e01b905095945050505050565b60008060009054906101000a900473ffffffffffffffffffffffffffffffffffffffff1673ffffffffffffffffffffffffffffffffffffffff1663f242432a308460025460016040518563ffffffff1660e01b81526004016103f99493929190610d25565b600060405180830381600087803b15801561041357600080fd5b505af1158015610427573d6000803e3d6000fd5b505050507fe2d73ae83743672762e50ba9d1f270913a16bc698d3887fac465b25009bf64676002548360405161045e929190610d7d565b60405180910390a160019050919050565b600081600160009054906101000a900473ffffffffffffffffffffffffffffffffffffffff1673ffffffffffffffffffffffffffffffffffffffff166370a08231306040518263ffffffff1660e01b81526004016104cd9190610da6565b602060405180830381865afa1580156104ea573d6000803e3d6000fd5b505050506040513d601f19601f8201168201806040525081019061050e9190610c7c565b101561054f576040517f08c379a000000000000000000000000000000000000000000000000000000000815260040161054690610e1e565b60405180910390fd5b600160009054906101000a900473ffffffffffffffffffffffffffffffffffffffff1673ffffffffffffffffffffffffffffffffffffffff1663a9059cbb84846040518363ffffffff1660e01b81526004016105ac929190610c3e565b6020604051808303816000875af11580156105cb573d6000803e3d6000fd5b505050506040513d601f19601f820116820180604052508101906105ef9190610e6a565b507f5c1ba46fd05d3bb0363a63330a5f560f2014f27d055a39108694f295973ae2038284604051610621929190610d7d565b60405180910390a16001905092915050565b600063f23a6e6160e01b905095945050505050565b60007f01ffc9a7000000000000000000000000000000000000000000000000000000007bffffffffffffffffffffffffffffffffffffffffffffffffffffffff1916827bffffffffffffffffffffffffffffffffffffffffffffffffffffffff1916149050919050565b6000604051905090565b600080fd5b600080fd5b60007fffffffff0000000000000000000000000000000000000000000000000000000082169050919050565b6106fb816106c6565b811461070657600080fd5b50565b600081359050610718816106f2565b92915050565b600060208284031215610734576107336106bc565b5b600061074284828501610709565b91505092915050565b60008115159050919050565b6107608161074b565b82525050565b600060208201905061077b6000830184610757565b92915050565b600073ffffffffffffffffffffffffffffffffffffffff82169050919050565b60006107ac82610781565b9050919050565b6107bc816107a1565b81146107c757600080fd5b50565b6000813590506107d9816107b3565b92915050565b6000602082840312156107f5576107f46106bc565b5b6000610803848285016107ca565b91505092915050565b600080fd5b6000601f19601f8301169050919050565b7f4e487b7100000000000000000000000000000000000000000000000000000000600052604160045260246000fd5b61085a82610811565b810181811067ffffffffffffffff8211171561087957610878610822565b5b80604052505050565b600061088c6106b2565b90506108988282610851565b919050565b600067ffffffffffffffff8211156108b8576108b7610822565b5b602082029050602081019050919050565b600080fd5b6000819050919050565b6108e1816108ce565b81146108ec57600080fd5b50565b6000813590506108fe816108d8565b92915050565b60006109176109128461089d565b610882565b9050808382526020820190506020840283018581111561093a576109396108c9565b5b835b81811015610963578061094f88826108ef565b84526020840193505060208101905061093c565b5050509392505050565b600082601f8301126109825761098161080c565b5b8135610992848260208601610904565b91505092915050565b600080fd5b600067ffffffffffffffff8211156109bb576109ba610822565b5b6109c482610811565b9050602081019050919050565b82818337600083830152505050565b60006109f36109ee846109a0565b610882565b905082815260208101848484011115610a0f57610a0e61099b565b5b610a1a8482856109d1565b509392505050565b600082601f830112610a3757610a3661080c565b5b8135610a478482602086016109e0565b91505092915050565b600080600080600060a08688031215610a6c57610a6b6106bc565b5b6000610a7a888289016107ca565b9550506020610a8b888289016107ca565b945050604086013567ffffffffffffffff811115610aac57610aab6106c1565b5b610ab88882890161096d565b935050606086013567ffffffffffffffff811115610ad957610ad86106c1565b5b610ae58882890161096d565b925050608086013567ffffffffffffffff811115610b0657610b056106c1565b5b610b1288828901610a22565b9150509295509295909350565b610b28816106c6565b82525050565b6000602082019050610b436000830184610b1f565b92915050565b60008060408385031215610b6057610b5f6106bc565b5b6000610b6e858286016107ca565b9250506020610b7f858286016108ef565b9150509250929050565b600080600080600060a08688031215610ba557610ba46106bc565b5b6000610bb3888289016107ca565b9550506020610bc4888289016107ca565b9450506040610bd5888289016108ef565b9350506060610be6888289016108ef565b925050608086013567ffffffffffffffff811115610c0757610c066106c1565b5b610c1388828901610a22565b9150509295509295909350565b610c29816107a1565b82525050565b610c38816108ce565b82525050565b6000604082019050610c536000830185610c20565b610c606020830184610c2f565b9392505050565b600081519050610c76816108d8565b92915050565b600060208284031215610c9257610c916106bc565b5b6000610ca084828501610c67565b91505092915050565b6000819050919050565b6000819050919050565b6000610cd8610cd3610cce84610ca9565b610cb3565b6108ce565b9050919050565b610ce881610cbd565b82525050565b600082825260208201905092915050565b50565b6000610d0f600083610cee565b9150610d1a82610cff565b600082019050919050565b600060a082019050610d3a6000830187610c20565b610d476020830186610c20565b610d546040830185610c2f565b610d616060830184610cdf565b8181036080830152610d7281610d02565b905095945050505050565b6000604082019050610d926000830185610c2f565b610d9f6020830184610c20565b9392505050565b6000602082019050610dbb6000830184610c20565b92915050565b600082825260208201905092915050565b7f496e73756666696369656e7420534e4320746f6b656e73000000000000000000600082015250565b6000610e08601783610dc1565b9150610e1382610dd2565b602082019050919050565b60006020820190508181036000830152610e3781610dfb565b9050919050565b610e478161074b565b8114610e5257600080fd5b50565b600081519050610e6481610e3e565b92915050565b600060208284031215610e8057610e7f6106bc565b5b6000610e8e84828501610e55565b9150509291505056fea26469706673582212204399c38cec8fc40e45995ab7903250909710107bfef3b5243a41ef9947a9fc5f64736f6c63430008120033",
  "linkReferences": {},
  "deployedLinkReferences": {}
}