{"contracts/offer.sol":{"Offer":{"abi":[{"inputs":[{"internalType":"address","name":"sncAddress","type":"address"},{"internalType":"address","name":"nftAddress","type":"address"},{"internalType":"address","name":"_changeFee","type":"address"},{"internalType":"uint256","name":"buyerFee","type":"uint256"},{"internalType":"uint256","name":"sellerFee","type":"uint256"}],"stateMutability":"nonpayable","type":"constructor"},{"anonymous":false,"inputs":[{"indexed":true,"internalType":"address","name":"oldOwner","type":"address"},{"indexed":true,"internalType":"address","name":"newOwner","type":"address"}],"name":"OwnerSet","type":"event"},{"anonymous":false,"inputs":[{"indexed":false,"internalType":"uint256","name":"offerId","type":"uint256"},{"indexed":false,"internalType":"address","name":"buyer","type":"address"},{"indexed":false,"internalType":"uint256","name":"price","type":"uint256"}],"name":"acceptedOffer","type":"event"},{"anonymous":false,"inputs":[{"indexed":false,"internalType":"uint256","name":"offerId","type":"uint256"},{"indexed":false,"internalType":"address","name":"buyer","type":"address"},{"indexed":false,"internalType":"string","name":"cancelType","type":"string"}],"name":"cancelOffer","type":"event"},{"anonymous":false,"inputs":[{"indexed":false,"internalType":"uint256","name":"newFee","type":"uint256"},{"indexed":false,"internalType":"string","name":"_type","type":"string"}],"name":"changeFee","type":"event"},{"anonymous":false,"inputs":[{"indexed":false,"internalType":"address","name":"buyer","type":"address"},{"indexed":false,"internalType":"uint256","name":"amount","type":"uint256"},{"indexed":false,"internalType":"uint256","name":"duration","type":"uint256"},{"indexed":false,"internalType":"uint256","name":"tokenId","type":"uint256"}],"name":"newOffer","type":"event"},{"inputs":[],"name":"BUYER_FEE_PERCENT","outputs":[{"internalType":"uint256","name":"","type":"uint256"}],"stateMutability":"view","type":"function"},{"inputs":[],"name":"CHANGE_FEE","outputs":[{"internalType":"address","name":"","type":"address"}],"stateMutability":"view","type":"function"},{"inputs":[],"name":"NFT_ADDRESS","outputs":[{"internalType":"address","name":"","type":"address"}],"stateMutability":"view","type":"function"},{"inputs":[{"internalType":"uint256","name":"","type":"uint256"},{"internalType":"uint256","name":"","type":"uint256"}],"name":"NFT_OFFERS","outputs":[{"internalType":"uint256","name":"offerId","type":"uint256"},{"internalType":"uint256","name":"price","type":"uint256"},{"internalType":"uint256","name":"tokenId","type":"uint256"},{"internalType":"uint256","name":"duration","type":"uint256"},{"internalType":"address","name":"buyer","type":"address"},{"internalType":"address","name":"seller","type":"address"},{"internalType":"address","name":"escrow","type":"address"}],"stateMutability":"view","type":"function"},{"inputs":[{"internalType":"uint256","name":"","type":"uint256"}],"name":"NFT_OFFER_COMPLETED","outputs":[{"internalType":"bool","name":"","type":"bool"}],"stateMutability":"view","type":"function"},{"inputs":[],"name":"SELLER_FEE_PERCENT","outputs":[{"internalType":"uint256","name":"","type":"uint256"}],"stateMutability":"view","type":"function"},{"inputs":[],"name":"SNC_ADDRESS","outputs":[{"internalType":"address","name":"","type":"address"}],"stateMutability":"view","type":"function"},{"inputs":[{"internalType":"uint256","name":"tokenId","type":"uint256"},{"internalType":"uint256","name":"offerId","type":"uint256"},{"internalType":"address","name":"seller","type":"address"},{"internalType":"bool","name":"forceReject","type":"bool"}],"name":"acceptOffer","outputs":[{"internalType":"bool","name":"","type":"bool"}],"stateMutability":"nonpayable","type":"function"},{"inputs":[{"internalType":"address","name":"buyer","type":"address"},{"internalType":"uint256","name":"tokenId","type":"uint256"}],"name":"cancelOfferBuyer","outputs":[{"internalType":"bool","name":"","type":"bool"}],"stateMutability":"nonpayable","type":"function"},{"inputs":[{"internalType":"uint256","name":"tokenId","type":"uint256"},{"internalType":"uint256","name":"offerId","type":"uint256"},{"internalType":"address","name":"seller","type":"address"}],"name":"cancelOfferSeller","outputs":[{"internalType":"bool","name":"","type":"bool"}],"stateMutability":"nonpayable","type":"function"},{"inputs":[{"internalType":"address","name":"newOwner","type":"address"}],"name":"changeOwner","outputs":[],"stateMutability":"nonpayable","type":"function"},{"inputs":[{"internalType":"address","name":"buyer","type":"address"},{"internalType":"uint256","name":"tokenId","type":"uint256"}],"name":"checkIfOfferMade","outputs":[{"internalType":"bool","name":"","type":"bool"},{"internalType":"uint256","name":"","type":"uint256"}],"stateMutability":"view","type":"function"},{"inputs":[],"name":"getOwner","outputs":[{"internalType":"address","name":"","type":"address"}],"stateMutability":"view","type":"function"},{"inputs":[{"internalType":"uint256","name":"tokenId","type":"uint256"},{"internalType":"uint256","name":"offerPrice","type":"uint256"},{"internalType":"uint256","name":"duration","type":"uint256"},{"internalType":"address","name":"buyerAddress","type":"address"},{"internalType":"address","name":"seller","type":"address"},{"internalType":"uint256","name":"buyerFee","type":"uint256"}],"name":"makeOffer","outputs":[{"internalType":"uint256","name":"","type":"uint256"}],"stateMutability":"nonpayable","type":"function"},{"inputs":[{"internalType":"uint256","name":"feePercent","type":"uint256"}],"name":"setBuyerFee","outputs":[{"internalType":"bool","name":"","type":"bool"}],"stateMutability":"nonpayable","type":"function"},{"inputs":[{"internalType":"uint256","name":"feePercent","type":"uint256"}],"name":"setSellerFee","outputs":[{"internalType":"bool","name":"","type":"bool"}],"stateMutability":"nonpayable","type":"function"},{"inputs":[{"internalType":"uint256","name":"tokenId","type":"uint256"}],"name":"viewAllOffer","outputs":[{"components":[{"internalType":"uint256","name":"offerId","type":"uint256"},{"internalType":"uint256","name":"price","type":"uint256"},{"internalType":"uint256","name":"tokenId","type":"uint256"},{"internalType":"uint256","name":"duration","type":"uint256"},{"internalType":"address","name":"buyer","type":"address"},{"internalType":"address","name":"seller","type":"address"},{"internalType":"address","name":"escrow","type":"address"}],"internalType":"struct Offer.offer[]","name":"","type":"tuple[]"}],"stateMutability":"view","type":"function"}],"evm":{"bytecode":{"linkReferences":{},"object":"60806040523480156200001157600080fd5b506040516200575d3803806200575d833981810160405281019062000037919062000503565b336000806101000a81548173ffffffffffffffffffffffffffffffffffffffff021916908373ffffffffffffffffffffffffffffffffffffffff16021790555060008054906101000a900473ffffffffffffffffffffffffffffffffffffffff1673ffffffffffffffffffffffffffffffffffffffff16600073ffffffffffffffffffffffffffffffffffffffff167f342827c97908e5e2f71151c08502a66d44b6f758e3ac2f1de95f02eb95f0a73560405160405180910390a384600660006101000a81548173ffffffffffffffffffffffffffffffffffffffff021916908373ffffffffffffffffffffffffffffffffffffffff16021790555083600760006101000a81548173ffffffffffffffffffffffffffffffffffffffff021916908373ffffffffffffffffffffffffffffffffffffffff16021790555082600360006101000a81548173ffffffffffffffffffffffffffffffffffffffff021916908373ffffffffffffffffffffffffffffffffffffffff16021790555084600160006101000a81548173ffffffffffffffffffffffffffffffffffffffff021916908373ffffffffffffffffffffffffffffffffffffffff16021790555083600260006101000a81548173ffffffffffffffffffffffffffffffffffffffff021916908373ffffffffffffffffffffffffffffffffffffffff1602179055508160058190555080600481905550336000806101000a81548173ffffffffffffffffffffffffffffffffffffffff021916908373ffffffffffffffffffffffffffffffffffffffff1602179055506000600660009054906101000a900473ffffffffffffffffffffffffffffffffffffffff1673ffffffffffffffffffffffffffffffffffffffff166370a08231306040518263ffffffff1660e01b8152600401620002e491906200059c565b602060405180830381865afa15801562000302573d6000803e3d6000fd5b505050506040513d601f19601f82011682018060405250810190620003289190620005b9565b146200036b576040517f08c379a0000000000000000000000000000000000000000000000000000000008152600401620003629062000672565b60405180910390fd5b6000600760009054906101000a900473ffffffffffffffffffffffffffffffffffffffff1673ffffffffffffffffffffffffffffffffffffffff1662fdd58e3060006040518363ffffffff1660e01b8152600401620003cc929190620006e1565b602060405180830381865afa158015620003ea573d6000803e3d6000fd5b505050506040513d601f19601f82011682018060405250810190620004109190620005b9565b1462000453576040517f08c379a00000000000000000000000000000000000000000000000000000000081526004016200044a906200075e565b60405180910390fd5b505050505062000780565b600080fd5b600073ffffffffffffffffffffffffffffffffffffffff82169050919050565b6000620004908262000463565b9050919050565b620004a28162000483565b8114620004ae57600080fd5b50565b600081519050620004c28162000497565b92915050565b6000819050919050565b620004dd81620004c8565b8114620004e957600080fd5b50565b600081519050620004fd81620004d2565b92915050565b600080600080600060a086880312156200052257620005216200045e565b5b60006200053288828901620004b1565b95505060206200054588828901620004b1565b94505060406200055888828901620004b1565b93505060606200056b88828901620004ec565b92505060806200057e88828901620004ec565b9150509295509295909350565b620005968162000483565b82525050565b6000602082019050620005b360008301846200058b565b92915050565b600060208284031215620005d257620005d16200045e565b5b6000620005e284828501620004ec565b91505092915050565b600082825260208201905092915050565b7f496e76616c696420455243323020534e4320436f6e747261637420616464726560008201527f7373000000000000000000000000000000000000000000000000000000000000602082015250565b60006200065a602283620005eb565b91506200066782620005fc565b604082019050919050565b600060208201905081810360008301526200068d816200064b565b9050919050565b6000819050919050565b6000819050919050565b6000620006c9620006c3620006bd8462000694565b6200069e565b620004c8565b9050919050565b620006db81620006a8565b82525050565b6000604082019050620006f860008301856200058b565b620007076020830184620006d0565b9392505050565b7f496e76616c6964204e465420436f6e7472616374000000000000000000000000600082015250565b600062000746601483620005eb565b915062000753826200070e565b602082019050919050565b60006020820190508181036000830152620007798162000737565b9050919050565b614fcd80620007906000396000f3fe60806040523480156200001157600080fd5b5060043610620001245760003560e01c80637142bb8d11620000b1578063a6f9dae1116200007b578063a6f9dae11462000368578063b32c5c451462000388578063bfa5d42d14620003aa578063cf0a808514620003e0578063fa7da19d14620004025762000124565b80637142bb8d14620002cc5780637ec775ed1462000302578063893d20e814620003245780639e580dbe14620003465762000124565b80633d1f837311620000f35780633d1f837314620002025780634f663a4e146200023e57806360a8899e1462000274578063652c884314620002aa5762000124565b80630cc4b47d146200012957806315eaa5f8146200015f5780631bfee1211462000196578063217df12014620001cc575b600080fd5b6200014760048036038101906200014191906200288f565b62000438565b60405162000156919062002908565b60405180910390f35b6200017d600480360381019062000177919062002925565b62000683565b6040516200018d9291906200297d565b60405180910390f35b620001b46004803603810190620001ae9190620029aa565b62000769565b604051620001c3919062002908565b60405180910390f35b620001ea6004803603810190620001e49190620029aa565b6200088c565b604051620001f9919062002908565b60405180910390f35b6200022060048036038101906200021a9190620029dc565b620008ac565b60405162000235979695949392919062002a34565b60405180910390f35b6200025c600480360381019062000256919062002ab1565b6200096c565b6040516200026b919062002b4d565b60405180910390f35b6200029260048036038101906200028c9190620029aa565b62000e6c565b604051620002a1919062002ce5565b60405180910390f35b620002b46200100a565b604051620002c3919062002d09565b60405180910390f35b620002ea6004803603810190620002e4919062002d57565b62001030565b604051620002f9919062002908565b60405180910390f35b6200030c62001b78565b6040516200031b919062002d09565b60405180910390f35b6200032e62001b9e565b6040516200033d919062002d09565b60405180910390f35b6200035062001bc7565b6040516200035f919062002b4d565b60405180910390f35b62000386600480360381019062000380919062002dc9565b62001bcd565b005b6200039262001d1b565b604051620003a1919062002d09565b60405180910390f35b620003c86004803603810190620003c2919062002925565b62001d41565b604051620003d7919062002908565b60405180910390f35b620003ea62001df0565b604051620003f9919062002b4d565b60405180910390f35b6200042060048036038101906200041a9190620029aa565b62001df6565b6040516200042f919062002908565b60405180910390f35b60008073ffffffffffffffffffffffffffffffffffffffff1660086000868152602001908152602001600020848154811062000479576200047862002dfb565b5b906000526020600020906007020160040160009054906101000a900473ffffffffffffffffffffffffffffffffffffffff1673ffffffffffffffffffffffffffffffffffffffff160362000504576040517f08c379a0000000000000000000000000000000000000000000000000000000008152600401620004fb9062002e8b565b60405180910390fd5b8173ffffffffffffffffffffffffffffffffffffffff1660086000868152602001908152602001600020848154811062000543576200054262002dfb565b5b906000526020600020906007020160050160009054906101000a900473ffffffffffffffffffffffffffffffffffffffff1673ffffffffffffffffffffffffffffffffffffffff1614620005ce576040517f08c379a0000000000000000000000000000000000000000000000000000000008152600401620005c59062002f23565b60405180910390fd5b6000600860008681526020019081526020016000208481548110620005f857620005f762002dfb565b5b906000526020600020906007020160040160009054906101000a900473ffffffffffffffffffffffffffffffffffffffff1690506200063b858583600162001f19565b507f0d6032776afded2c5b6c20c518992c74c512297654f179ddf79620beca2248e684826040516200066f92919062002f95565b60405180910390a160019150509392505050565b60008060005b600860008581526020019081526020016000208054905081101562000759578473ffffffffffffffffffffffffffffffffffffffff16600860008681526020019081526020016000208281548110620006e757620006e662002dfb565b5b906000526020600020906007020160040160009054906101000a900473ffffffffffffffffffffffffffffffffffffffff1673ffffffffffffffffffffffffffffffffffffffff16036200074357600181925092505062000762565b8080620007509062003006565b91505062000689565b50600080915091505b9250929050565b60008060009054906101000a900473ffffffffffffffffffffffffffffffffffffffff1673ffffffffffffffffffffffffffffffffffffffff163373ffffffffffffffffffffffffffffffffffffffff1614620007fd576040517f08c379a0000000000000000000000000000000000000000000000000000000008152600401620007f490620030a3565b60405180910390fd5b6000821162000843576040517f08c379a00000000000000000000000000000000000000000000000000000000081526004016200083a9062003115565b60405180910390fd5b816004819055507fcfbf529b549d5a8851c7cb749d69134057323acbc44e369f97f3600c719f40a8826040516200087b919062003187565b60405180910390a160019050919050565b60096020528060005260406000206000915054906101000a900460ff1681565b60086020528160005260406000208181548110620008c957600080fd5b9060005260206000209060070201600091509150508060000154908060010154908060020154908060030154908060040160009054906101000a900473ffffffffffffffffffffffffffffffffffffffff16908060050160009054906101000a900473ffffffffffffffffffffffffffffffffffffffff16908060060160009054906101000a900473ffffffffffffffffffffffffffffffffffffffff16905087565b6000806200097b858962000683565b5090508015620009c2576040517f08c379a0000000000000000000000000000000000000000000000000000000008152600401620009b99062003209565b60405180910390fd5b8287620009d091906200322b565b600660009054906101000a900473ffffffffffffffffffffffffffffffffffffffff1673ffffffffffffffffffffffffffffffffffffffff166370a08231876040518263ffffffff1660e01b815260040162000a2d919062002d09565b602060405180830381865afa15801562000a4b573d6000803e3d6000fd5b505050506040513d601f19601f8201168201806040525081019062000a7191906200327d565b101562000ab5576040517f08c379a000000000000000000000000000000000000000000000000000000000815260040162000aac9062003325565b60405180910390fd5b85421062000afa576040517f08c379a000000000000000000000000000000000000000000000000000000000815260040162000af19062003397565b60405180910390fd5b6000600260009054906101000a900473ffffffffffffffffffffffffffffffffffffffff1689600160009054906101000a900473ffffffffffffffffffffffffffffffffffffffff1660405162000b5190620027dc565b62000b5f93929190620033b9565b604051809103906000f08015801562000b7c573d6000803e3d6000fd5b509050600860008a81526020019081526020016000206040518060e00160405280600860008d81526020019081526020016000208054905081526020018a81526020018b81526020018981526020018873ffffffffffffffffffffffffffffffffffffffff1681526020018773ffffffffffffffffffffffffffffffffffffffff1681526020018373ffffffffffffffffffffffffffffffffffffffff1681525090806001815401808255809150506001900390600052602060002090600702016000909190919091506000820151816000015560208201518160010155604082015181600201556060820151816003015560808201518160040160006101000a81548173ffffffffffffffffffffffffffffffffffffffff021916908373ffffffffffffffffffffffffffffffffffffffff16021790555060a08201518160050160006101000a81548173ffffffffffffffffffffffffffffffffffffffff021916908373ffffffffffffffffffffffffffffffffffffffff16021790555060c08201518160060160006101000a81548173ffffffffffffffffffffffffffffffffffffffff021916908373ffffffffffffffffffffffffffffffffffffffff1602179055505050600660009054906101000a900473ffffffffffffffffffffffffffffffffffffffff1673ffffffffffffffffffffffffffffffffffffffff166323b872dd8783878c62000d9391906200322b565b6040518463ffffffff1660e01b815260040162000db393929190620033f6565b6020604051808303816000875af115801562000dd3573d6000803e3d6000fd5b505050506040513d601f19601f8201168201806040525081019062000df991906200344a565b507f43cafc0ec23327f2412f46818bb8615ebc3eb3081d0cb3f1c60521bfebf86bf08689898c60405162000e3194939291906200347c565b60405180910390a16001600860008b81526020019081526020016000208054905062000e5e9190620034c9565b925050509695505050505050565b606060086000838152602001908152602001600020805480602002602001604051908101604052809291908181526020016000905b8282101562000fff57838290600052602060002090600702016040518060e0016040529081600082015481526020016001820154815260200160028201548152602001600382015481526020016004820160009054906101000a900473ffffffffffffffffffffffffffffffffffffffff1673ffffffffffffffffffffffffffffffffffffffff1673ffffffffffffffffffffffffffffffffffffffff1681526020016005820160009054906101000a900473ffffffffffffffffffffffffffffffffffffffff1673ffffffffffffffffffffffffffffffffffffffff1673ffffffffffffffffffffffffffffffffffffffff1681526020016006820160009054906101000a900473ffffffffffffffffffffffffffffffffffffffff1673ffffffffffffffffffffffffffffffffffffffff1673ffffffffffffffffffffffffffffffffffffffff16815250508152602001906001019062000ea1565b505050509050919050565b600160009054906101000a900473ffffffffffffffffffffffffffffffffffffffff1681565b60006009600086815260200190815260200160002060009054906101000a900460ff161562001096576040517f08c379a00000000000000000000000000000000000000000000000000000000081526004016200108d9062003554565b60405180910390fd5b600073ffffffffffffffffffffffffffffffffffffffff16600860008781526020019081526020016000208581548110620010d657620010d562002dfb565b5b906000526020600020906007020160040160009054906101000a900473ffffffffffffffffffffffffffffffffffffffff1673ffffffffffffffffffffffffffffffffffffffff160362001161576040517f08c379a0000000000000000000000000000000000000000000000000000000008152600401620011589062002e8b565b60405180910390fd5b8273ffffffffffffffffffffffffffffffffffffffff16600860008781526020019081526020016000208581548110620011a0576200119f62002dfb565b5b906000526020600020906007020160050160009054906101000a900473ffffffffffffffffffffffffffffffffffffffff1673ffffffffffffffffffffffffffffffffffffffff16146200122b576040517f08c379a0000000000000000000000000000000000000000000000000000000008152600401620012229062002f23565b60405180910390fd5b600060086000878152602001908152602001600020858154811062001255576200125462002dfb565b5b906000526020600020906007020160040160009054906101000a900473ffffffffffffffffffffffffffffffffffffffff1690506000600860008881526020019081526020016000208681548110620012b357620012b262002dfb565b5b906000526020600020906007020160060160009054906101000a900473ffffffffffffffffffffffffffffffffffffffff169050600060086000898152602001908152602001600020878154811062001311576200131062002dfb565b5b9060005260206000209060070201600101549050600081600660009054906101000a900473ffffffffffffffffffffffffffffffffffffffff1673ffffffffffffffffffffffffffffffffffffffff166370a08231856040518263ffffffff1660e01b815260040162001385919062002d09565b602060405180830381865afa158015620013a3573d6000803e3d6000fd5b505050506040513d601f19601f82011682018060405250810190620013c991906200327d565b620013d59190620034c9565b9050600061271060045484620013ec919062003576565b620013f89190620035f0565b90508083620014089190620034c9565b925081836200141891906200322b565b600660009054906101000a900473ffffffffffffffffffffffffffffffffffffffff1673ffffffffffffffffffffffffffffffffffffffff166370a08231866040518263ffffffff1660e01b815260040162001475919062002d09565b602060405180830381865afa15801562001493573d6000803e3d6000fd5b505050506040513d601f19601f82011682018060405250810190620014b991906200327d565b1015620014fd576040517f08c379a0000000000000000000000000000000000000000000000000000000008152600401620014f4906200369e565b60405180910390fd5b6200150c8a8a87600062001f19565b50600760009054906101000a900473ffffffffffffffffffffffffffffffffffffffff1673ffffffffffffffffffffffffffffffffffffffff1663f242432a89868d60016040518563ffffffff1660e01b815260040162001571949392919062003748565b600060405180830381600087803b1580156200158c57600080fd5b505af1158015620015a1573d6000803e3d6000fd5b505050508373ffffffffffffffffffffffffffffffffffffffff1663ceff9468866040518263ffffffff1660e01b8152600401620015e0919062002d09565b6020604051808303816000875af115801562001600573d6000803e3d6000fd5b505050506040513d601f19601f820116820180604052508101906200162691906200344a565b507facf2539a66a8b6c88e83f5bff8bf90d5cd86386709023449efd0190dfdd1514c8986856040516200165c93929190620037aa565b60405180910390a18373ffffffffffffffffffffffffffffffffffffffff1663d580408a89856040518363ffffffff1660e01b8152600401620016a1929190620037e7565b6020604051808303816000875af1158015620016c1573d6000803e3d6000fd5b505050506040513d601f19601f82011682018060405250810190620016e791906200344a565b508373ffffffffffffffffffffffffffffffffffffffff1663d580408a600360009054906101000a900473ffffffffffffffffffffffffffffffffffffffff16846040518363ffffffff1660e01b815260040162001747929190620037e7565b6020604051808303816000875af115801562001767573d6000803e3d6000fd5b505050506040513d601f19601f820116820180604052508101906200178d91906200344a565b508373ffffffffffffffffffffffffffffffffffffffff1663d580408a600360009054906101000a900473ffffffffffffffffffffffffffffffffffffffff16836040518363ffffffff1660e01b8152600401620017ed929190620037e7565b6020604051808303816000875af11580156200180d573d6000803e3d6000fd5b505050506040513d601f19601f820116820180604052508101906200183391906200344a565b508680156200185857506000600860008c815260200190815260200160002080549050115b1562001ae7576000600860008c815260200190815260200160002080549050905060008167ffffffffffffffff81111562001898576200189762003814565b5b604051908082528060200260200182016040528015620018c75781602001602082028036833780820191505090505b50905060008267ffffffffffffffff811115620018e957620018e862003814565b5b604051908082528060200260200182016040528015620019185781602001602082028036833780820191505090505b50905060005b8381101562001a4357600860008f815260200190815260200160002081815481106200194f576200194e62002dfb565b5b906000526020600020906007020160040160009054906101000a900473ffffffffffffffffffffffffffffffffffffffff1683828151811062001997576200199662002dfb565b5b602002602001019073ffffffffffffffffffffffffffffffffffffffff16908173ffffffffffffffffffffffffffffffffffffffff1681525050600860008f81526020019081526020016000208181548110620019f957620019f862002dfb565b5b90600052602060002090600702016000015482828151811062001a215762001a2062002dfb565b5b602002602001018181525050808062001a3a9062003006565b9150506200191e565b5060005b825181101562001ab15762001a9a8e83838151811062001a6c5762001a6b62002dfb565b5b602002602001015185848151811062001a8a5762001a8962002dfb565b5b6020026020010151600162001f19565b50808062001aa89062003006565b91505062001a47565b506000600960008f815260200190815260200160002060006101000a81548160ff02191690831515021790555050505062001b67565b6000600860008c815260200190815260200160002080549050111562001b39576001600960008c815260200190815260200160002060006101000a81548160ff02191690831515021790555062001b66565b6001600960008c815260200190815260200160002060006101000a81548160ff0219169083151502179055505b5b600195505050505050949350505050565b600360009054906101000a900473ffffffffffffffffffffffffffffffffffffffff1681565b60008060009054906101000a900473ffffffffffffffffffffffffffffffffffffffff16905090565b60055481565b60008054906101000a900473ffffffffffffffffffffffffffffffffffffffff1673ffffffffffffffffffffffffffffffffffffffff163373ffffffffffffffffffffffffffffffffffffffff161462001c5e576040517f08c379a000000000000000000000000000000000000000000000000000000000815260040162001c5590620030a3565b60405180910390fd5b8073ffffffffffffffffffffffffffffffffffffffff1660008054906101000a900473ffffffffffffffffffffffffffffffffffffffff1673ffffffffffffffffffffffffffffffffffffffff167f342827c97908e5e2f71151c08502a66d44b6f758e3ac2f1de95f02eb95f0a73560405160405180910390a3806000806101000a81548173ffffffffffffffffffffffffffffffffffffffff021916908373ffffffffffffffffffffffffffffffffffffffff16021790555050565b600260009054906101000a900473ffffffffffffffffffffffffffffffffffffffff1681565b600080600062001d52858562000683565b915091508162001d99576040517f08c379a000000000000000000000000000000000000000000000000000000000815260040162001d9090620038b9565b60405180910390fd5b62001da8848287600162001f19565b507f0d6032776afded2c5b6c20c518992c74c512297654f179ddf79620beca2248e6818660405162001ddc9291906200392b565b60405180910390a160019250505092915050565b60045481565b60008060009054906101000a900473ffffffffffffffffffffffffffffffffffffffff1673ffffffffffffffffffffffffffffffffffffffff163373ffffffffffffffffffffffffffffffffffffffff161462001e8a576040517f08c379a000000000000000000000000000000000000000000000000000000000815260040162001e8190620030a3565b60405180910390fd5b6000821162001ed0576040517f08c379a000000000000000000000000000000000000000000000000000000000815260040162001ec79062003115565b60405180910390fd5b816005819055507fcfbf529b549d5a8851c7cb749d69134057323acbc44e369f97f3600c719f40a88260405162001f089190620039bd565b60405180910390a160019050919050565b60008273ffffffffffffffffffffffffffffffffffffffff1660086000878152602001908152602001600020858154811062001f5a5762001f5962002dfb565b5b906000526020600020906007020160040160009054906101000a900473ffffffffffffffffffffffffffffffffffffffff1673ffffffffffffffffffffffffffffffffffffffff161462001fe5576040517f08c379a000000000000000000000000000000000000000000000000000000000815260040162001fdc9062003a65565b60405180910390fd5b60006008600087815260200190815260200160002085815481106200200f576200200e62002dfb565b5b906000526020600020906007020160060160009054906101000a900473ffffffffffffffffffffffffffffffffffffffff16905060006008600088815260200190815260200160002086815481106200206d576200206c62002dfb565b5b906000526020600020906007020160010154600660009054906101000a900473ffffffffffffffffffffffffffffffffffffffff1673ffffffffffffffffffffffffffffffffffffffff166370a08231846040518263ffffffff1660e01b8152600401620020dc919062002d09565b602060405180830381865afa158015620020fa573d6000803e3d6000fd5b505050506040513d601f19601f820116820180604052508101906200212091906200327d565b6200212c9190620034c9565b90506040518060e00160405280878152602001600081526020016000815260200160008152602001600073ffffffffffffffffffffffffffffffffffffffff168152602001600073ffffffffffffffffffffffffffffffffffffffff168152602001600073ffffffffffffffffffffffffffffffffffffffff16815250600860008981526020019081526020016000208781548110620021d157620021d062002dfb565b5b90600052602060002090600702016000820151816000015560208201518160010155604082015181600201556060820151816003015560808201518160040160006101000a81548173ffffffffffffffffffffffffffffffffffffffff021916908373ffffffffffffffffffffffffffffffffffffffff16021790555060a08201518160050160006101000a81548173ffffffffffffffffffffffffffffffffffffffff021916908373ffffffffffffffffffffffffffffffffffffffff16021790555060c08201518160060160006101000a81548173ffffffffffffffffffffffffffffffffffffffff021916908373ffffffffffffffffffffffffffffffffffffffff160217905550905050600860008881526020019081526020016000206001600860008a815260200190815260200160002080549050620023179190620034c9565b815481106200232b576200232a62002dfb565b5b906000526020600020906007020160086000898152602001908152602001600020878154811062002361576200236062002dfb565b5b9060005260206000209060070201600082015481600001556001820154816001015560028201548160020155600382015481600301556004820160009054906101000a900473ffffffffffffffffffffffffffffffffffffffff168160040160006101000a81548173ffffffffffffffffffffffffffffffffffffffff021916908373ffffffffffffffffffffffffffffffffffffffff1602179055506005820160009054906101000a900473ffffffffffffffffffffffffffffffffffffffff168160050160006101000a81548173ffffffffffffffffffffffffffffffffffffffff021916908373ffffffffffffffffffffffffffffffffffffffff1602179055506006820160009054906101000a900473ffffffffffffffffffffffffffffffffffffffff168160060160006101000a81548173ffffffffffffffffffffffffffffffffffffffff021916908373ffffffffffffffffffffffffffffffffffffffff16021790555090505060086000888152602001908152602001600020805480620024f557620024f462003a87565b5b60019003818190600052602060002090600702016000808201600090556001820160009055600282016000905560038201600090556004820160006101000a81549073ffffffffffffffffffffffffffffffffffffffff02191690556005820160006101000a81549073ffffffffffffffffffffffffffffffffffffffff02191690556006820160006101000a81549073ffffffffffffffffffffffffffffffffffffffff0219169055505090556000600860008981526020019081526020016000208054905003620025ef5760006009600089815260200190815260200160002060006101000a81548160ff0219169083151502179055505b8315620027ce578173ffffffffffffffffffffffffffffffffffffffff1663d580408a8683600660009054906101000a900473ffffffffffffffffffffffffffffffffffffffff1673ffffffffffffffffffffffffffffffffffffffff166370a08231876040518263ffffffff1660e01b815260040162002671919062002d09565b602060405180830381865afa1580156200268f573d6000803e3d6000fd5b505050506040513d601f19601f82011682018060405250810190620026b591906200327d565b620026c19190620034c9565b6040518363ffffffff1660e01b8152600401620026e0929190620037e7565b6020604051808303816000875af115801562002700573d6000803e3d6000fd5b505050506040513d601f19601f820116820180604052508101906200272691906200344a565b508173ffffffffffffffffffffffffffffffffffffffff1663d580408a600360009054906101000a900473ffffffffffffffffffffffffffffffffffffffff16836040518363ffffffff1660e01b815260040162002786929190620037e7565b6020604051808303816000875af1158015620027a6573d6000803e3d6000fd5b505050506040513d601f19601f82011682018060405250810190620027cc91906200344a565b505b600192505050949350505050565b6114e18062003ab783390190565b600080fd5b6000819050919050565b6200280481620027ef565b81146200281057600080fd5b50565b6000813590506200282481620027f9565b92915050565b600073ffffffffffffffffffffffffffffffffffffffff82169050919050565b600062002857826200282a565b9050919050565b62002869816200284a565b81146200287557600080fd5b50565b60008135905062002889816200285e565b92915050565b600080600060608486031215620028ab57620028aa620027ea565b5b6000620028bb8682870162002813565b9350506020620028ce8682870162002813565b9250506040620028e18682870162002878565b9150509250925092565b60008115159050919050565b6200290281620028eb565b82525050565b60006020820190506200291f6000830184620028f7565b92915050565b600080604083850312156200293f576200293e620027ea565b5b60006200294f8582860162002878565b9250506020620029628582860162002813565b9150509250929050565b6200297781620027ef565b82525050565b6000604082019050620029946000830185620028f7565b620029a360208301846200296c565b9392505050565b600060208284031215620029c357620029c2620027ea565b5b6000620029d38482850162002813565b91505092915050565b60008060408385031215620029f657620029f5620027ea565b5b600062002a068582860162002813565b925050602062002a198582860162002813565b9150509250929050565b62002a2e816200284a565b82525050565b600060e08201905062002a4b600083018a6200296c565b62002a5a60208301896200296c565b62002a6960408301886200296c565b62002a7860608301876200296c565b62002a87608083018662002a23565b62002a9660a083018562002a23565b62002aa560c083018462002a23565b98975050505050505050565b60008060008060008060c0878903121562002ad15762002ad0620027ea565b5b600062002ae189828a0162002813565b965050602062002af489828a0162002813565b955050604062002b0789828a0162002813565b945050606062002b1a89828a0162002878565b935050608062002b2d89828a0162002878565b92505060a062002b4089828a0162002813565b9150509295509295509295565b600060208201905062002b6460008301846200296c565b92915050565b600081519050919050565b600082825260208201905092915050565b6000819050602082019050919050565b62002ba181620027ef565b82525050565b62002bb2816200284a565b82525050565b60e08201600082015162002bd0600085018262002b96565b50602082015162002be5602085018262002b96565b50604082015162002bfa604085018262002b96565b50606082015162002c0f606085018262002b96565b50608082015162002c24608085018262002ba7565b5060a082015162002c3960a085018262002ba7565b5060c082015162002c4e60c085018262002ba7565b50505050565b600062002c62838362002bb8565b60e08301905092915050565b6000602082019050919050565b600062002c888262002b6a565b62002c94818562002b75565b935062002ca18362002b86565b8060005b8381101562002cd857815162002cbc888262002c54565b975062002cc98362002c6e565b92505060018101905062002ca5565b5085935050505092915050565b6000602082019050818103600083015262002d01818462002c7b565b905092915050565b600060208201905062002d20600083018462002a23565b92915050565b62002d3181620028eb565b811462002d3d57600080fd5b50565b60008135905062002d518162002d26565b92915050565b6000806000806080858703121562002d745762002d73620027ea565b5b600062002d848782880162002813565b945050602062002d978782880162002813565b935050604062002daa8782880162002878565b925050606062002dbd8782880162002d40565b91505092959194509250565b60006020828403121562002de25762002de1620027ea565b5b600062002df28482850162002878565b91505092915050565b7f4e487b7100000000000000000000000000000000000000000000000000000000600052603260045260246000fd5b600082825260208201905092915050565b7f54686973206f6666657220646f6573206e6f7420657869737400000000000000600082015250565b600062002e7360198362002e2a565b915062002e808262002e3b565b602082019050919050565b6000602082019050818103600083015262002ea68162002e64565b9050919050565b7f546869732061646472657373206973206e6f74207468652073656c6c6572206f60008201527f662074686973204e465400000000000000000000000000000000000000000000602082015250565b600062002f0b602a8362002e2a565b915062002f188262002ead565b604082019050919050565b6000602082019050818103600083015262002f3e8162002efc565b9050919050565b7f73656c6c65720000000000000000000000000000000000000000000000000000600082015250565b600062002f7d60068362002e2a565b915062002f8a8262002f45565b602082019050919050565b600060608201905062002fac60008301856200296c565b62002fbb602083018462002a23565b818103604083015262002fce8162002f6e565b90509392505050565b7f4e487b7100000000000000000000000000000000000000000000000000000000600052601160045260246000fd5b60006200301382620027ef565b91507fffffffffffffffffffffffffffffffffffffffffffffffffffffffffffffffff820362003048576200304762002fd7565b5b600182019050919050565b7f43616c6c6572206973206e6f74206f776e657200000000000000000000000000600082015250565b60006200308b60138362002e2a565b9150620030988262003053565b602082019050919050565b60006020820190508181036000830152620030be816200307c565b9050919050565b7f43616e6e6f7420736574207a65726f2066656573000000000000000000000000600082015250565b6000620030fd60148362002e2a565b91506200310a82620030c5565b602082019050919050565b600060208201905081810360008301526200313081620030ee565b9050919050565b7f53454c4c4552204645452050455243454e540000000000000000000000000000600082015250565b60006200316f60128362002e2a565b91506200317c8262003137565b602082019050919050565b60006040820190506200319e60008301846200296c565b8181036020830152620031b18162003160565b905092915050565b7f596f75206861766520616c7265616479206d61646520616e206f666665720000600082015250565b6000620031f1601e8362002e2a565b9150620031fe82620031b9565b602082019050919050565b600060208201905081810360008301526200322481620031e2565b9050919050565b60006200323882620027ef565b91506200324583620027ef565b925082820190508082111562003260576200325f62002fd7565b5b92915050565b6000815190506200327781620027f9565b92915050565b600060208284031215620032965762003295620027ea565b5b6000620032a68482850162003266565b91505092915050565b7f496e737566666963656e7420534e4320746f6b656e7320666f7220746869732060008201527f6f66666572000000000000000000000000000000000000000000000000000000602082015250565b60006200330d60258362002e2a565b91506200331a82620032af565b604082019050919050565b600060208201905081810360008301526200334081620032fe565b9050919050565b7f4f66666572206475726174696f6e206578706972656400000000000000000000600082015250565b60006200337f60168362002e2a565b91506200338c8262003347565b602082019050919050565b60006020820190508181036000830152620033b28162003370565b9050919050565b6000606082019050620033d0600083018662002a23565b620033df60208301856200296c565b620033ee604083018462002a23565b949350505050565b60006060820190506200340d600083018662002a23565b6200341c602083018562002a23565b6200342b60408301846200296c565b949350505050565b600081519050620034448162002d26565b92915050565b600060208284031215620034635762003462620027ea565b5b6000620034738482850162003433565b91505092915050565b600060808201905062003493600083018762002a23565b620034a260208301866200296c565b620034b160408301856200296c565b620034c060608301846200296c565b95945050505050565b6000620034d682620027ef565b9150620034e383620027ef565b9250828203905081811115620034fe57620034fd62002fd7565b5b92915050565b7f48617320616c726561647920616363657074656420616e206f66666572000000600082015250565b60006200353c601d8362002e2a565b9150620035498262003504565b602082019050919050565b600060208201905081810360008301526200356f816200352d565b9050919050565b60006200358382620027ef565b91506200359083620027ef565b9250828202620035a081620027ef565b91508282048414831517620035ba57620035b962002fd7565b5b5092915050565b7f4e487b7100000000000000000000000000000000000000000000000000000000600052601260045260246000fd5b6000620035fd82620027ef565b91506200360a83620027ef565b9250826200361d576200361c620035c1565b5b828204905092915050565b7f4e6f7420656e6f75676820534e4320746f6b656e7320696e20657363726f772060008201527f746f20616c6c6f7720666f72207472616e736665720000000000000000000000602082015250565b60006200368660358362002e2a565b9150620036938262003628565b604082019050919050565b60006020820190508181036000830152620036b98162003677565b9050919050565b6000819050919050565b6000819050919050565b6000620036f5620036ef620036e984620036c0565b620036ca565b620027ef565b9050919050565b6200370781620036d4565b82525050565b600082825260208201905092915050565b50565b6000620037306000836200370d565b91506200373d826200371e565b600082019050919050565b600060a0820190506200375f600083018762002a23565b6200376e602083018662002a23565b6200377d60408301856200296c565b6200378c6060830184620036fc565b81810360808301526200379f8162003721565b905095945050505050565b6000606082019050620037c160008301866200296c565b620037d0602083018562002a23565b620037df60408301846200296c565b949350505050565b6000604082019050620037fe600083018562002a23565b6200380d60208301846200296c565b9392505050565b7f4e487b7100000000000000000000000000000000000000000000000000000000600052604160045260246000fd5b7f4e6f206f6666657220686173206265656e206d6164652062792074686973206260008201527f7579657200000000000000000000000000000000000000000000000000000000602082015250565b6000620038a160248362002e2a565b9150620038ae8262003843565b604082019050919050565b60006020820190508181036000830152620038d48162003892565b9050919050565b7f6275796572000000000000000000000000000000000000000000000000000000600082015250565b60006200391360058362002e2a565b91506200392082620038db565b602082019050919050565b60006060820190506200394260008301856200296c565b62003951602083018462002a23565b8181036040830152620039648162003904565b90509392505050565b7f4255594552204645452050455243454e54000000000000000000000000000000600082015250565b6000620039a560118362002e2a565b9150620039b2826200396d565b602082019050919050565b6000604082019050620039d460008301846200296c565b8181036020830152620039e78162003996565b905092915050565b7f54686973206f6666657220776173206e6f74206d61646520627920746869732060008201527f6275796572000000000000000000000000000000000000000000000000000000602082015250565b600062003a4d60258362002e2a565b915062003a5a82620039ef565b604082019050919050565b6000602082019050818103600083015262003a808162003a3e565b9050919050565b7f4e487b7100000000000000000000000000000000000000000000000000000000600052603160045260246000fdfe60806040523480156200001157600080fd5b50604051620014e1380380620014e18339818101604052810190620000379190620003cb565b826000806101000a81548173ffffffffffffffffffffffffffffffffffffffff021916908373ffffffffffffffffffffffffffffffffffffffff1602179055508160028190555080600160006101000a81548173ffffffffffffffffffffffffffffffffffffffff021916908373ffffffffffffffffffffffffffffffffffffffff1602179055506000600160009054906101000a900473ffffffffffffffffffffffffffffffffffffffff1673ffffffffffffffffffffffffffffffffffffffff166370a08231306040518263ffffffff1660e01b81526004016200011e919062000438565b602060405180830381865afa1580156200013c573d6000803e3d6000fd5b505050506040513d601f19601f8201168201806040525081019062000162919062000455565b14620001a5576040517f08c379a00000000000000000000000000000000000000000000000000000000081526004016200019c90620004e8565b60405180910390fd5b60008060009054906101000a900473ffffffffffffffffffffffffffffffffffffffff1673ffffffffffffffffffffffffffffffffffffffff1662fdd58e30856040518363ffffffff1660e01b8152600401620002049291906200051b565b602060405180830381865afa15801562000222573d6000803e3d6000fd5b505050506040513d601f19601f8201168201806040525081019062000248919062000455565b146200028b576040517f08c379a0000000000000000000000000000000000000000000000000000000008152600401620002829062000598565b60405180910390fd5b60008054906101000a900473ffffffffffffffffffffffffffffffffffffffff1673ffffffffffffffffffffffffffffffffffffffff1663a22cb4653360016040518363ffffffff1660e01b8152600401620002e9929190620005d7565b600060405180830381600087803b1580156200030457600080fd5b505af115801562000319573d6000803e3d6000fd5b5050505050505062000604565b600080fd5b600073ffffffffffffffffffffffffffffffffffffffff82169050919050565b600062000358826200032b565b9050919050565b6200036a816200034b565b81146200037657600080fd5b50565b6000815190506200038a816200035f565b92915050565b6000819050919050565b620003a58162000390565b8114620003b157600080fd5b50565b600081519050620003c5816200039a565b92915050565b600080600060608486031215620003e757620003e662000326565b5b6000620003f78682870162000379565b93505060206200040a86828701620003b4565b92505060406200041d8682870162000379565b9150509250925092565b62000432816200034b565b82525050565b60006020820190506200044f600083018462000427565b92915050565b6000602082840312156200046e576200046d62000326565b5b60006200047e84828501620003b4565b91505092915050565b600082825260208201905092915050565b7f496e76616c696420455243323020436f6e747261637420616464726573730000600082015250565b6000620004d0601e8362000487565b9150620004dd8262000498565b602082019050919050565b600060208201905081810360008301526200050381620004c1565b9050919050565b620005158162000390565b82525050565b600060408201905062000532600083018562000427565b6200054160208301846200050a565b9392505050565b7f496e76616c6964204e465420436f6e7472616374000000000000000000000000600082015250565b60006200058060148362000487565b91506200058d8262000548565b602082019050919050565b60006020820190508181036000830152620005b38162000571565b9050919050565b60008115159050919050565b620005d181620005ba565b82525050565b6000604082019050620005ee600083018562000427565b620005fd6020830184620005c6565b9392505050565b610ecd80620006146000396000f3fe608060405234801561001057600080fd5b50600436106100625760003560e01c806301ffc9a7146100675780638f04a18f14610097578063bc197c81146100c7578063ceff9468146100f7578063d580408a14610127578063f23a6e6114610157575b600080fd5b610081600480360381019061007c919061071e565b610187565b60405161008e9190610766565b60405180910390f35b6100b160048036038101906100ac91906107df565b610201565b6040516100be9190610766565b60405180910390f35b6100e160048036038101906100dc9190610a50565b61037f565b6040516100ee9190610b2e565b60405180910390f35b610111600480360381019061010c91906107df565b610394565b60405161011e9190610766565b60405180910390f35b610141600480360381019061013c9190610b49565b61046f565b60405161014e9190610766565b60405180910390f35b610171600480360381019061016c9190610b89565b610633565b60405161017e9190610b2e565b60405180910390f35b60007f4e2312e0000000000000000000000000000000000000000000000000000000007bffffffffffffffffffffffffffffffffffffffffffffffffffffffff1916827bffffffffffffffffffffffffffffffffffffffffffffffffffffffff191614806101fa57506101f982610648565b5b9050919050565b60008060008054906101000a900473ffffffffffffffffffffffffffffffffffffffff1673ffffffffffffffffffffffffffffffffffffffff1662fdd58e306002546040518363ffffffff1660e01b8152600401610260929190610c3e565b602060405180830381865afa15801561027d573d6000803e3d6000fd5b505050506040513d601f19601f820116820180604052508101906102a19190610c7c565b1061033b5760008054906101000a900473ffffffffffffffffffffffffffffffffffffffff1673ffffffffffffffffffffffffffffffffffffffff1663f242432a308460025460016040518563ffffffff1660e01b81526004016103089493929190610d25565b600060405180830381600087803b15801561032257600080fd5b505af1158015610336573d6000803e3d6000fd5b505050505b7fe2d73ae83743672762e50ba9d1f270913a16bc698d3887fac465b25009bf64676002548360405161036e929190610d7d565b60405180910390a160019050919050565b600063bc197c8160e01b905095945050505050565b60008060009054906101000a900473ffffffffffffffffffffffffffffffffffffffff1673ffffffffffffffffffffffffffffffffffffffff1663f242432a308460025460016040518563ffffffff1660e01b81526004016103f99493929190610d25565b600060405180830381600087803b15801561041357600080fd5b505af1158015610427573d6000803e3d6000fd5b505050507fe2d73ae83743672762e50ba9d1f270913a16bc698d3887fac465b25009bf64676002548360405161045e929190610d7d565b60405180910390a160019050919050565b600081600160009054906101000a900473ffffffffffffffffffffffffffffffffffffffff1673ffffffffffffffffffffffffffffffffffffffff166370a08231306040518263ffffffff1660e01b81526004016104cd9190610da6565b602060405180830381865afa1580156104ea573d6000803e3d6000fd5b505050506040513d601f19601f8201168201806040525081019061050e9190610c7c565b101561054f576040517f08c379a000000000000000000000000000000000000000000000000000000000815260040161054690610e1e565b60405180910390fd5b600160009054906101000a900473ffffffffffffffffffffffffffffffffffffffff1673ffffffffffffffffffffffffffffffffffffffff1663a9059cbb84846040518363ffffffff1660e01b81526004016105ac929190610c3e565b6020604051808303816000875af11580156105cb573d6000803e3d6000fd5b505050506040513d601f19601f820116820180604052508101906105ef9190610e6a565b507f5c1ba46fd05d3bb0363a63330a5f560f2014f27d055a39108694f295973ae2038284604051610621929190610d7d565b60405180910390a16001905092915050565b600063f23a6e6160e01b905095945050505050565b60007f01ffc9a7000000000000000000000000000000000000000000000000000000007bffffffffffffffffffffffffffffffffffffffffffffffffffffffff1916827bffffffffffffffffffffffffffffffffffffffffffffffffffffffff1916149050919050565b6000604051905090565b600080fd5b600080fd5b60007fffffffff0000000000000000000000000000000000000000000000000000000082169050919050565b6106fb816106c6565b811461070657600080fd5b50565b600081359050610718816106f2565b92915050565b600060208284031215610734576107336106bc565b5b600061074284828501610709565b91505092915050565b60008115159050919050565b6107608161074b565b82525050565b600060208201905061077b6000830184610757565b92915050565b600073ffffffffffffffffffffffffffffffffffffffff82169050919050565b60006107ac82610781565b9050919050565b6107bc816107a1565b81146107c757600080fd5b50565b6000813590506107d9816107b3565b92915050565b6000602082840312156107f5576107f46106bc565b5b6000610803848285016107ca565b91505092915050565b600080fd5b6000601f19601f8301169050919050565b7f4e487b7100000000000000000000000000000000000000000000000000000000600052604160045260246000fd5b61085a82610811565b810181811067ffffffffffffffff8211171561087957610878610822565b5b80604052505050565b600061088c6106b2565b90506108988282610851565b919050565b600067ffffffffffffffff8211156108b8576108b7610822565b5b602082029050602081019050919050565b600080fd5b6000819050919050565b6108e1816108ce565b81146108ec57600080fd5b50565b6000813590506108fe816108d8565b92915050565b60006109176109128461089d565b610882565b9050808382526020820190506020840283018581111561093a576109396108c9565b5b835b81811015610963578061094f88826108ef565b84526020840193505060208101905061093c565b5050509392505050565b600082601f8301126109825761098161080c565b5b8135610992848260208601610904565b91505092915050565b600080fd5b600067ffffffffffffffff8211156109bb576109ba610822565b5b6109c482610811565b9050602081019050919050565b82818337600083830152505050565b60006109f36109ee846109a0565b610882565b905082815260208101848484011115610a0f57610a0e61099b565b5b610a1a8482856109d1565b509392505050565b600082601f830112610a3757610a3661080c565b5b8135610a478482602086016109e0565b91505092915050565b600080600080600060a08688031215610a6c57610a6b6106bc565b5b6000610a7a888289016107ca565b9550506020610a8b888289016107ca565b945050604086013567ffffffffffffffff811115610aac57610aab6106c1565b5b610ab88882890161096d565b935050606086013567ffffffffffffffff811115610ad957610ad86106c1565b5b610ae58882890161096d565b925050608086013567ffffffffffffffff811115610b0657610b056106c1565b5b610b1288828901610a22565b9150509295509295909350565b610b28816106c6565b82525050565b6000602082019050610b436000830184610b1f565b92915050565b60008060408385031215610b6057610b5f6106bc565b5b6000610b6e858286016107ca565b9250506020610b7f858286016108ef565b9150509250929050565b600080600080600060a08688031215610ba557610ba46106bc565b5b6000610bb3888289016107ca565b9550506020610bc4888289016107ca565b9450506040610bd5888289016108ef565b9350506060610be6888289016108ef565b925050608086013567ffffffffffffffff811115610c0757610c066106c1565b5b610c1388828901610a22565b9150509295509295909350565b610c29816107a1565b82525050565b610c38816108ce565b82525050565b6000604082019050610c536000830185610c20565b610c606020830184610c2f565b9392505050565b600081519050610c76816108d8565b92915050565b600060208284031215610c9257610c916106bc565b5b6000610ca084828501610c67565b91505092915050565b6000819050919050565b6000819050919050565b6000610cd8610cd3610cce84610ca9565b610cb3565b6108ce565b9050919050565b610ce881610cbd565b82525050565b600082825260208201905092915050565b50565b6000610d0f600083610cee565b9150610d1a82610cff565b600082019050919050565b600060a082019050610d3a6000830187610c20565b610d476020830186610c20565b610d546040830185610c2f565b610d616060830184610cdf565b8181036080830152610d7281610d02565b905095945050505050565b6000604082019050610d926000830185610c2f565b610d9f6020830184610c20565b9392505050565b6000602082019050610dbb6000830184610c20565b92915050565b600082825260208201905092915050565b7f496e73756666696369656e7420534e4320746f6b656e73000000000000000000600082015250565b6000610e08601783610dc1565b9150610e1382610dd2565b602082019050919050565b60006020820190508181036000830152610e3781610dfb565b9050919050565b610e478161074b565b8114610e5257600080fd5b50565b600081519050610e6481610e3e565b92915050565b600060208284031215610e8057610e7f6106bc565b5b6000610e8e84828501610e55565b9150509291505056fea26469706673582212204399c38cec8fc40e45995ab7903250909710107bfef3b5243a41ef9947a9fc5f64736f6c63430008120033a264697066735822122066bb3674de8b99d8014b699d3123818bcfc7c4fbe10afd44ce8dd3d45f347c1864736f6c63430008120033","opcodes":"PUSH1 0x80 PUSH1 0x40 MSTORE CALLVALUE DUP1 ISZERO PUSH3 0x11 JUMPI PUSH1 0x0 DUP1 REVERT JUMPDEST POP PUSH1 0x40 MLOAD PUSH3 0x575D CODESIZE SUB DUP1 PUSH3 0x575D DUP4 CODECOPY DUP2 DUP2 ADD PUSH1 0x40 MSTORE DUP2 ADD SWAP1 PUSH3 0x37 SWAP2 SWAP1 PUSH3 0x503 JUMP JUMPDEST CALLER PUSH1 0x0 DUP1 PUSH2 0x100 EXP DUP2 SLOAD DUP2 PUSH20 0xFFFFFFFFFFFFFFFFFFFFFFFFFFFFFFFFFFFFFFFF MUL NOT AND SWAP1 DUP4 PUSH20 0xFFFFFFFFFFFFFFFFFFFFFFFFFFFFFFFFFFFFFFFF AND MUL OR SWAP1 SSTORE POP PUSH1 0x0 DUP1 SLOAD SWAP1 PUSH2 0x100 EXP SWAP1 DIV PUSH20 0xFFFFFFFFFFFFFFFFFFFFFFFFFFFFFFFFFFFFFFFF AND PUSH20 0xFFFFFFFFFFFFFFFFFFFFFFFFFFFFFFFFFFFFFFFF AND PUSH1 0x0 PUSH20 0xFFFFFFFFFFFFFFFFFFFFFFFFFFFFFFFFFFFFFFFF AND PUSH32 0x342827C97908E5E2F71151C08502A66D44B6F758E3AC2F1DE95F02EB95F0A735 PUSH1 0x40 MLOAD PUSH1 0x40 MLOAD DUP1 SWAP2 SUB SWAP1 LOG3 DUP5 PUSH1 0x6 PUSH1 0x0 PUSH2 0x100 EXP DUP2 SLOAD DUP2 PUSH20 0xFFFFFFFFFFFFFFFFFFFFFFFFFFFFFFFFFFFFFFFF MUL NOT AND SWAP1 DUP4 PUSH20 0xFFFFFFFFFFFFFFFFFFFFFFFFFFFFFFFFFFFFFFFF AND MUL OR SWAP1 SSTORE POP DUP4 PUSH1 0x7 PUSH1 0x0 PUSH2 0x100 EXP DUP2 SLOAD DUP2 PUSH20 0xFFFFFFFFFFFFFFFFFFFFFFFFFFFFFFFFFFFFFFFF MUL NOT AND SWAP1 DUP4 PUSH20 0xFFFFFFFFFFFFFFFFFFFFFFFFFFFFFFFFFFFFFFFF AND MUL OR SWAP1 SSTORE POP DUP3 PUSH1 0x3 PUSH1 0x0 PUSH2 0x100 EXP DUP2 SLOAD DUP2 PUSH20 0xFFFFFFFFFFFFFFFFFFFFFFFFFFFFFFFFFFFFFFFF MUL NOT AND SWAP1 DUP4 PUSH20 0xFFFFFFFFFFFFFFFFFFFFFFFFFFFFFFFFFFFFFFFF AND MUL OR SWAP1 SSTORE POP DUP5 PUSH1 0x1 PUSH1 0x0 PUSH2 0x100 EXP DUP2 SLOAD DUP2 PUSH20 0xFFFFFFFFFFFFFFFFFFFFFFFFFFFFFFFFFFFFFFFF MUL NOT AND SWAP1 DUP4 PUSH20 0xFFFFFFFFFFFFFFFFFFFFFFFFFFFFFFFFFFFFFFFF AND MUL OR SWAP1 SSTORE POP DUP4 PUSH1 0x2 PUSH1 0x0 PUSH2 0x100 EXP DUP2 SLOAD DUP2 PUSH20 0xFFFFFFFFFFFFFFFFFFFFFFFFFFFFFFFFFFFFFFFF MUL NOT AND SWAP1 DUP4 PUSH20 0xFFFFFFFFFFFFFFFFFFFFFFFFFFFFFFFFFFFFFFFF AND MUL OR SWAP1 SSTORE POP DUP2 PUSH1 0x5 DUP2 SWAP1 SSTORE POP DUP1 PUSH1 0x4 DUP2 SWAP1 SSTORE POP CALLER PUSH1 0x0 DUP1 PUSH2 0x100 EXP DUP2 SLOAD DUP2 PUSH20 0xFFFFFFFFFFFFFFFFFFFFFFFFFFFFFFFFFFFFFFFF MUL NOT AND SWAP1 DUP4 PUSH20 0xFFFFFFFFFFFFFFFFFFFFFFFFFFFFFFFFFFFFFFFF AND MUL OR SWAP1 SSTORE POP PUSH1 0x0 PUSH1 0x6 PUSH1 0x0 SWAP1 SLOAD SWAP1 PUSH2 0x100 EXP SWAP1 DIV PUSH20 0xFFFFFFFFFFFFFFFFFFFFFFFFFFFFFFFFFFFFFFFF AND PUSH20 0xFFFFFFFFFFFFFFFFFFFFFFFFFFFFFFFFFFFFFFFF AND PUSH4 0x70A08231 ADDRESS PUSH1 0x40 MLOAD DUP3 PUSH4 0xFFFFFFFF AND PUSH1 0xE0 SHL DUP2 MSTORE PUSH1 0x4 ADD PUSH3 0x2E4 SWAP2 SWAP1 PUSH3 0x59C JUMP JUMPDEST PUSH1 0x20 PUSH1 0x40 MLOAD DUP1 DUP4 SUB DUP2 DUP7 GAS STATICCALL ISZERO DUP1 ISZERO PUSH3 0x302 JUMPI RETURNDATASIZE PUSH1 0x0 DUP1 RETURNDATACOPY RETURNDATASIZE PUSH1 0x0 REVERT JUMPDEST POP POP POP POP PUSH1 0x40 MLOAD RETURNDATASIZE PUSH1 0x1F NOT PUSH1 0x1F DUP3 ADD AND DUP3 ADD DUP1 PUSH1 0x40 MSTORE POP DUP2 ADD SWAP1 PUSH3 0x328 SWAP2 SWAP1 PUSH3 0x5B9 JUMP JUMPDEST EQ PUSH3 0x36B JUMPI PUSH1 0x40 MLOAD PUSH32 0x8C379A000000000000000000000000000000000000000000000000000000000 DUP2 MSTORE PUSH1 0x4 ADD PUSH3 0x362 SWAP1 PUSH3 0x672 JUMP JUMPDEST PUSH1 0x40 MLOAD DUP1 SWAP2 SUB SWAP1 REVERT JUMPDEST PUSH1 0x0 PUSH1 0x7 PUSH1 0x0 SWAP1 SLOAD SWAP1 PUSH2 0x100 EXP SWAP1 DIV PUSH20 0xFFFFFFFFFFFFFFFFFFFFFFFFFFFFFFFFFFFFFFFF AND PUSH20 0xFFFFFFFFFFFFFFFFFFFFFFFFFFFFFFFFFFFFFFFF AND PUSH3 0xFDD58E ADDRESS PUSH1 0x0 PUSH1 0x40 MLOAD DUP4 PUSH4 0xFFFFFFFF AND PUSH1 0xE0 SHL DUP2 MSTORE PUSH1 0x4 ADD PUSH3 0x3CC SWAP3 SWAP2 SWAP1 PUSH3 0x6E1 JUMP JUMPDEST PUSH1 0x20 PUSH1 0x40 MLOAD DUP1 DUP4 SUB DUP2 DUP7 GAS STATICCALL ISZERO DUP1 ISZERO PUSH3 0x3EA JUMPI RETURNDATASIZE PUSH1 0x0 DUP1 RETURNDATACOPY RETURNDATASIZE PUSH1 0x0 REVERT JUMPDEST POP POP POP POP PUSH1 0x40 MLOAD RETURNDATASIZE PUSH1 0x1F NOT PUSH1 0x1F DUP3 ADD AND DUP3 ADD DUP1 PUSH1 0x40 MSTORE POP DUP2 ADD SWAP1 PUSH3 0x410 SWAP2 SWAP1 PUSH3 0x5B9 JUMP JUMPDEST EQ PUSH3 0x453 JUMPI PUSH1 0x40 MLOAD PUSH32 0x8C379A000000000000000000000000000000000000000000000000000000000 DUP2 MSTORE PUSH1 0x4 ADD PUSH3 0x44A SWAP1 PUSH3 0x75E JUMP JUMPDEST PUSH1 0x40 MLOAD DUP1 SWAP2 SUB SWAP1 REVERT JUMPDEST POP POP POP POP POP PUSH3 0x780 JUMP JUMPDEST PUSH1 0x0 DUP1 REVERT JUMPDEST PUSH1 0x0 PUSH20 0xFFFFFFFFFFFFFFFFFFFFFFFFFFFFFFFFFFFFFFFF DUP3 AND SWAP1 POP SWAP2 SWAP1 POP JUMP JUMPDEST PUSH1 0x0 PUSH3 0x490 DUP3 PUSH3 0x463 JUMP JUMPDEST SWAP1 POP SWAP2 SWAP1 POP JUMP JUMPDEST PUSH3 0x4A2 DUP2 PUSH3 0x483 JUMP JUMPDEST DUP2 EQ PUSH3 0x4AE JUMPI PUSH1 0x0 DUP1 REVERT JUMPDEST POP JUMP JUMPDEST PUSH1 0x0 DUP2 MLOAD SWAP1 POP PUSH3 0x4C2 DUP2 PUSH3 0x497 JUMP JUMPDEST SWAP3 SWAP2 POP POP JUMP JUMPDEST PUSH1 0x0 DUP2 SWAP1 POP SWAP2 SWAP1 POP JUMP JUMPDEST PUSH3 0x4DD DUP2 PUSH3 0x4C8 JUMP JUMPDEST DUP2 EQ PUSH3 0x4E9 JUMPI PUSH1 0x0 DUP1 REVERT JUMPDEST POP JUMP JUMPDEST PUSH1 0x0 DUP2 MLOAD SWAP1 POP PUSH3 0x4FD DUP2 PUSH3 0x4D2 JUMP JUMPDEST SWAP3 SWAP2 POP POP JUMP JUMPDEST PUSH1 0x0 DUP1 PUSH1 0x0 DUP1 PUSH1 0x0 PUSH1 0xA0 DUP7 DUP9 SUB SLT ISZERO PUSH3 0x522 JUMPI PUSH3 0x521 PUSH3 0x45E JUMP JUMPDEST JUMPDEST PUSH1 0x0 PUSH3 0x532 DUP9 DUP3 DUP10 ADD PUSH3 0x4B1 JUMP JUMPDEST SWAP6 POP POP PUSH1 0x20 PUSH3 0x545 DUP9 DUP3 DUP10 ADD PUSH3 0x4B1 JUMP JUMPDEST SWAP5 POP POP PUSH1 0x40 PUSH3 0x558 DUP9 DUP3 DUP10 ADD PUSH3 0x4B1 JUMP JUMPDEST SWAP4 POP POP PUSH1 0x60 PUSH3 0x56B DUP9 DUP3 DUP10 ADD PUSH3 0x4EC JUMP JUMPDEST SWAP3 POP POP PUSH1 0x80 PUSH3 0x57E DUP9 DUP3 DUP10 ADD PUSH3 0x4EC JUMP JUMPDEST SWAP2 POP POP SWAP3 SWAP6 POP SWAP3 SWAP6 SWAP1 SWAP4 POP JUMP JUMPDEST PUSH3 0x596 DUP2 PUSH3 0x483 JUMP JUMPDEST DUP3 MSTORE POP POP JUMP JUMPDEST PUSH1 0x0 PUSH1 0x20 DUP3 ADD SWAP1 POP PUSH3 0x5B3 PUSH1 0x0 DUP4 ADD DUP5 PUSH3 0x58B JUMP JUMPDEST SWAP3 SWAP2 POP POP JUMP JUMPDEST PUSH1 0x0 PUSH1 0x20 DUP3 DUP5 SUB SLT ISZERO PUSH3 0x5D2 JUMPI PUSH3 0x5D1 PUSH3 0x45E JUMP JUMPDEST JUMPDEST PUSH1 0x0 PUSH3 0x5E2 DUP5 DUP3 DUP6 ADD PUSH3 0x4EC JUMP JUMPDEST SWAP2 POP POP SWAP3 SWAP2 POP POP JUMP JUMPDEST PUSH1 0x0 DUP3 DUP3 MSTORE PUSH1 0x20 DUP3 ADD SWAP1 POP SWAP3 SWAP2 POP POP JUMP JUMPDEST PUSH32 0x496E76616C696420455243323020534E4320436F6E7472616374206164647265 PUSH1 0x0 DUP3 ADD MSTORE PUSH32 0x7373000000000000000000000000000000000000000000000000000000000000 PUSH1 0x20 DUP3 ADD MSTORE POP JUMP JUMPDEST PUSH1 0x0 PUSH3 0x65A PUSH1 0x22 DUP4 PUSH3 0x5EB JUMP JUMPDEST SWAP2 POP PUSH3 0x667 DUP3 PUSH3 0x5FC JUMP JUMPDEST PUSH1 0x40 DUP3 ADD SWAP1 POP SWAP2 SWAP1 POP JUMP JUMPDEST PUSH1 0x0 PUSH1 0x20 DUP3 ADD SWAP1 POP DUP2 DUP2 SUB PUSH1 0x0 DUP4 ADD MSTORE PUSH3 0x68D DUP2 PUSH3 0x64B JUMP JUMPDEST SWAP1 POP SWAP2 SWAP1 POP JUMP JUMPDEST PUSH1 0x0 DUP2 SWAP1 POP SWAP2 SWAP1 POP JUMP JUMPDEST PUSH1 0x0 DUP2 SWAP1 POP SWAP2 SWAP1 POP JUMP JUMPDEST PUSH1 0x0 PUSH3 0x6C9 PUSH3 0x6C3 PUSH3 0x6BD DUP5 PUSH3 0x694 JUMP JUMPDEST PUSH3 0x69E JUMP JUMPDEST PUSH3 0x4C8 JUMP JUMPDEST SWAP1 POP SWAP2 SWAP1 POP JUMP JUMPDEST PUSH3 0x6DB DUP2 PUSH3 0x6A8 JUMP JUMPDEST DUP3 MSTORE POP POP JUMP JUMPDEST PUSH1 0x0 PUSH1 0x40 DUP3 ADD SWAP1 POP PUSH3 0x6F8 PUSH1 0x0 DUP4 ADD DUP6 PUSH3 0x58B JUMP JUMPDEST PUSH3 0x707 PUSH1 0x20 DUP4 ADD DUP5 PUSH3 0x6D0 JUMP JUMPDEST SWAP4 SWAP3 POP POP POP JUMP JUMPDEST PUSH32 0x496E76616C6964204E465420436F6E7472616374000000000000000000000000 PUSH1 0x0 DUP3 ADD MSTORE POP JUMP JUMPDEST PUSH1 0x0 PUSH3 0x746 PUSH1 0x14 DUP4 PUSH3 0x5EB JUMP JUMPDEST SWAP2 POP PUSH3 0x753 DUP3 PUSH3 0x70E JUMP JUMPDEST PUSH1 0x20 DUP3 ADD SWAP1 POP SWAP2 SWAP1 POP JUMP JUMPDEST PUSH1 0x0 PUSH1 0x20 DUP3 ADD SWAP1 POP DUP2 DUP2 SUB PUSH1 0x0 DUP4 ADD MSTORE PUSH3 0x779 DUP2 PUSH3 0x737 JUMP JUMPDEST SWAP1 POP SWAP2 SWAP1 POP JUMP JUMPDEST PUSH2 0x4FCD DUP1 PUSH3 0x790 PUSH1 0x0 CODECOPY PUSH1 0x0 RETURN INVALID PUSH1 0x80 PUSH1 0x40 MSTORE CALLVALUE DUP1 ISZERO PUSH3 0x11 JUMPI PUSH1 0x0 DUP1 REVERT JUMPDEST POP PUSH1 0x4 CALLDATASIZE LT PUSH3 0x124 JUMPI PUSH1 0x0 CALLDATALOAD PUSH1 0xE0 SHR DUP1 PUSH4 0x7142BB8D GT PUSH3 0xB1 JUMPI DUP1 PUSH4 0xA6F9DAE1 GT PUSH3 0x7B JUMPI DUP1 PUSH4 0xA6F9DAE1 EQ PUSH3 0x368 JUMPI DUP1 PUSH4 0xB32C5C45 EQ PUSH3 0x388 JUMPI DUP1 PUSH4 0xBFA5D42D EQ PUSH3 0x3AA JUMPI DUP1 PUSH4 0xCF0A8085 EQ PUSH3 0x3E0 JUMPI DUP1 PUSH4 0xFA7DA19D EQ PUSH3 0x402 JUMPI PUSH3 0x124 JUMP JUMPDEST DUP1 PUSH4 0x7142BB8D EQ PUSH3 0x2CC JUMPI DUP1 PUSH4 0x7EC775ED EQ PUSH3 0x302 JUMPI DUP1 PUSH4 0x893D20E8 EQ PUSH3 0x324 JUMPI DUP1 PUSH4 0x9E580DBE EQ PUSH3 0x346 JUMPI PUSH3 0x124 JUMP JUMPDEST DUP1 PUSH4 0x3D1F8373 GT PUSH3 0xF3 JUMPI DUP1 PUSH4 0x3D1F8373 EQ PUSH3 0x202 JUMPI DUP1 PUSH4 0x4F663A4E EQ PUSH3 0x23E JUMPI DUP1 PUSH4 0x60A8899E EQ PUSH3 0x274 JUMPI DUP1 PUSH4 0x652C8843 EQ PUSH3 0x2AA JUMPI PUSH3 0x124 JUMP JUMPDEST DUP1 PUSH4 0xCC4B47D EQ PUSH3 0x129 JUMPI DUP1 PUSH4 0x15EAA5F8 EQ PUSH3 0x15F JUMPI DUP1 PUSH4 0x1BFEE121 EQ PUSH3 0x196 JUMPI DUP1 PUSH4 0x217DF120 EQ PUSH3 0x1CC JUMPI JUMPDEST PUSH1 0x0 DUP1 REVERT JUMPDEST PUSH3 0x147 PUSH1 0x4 DUP1 CALLDATASIZE SUB DUP2 ADD SWAP1 PUSH3 0x141 SWAP2 SWAP1 PUSH3 0x288F JUMP JUMPDEST PUSH3 0x438 JUMP JUMPDEST PUSH1 0x40 MLOAD PUSH3 0x156 SWAP2 SWAP1 PUSH3 0x2908 JUMP JUMPDEST PUSH1 0x40 MLOAD DUP1 SWAP2 SUB SWAP1 RETURN JUMPDEST PUSH3 0x17D PUSH1 0x4 DUP1 CALLDATASIZE SUB DUP2 ADD SWAP1 PUSH3 0x177 SWAP2 SWAP1 PUSH3 0x2925 JUMP JUMPDEST PUSH3 0x683 JUMP JUMPDEST PUSH1 0x40 MLOAD PUSH3 0x18D SWAP3 SWAP2 SWAP1 PUSH3 0x297D JUMP JUMPDEST PUSH1 0x40 MLOAD DUP1 SWAP2 SUB SWAP1 RETURN JUMPDEST PUSH3 0x1B4 PUSH1 0x4 DUP1 CALLDATASIZE SUB DUP2 ADD SWAP1 PUSH3 0x1AE SWAP2 SWAP1 PUSH3 0x29AA JUMP JUMPDEST PUSH3 0x769 JUMP JUMPDEST PUSH1 0x40 MLOAD PUSH3 0x1C3 SWAP2 SWAP1 PUSH3 0x2908 JUMP JUMPDEST PUSH1 0x40 MLOAD DUP1 SWAP2 SUB SWAP1 RETURN JUMPDEST PUSH3 0x1EA PUSH1 0x4 DUP1 CALLDATASIZE SUB DUP2 ADD SWAP1 PUSH3 0x1E4 SWAP2 SWAP1 PUSH3 0x29AA JUMP JUMPDEST PUSH3 0x88C JUMP JUMPDEST PUSH1 0x40 MLOAD PUSH3 0x1F9 SWAP2 SWAP1 PUSH3 0x2908 JUMP JUMPDEST PUSH1 0x40 MLOAD DUP1 SWAP2 SUB SWAP1 RETURN JUMPDEST PUSH3 0x220 PUSH1 0x4 DUP1 CALLDATASIZE SUB DUP2 ADD SWAP1 PUSH3 0x21A SWAP2 SWAP1 PUSH3 0x29DC JUMP JUMPDEST PUSH3 0x8AC JUMP JUMPDEST PUSH1 0x40 MLOAD PUSH3 0x235 SWAP8 SWAP7 SWAP6 SWAP5 SWAP4 SWAP3 SWAP2 SWAP1 PUSH3 0x2A34 JUMP JUMPDEST PUSH1 0x40 MLOAD DUP1 SWAP2 SUB SWAP1 RETURN JUMPDEST PUSH3 0x25C PUSH1 0x4 DUP1 CALLDATASIZE SUB DUP2 ADD SWAP1 PUSH3 0x256 SWAP2 SWAP1 PUSH3 0x2AB1 JUMP JUMPDEST PUSH3 0x96C JUMP JUMPDEST PUSH1 0x40 MLOAD PUSH3 0x26B SWAP2 SWAP1 PUSH3 0x2B4D JUMP JUMPDEST PUSH1 0x40 MLOAD DUP1 SWAP2 SUB SWAP1 RETURN JUMPDEST PUSH3 0x292 PUSH1 0x4 DUP1 CALLDATASIZE SUB DUP2 ADD SWAP1 PUSH3 0x28C SWAP2 SWAP1 PUSH3 0x29AA JUMP JUMPDEST PUSH3 0xE6C JUMP JUMPDEST PUSH1 0x40 MLOAD PUSH3 0x2A1 SWAP2 SWAP1 PUSH3 0x2CE5 JUMP JUMPDEST PUSH1 0x40 MLOAD DUP1 SWAP2 SUB SWAP1 RETURN JUMPDEST PUSH3 0x2B4 PUSH3 0x100A JUMP JUMPDEST PUSH1 0x40 MLOAD PUSH3 0x2C3 SWAP2 SWAP1 PUSH3 0x2D09 JUMP JUMPDEST PUSH1 0x40 MLOAD DUP1 SWAP2 SUB SWAP1 RETURN JUMPDEST PUSH3 0x2EA PUSH1 0x4 DUP1 CALLDATASIZE SUB DUP2 ADD SWAP1 PUSH3 0x2E4 SWAP2 SWAP1 PUSH3 0x2D57 JUMP JUMPDEST PUSH3 0x1030 JUMP JUMPDEST PUSH1 0x40 MLOAD PUSH3 0x2F9 SWAP2 SWAP1 PUSH3 0x2908 JUMP JUMPDEST PUSH1 0x40 MLOAD DUP1 SWAP2 SUB SWAP1 RETURN JUMPDEST PUSH3 0x30C PUSH3 0x1B78 JUMP JUMPDEST PUSH1 0x40 MLOAD PUSH3 0x31B SWAP2 SWAP1 PUSH3 0x2D09 JUMP JUMPDEST PUSH1 0x40 MLOAD DUP1 SWAP2 SUB SWAP1 RETURN JUMPDEST PUSH3 0x32E PUSH3 0x1B9E JUMP JUMPDEST PUSH1 0x40 MLOAD PUSH3 0x33D SWAP2 SWAP1 PUSH3 0x2D09 JUMP JUMPDEST PUSH1 0x40 MLOAD DUP1 SWAP2 SUB SWAP1 RETURN JUMPDEST PUSH3 0x350 PUSH3 0x1BC7 JUMP JUMPDEST PUSH1 0x40 MLOAD PUSH3 0x35F SWAP2 SWAP1 PUSH3 0x2B4D JUMP JUMPDEST PUSH1 0x40 MLOAD DUP1 SWAP2 SUB SWAP1 RETURN JUMPDEST PUSH3 0x386 PUSH1 0x4 DUP1 CALLDATASIZE SUB DUP2 ADD SWAP1 PUSH3 0x380 SWAP2 SWAP1 PUSH3 0x2DC9 JUMP JUMPDEST PUSH3 0x1BCD JUMP JUMPDEST STOP JUMPDEST PUSH3 0x392 PUSH3 0x1D1B JUMP JUMPDEST PUSH1 0x40 MLOAD PUSH3 0x3A1 SWAP2 SWAP1 PUSH3 0x2D09 JUMP JUMPDEST PUSH1 0x40 MLOAD DUP1 SWAP2 SUB SWAP1 RETURN JUMPDEST PUSH3 0x3C8 PUSH1 0x4 DUP1 CALLDATASIZE SUB DUP2 ADD SWAP1 PUSH3 0x3C2 SWAP2 SWAP1 PUSH3 0x2925 JUMP JUMPDEST PUSH3 0x1D41 JUMP JUMPDEST PUSH1 0x40 MLOAD PUSH3 0x3D7 SWAP2 SWAP1 PUSH3 0x2908 JUMP JUMPDEST PUSH1 0x40 MLOAD DUP1 SWAP2 SUB SWAP1 RETURN JUMPDEST PUSH3 0x3EA PUSH3 0x1DF0 JUMP JUMPDEST PUSH1 0x40 MLOAD PUSH3 0x3F9 SWAP2 SWAP1 PUSH3 0x2B4D JUMP JUMPDEST PUSH1 0x40 MLOAD DUP1 SWAP2 SUB SWAP1 RETURN JUMPDEST PUSH3 0x420 PUSH1 0x4 DUP1 CALLDATASIZE SUB DUP2 ADD SWAP1 PUSH3 0x41A SWAP2 SWAP1 PUSH3 0x29AA JUMP JUMPDEST PUSH3 0x1DF6 JUMP JUMPDEST PUSH1 0x40 MLOAD PUSH3 0x42F SWAP2 SWAP1 PUSH3 0x2908 JUMP JUMPDEST PUSH1 0x40 MLOAD DUP1 SWAP2 SUB SWAP1 RETURN JUMPDEST PUSH1 0x0 DUP1 PUSH20 0xFFFFFFFFFFFFFFFFFFFFFFFFFFFFFFFFFFFFFFFF AND PUSH1 0x8 PUSH1 0x0 DUP7 DUP2 MSTORE PUSH1 0x20 ADD SWAP1 DUP2 MSTORE PUSH1 0x20 ADD PUSH1 0x0 KECCAK256 DUP5 DUP2 SLOAD DUP2 LT PUSH3 0x479 JUMPI PUSH3 0x478 PUSH3 0x2DFB JUMP JUMPDEST JUMPDEST SWAP1 PUSH1 0x0 MSTORE PUSH1 0x20 PUSH1 0x0 KECCAK256 SWAP1 PUSH1 0x7 MUL ADD PUSH1 0x4 ADD PUSH1 0x0 SWAP1 SLOAD SWAP1 PUSH2 0x100 EXP SWAP1 DIV PUSH20 0xFFFFFFFFFFFFFFFFFFFFFFFFFFFFFFFFFFFFFFFF AND PUSH20 0xFFFFFFFFFFFFFFFFFFFFFFFFFFFFFFFFFFFFFFFF AND SUB PUSH3 0x504 JUMPI PUSH1 0x40 MLOAD PUSH32 0x8C379A000000000000000000000000000000000000000000000000000000000 DUP2 MSTORE PUSH1 0x4 ADD PUSH3 0x4FB SWAP1 PUSH3 0x2E8B JUMP JUMPDEST PUSH1 0x40 MLOAD DUP1 SWAP2 SUB SWAP1 REVERT JUMPDEST DUP2 PUSH20 0xFFFFFFFFFFFFFFFFFFFFFFFFFFFFFFFFFFFFFFFF AND PUSH1 0x8 PUSH1 0x0 DUP7 DUP2 MSTORE PUSH1 0x20 ADD SWAP1 DUP2 MSTORE PUSH1 0x20 ADD PUSH1 0x0 KECCAK256 DUP5 DUP2 SLOAD DUP2 LT PUSH3 0x543 JUMPI PUSH3 0x542 PUSH3 0x2DFB JUMP JUMPDEST JUMPDEST SWAP1 PUSH1 0x0 MSTORE PUSH1 0x20 PUSH1 0x0 KECCAK256 SWAP1 PUSH1 0x7 MUL ADD PUSH1 0x5 ADD PUSH1 0x0 SWAP1 SLOAD SWAP1 PUSH2 0x100 EXP SWAP1 DIV PUSH20 0xFFFFFFFFFFFFFFFFFFFFFFFFFFFFFFFFFFFFFFFF AND PUSH20 0xFFFFFFFFFFFFFFFFFFFFFFFFFFFFFFFFFFFFFFFF AND EQ PUSH3 0x5CE JUMPI PUSH1 0x40 MLOAD PUSH32 0x8C379A000000000000000000000000000000000000000000000000000000000 DUP2 MSTORE PUSH1 0x4 ADD PUSH3 0x5C5 SWAP1 PUSH3 0x2F23 JUMP JUMPDEST PUSH1 0x40 MLOAD DUP1 SWAP2 SUB SWAP1 REVERT JUMPDEST PUSH1 0x0 PUSH1 0x8 PUSH1 0x0 DUP7 DUP2 MSTORE PUSH1 0x20 ADD SWAP1 DUP2 MSTORE PUSH1 0x20 ADD PUSH1 0x0 KECCAK256 DUP5 DUP2 SLOAD DUP2 LT PUSH3 0x5F8 JUMPI PUSH3 0x5F7 PUSH3 0x2DFB JUMP JUMPDEST JUMPDEST SWAP1 PUSH1 0x0 MSTORE PUSH1 0x20 PUSH1 0x0 KECCAK256 SWAP1 PUSH1 0x7 MUL ADD PUSH1 0x4 ADD PUSH1 0x0 SWAP1 SLOAD SWAP1 PUSH2 0x100 EXP SWAP1 DIV PUSH20 0xFFFFFFFFFFFFFFFFFFFFFFFFFFFFFFFFFFFFFFFF AND SWAP1 POP PUSH3 0x63B DUP6 DUP6 DUP4 PUSH1 0x1 PUSH3 0x1F19 JUMP JUMPDEST POP PUSH32 0xD6032776AFDED2C5B6C20C518992C74C512297654F179DDF79620BECA2248E6 DUP5 DUP3 PUSH1 0x40 MLOAD PUSH3 0x66F SWAP3 SWAP2 SWAP1 PUSH3 0x2F95 JUMP JUMPDEST PUSH1 0x40 MLOAD DUP1 SWAP2 SUB SWAP1 LOG1 PUSH1 0x1 SWAP2 POP POP SWAP4 SWAP3 POP POP POP JUMP JUMPDEST PUSH1 0x0 DUP1 PUSH1 0x0 JUMPDEST PUSH1 0x8 PUSH1 0x0 DUP6 DUP2 MSTORE PUSH1 0x20 ADD SWAP1 DUP2 MSTORE PUSH1 0x20 ADD PUSH1 0x0 KECCAK256 DUP1 SLOAD SWAP1 POP DUP2 LT ISZERO PUSH3 0x759 JUMPI DUP5 PUSH20 0xFFFFFFFFFFFFFFFFFFFFFFFFFFFFFFFFFFFFFFFF AND PUSH1 0x8 PUSH1 0x0 DUP7 DUP2 MSTORE PUSH1 0x20 ADD SWAP1 DUP2 MSTORE PUSH1 0x20 ADD PUSH1 0x0 KECCAK256 DUP3 DUP2 SLOAD DUP2 LT PUSH3 0x6E7 JUMPI PUSH3 0x6E6 PUSH3 0x2DFB JUMP JUMPDEST JUMPDEST SWAP1 PUSH1 0x0 MSTORE PUSH1 0x20 PUSH1 0x0 KECCAK256 SWAP1 PUSH1 0x7 MUL ADD PUSH1 0x4 ADD PUSH1 0x0 SWAP1 SLOAD SWAP1 PUSH2 0x100 EXP SWAP1 DIV PUSH20 0xFFFFFFFFFFFFFFFFFFFFFFFFFFFFFFFFFFFFFFFF AND PUSH20 0xFFFFFFFFFFFFFFFFFFFFFFFFFFFFFFFFFFFFFFFF AND SUB PUSH3 0x743 JUMPI PUSH1 0x1 DUP2 SWAP3 POP SWAP3 POP POP PUSH3 0x762 JUMP JUMPDEST DUP1 DUP1 PUSH3 0x750 SWAP1 PUSH3 0x3006 JUMP JUMPDEST SWAP2 POP POP PUSH3 0x689 JUMP JUMPDEST POP PUSH1 0x0 DUP1 SWAP2 POP SWAP2 POP JUMPDEST SWAP3 POP SWAP3 SWAP1 POP JUMP JUMPDEST PUSH1 0x0 DUP1 PUSH1 0x0 SWAP1 SLOAD SWAP1 PUSH2 0x100 EXP SWAP1 DIV PUSH20 0xFFFFFFFFFFFFFFFFFFFFFFFFFFFFFFFFFFFFFFFF AND PUSH20 0xFFFFFFFFFFFFFFFFFFFFFFFFFFFFFFFFFFFFFFFF AND CALLER PUSH20 0xFFFFFFFFFFFFFFFFFFFFFFFFFFFFFFFFFFFFFFFF AND EQ PUSH3 0x7FD JUMPI PUSH1 0x40 MLOAD PUSH32 0x8C379A000000000000000000000000000000000000000000000000000000000 DUP2 MSTORE PUSH1 0x4 ADD PUSH3 0x7F4 SWAP1 PUSH3 0x30A3 JUMP JUMPDEST PUSH1 0x40 MLOAD DUP1 SWAP2 SUB SWAP1 REVERT JUMPDEST PUSH1 0x0 DUP3 GT PUSH3 0x843 JUMPI PUSH1 0x40 MLOAD PUSH32 0x8C379A000000000000000000000000000000000000000000000000000000000 DUP2 MSTORE PUSH1 0x4 ADD PUSH3 0x83A SWAP1 PUSH3 0x3115 JUMP JUMPDEST PUSH1 0x40 MLOAD DUP1 SWAP2 SUB SWAP1 REVERT JUMPDEST DUP2 PUSH1 0x4 DUP2 SWAP1 SSTORE POP PUSH32 0xCFBF529B549D5A8851C7CB749D69134057323ACBC44E369F97F3600C719F40A8 DUP3 PUSH1 0x40 MLOAD PUSH3 0x87B SWAP2 SWAP1 PUSH3 0x3187 JUMP JUMPDEST PUSH1 0x40 MLOAD DUP1 SWAP2 SUB SWAP1 LOG1 PUSH1 0x1 SWAP1 POP SWAP2 SWAP1 POP JUMP JUMPDEST PUSH1 0x9 PUSH1 0x20 MSTORE DUP1 PUSH1 0x0 MSTORE PUSH1 0x40 PUSH1 0x0 KECCAK256 PUSH1 0x0 SWAP2 POP SLOAD SWAP1 PUSH2 0x100 EXP SWAP1 DIV PUSH1 0xFF AND DUP2 JUMP JUMPDEST PUSH1 0x8 PUSH1 0x20 MSTORE DUP2 PUSH1 0x0 MSTORE PUSH1 0x40 PUSH1 0x0 KECCAK256 DUP2 DUP2 SLOAD DUP2 LT PUSH3 0x8C9 JUMPI PUSH1 0x0 DUP1 REVERT JUMPDEST SWAP1 PUSH1 0x0 MSTORE PUSH1 0x20 PUSH1 0x0 KECCAK256 SWAP1 PUSH1 0x7 MUL ADD PUSH1 0x0 SWAP2 POP SWAP2 POP POP DUP1 PUSH1 0x0 ADD SLOAD SWAP1 DUP1 PUSH1 0x1 ADD SLOAD SWAP1 DUP1 PUSH1 0x2 ADD SLOAD SWAP1 DUP1 PUSH1 0x3 ADD SLOAD SWAP1 DUP1 PUSH1 0x4 ADD PUSH1 0x0 SWAP1 SLOAD SWAP1 PUSH2 0x100 EXP SWAP1 DIV PUSH20 0xFFFFFFFFFFFFFFFFFFFFFFFFFFFFFFFFFFFFFFFF AND SWAP1 DUP1 PUSH1 0x5 ADD PUSH1 0x0 SWAP1 SLOAD SWAP1 PUSH2 0x100 EXP SWAP1 DIV PUSH20 0xFFFFFFFFFFFFFFFFFFFFFFFFFFFFFFFFFFFFFFFF AND SWAP1 DUP1 PUSH1 0x6 ADD PUSH1 0x0 SWAP1 SLOAD SWAP1 PUSH2 0x100 EXP SWAP1 DIV PUSH20 0xFFFFFFFFFFFFFFFFFFFFFFFFFFFFFFFFFFFFFFFF AND SWAP1 POP DUP8 JUMP JUMPDEST PUSH1 0x0 DUP1 PUSH3 0x97B DUP6 DUP10 PUSH3 0x683 JUMP JUMPDEST POP SWAP1 POP DUP1 ISZERO PUSH3 0x9C2 JUMPI PUSH1 0x40 MLOAD PUSH32 0x8C379A000000000000000000000000000000000000000000000000000000000 DUP2 MSTORE PUSH1 0x4 ADD PUSH3 0x9B9 SWAP1 PUSH3 0x3209 JUMP JUMPDEST PUSH1 0x40 MLOAD DUP1 SWAP2 SUB SWAP1 REVERT JUMPDEST DUP3 DUP8 PUSH3 0x9D0 SWAP2 SWAP1 PUSH3 0x322B JUMP JUMPDEST PUSH1 0x6 PUSH1 0x0 SWAP1 SLOAD SWAP1 PUSH2 0x100 EXP SWAP1 DIV PUSH20 0xFFFFFFFFFFFFFFFFFFFFFFFFFFFFFFFFFFFFFFFF AND PUSH20 0xFFFFFFFFFFFFFFFFFFFFFFFFFFFFFFFFFFFFFFFF AND PUSH4 0x70A08231 DUP8 PUSH1 0x40 MLOAD DUP3 PUSH4 0xFFFFFFFF AND PUSH1 0xE0 SHL DUP2 MSTORE PUSH1 0x4 ADD PUSH3 0xA2D SWAP2 SWAP1 PUSH3 0x2D09 JUMP JUMPDEST PUSH1 0x20 PUSH1 0x40 MLOAD DUP1 DUP4 SUB DUP2 DUP7 GAS STATICCALL ISZERO DUP1 ISZERO PUSH3 0xA4B JUMPI RETURNDATASIZE PUSH1 0x0 DUP1 RETURNDATACOPY RETURNDATASIZE PUSH1 0x0 REVERT JUMPDEST POP POP POP POP PUSH1 0x40 MLOAD RETURNDATASIZE PUSH1 0x1F NOT PUSH1 0x1F DUP3 ADD AND DUP3 ADD DUP1 PUSH1 0x40 MSTORE POP DUP2 ADD SWAP1 PUSH3 0xA71 SWAP2 SWAP1 PUSH3 0x327D JUMP JUMPDEST LT ISZERO PUSH3 0xAB5 JUMPI PUSH1 0x40 MLOAD PUSH32 0x8C379A000000000000000000000000000000000000000000000000000000000 DUP2 MSTORE PUSH1 0x4 ADD PUSH3 0xAAC SWAP1 PUSH3 0x3325 JUMP JUMPDEST PUSH1 0x40 MLOAD DUP1 SWAP2 SUB SWAP1 REVERT JUMPDEST DUP6 TIMESTAMP LT PUSH3 0xAFA JUMPI PUSH1 0x40 MLOAD PUSH32 0x8C379A000000000000000000000000000000000000000000000000000000000 DUP2 MSTORE PUSH1 0x4 ADD PUSH3 0xAF1 SWAP1 PUSH3 0x3397 JUMP JUMPDEST PUSH1 0x40 MLOAD DUP1 SWAP2 SUB SWAP1 REVERT JUMPDEST PUSH1 0x0 PUSH1 0x2 PUSH1 0x0 SWAP1 SLOAD SWAP1 PUSH2 0x100 EXP SWAP1 DIV PUSH20 0xFFFFFFFFFFFFFFFFFFFFFFFFFFFFFFFFFFFFFFFF AND DUP10 PUSH1 0x1 PUSH1 0x0 SWAP1 SLOAD SWAP1 PUSH2 0x100 EXP SWAP1 DIV PUSH20 0xFFFFFFFFFFFFFFFFFFFFFFFFFFFFFFFFFFFFFFFF AND PUSH1 0x40 MLOAD PUSH3 0xB51 SWAP1 PUSH3 0x27DC JUMP JUMPDEST PUSH3 0xB5F SWAP4 SWAP3 SWAP2 SWAP1 PUSH3 0x33B9 JUMP JUMPDEST PUSH1 0x40 MLOAD DUP1 SWAP2 SUB SWAP1 PUSH1 0x0 CREATE DUP1 ISZERO DUP1 ISZERO PUSH3 0xB7C JUMPI RETURNDATASIZE PUSH1 0x0 DUP1 RETURNDATACOPY RETURNDATASIZE PUSH1 0x0 REVERT JUMPDEST POP SWAP1 POP PUSH1 0x8 PUSH1 0x0 DUP11 DUP2 MSTORE PUSH1 0x20 ADD SWAP1 DUP2 MSTORE PUSH1 0x20 ADD PUSH1 0x0 KECCAK256 PUSH1 0x40 MLOAD DUP1 PUSH1 0xE0 ADD PUSH1 0x40 MSTORE DUP1 PUSH1 0x8 PUSH1 0x0 DUP14 DUP2 MSTORE PUSH1 0x20 ADD SWAP1 DUP2 MSTORE PUSH1 0x20 ADD PUSH1 0x0 KECCAK256 DUP1 SLOAD SWAP1 POP DUP2 MSTORE PUSH1 0x20 ADD DUP11 DUP2 MSTORE PUSH1 0x20 ADD DUP12 DUP2 MSTORE PUSH1 0x20 ADD DUP10 DUP2 MSTORE PUSH1 0x20 ADD DUP9 PUSH20 0xFFFFFFFFFFFFFFFFFFFFFFFFFFFFFFFFFFFFFFFF AND DUP2 MSTORE PUSH1 0x20 ADD DUP8 PUSH20 0xFFFFFFFFFFFFFFFFFFFFFFFFFFFFFFFFFFFFFFFF AND DUP2 MSTORE PUSH1 0x20 ADD DUP4 PUSH20 0xFFFFFFFFFFFFFFFFFFFFFFFFFFFFFFFFFFFFFFFF AND DUP2 MSTORE POP SWAP1 DUP1 PUSH1 0x1 DUP2 SLOAD ADD DUP1 DUP3 SSTORE DUP1 SWAP2 POP POP PUSH1 0x1 SWAP1 SUB SWAP1 PUSH1 0x0 MSTORE PUSH1 0x20 PUSH1 0x0 KECCAK256 SWAP1 PUSH1 0x7 MUL ADD PUSH1 0x0 SWAP1 SWAP2 SWAP1 SWAP2 SWAP1 SWAP2 POP PUSH1 0x0 DUP3 ADD MLOAD DUP2 PUSH1 0x0 ADD SSTORE PUSH1 0x20 DUP3 ADD MLOAD DUP2 PUSH1 0x1 ADD SSTORE PUSH1 0x40 DUP3 ADD MLOAD DUP2 PUSH1 0x2 ADD SSTORE PUSH1 0x60 DUP3 ADD MLOAD DUP2 PUSH1 0x3 ADD SSTORE PUSH1 0x80 DUP3 ADD MLOAD DUP2 PUSH1 0x4 ADD PUSH1 0x0 PUSH2 0x100 EXP DUP2 SLOAD DUP2 PUSH20 0xFFFFFFFFFFFFFFFFFFFFFFFFFFFFFFFFFFFFFFFF MUL NOT AND SWAP1 DUP4 PUSH20 0xFFFFFFFFFFFFFFFFFFFFFFFFFFFFFFFFFFFFFFFF AND MUL OR SWAP1 SSTORE POP PUSH1 0xA0 DUP3 ADD MLOAD DUP2 PUSH1 0x5 ADD PUSH1 0x0 PUSH2 0x100 EXP DUP2 SLOAD DUP2 PUSH20 0xFFFFFFFFFFFFFFFFFFFFFFFFFFFFFFFFFFFFFFFF MUL NOT AND SWAP1 DUP4 PUSH20 0xFFFFFFFFFFFFFFFFFFFFFFFFFFFFFFFFFFFFFFFF AND MUL OR SWAP1 SSTORE POP PUSH1 0xC0 DUP3 ADD MLOAD DUP2 PUSH1 0x6 ADD PUSH1 0x0 PUSH2 0x100 EXP DUP2 SLOAD DUP2 PUSH20 0xFFFFFFFFFFFFFFFFFFFFFFFFFFFFFFFFFFFFFFFF MUL NOT AND SWAP1 DUP4 PUSH20 0xFFFFFFFFFFFFFFFFFFFFFFFFFFFFFFFFFFFFFFFF AND MUL OR SWAP1 SSTORE POP POP POP PUSH1 0x6 PUSH1 0x0 SWAP1 SLOAD SWAP1 PUSH2 0x100 EXP SWAP1 DIV PUSH20 0xFFFFFFFFFFFFFFFFFFFFFFFFFFFFFFFFFFFFFFFF AND PUSH20 0xFFFFFFFFFFFFFFFFFFFFFFFFFFFFFFFFFFFFFFFF AND PUSH4 0x23B872DD DUP8 DUP4 DUP8 DUP13 PUSH3 0xD93 SWAP2 SWAP1 PUSH3 0x322B JUMP JUMPDEST PUSH1 0x40 MLOAD DUP5 PUSH4 0xFFFFFFFF AND PUSH1 0xE0 SHL DUP2 MSTORE PUSH1 0x4 ADD PUSH3 0xDB3 SWAP4 SWAP3 SWAP2 SWAP1 PUSH3 0x33F6 JUMP JUMPDEST PUSH1 0x20 PUSH1 0x40 MLOAD DUP1 DUP4 SUB DUP2 PUSH1 0x0 DUP8 GAS CALL ISZERO DUP1 ISZERO PUSH3 0xDD3 JUMPI RETURNDATASIZE PUSH1 0x0 DUP1 RETURNDATACOPY RETURNDATASIZE PUSH1 0x0 REVERT JUMPDEST POP POP POP POP PUSH1 0x40 MLOAD RETURNDATASIZE PUSH1 0x1F NOT PUSH1 0x1F DUP3 ADD AND DUP3 ADD DUP1 PUSH1 0x40 MSTORE POP DUP2 ADD SWAP1 PUSH3 0xDF9 SWAP2 SWAP1 PUSH3 0x344A JUMP JUMPDEST POP PUSH32 0x43CAFC0EC23327F2412F46818BB8615EBC3EB3081D0CB3F1C60521BFEBF86BF0 DUP7 DUP10 DUP10 DUP13 PUSH1 0x40 MLOAD PUSH3 0xE31 SWAP5 SWAP4 SWAP3 SWAP2 SWAP1 PUSH3 0x347C JUMP JUMPDEST PUSH1 0x40 MLOAD DUP1 SWAP2 SUB SWAP1 LOG1 PUSH1 0x1 PUSH1 0x8 PUSH1 0x0 DUP12 DUP2 MSTORE PUSH1 0x20 ADD SWAP1 DUP2 MSTORE PUSH1 0x20 ADD PUSH1 0x0 KECCAK256 DUP1 SLOAD SWAP1 POP PUSH3 0xE5E SWAP2 SWAP1 PUSH3 0x34C9 JUMP JUMPDEST SWAP3 POP POP POP SWAP7 SWAP6 POP POP POP POP POP POP JUMP JUMPDEST PUSH1 0x60 PUSH1 0x8 PUSH1 0x0 DUP4 DUP2 MSTORE PUSH1 0x20 ADD SWAP1 DUP2 MSTORE PUSH1 0x20 ADD PUSH1 0x0 KECCAK256 DUP1 SLOAD DUP1 PUSH1 0x20 MUL PUSH1 0x20 ADD PUSH1 0x40 MLOAD SWAP1 DUP2 ADD PUSH1 0x40 MSTORE DUP1 SWAP3 SWAP2 SWAP1 DUP2 DUP2 MSTORE PUSH1 0x20 ADD PUSH1 0x0 SWAP1 JUMPDEST DUP3 DUP3 LT ISZERO PUSH3 0xFFF JUMPI DUP4 DUP3 SWAP1 PUSH1 0x0 MSTORE PUSH1 0x20 PUSH1 0x0 KECCAK256 SWAP1 PUSH1 0x7 MUL ADD PUSH1 0x40 MLOAD DUP1 PUSH1 0xE0 ADD PUSH1 0x40 MSTORE SWAP1 DUP2 PUSH1 0x0 DUP3 ADD SLOAD DUP2 MSTORE PUSH1 0x20 ADD PUSH1 0x1 DUP3 ADD SLOAD DUP2 MSTORE PUSH1 0x20 ADD PUSH1 0x2 DUP3 ADD SLOAD DUP2 MSTORE PUSH1 0x20 ADD PUSH1 0x3 DUP3 ADD SLOAD DUP2 MSTORE PUSH1 0x20 ADD PUSH1 0x4 DUP3 ADD PUSH1 0x0 SWAP1 SLOAD SWAP1 PUSH2 0x100 EXP SWAP1 DIV PUSH20 0xFFFFFFFFFFFFFFFFFFFFFFFFFFFFFFFFFFFFFFFF AND PUSH20 0xFFFFFFFFFFFFFFFFFFFFFFFFFFFFFFFFFFFFFFFF AND PUSH20 0xFFFFFFFFFFFFFFFFFFFFFFFFFFFFFFFFFFFFFFFF AND DUP2 MSTORE PUSH1 0x20 ADD PUSH1 0x5 DUP3 ADD PUSH1 0x0 SWAP1 SLOAD SWAP1 PUSH2 0x100 EXP SWAP1 DIV PUSH20 0xFFFFFFFFFFFFFFFFFFFFFFFFFFFFFFFFFFFFFFFF AND PUSH20 0xFFFFFFFFFFFFFFFFFFFFFFFFFFFFFFFFFFFFFFFF AND PUSH20 0xFFFFFFFFFFFFFFFFFFFFFFFFFFFFFFFFFFFFFFFF AND DUP2 MSTORE PUSH1 0x20 ADD PUSH1 0x6 DUP3 ADD PUSH1 0x0 SWAP1 SLOAD SWAP1 PUSH2 0x100 EXP SWAP1 DIV PUSH20 0xFFFFFFFFFFFFFFFFFFFFFFFFFFFFFFFFFFFFFFFF AND PUSH20 0xFFFFFFFFFFFFFFFFFFFFFFFFFFFFFFFFFFFFFFFF AND PUSH20 0xFFFFFFFFFFFFFFFFFFFFFFFFFFFFFFFFFFFFFFFF AND DUP2 MSTORE POP POP DUP2 MSTORE PUSH1 0x20 ADD SWAP1 PUSH1 0x1 ADD SWAP1 PUSH3 0xEA1 JUMP JUMPDEST POP POP POP POP SWAP1 POP SWAP2 SWAP1 POP JUMP JUMPDEST PUSH1 0x1 PUSH1 0x0 SWAP1 SLOAD SWAP1 PUSH2 0x100 EXP SWAP1 DIV PUSH20 0xFFFFFFFFFFFFFFFFFFFFFFFFFFFFFFFFFFFFFFFF AND DUP2 JUMP JUMPDEST PUSH1 0x0 PUSH1 0x9 PUSH1 0x0 DUP7 DUP2 MSTORE PUSH1 0x20 ADD SWAP1 DUP2 MSTORE PUSH1 0x20 ADD PUSH1 0x0 KECCAK256 PUSH1 0x0 SWAP1 SLOAD SWAP1 PUSH2 0x100 EXP SWAP1 DIV PUSH1 0xFF AND ISZERO PUSH3 0x1096 JUMPI PUSH1 0x40 MLOAD PUSH32 0x8C379A000000000000000000000000000000000000000000000000000000000 DUP2 MSTORE PUSH1 0x4 ADD PUSH3 0x108D SWAP1 PUSH3 0x3554 JUMP JUMPDEST PUSH1 0x40 MLOAD DUP1 SWAP2 SUB SWAP1 REVERT JUMPDEST PUSH1 0x0 PUSH20 0xFFFFFFFFFFFFFFFFFFFFFFFFFFFFFFFFFFFFFFFF AND PUSH1 0x8 PUSH1 0x0 DUP8 DUP2 MSTORE PUSH1 0x20 ADD SWAP1 DUP2 MSTORE PUSH1 0x20 ADD PUSH1 0x0 KECCAK256 DUP6 DUP2 SLOAD DUP2 LT PUSH3 0x10D6 JUMPI PUSH3 0x10D5 PUSH3 0x2DFB JUMP JUMPDEST JUMPDEST SWAP1 PUSH1 0x0 MSTORE PUSH1 0x20 PUSH1 0x0 KECCAK256 SWAP1 PUSH1 0x7 MUL ADD PUSH1 0x4 ADD PUSH1 0x0 SWAP1 SLOAD SWAP1 PUSH2 0x100 EXP SWAP1 DIV PUSH20 0xFFFFFFFFFFFFFFFFFFFFFFFFFFFFFFFFFFFFFFFF AND PUSH20 0xFFFFFFFFFFFFFFFFFFFFFFFFFFFFFFFFFFFFFFFF AND SUB PUSH3 0x1161 JUMPI PUSH1 0x40 MLOAD PUSH32 0x8C379A000000000000000000000000000000000000000000000000000000000 DUP2 MSTORE PUSH1 0x4 ADD PUSH3 0x1158 SWAP1 PUSH3 0x2E8B JUMP JUMPDEST PUSH1 0x40 MLOAD DUP1 SWAP2 SUB SWAP1 REVERT JUMPDEST DUP3 PUSH20 0xFFFFFFFFFFFFFFFFFFFFFFFFFFFFFFFFFFFFFFFF AND PUSH1 0x8 PUSH1 0x0 DUP8 DUP2 MSTORE PUSH1 0x20 ADD SWAP1 DUP2 MSTORE PUSH1 0x20 ADD PUSH1 0x0 KECCAK256 DUP6 DUP2 SLOAD DUP2 LT PUSH3 0x11A0 JUMPI PUSH3 0x119F PUSH3 0x2DFB JUMP JUMPDEST JUMPDEST SWAP1 PUSH1 0x0 MSTORE PUSH1 0x20 PUSH1 0x0 KECCAK256 SWAP1 PUSH1 0x7 MUL ADD PUSH1 0x5 ADD PUSH1 0x0 SWAP1 SLOAD SWAP1 PUSH2 0x100 EXP SWAP1 DIV PUSH20 0xFFFFFFFFFFFFFFFFFFFFFFFFFFFFFFFFFFFFFFFF AND PUSH20 0xFFFFFFFFFFFFFFFFFFFFFFFFFFFFFFFFFFFFFFFF AND EQ PUSH3 0x122B JUMPI PUSH1 0x40 MLOAD PUSH32 0x8C379A000000000000000000000000000000000000000000000000000000000 DUP2 MSTORE PUSH1 0x4 ADD PUSH3 0x1222 SWAP1 PUSH3 0x2F23 JUMP JUMPDEST PUSH1 0x40 MLOAD DUP1 SWAP2 SUB SWAP1 REVERT JUMPDEST PUSH1 0x0 PUSH1 0x8 PUSH1 0x0 DUP8 DUP2 MSTORE PUSH1 0x20 ADD SWAP1 DUP2 MSTORE PUSH1 0x20 ADD PUSH1 0x0 KECCAK256 DUP6 DUP2 SLOAD DUP2 LT PUSH3 0x1255 JUMPI PUSH3 0x1254 PUSH3 0x2DFB JUMP JUMPDEST JUMPDEST SWAP1 PUSH1 0x0 MSTORE PUSH1 0x20 PUSH1 0x0 KECCAK256 SWAP1 PUSH1 0x7 MUL ADD PUSH1 0x4 ADD PUSH1 0x0 SWAP1 SLOAD SWAP1 PUSH2 0x100 EXP SWAP1 DIV PUSH20 0xFFFFFFFFFFFFFFFFFFFFFFFFFFFFFFFFFFFFFFFF AND SWAP1 POP PUSH1 0x0 PUSH1 0x8 PUSH1 0x0 DUP9 DUP2 MSTORE PUSH1 0x20 ADD SWAP1 DUP2 MSTORE PUSH1 0x20 ADD PUSH1 0x0 KECCAK256 DUP7 DUP2 SLOAD DUP2 LT PUSH3 0x12B3 JUMPI PUSH3 0x12B2 PUSH3 0x2DFB JUMP JUMPDEST JUMPDEST SWAP1 PUSH1 0x0 MSTORE PUSH1 0x20 PUSH1 0x0 KECCAK256 SWAP1 PUSH1 0x7 MUL ADD PUSH1 0x6 ADD PUSH1 0x0 SWAP1 SLOAD SWAP1 PUSH2 0x100 EXP SWAP1 DIV PUSH20 0xFFFFFFFFFFFFFFFFFFFFFFFFFFFFFFFFFFFFFFFF AND SWAP1 POP PUSH1 0x0 PUSH1 0x8 PUSH1 0x0 DUP10 DUP2 MSTORE PUSH1 0x20 ADD SWAP1 DUP2 MSTORE PUSH1 0x20 ADD PUSH1 0x0 KECCAK256 DUP8 DUP2 SLOAD DUP2 LT PUSH3 0x1311 JUMPI PUSH3 0x1310 PUSH3 0x2DFB JUMP JUMPDEST JUMPDEST SWAP1 PUSH1 0x0 MSTORE PUSH1 0x20 PUSH1 0x0 KECCAK256 SWAP1 PUSH1 0x7 MUL ADD PUSH1 0x1 ADD SLOAD SWAP1 POP PUSH1 0x0 DUP2 PUSH1 0x6 PUSH1 0x0 SWAP1 SLOAD SWAP1 PUSH2 0x100 EXP SWAP1 DIV PUSH20 0xFFFFFFFFFFFFFFFFFFFFFFFFFFFFFFFFFFFFFFFF AND PUSH20 0xFFFFFFFFFFFFFFFFFFFFFFFFFFFFFFFFFFFFFFFF AND PUSH4 0x70A08231 DUP6 PUSH1 0x40 MLOAD DUP3 PUSH4 0xFFFFFFFF AND PUSH1 0xE0 SHL DUP2 MSTORE PUSH1 0x4 ADD PUSH3 0x1385 SWAP2 SWAP1 PUSH3 0x2D09 JUMP JUMPDEST PUSH1 0x20 PUSH1 0x40 MLOAD DUP1 DUP4 SUB DUP2 DUP7 GAS STATICCALL ISZERO DUP1 ISZERO PUSH3 0x13A3 JUMPI RETURNDATASIZE PUSH1 0x0 DUP1 RETURNDATACOPY RETURNDATASIZE PUSH1 0x0 REVERT JUMPDEST POP POP POP POP PUSH1 0x40 MLOAD RETURNDATASIZE PUSH1 0x1F NOT PUSH1 0x1F DUP3 ADD AND DUP3 ADD DUP1 PUSH1 0x40 MSTORE POP DUP2 ADD SWAP1 PUSH3 0x13C9 SWAP2 SWAP1 PUSH3 0x327D JUMP JUMPDEST PUSH3 0x13D5 SWAP2 SWAP1 PUSH3 0x34C9 JUMP JUMPDEST SWAP1 POP PUSH1 0x0 PUSH2 0x2710 PUSH1 0x4 SLOAD DUP5 PUSH3 0x13EC SWAP2 SWAP1 PUSH3 0x3576 JUMP JUMPDEST PUSH3 0x13F8 SWAP2 SWAP1 PUSH3 0x35F0 JUMP JUMPDEST SWAP1 POP DUP1 DUP4 PUSH3 0x1408 SWAP2 SWAP1 PUSH3 0x34C9 JUMP JUMPDEST SWAP3 POP DUP2 DUP4 PUSH3 0x1418 SWAP2 SWAP1 PUSH3 0x322B JUMP JUMPDEST PUSH1 0x6 PUSH1 0x0 SWAP1 SLOAD SWAP1 PUSH2 0x100 EXP SWAP1 DIV PUSH20 0xFFFFFFFFFFFFFFFFFFFFFFFFFFFFFFFFFFFFFFFF AND PUSH20 0xFFFFFFFFFFFFFFFFFFFFFFFFFFFFFFFFFFFFFFFF AND PUSH4 0x70A08231 DUP7 PUSH1 0x40 MLOAD DUP3 PUSH4 0xFFFFFFFF AND PUSH1 0xE0 SHL DUP2 MSTORE PUSH1 0x4 ADD PUSH3 0x1475 SWAP2 SWAP1 PUSH3 0x2D09 JUMP JUMPDEST PUSH1 0x20 PUSH1 0x40 MLOAD DUP1 DUP4 SUB DUP2 DUP7 GAS STATICCALL ISZERO DUP1 ISZERO PUSH3 0x1493 JUMPI RETURNDATASIZE PUSH1 0x0 DUP1 RETURNDATACOPY RETURNDATASIZE PUSH1 0x0 REVERT JUMPDEST POP POP POP POP PUSH1 0x40 MLOAD RETURNDATASIZE PUSH1 0x1F NOT PUSH1 0x1F DUP3 ADD AND DUP3 ADD DUP1 PUSH1 0x40 MSTORE POP DUP2 ADD SWAP1 PUSH3 0x14B9 SWAP2 SWAP1 PUSH3 0x327D JUMP JUMPDEST LT ISZERO PUSH3 0x14FD JUMPI PUSH1 0x40 MLOAD PUSH32 0x8C379A000000000000000000000000000000000000000000000000000000000 DUP2 MSTORE PUSH1 0x4 ADD PUSH3 0x14F4 SWAP1 PUSH3 0x369E JUMP JUMPDEST PUSH1 0x40 MLOAD DUP1 SWAP2 SUB SWAP1 REVERT JUMPDEST PUSH3 0x150C DUP11 DUP11 DUP8 PUSH1 0x0 PUSH3 0x1F19 JUMP JUMPDEST POP PUSH1 0x7 PUSH1 0x0 SWAP1 SLOAD SWAP1 PUSH2 0x100 EXP SWAP1 DIV PUSH20 0xFFFFFFFFFFFFFFFFFFFFFFFFFFFFFFFFFFFFFFFF AND PUSH20 0xFFFFFFFFFFFFFFFFFFFFFFFFFFFFFFFFFFFFFFFF AND PUSH4 0xF242432A DUP10 DUP7 DUP14 PUSH1 0x1 PUSH1 0x40 MLOAD DUP6 PUSH4 0xFFFFFFFF AND PUSH1 0xE0 SHL DUP2 MSTORE PUSH1 0x4 ADD PUSH3 0x1571 SWAP5 SWAP4 SWAP3 SWAP2 SWAP1 PUSH3 0x3748 JUMP JUMPDEST PUSH1 0x0 PUSH1 0x40 MLOAD DUP1 DUP4 SUB DUP2 PUSH1 0x0 DUP8 DUP1 EXTCODESIZE ISZERO DUP1 ISZERO PUSH3 0x158C JUMPI PUSH1 0x0 DUP1 REVERT JUMPDEST POP GAS CALL ISZERO DUP1 ISZERO PUSH3 0x15A1 JUMPI RETURNDATASIZE PUSH1 0x0 DUP1 RETURNDATACOPY RETURNDATASIZE PUSH1 0x0 REVERT JUMPDEST POP POP POP POP DUP4 PUSH20 0xFFFFFFFFFFFFFFFFFFFFFFFFFFFFFFFFFFFFFFFF AND PUSH4 0xCEFF9468 DUP7 PUSH1 0x40 MLOAD DUP3 PUSH4 0xFFFFFFFF AND PUSH1 0xE0 SHL DUP2 MSTORE PUSH1 0x4 ADD PUSH3 0x15E0 SWAP2 SWAP1 PUSH3 0x2D09 JUMP JUMPDEST PUSH1 0x20 PUSH1 0x40 MLOAD DUP1 DUP4 SUB DUP2 PUSH1 0x0 DUP8 GAS CALL ISZERO DUP1 ISZERO PUSH3 0x1600 JUMPI RETURNDATASIZE PUSH1 0x0 DUP1 RETURNDATACOPY RETURNDATASIZE PUSH1 0x0 REVERT JUMPDEST POP POP POP POP PUSH1 0x40 MLOAD RETURNDATASIZE PUSH1 0x1F NOT PUSH1 0x1F DUP3 ADD AND DUP3 ADD DUP1 PUSH1 0x40 MSTORE POP DUP2 ADD SWAP1 PUSH3 0x1626 SWAP2 SWAP1 PUSH3 0x344A JUMP JUMPDEST POP PUSH32 0xACF2539A66A8B6C88E83F5BFF8BF90D5CD86386709023449EFD0190DFDD1514C DUP10 DUP7 DUP6 PUSH1 0x40 MLOAD PUSH3 0x165C SWAP4 SWAP3 SWAP2 SWAP1 PUSH3 0x37AA JUMP JUMPDEST PUSH1 0x40 MLOAD DUP1 SWAP2 SUB SWAP1 LOG1 DUP4 PUSH20 0xFFFFFFFFFFFFFFFFFFFFFFFFFFFFFFFFFFFFFFFF AND PUSH4 0xD580408A DUP10 DUP6 PUSH1 0x40 MLOAD DUP4 PUSH4 0xFFFFFFFF AND PUSH1 0xE0 SHL DUP2 MSTORE PUSH1 0x4 ADD PUSH3 0x16A1 SWAP3 SWAP2 SWAP1 PUSH3 0x37E7 JUMP JUMPDEST PUSH1 0x20 PUSH1 0x40 MLOAD DUP1 DUP4 SUB DUP2 PUSH1 0x0 DUP8 GAS CALL ISZERO DUP1 ISZERO PUSH3 0x16C1 JUMPI RETURNDATASIZE PUSH1 0x0 DUP1 RETURNDATACOPY RETURNDATASIZE PUSH1 0x0 REVERT JUMPDEST POP POP POP POP PUSH1 0x40 MLOAD RETURNDATASIZE PUSH1 0x1F NOT PUSH1 0x1F DUP3 ADD AND DUP3 ADD DUP1 PUSH1 0x40 MSTORE POP DUP2 ADD SWAP1 PUSH3 0x16E7 SWAP2 SWAP1 PUSH3 0x344A JUMP JUMPDEST POP DUP4 PUSH20 0xFFFFFFFFFFFFFFFFFFFFFFFFFFFFFFFFFFFFFFFF AND PUSH4 0xD580408A PUSH1 0x3 PUSH1 0x0 SWAP1 SLOAD SWAP1 PUSH2 0x100 EXP SWAP1 DIV PUSH20 0xFFFFFFFFFFFFFFFFFFFFFFFFFFFFFFFFFFFFFFFF AND DUP5 PUSH1 0x40 MLOAD DUP4 PUSH4 0xFFFFFFFF AND PUSH1 0xE0 SHL DUP2 MSTORE PUSH1 0x4 ADD PUSH3 0x1747 SWAP3 SWAP2 SWAP1 PUSH3 0x37E7 JUMP JUMPDEST PUSH1 0x20 PUSH1 0x40 MLOAD DUP1 DUP4 SUB DUP2 PUSH1 0x0 DUP8 GAS CALL ISZERO DUP1 ISZERO PUSH3 0x1767 JUMPI RETURNDATASIZE PUSH1 0x0 DUP1 RETURNDATACOPY RETURNDATASIZE PUSH1 0x0 REVERT JUMPDEST POP POP POP POP PUSH1 0x40 MLOAD RETURNDATASIZE PUSH1 0x1F NOT PUSH1 0x1F DUP3 ADD AND DUP3 ADD DUP1 PUSH1 0x40 MSTORE POP DUP2 ADD SWAP1 PUSH3 0x178D SWAP2 SWAP1 PUSH3 0x344A JUMP JUMPDEST POP DUP4 PUSH20 0xFFFFFFFFFFFFFFFFFFFFFFFFFFFFFFFFFFFFFFFF AND PUSH4 0xD580408A PUSH1 0x3 PUSH1 0x0 SWAP1 SLOAD SWAP1 PUSH2 0x100 EXP SWAP1 DIV PUSH20 0xFFFFFFFFFFFFFFFFFFFFFFFFFFFFFFFFFFFFFFFF AND DUP4 PUSH1 0x40 MLOAD DUP4 PUSH4 0xFFFFFFFF AND PUSH1 0xE0 SHL DUP2 MSTORE PUSH1 0x4 ADD PUSH3 0x17ED SWAP3 SWAP2 SWAP1 PUSH3 0x37E7 JUMP JUMPDEST PUSH1 0x20 PUSH1 0x40 MLOAD DUP1 DUP4 SUB DUP2 PUSH1 0x0 DUP8 GAS CALL ISZERO DUP1 ISZERO PUSH3 0x180D JUMPI RETURNDATASIZE PUSH1 0x0 DUP1 RETURNDATACOPY RETURNDATASIZE PUSH1 0x0 REVERT JUMPDEST POP POP POP POP PUSH1 0x40 MLOAD RETURNDATASIZE PUSH1 0x1F NOT PUSH1 0x1F DUP3 ADD AND DUP3 ADD DUP1 PUSH1 0x40 MSTORE POP DUP2 ADD SWAP1 PUSH3 0x1833 SWAP2 SWAP1 PUSH3 0x344A JUMP JUMPDEST POP DUP7 DUP1 ISZERO PUSH3 0x1858 JUMPI POP PUSH1 0x0 PUSH1 0x8 PUSH1 0x0 DUP13 DUP2 MSTORE PUSH1 0x20 ADD SWAP1 DUP2 MSTORE PUSH1 0x20 ADD PUSH1 0x0 KECCAK256 DUP1 SLOAD SWAP1 POP GT JUMPDEST ISZERO PUSH3 0x1AE7 JUMPI PUSH1 0x0 PUSH1 0x8 PUSH1 0x0 DUP13 DUP2 MSTORE PUSH1 0x20 ADD SWAP1 DUP2 MSTORE PUSH1 0x20 ADD PUSH1 0x0 KECCAK256 DUP1 SLOAD SWAP1 POP SWAP1 POP PUSH1 0x0 DUP2 PUSH8 0xFFFFFFFFFFFFFFFF DUP2 GT ISZERO PUSH3 0x1898 JUMPI PUSH3 0x1897 PUSH3 0x3814 JUMP JUMPDEST JUMPDEST PUSH1 0x40 MLOAD SWAP1 DUP1 DUP3 MSTORE DUP1 PUSH1 0x20 MUL PUSH1 0x20 ADD DUP3 ADD PUSH1 0x40 MSTORE DUP1 ISZERO PUSH3 0x18C7 JUMPI DUP2 PUSH1 0x20 ADD PUSH1 0x20 DUP3 MUL DUP1 CALLDATASIZE DUP4 CALLDATACOPY DUP1 DUP3 ADD SWAP2 POP POP SWAP1 POP JUMPDEST POP SWAP1 POP PUSH1 0x0 DUP3 PUSH8 0xFFFFFFFFFFFFFFFF DUP2 GT ISZERO PUSH3 0x18E9 JUMPI PUSH3 0x18E8 PUSH3 0x3814 JUMP JUMPDEST JUMPDEST PUSH1 0x40 MLOAD SWAP1 DUP1 DUP3 MSTORE DUP1 PUSH1 0x20 MUL PUSH1 0x20 ADD DUP3 ADD PUSH1 0x40 MSTORE DUP1 ISZERO PUSH3 0x1918 JUMPI DUP2 PUSH1 0x20 ADD PUSH1 0x20 DUP3 MUL DUP1 CALLDATASIZE DUP4 CALLDATACOPY DUP1 DUP3 ADD SWAP2 POP POP SWAP1 POP JUMPDEST POP SWAP1 POP PUSH1 0x0 JUMPDEST DUP4 DUP2 LT ISZERO PUSH3 0x1A43 JUMPI PUSH1 0x8 PUSH1 0x0 DUP16 DUP2 MSTORE PUSH1 0x20 ADD SWAP1 DUP2 MSTORE PUSH1 0x20 ADD PUSH1 0x0 KECCAK256 DUP2 DUP2 SLOAD DUP2 LT PUSH3 0x194F JUMPI PUSH3 0x194E PUSH3 0x2DFB JUMP JUMPDEST JUMPDEST SWAP1 PUSH1 0x0 MSTORE PUSH1 0x20 PUSH1 0x0 KECCAK256 SWAP1 PUSH1 0x7 MUL ADD PUSH1 0x4 ADD PUSH1 0x0 SWAP1 SLOAD SWAP1 PUSH2 0x100 EXP SWAP1 DIV PUSH20 0xFFFFFFFFFFFFFFFFFFFFFFFFFFFFFFFFFFFFFFFF AND DUP4 DUP3 DUP2 MLOAD DUP2 LT PUSH3 0x1997 JUMPI PUSH3 0x1996 PUSH3 0x2DFB JUMP JUMPDEST JUMPDEST PUSH1 0x20 MUL PUSH1 0x20 ADD ADD SWAP1 PUSH20 0xFFFFFFFFFFFFFFFFFFFFFFFFFFFFFFFFFFFFFFFF AND SWAP1 DUP2 PUSH20 0xFFFFFFFFFFFFFFFFFFFFFFFFFFFFFFFFFFFFFFFF AND DUP2 MSTORE POP POP PUSH1 0x8 PUSH1 0x0 DUP16 DUP2 MSTORE PUSH1 0x20 ADD SWAP1 DUP2 MSTORE PUSH1 0x20 ADD PUSH1 0x0 KECCAK256 DUP2 DUP2 SLOAD DUP2 LT PUSH3 0x19F9 JUMPI PUSH3 0x19F8 PUSH3 0x2DFB JUMP JUMPDEST JUMPDEST SWAP1 PUSH1 0x0 MSTORE PUSH1 0x20 PUSH1 0x0 KECCAK256 SWAP1 PUSH1 0x7 MUL ADD PUSH1 0x0 ADD SLOAD DUP3 DUP3 DUP2 MLOAD DUP2 LT PUSH3 0x1A21 JUMPI PUSH3 0x1A20 PUSH3 0x2DFB JUMP JUMPDEST JUMPDEST PUSH1 0x20 MUL PUSH1 0x20 ADD ADD DUP2 DUP2 MSTORE POP POP DUP1 DUP1 PUSH3 0x1A3A SWAP1 PUSH3 0x3006 JUMP JUMPDEST SWAP2 POP POP PUSH3 0x191E JUMP JUMPDEST POP PUSH1 0x0 JUMPDEST DUP3 MLOAD DUP2 LT ISZERO PUSH3 0x1AB1 JUMPI PUSH3 0x1A9A DUP15 DUP4 DUP4 DUP2 MLOAD DUP2 LT PUSH3 0x1A6C JUMPI PUSH3 0x1A6B PUSH3 0x2DFB JUMP JUMPDEST JUMPDEST PUSH1 0x20 MUL PUSH1 0x20 ADD ADD MLOAD DUP6 DUP5 DUP2 MLOAD DUP2 LT PUSH3 0x1A8A JUMPI PUSH3 0x1A89 PUSH3 0x2DFB JUMP JUMPDEST JUMPDEST PUSH1 0x20 MUL PUSH1 0x20 ADD ADD MLOAD PUSH1 0x1 PUSH3 0x1F19 JUMP JUMPDEST POP DUP1 DUP1 PUSH3 0x1AA8 SWAP1 PUSH3 0x3006 JUMP JUMPDEST SWAP2 POP POP PUSH3 0x1A47 JUMP JUMPDEST POP PUSH1 0x0 PUSH1 0x9 PUSH1 0x0 DUP16 DUP2 MSTORE PUSH1 0x20 ADD SWAP1 DUP2 MSTORE PUSH1 0x20 ADD PUSH1 0x0 KECCAK256 PUSH1 0x0 PUSH2 0x100 EXP DUP2 SLOAD DUP2 PUSH1 0xFF MUL NOT AND SWAP1 DUP4 ISZERO ISZERO MUL OR SWAP1 SSTORE POP POP POP POP PUSH3 0x1B67 JUMP JUMPDEST PUSH1 0x0 PUSH1 0x8 PUSH1 0x0 DUP13 DUP2 MSTORE PUSH1 0x20 ADD SWAP1 DUP2 MSTORE PUSH1 0x20 ADD PUSH1 0x0 KECCAK256 DUP1 SLOAD SWAP1 POP GT ISZERO PUSH3 0x1B39 JUMPI PUSH1 0x1 PUSH1 0x9 PUSH1 0x0 DUP13 DUP2 MSTORE PUSH1 0x20 ADD SWAP1 DUP2 MSTORE PUSH1 0x20 ADD PUSH1 0x0 KECCAK256 PUSH1 0x0 PUSH2 0x100 EXP DUP2 SLOAD DUP2 PUSH1 0xFF MUL NOT AND SWAP1 DUP4 ISZERO ISZERO MUL OR SWAP1 SSTORE POP PUSH3 0x1B66 JUMP JUMPDEST PUSH1 0x1 PUSH1 0x9 PUSH1 0x0 DUP13 DUP2 MSTORE PUSH1 0x20 ADD SWAP1 DUP2 MSTORE PUSH1 0x20 ADD PUSH1 0x0 KECCAK256 PUSH1 0x0 PUSH2 0x100 EXP DUP2 SLOAD DUP2 PUSH1 0xFF MUL NOT AND SWAP1 DUP4 ISZERO ISZERO MUL OR SWAP1 SSTORE POP JUMPDEST JUMPDEST PUSH1 0x1 SWAP6 POP POP POP POP POP POP SWAP5 SWAP4 POP POP POP POP JUMP JUMPDEST PUSH1 0x3 PUSH1 0x0 SWAP1 SLOAD SWAP1 PUSH2 0x100 EXP SWAP1 DIV PUSH20 0xFFFFFFFFFFFFFFFFFFFFFFFFFFFFFFFFFFFFFFFF AND DUP2 JUMP JUMPDEST PUSH1 0x0 DUP1 PUSH1 0x0 SWAP1 SLOAD SWAP1 PUSH2 0x100 EXP SWAP1 DIV PUSH20 0xFFFFFFFFFFFFFFFFFFFFFFFFFFFFFFFFFFFFFFFF AND SWAP1 POP SWAP1 JUMP JUMPDEST PUSH1 0x5 SLOAD DUP2 JUMP JUMPDEST PUSH1 0x0 DUP1 SLOAD SWAP1 PUSH2 0x100 EXP SWAP1 DIV PUSH20 0xFFFFFFFFFFFFFFFFFFFFFFFFFFFFFFFFFFFFFFFF AND PUSH20 0xFFFFFFFFFFFFFFFFFFFFFFFFFFFFFFFFFFFFFFFF AND CALLER PUSH20 0xFFFFFFFFFFFFFFFFFFFFFFFFFFFFFFFFFFFFFFFF AND EQ PUSH3 0x1C5E JUMPI PUSH1 0x40 MLOAD PUSH32 0x8C379A000000000000000000000000000000000000000000000000000000000 DUP2 MSTORE PUSH1 0x4 ADD PUSH3 0x1C55 SWAP1 PUSH3 0x30A3 JUMP JUMPDEST PUSH1 0x40 MLOAD DUP1 SWAP2 SUB SWAP1 REVERT JUMPDEST DUP1 PUSH20 0xFFFFFFFFFFFFFFFFFFFFFFFFFFFFFFFFFFFFFFFF AND PUSH1 0x0 DUP1 SLOAD SWAP1 PUSH2 0x100 EXP SWAP1 DIV PUSH20 0xFFFFFFFFFFFFFFFFFFFFFFFFFFFFFFFFFFFFFFFF AND PUSH20 0xFFFFFFFFFFFFFFFFFFFFFFFFFFFFFFFFFFFFFFFF AND PUSH32 0x342827C97908E5E2F71151C08502A66D44B6F758E3AC2F1DE95F02EB95F0A735 PUSH1 0x40 MLOAD PUSH1 0x40 MLOAD DUP1 SWAP2 SUB SWAP1 LOG3 DUP1 PUSH1 0x0 DUP1 PUSH2 0x100 EXP DUP2 SLOAD DUP2 PUSH20 0xFFFFFFFFFFFFFFFFFFFFFFFFFFFFFFFFFFFFFFFF MUL NOT AND SWAP1 DUP4 PUSH20 0xFFFFFFFFFFFFFFFFFFFFFFFFFFFFFFFFFFFFFFFF AND MUL OR SWAP1 SSTORE POP POP JUMP JUMPDEST PUSH1 0x2 PUSH1 0x0 SWAP1 SLOAD SWAP1 PUSH2 0x100 EXP SWAP1 DIV PUSH20 0xFFFFFFFFFFFFFFFFFFFFFFFFFFFFFFFFFFFFFFFF AND DUP2 JUMP JUMPDEST PUSH1 0x0 DUP1 PUSH1 0x0 PUSH3 0x1D52 DUP6 DUP6 PUSH3 0x683 JUMP JUMPDEST SWAP2 POP SWAP2 POP DUP2 PUSH3 0x1D99 JUMPI PUSH1 0x40 MLOAD PUSH32 0x8C379A000000000000000000000000000000000000000000000000000000000 DUP2 MSTORE PUSH1 0x4 ADD PUSH3 0x1D90 SWAP1 PUSH3 0x38B9 JUMP JUMPDEST PUSH1 0x40 MLOAD DUP1 SWAP2 SUB SWAP1 REVERT JUMPDEST PUSH3 0x1DA8 DUP5 DUP3 DUP8 PUSH1 0x1 PUSH3 0x1F19 JUMP JUMPDEST POP PUSH32 0xD6032776AFDED2C5B6C20C518992C74C512297654F179DDF79620BECA2248E6 DUP2 DUP7 PUSH1 0x40 MLOAD PUSH3 0x1DDC SWAP3 SWAP2 SWAP1 PUSH3 0x392B JUMP JUMPDEST PUSH1 0x40 MLOAD DUP1 SWAP2 SUB SWAP1 LOG1 PUSH1 0x1 SWAP3 POP POP POP SWAP3 SWAP2 POP POP JUMP JUMPDEST PUSH1 0x4 SLOAD DUP2 JUMP JUMPDEST PUSH1 0x0 DUP1 PUSH1 0x0 SWAP1 SLOAD SWAP1 PUSH2 0x100 EXP SWAP1 DIV PUSH20 0xFFFFFFFFFFFFFFFFFFFFFFFFFFFFFFFFFFFFFFFF AND PUSH20 0xFFFFFFFFFFFFFFFFFFFFFFFFFFFFFFFFFFFFFFFF AND CALLER PUSH20 0xFFFFFFFFFFFFFFFFFFFFFFFFFFFFFFFFFFFFFFFF AND EQ PUSH3 0x1E8A JUMPI PUSH1 0x40 MLOAD PUSH32 0x8C379A000000000000000000000000000000000000000000000000000000000 DUP2 MSTORE PUSH1 0x4 ADD PUSH3 0x1E81 SWAP1 PUSH3 0x30A3 JUMP JUMPDEST PUSH1 0x40 MLOAD DUP1 SWAP2 SUB SWAP1 REVERT JUMPDEST PUSH1 0x0 DUP3 GT PUSH3 0x1ED0 JUMPI PUSH1 0x40 MLOAD PUSH32 0x8C379A000000000000000000000000000000000000000000000000000000000 DUP2 MSTORE PUSH1 0x4 ADD PUSH3 0x1EC7 SWAP1 PUSH3 0x3115 JUMP JUMPDEST PUSH1 0x40 MLOAD DUP1 SWAP2 SUB SWAP1 REVERT JUMPDEST DUP2 PUSH1 0x5 DUP2 SWAP1 SSTORE POP PUSH32 0xCFBF529B549D5A8851C7CB749D69134057323ACBC44E369F97F3600C719F40A8 DUP3 PUSH1 0x40 MLOAD PUSH3 0x1F08 SWAP2 SWAP1 PUSH3 0x39BD JUMP JUMPDEST PUSH1 0x40 MLOAD DUP1 SWAP2 SUB SWAP1 LOG1 PUSH1 0x1 SWAP1 POP SWAP2 SWAP1 POP JUMP JUMPDEST PUSH1 0x0 DUP3 PUSH20 0xFFFFFFFFFFFFFFFFFFFFFFFFFFFFFFFFFFFFFFFF AND PUSH1 0x8 PUSH1 0x0 DUP8 DUP2 MSTORE PUSH1 0x20 ADD SWAP1 DUP2 MSTORE PUSH1 0x20 ADD PUSH1 0x0 KECCAK256 DUP6 DUP2 SLOAD DUP2 LT PUSH3 0x1F5A JUMPI PUSH3 0x1F59 PUSH3 0x2DFB JUMP JUMPDEST JUMPDEST SWAP1 PUSH1 0x0 MSTORE PUSH1 0x20 PUSH1 0x0 KECCAK256 SWAP1 PUSH1 0x7 MUL ADD PUSH1 0x4 ADD PUSH1 0x0 SWAP1 SLOAD SWAP1 PUSH2 0x100 EXP SWAP1 DIV PUSH20 0xFFFFFFFFFFFFFFFFFFFFFFFFFFFFFFFFFFFFFFFF AND PUSH20 0xFFFFFFFFFFFFFFFFFFFFFFFFFFFFFFFFFFFFFFFF AND EQ PUSH3 0x1FE5 JUMPI PUSH1 0x40 MLOAD PUSH32 0x8C379A000000000000000000000000000000000000000000000000000000000 DUP2 MSTORE PUSH1 0x4 ADD PUSH3 0x1FDC SWAP1 PUSH3 0x3A65 JUMP JUMPDEST PUSH1 0x40 MLOAD DUP1 SWAP2 SUB SWAP1 REVERT JUMPDEST PUSH1 0x0 PUSH1 0x8 PUSH1 0x0 DUP8 DUP2 MSTORE PUSH1 0x20 ADD SWAP1 DUP2 MSTORE PUSH1 0x20 ADD PUSH1 0x0 KECCAK256 DUP6 DUP2 SLOAD DUP2 LT PUSH3 0x200F JUMPI PUSH3 0x200E PUSH3 0x2DFB JUMP JUMPDEST JUMPDEST SWAP1 PUSH1 0x0 MSTORE PUSH1 0x20 PUSH1 0x0 KECCAK256 SWAP1 PUSH1 0x7 MUL ADD PUSH1 0x6 ADD PUSH1 0x0 SWAP1 SLOAD SWAP1 PUSH2 0x100 EXP SWAP1 DIV PUSH20 0xFFFFFFFFFFFFFFFFFFFFFFFFFFFFFFFFFFFFFFFF AND SWAP1 POP PUSH1 0x0 PUSH1 0x8 PUSH1 0x0 DUP9 DUP2 MSTORE PUSH1 0x20 ADD SWAP1 DUP2 MSTORE PUSH1 0x20 ADD PUSH1 0x0 KECCAK256 DUP7 DUP2 SLOAD DUP2 LT PUSH3 0x206D JUMPI PUSH3 0x206C PUSH3 0x2DFB JUMP JUMPDEST JUMPDEST SWAP1 PUSH1 0x0 MSTORE PUSH1 0x20 PUSH1 0x0 KECCAK256 SWAP1 PUSH1 0x7 MUL ADD PUSH1 0x1 ADD SLOAD PUSH1 0x6 PUSH1 0x0 SWAP1 SLOAD SWAP1 PUSH2 0x100 EXP SWAP1 DIV PUSH20 0xFFFFFFFFFFFFFFFFFFFFFFFFFFFFFFFFFFFFFFFF AND PUSH20 0xFFFFFFFFFFFFFFFFFFFFFFFFFFFFFFFFFFFFFFFF AND PUSH4 0x70A08231 DUP5 PUSH1 0x40 MLOAD DUP3 PUSH4 0xFFFFFFFF AND PUSH1 0xE0 SHL DUP2 MSTORE PUSH1 0x4 ADD PUSH3 0x20DC SWAP2 SWAP1 PUSH3 0x2D09 JUMP JUMPDEST PUSH1 0x20 PUSH1 0x40 MLOAD DUP1 DUP4 SUB DUP2 DUP7 GAS STATICCALL ISZERO DUP1 ISZERO PUSH3 0x20FA JUMPI RETURNDATASIZE PUSH1 0x0 DUP1 RETURNDATACOPY RETURNDATASIZE PUSH1 0x0 REVERT JUMPDEST POP POP POP POP PUSH1 0x40 MLOAD RETURNDATASIZE PUSH1 0x1F NOT PUSH1 0x1F DUP3 ADD AND DUP3 ADD DUP1 PUSH1 0x40 MSTORE POP DUP2 ADD SWAP1 PUSH3 0x2120 SWAP2 SWAP1 PUSH3 0x327D JUMP JUMPDEST PUSH3 0x212C SWAP2 SWAP1 PUSH3 0x34C9 JUMP JUMPDEST SWAP1 POP PUSH1 0x40 MLOAD DUP1 PUSH1 0xE0 ADD PUSH1 0x40 MSTORE DUP1 DUP8 DUP2 MSTORE PUSH1 0x20 ADD PUSH1 0x0 DUP2 MSTORE PUSH1 0x20 ADD PUSH1 0x0 DUP2 MSTORE PUSH1 0x20 ADD PUSH1 0x0 DUP2 MSTORE PUSH1 0x20 ADD PUSH1 0x0 PUSH20 0xFFFFFFFFFFFFFFFFFFFFFFFFFFFFFFFFFFFFFFFF AND DUP2 MSTORE PUSH1 0x20 ADD PUSH1 0x0 PUSH20 0xFFFFFFFFFFFFFFFFFFFFFFFFFFFFFFFFFFFFFFFF AND DUP2 MSTORE PUSH1 0x20 ADD PUSH1 0x0 PUSH20 0xFFFFFFFFFFFFFFFFFFFFFFFFFFFFFFFFFFFFFFFF AND DUP2 MSTORE POP PUSH1 0x8 PUSH1 0x0 DUP10 DUP2 MSTORE PUSH1 0x20 ADD SWAP1 DUP2 MSTORE PUSH1 0x20 ADD PUSH1 0x0 KECCAK256 DUP8 DUP2 SLOAD DUP2 LT PUSH3 0x21D1 JUMPI PUSH3 0x21D0 PUSH3 0x2DFB JUMP JUMPDEST JUMPDEST SWAP1 PUSH1 0x0 MSTORE PUSH1 0x20 PUSH1 0x0 KECCAK256 SWAP1 PUSH1 0x7 MUL ADD PUSH1 0x0 DUP3 ADD MLOAD DUP2 PUSH1 0x0 ADD SSTORE PUSH1 0x20 DUP3 ADD MLOAD DUP2 PUSH1 0x1 ADD SSTORE PUSH1 0x40 DUP3 ADD MLOAD DUP2 PUSH1 0x2 ADD SSTORE PUSH1 0x60 DUP3 ADD MLOAD DUP2 PUSH1 0x3 ADD SSTORE PUSH1 0x80 DUP3 ADD MLOAD DUP2 PUSH1 0x4 ADD PUSH1 0x0 PUSH2 0x100 EXP DUP2 SLOAD DUP2 PUSH20 0xFFFFFFFFFFFFFFFFFFFFFFFFFFFFFFFFFFFFFFFF MUL NOT AND SWAP1 DUP4 PUSH20 0xFFFFFFFFFFFFFFFFFFFFFFFFFFFFFFFFFFFFFFFF AND MUL OR SWAP1 SSTORE POP PUSH1 0xA0 DUP3 ADD MLOAD DUP2 PUSH1 0x5 ADD PUSH1 0x0 PUSH2 0x100 EXP DUP2 SLOAD DUP2 PUSH20 0xFFFFFFFFFFFFFFFFFFFFFFFFFFFFFFFFFFFFFFFF MUL NOT AND SWAP1 DUP4 PUSH20 0xFFFFFFFFFFFFFFFFFFFFFFFFFFFFFFFFFFFFFFFF AND MUL OR SWAP1 SSTORE POP PUSH1 0xC0 DUP3 ADD MLOAD DUP2 PUSH1 0x6 ADD PUSH1 0x0 PUSH2 0x100 EXP DUP2 SLOAD DUP2 PUSH20 0xFFFFFFFFFFFFFFFFFFFFFFFFFFFFFFFFFFFFFFFF MUL NOT AND SWAP1 DUP4 PUSH20 0xFFFFFFFFFFFFFFFFFFFFFFFFFFFFFFFFFFFFFFFF AND MUL OR SWAP1 SSTORE POP SWAP1 POP POP PUSH1 0x8 PUSH1 0x0 DUP9 DUP2 MSTORE PUSH1 0x20 ADD SWAP1 DUP2 MSTORE PUSH1 0x20 ADD PUSH1 0x0 KECCAK256 PUSH1 0x1 PUSH1 0x8 PUSH1 0x0 DUP11 DUP2 MSTORE PUSH1 0x20 ADD SWAP1 DUP2 MSTORE PUSH1 0x20 ADD PUSH1 0x0 KECCAK256 DUP1 SLOAD SWAP1 POP PUSH3 0x2317 SWAP2 SWAP1 PUSH3 0x34C9 JUMP JUMPDEST DUP2 SLOAD DUP2 LT PUSH3 0x232B JUMPI PUSH3 0x232A PUSH3 0x2DFB JUMP JUMPDEST JUMPDEST SWAP1 PUSH1 0x0 MSTORE PUSH1 0x20 PUSH1 0x0 KECCAK256 SWAP1 PUSH1 0x7 MUL ADD PUSH1 0x8 PUSH1 0x0 DUP10 DUP2 MSTORE PUSH1 0x20 ADD SWAP1 DUP2 MSTORE PUSH1 0x20 ADD PUSH1 0x0 KECCAK256 DUP8 DUP2 SLOAD DUP2 LT PUSH3 0x2361 JUMPI PUSH3 0x2360 PUSH3 0x2DFB JUMP JUMPDEST JUMPDEST SWAP1 PUSH1 0x0 MSTORE PUSH1 0x20 PUSH1 0x0 KECCAK256 SWAP1 PUSH1 0x7 MUL ADD PUSH1 0x0 DUP3 ADD SLOAD DUP2 PUSH1 0x0 ADD SSTORE PUSH1 0x1 DUP3 ADD SLOAD DUP2 PUSH1 0x1 ADD SSTORE PUSH1 0x2 DUP3 ADD SLOAD DUP2 PUSH1 0x2 ADD SSTORE PUSH1 0x3 DUP3 ADD SLOAD DUP2 PUSH1 0x3 ADD SSTORE PUSH1 0x4 DUP3 ADD PUSH1 0x0 SWAP1 SLOAD SWAP1 PUSH2 0x100 EXP SWAP1 DIV PUSH20 0xFFFFFFFFFFFFFFFFFFFFFFFFFFFFFFFFFFFFFFFF AND DUP2 PUSH1 0x4 ADD PUSH1 0x0 PUSH2 0x100 EXP DUP2 SLOAD DUP2 PUSH20 0xFFFFFFFFFFFFFFFFFFFFFFFFFFFFFFFFFFFFFFFF MUL NOT AND SWAP1 DUP4 PUSH20 0xFFFFFFFFFFFFFFFFFFFFFFFFFFFFFFFFFFFFFFFF AND MUL OR SWAP1 SSTORE POP PUSH1 0x5 DUP3 ADD PUSH1 0x0 SWAP1 SLOAD SWAP1 PUSH2 0x100 EXP SWAP1 DIV PUSH20 0xFFFFFFFFFFFFFFFFFFFFFFFFFFFFFFFFFFFFFFFF AND DUP2 PUSH1 0x5 ADD PUSH1 0x0 PUSH2 0x100 EXP DUP2 SLOAD DUP2 PUSH20 0xFFFFFFFFFFFFFFFFFFFFFFFFFFFFFFFFFFFFFFFF MUL NOT AND SWAP1 DUP4 PUSH20 0xFFFFFFFFFFFFFFFFFFFFFFFFFFFFFFFFFFFFFFFF AND MUL OR SWAP1 SSTORE POP PUSH1 0x6 DUP3 ADD PUSH1 0x0 SWAP1 SLOAD SWAP1 PUSH2 0x100 EXP SWAP1 DIV PUSH20 0xFFFFFFFFFFFFFFFFFFFFFFFFFFFFFFFFFFFFFFFF AND DUP2 PUSH1 0x6 ADD PUSH1 0x0 PUSH2 0x100 EXP DUP2 SLOAD DUP2 PUSH20 0xFFFFFFFFFFFFFFFFFFFFFFFFFFFFFFFFFFFFFFFF MUL NOT AND SWAP1 DUP4 PUSH20 0xFFFFFFFFFFFFFFFFFFFFFFFFFFFFFFFFFFFFFFFF AND MUL OR SWAP1 SSTORE POP SWAP1 POP POP PUSH1 0x8 PUSH1 0x0 DUP9 DUP2 MSTORE PUSH1 0x20 ADD SWAP1 DUP2 MSTORE PUSH1 0x20 ADD PUSH1 0x0 KECCAK256 DUP1 SLOAD DUP1 PUSH3 0x24F5 JUMPI PUSH3 0x24F4 PUSH3 0x3A87 JUMP JUMPDEST JUMPDEST PUSH1 0x1 SWAP1 SUB DUP2 DUP2 SWAP1 PUSH1 0x0 MSTORE PUSH1 0x20 PUSH1 0x0 KECCAK256 SWAP1 PUSH1 0x7 MUL ADD PUSH1 0x0 DUP1 DUP3 ADD PUSH1 0x0 SWAP1 SSTORE PUSH1 0x1 DUP3 ADD PUSH1 0x0 SWAP1 SSTORE PUSH1 0x2 DUP3 ADD PUSH1 0x0 SWAP1 SSTORE PUSH1 0x3 DUP3 ADD PUSH1 0x0 SWAP1 SSTORE PUSH1 0x4 DUP3 ADD PUSH1 0x0 PUSH2 0x100 EXP DUP2 SLOAD SWAP1 PUSH20 0xFFFFFFFFFFFFFFFFFFFFFFFFFFFFFFFFFFFFFFFF MUL NOT AND SWAP1 SSTORE PUSH1 0x5 DUP3 ADD PUSH1 0x0 PUSH2 0x100 EXP DUP2 SLOAD SWAP1 PUSH20 0xFFFFFFFFFFFFFFFFFFFFFFFFFFFFFFFFFFFFFFFF MUL NOT AND SWAP1 SSTORE PUSH1 0x6 DUP3 ADD PUSH1 0x0 PUSH2 0x100 EXP DUP2 SLOAD SWAP1 PUSH20 0xFFFFFFFFFFFFFFFFFFFFFFFFFFFFFFFFFFFFFFFF MUL NOT AND SWAP1 SSTORE POP POP SWAP1 SSTORE PUSH1 0x0 PUSH1 0x8 PUSH1 0x0 DUP10 DUP2 MSTORE PUSH1 0x20 ADD SWAP1 DUP2 MSTORE PUSH1 0x20 ADD PUSH1 0x0 KECCAK256 DUP1 SLOAD SWAP1 POP SUB PUSH3 0x25EF JUMPI PUSH1 0x0 PUSH1 0x9 PUSH1 0x0 DUP10 DUP2 MSTORE PUSH1 0x20 ADD SWAP1 DUP2 MSTORE PUSH1 0x20 ADD PUSH1 0x0 KECCAK256 PUSH1 0x0 PUSH2 0x100 EXP DUP2 SLOAD DUP2 PUSH1 0xFF MUL NOT AND SWAP1 DUP4 ISZERO ISZERO MUL OR SWAP1 SSTORE POP JUMPDEST DUP4 ISZERO PUSH3 0x27CE JUMPI DUP2 PUSH20 0xFFFFFFFFFFFFFFFFFFFFFFFFFFFFFFFFFFFFFFFF AND PUSH4 0xD580408A DUP7 DUP4 PUSH1 0x6 PUSH1 0x0 SWAP1 SLOAD SWAP1 PUSH2 0x100 EXP SWAP1 DIV PUSH20 0xFFFFFFFFFFFFFFFFFFFFFFFFFFFFFFFFFFFFFFFF AND PUSH20 0xFFFFFFFFFFFFFFFFFFFFFFFFFFFFFFFFFFFFFFFF AND PUSH4 0x70A08231 DUP8 PUSH1 0x40 MLOAD DUP3 PUSH4 0xFFFFFFFF AND PUSH1 0xE0 SHL DUP2 MSTORE PUSH1 0x4 ADD PUSH3 0x2671 SWAP2 SWAP1 PUSH3 0x2D09 JUMP JUMPDEST PUSH1 0x20 PUSH1 0x40 MLOAD DUP1 DUP4 SUB DUP2 DUP7 GAS STATICCALL ISZERO DUP1 ISZERO PUSH3 0x268F JUMPI RETURNDATASIZE PUSH1 0x0 DUP1 RETURNDATACOPY RETURNDATASIZE PUSH1 0x0 REVERT JUMPDEST POP POP POP POP PUSH1 0x40 MLOAD RETURNDATASIZE PUSH1 0x1F NOT PUSH1 0x1F DUP3 ADD AND DUP3 ADD DUP1 PUSH1 0x40 MSTORE POP DUP2 ADD SWAP1 PUSH3 0x26B5 SWAP2 SWAP1 PUSH3 0x327D JUMP JUMPDEST PUSH3 0x26C1 SWAP2 SWAP1 PUSH3 0x34C9 JUMP JUMPDEST PUSH1 0x40 MLOAD DUP4 PUSH4 0xFFFFFFFF AND PUSH1 0xE0 SHL DUP2 MSTORE PUSH1 0x4 ADD PUSH3 0x26E0 SWAP3 SWAP2 SWAP1 PUSH3 0x37E7 JUMP JUMPDEST PUSH1 0x20 PUSH1 0x40 MLOAD DUP1 DUP4 SUB DUP2 PUSH1 0x0 DUP8 GAS CALL ISZERO DUP1 ISZERO PUSH3 0x2700 JUMPI RETURNDATASIZE PUSH1 0x0 DUP1 RETURNDATACOPY RETURNDATASIZE PUSH1 0x0 REVERT JUMPDEST POP POP POP POP PUSH1 0x40 MLOAD RETURNDATASIZE PUSH1 0x1F NOT PUSH1 0x1F DUP3 ADD AND DUP3 ADD DUP1 PUSH1 0x40 MSTORE POP DUP2 ADD SWAP1 PUSH3 0x2726 SWAP2 SWAP1 PUSH3 0x344A JUMP JUMPDEST POP DUP2 PUSH20 0xFFFFFFFFFFFFFFFFFFFFFFFFFFFFFFFFFFFFFFFF AND PUSH4 0xD580408A PUSH1 0x3 PUSH1 0x0 SWAP1 SLOAD SWAP1 PUSH2 0x100 EXP SWAP1 DIV PUSH20 0xFFFFFFFFFFFFFFFFFFFFFFFFFFFFFFFFFFFFFFFF AND DUP4 PUSH1 0x40 MLOAD DUP4 PUSH4 0xFFFFFFFF AND PUSH1 0xE0 SHL DUP2 MSTORE PUSH1 0x4 ADD PUSH3 0x2786 SWAP3 SWAP2 SWAP1 PUSH3 0x37E7 JUMP JUMPDEST PUSH1 0x20 PUSH1 0x40 MLOAD DUP1 DUP4 SUB DUP2 PUSH1 0x0 DUP8 GAS CALL ISZERO DUP1 ISZERO PUSH3 0x27A6 JUMPI RETURNDATASIZE PUSH1 0x0 DUP1 RETURNDATACOPY RETURNDATASIZE PUSH1 0x0 REVERT JUMPDEST POP POP POP POP PUSH1 0x40 MLOAD RETURNDATASIZE PUSH1 0x1F NOT PUSH1 0x1F DUP3 ADD AND DUP3 ADD DUP1 PUSH1 0x40 MSTORE POP DUP2 ADD SWAP1 PUSH3 0x27CC SWAP2 SWAP1 PUSH3 0x344A JUMP JUMPDEST POP JUMPDEST PUSH1 0x1 SWAP3 POP POP POP SWAP5 SWAP4 POP POP POP POP JUMP JUMPDEST PUSH2 0x14E1 DUP1 PUSH3 0x3AB7 DUP4 CODECOPY ADD SWAP1 JUMP JUMPDEST PUSH1 0x0 DUP1 REVERT JUMPDEST PUSH1 0x0 DUP2 SWAP1 POP SWAP2 SWAP1 POP JUMP JUMPDEST PUSH3 0x2804 DUP2 PUSH3 0x27EF JUMP JUMPDEST DUP2 EQ PUSH3 0x2810 JUMPI PUSH1 0x0 DUP1 REVERT JUMPDEST POP JUMP JUMPDEST PUSH1 0x0 DUP2 CALLDATALOAD SWAP1 POP PUSH3 0x2824 DUP2 PUSH3 0x27F9 JUMP JUMPDEST SWAP3 SWAP2 POP POP JUMP JUMPDEST PUSH1 0x0 PUSH20 0xFFFFFFFFFFFFFFFFFFFFFFFFFFFFFFFFFFFFFFFF DUP3 AND SWAP1 POP SWAP2 SWAP1 POP JUMP JUMPDEST PUSH1 0x0 PUSH3 0x2857 DUP3 PUSH3 0x282A JUMP JUMPDEST SWAP1 POP SWAP2 SWAP1 POP JUMP JUMPDEST PUSH3 0x2869 DUP2 PUSH3 0x284A JUMP JUMPDEST DUP2 EQ PUSH3 0x2875 JUMPI PUSH1 0x0 DUP1 REVERT JUMPDEST POP JUMP JUMPDEST PUSH1 0x0 DUP2 CALLDATALOAD SWAP1 POP PUSH3 0x2889 DUP2 PUSH3 0x285E JUMP JUMPDEST SWAP3 SWAP2 POP POP JUMP JUMPDEST PUSH1 0x0 DUP1 PUSH1 0x0 PUSH1 0x60 DUP5 DUP7 SUB SLT ISZERO PUSH3 0x28AB JUMPI PUSH3 0x28AA PUSH3 0x27EA JUMP JUMPDEST JUMPDEST PUSH1 0x0 PUSH3 0x28BB DUP7 DUP3 DUP8 ADD PUSH3 0x2813 JUMP JUMPDEST SWAP4 POP POP PUSH1 0x20 PUSH3 0x28CE DUP7 DUP3 DUP8 ADD PUSH3 0x2813 JUMP JUMPDEST SWAP3 POP POP PUSH1 0x40 PUSH3 0x28E1 DUP7 DUP3 DUP8 ADD PUSH3 0x2878 JUMP JUMPDEST SWAP2 POP POP SWAP3 POP SWAP3 POP SWAP3 JUMP JUMPDEST PUSH1 0x0 DUP2 ISZERO ISZERO SWAP1 POP SWAP2 SWAP1 POP JUMP JUMPDEST PUSH3 0x2902 DUP2 PUSH3 0x28EB JUMP JUMPDEST DUP3 MSTORE POP POP JUMP JUMPDEST PUSH1 0x0 PUSH1 0x20 DUP3 ADD SWAP1 POP PUSH3 0x291F PUSH1 0x0 DUP4 ADD DUP5 PUSH3 0x28F7 JUMP JUMPDEST SWAP3 SWAP2 POP POP JUMP JUMPDEST PUSH1 0x0 DUP1 PUSH1 0x40 DUP4 DUP6 SUB SLT ISZERO PUSH3 0x293F JUMPI PUSH3 0x293E PUSH3 0x27EA JUMP JUMPDEST JUMPDEST PUSH1 0x0 PUSH3 0x294F DUP6 DUP3 DUP7 ADD PUSH3 0x2878 JUMP JUMPDEST SWAP3 POP POP PUSH1 0x20 PUSH3 0x2962 DUP6 DUP3 DUP7 ADD PUSH3 0x2813 JUMP JUMPDEST SWAP2 POP POP SWAP3 POP SWAP3 SWAP1 POP JUMP JUMPDEST PUSH3 0x2977 DUP2 PUSH3 0x27EF JUMP JUMPDEST DUP3 MSTORE POP POP JUMP JUMPDEST PUSH1 0x0 PUSH1 0x40 DUP3 ADD SWAP1 POP PUSH3 0x2994 PUSH1 0x0 DUP4 ADD DUP6 PUSH3 0x28F7 JUMP JUMPDEST PUSH3 0x29A3 PUSH1 0x20 DUP4 ADD DUP5 PUSH3 0x296C JUMP JUMPDEST SWAP4 SWAP3 POP POP POP JUMP JUMPDEST PUSH1 0x0 PUSH1 0x20 DUP3 DUP5 SUB SLT ISZERO PUSH3 0x29C3 JUMPI PUSH3 0x29C2 PUSH3 0x27EA JUMP JUMPDEST JUMPDEST PUSH1 0x0 PUSH3 0x29D3 DUP5 DUP3 DUP6 ADD PUSH3 0x2813 JUMP JUMPDEST SWAP2 POP POP SWAP3 SWAP2 POP POP JUMP JUMPDEST PUSH1 0x0 DUP1 PUSH1 0x40 DUP4 DUP6 SUB SLT ISZERO PUSH3 0x29F6 JUMPI PUSH3 0x29F5 PUSH3 0x27EA JUMP JUMPDEST JUMPDEST PUSH1 0x0 PUSH3 0x2A06 DUP6 DUP3 DUP7 ADD PUSH3 0x2813 JUMP JUMPDEST SWAP3 POP POP PUSH1 0x20 PUSH3 0x2A19 DUP6 DUP3 DUP7 ADD PUSH3 0x2813 JUMP JUMPDEST SWAP2 POP POP SWAP3 POP SWAP3 SWAP1 POP JUMP JUMPDEST PUSH3 0x2A2E DUP2 PUSH3 0x284A JUMP JUMPDEST DUP3 MSTORE POP POP JUMP JUMPDEST PUSH1 0x0 PUSH1 0xE0 DUP3 ADD SWAP1 POP PUSH3 0x2A4B PUSH1 0x0 DUP4 ADD DUP11 PUSH3 0x296C JUMP JUMPDEST PUSH3 0x2A5A PUSH1 0x20 DUP4 ADD DUP10 PUSH3 0x296C JUMP JUMPDEST PUSH3 0x2A69 PUSH1 0x40 DUP4 ADD DUP9 PUSH3 0x296C JUMP JUMPDEST PUSH3 0x2A78 PUSH1 0x60 DUP4 ADD DUP8 PUSH3 0x296C JUMP JUMPDEST PUSH3 0x2A87 PUSH1 0x80 DUP4 ADD DUP7 PUSH3 0x2A23 JUMP JUMPDEST PUSH3 0x2A96 PUSH1 0xA0 DUP4 ADD DUP6 PUSH3 0x2A23 JUMP JUMPDEST PUSH3 0x2AA5 PUSH1 0xC0 DUP4 ADD DUP5 PUSH3 0x2A23 JUMP JUMPDEST SWAP9 SWAP8 POP POP POP POP POP POP POP POP JUMP JUMPDEST PUSH1 0x0 DUP1 PUSH1 0x0 DUP1 PUSH1 0x0 DUP1 PUSH1 0xC0 DUP8 DUP10 SUB SLT ISZERO PUSH3 0x2AD1 JUMPI PUSH3 0x2AD0 PUSH3 0x27EA JUMP JUMPDEST JUMPDEST PUSH1 0x0 PUSH3 0x2AE1 DUP10 DUP3 DUP11 ADD PUSH3 0x2813 JUMP JUMPDEST SWAP7 POP POP PUSH1 0x20 PUSH3 0x2AF4 DUP10 DUP3 DUP11 ADD PUSH3 0x2813 JUMP JUMPDEST SWAP6 POP POP PUSH1 0x40 PUSH3 0x2B07 DUP10 DUP3 DUP11 ADD PUSH3 0x2813 JUMP JUMPDEST SWAP5 POP POP PUSH1 0x60 PUSH3 0x2B1A DUP10 DUP3 DUP11 ADD PUSH3 0x2878 JUMP JUMPDEST SWAP4 POP POP PUSH1 0x80 PUSH3 0x2B2D DUP10 DUP3 DUP11 ADD PUSH3 0x2878 JUMP JUMPDEST SWAP3 POP POP PUSH1 0xA0 PUSH3 0x2B40 DUP10 DUP3 DUP11 ADD PUSH3 0x2813 JUMP JUMPDEST SWAP2 POP POP SWAP3 SWAP6 POP SWAP3 SWAP6 POP SWAP3 SWAP6 JUMP JUMPDEST PUSH1 0x0 PUSH1 0x20 DUP3 ADD SWAP1 POP PUSH3 0x2B64 PUSH1 0x0 DUP4 ADD DUP5 PUSH3 0x296C JUMP JUMPDEST SWAP3 SWAP2 POP POP JUMP JUMPDEST PUSH1 0x0 DUP2 MLOAD SWAP1 POP SWAP2 SWAP1 POP JUMP JUMPDEST PUSH1 0x0 DUP3 DUP3 MSTORE PUSH1 0x20 DUP3 ADD SWAP1 POP SWAP3 SWAP2 POP POP JUMP JUMPDEST PUSH1 0x0 DUP2 SWAP1 POP PUSH1 0x20 DUP3 ADD SWAP1 POP SWAP2 SWAP1 POP JUMP JUMPDEST PUSH3 0x2BA1 DUP2 PUSH3 0x27EF JUMP JUMPDEST DUP3 MSTORE POP POP JUMP JUMPDEST PUSH3 0x2BB2 DUP2 PUSH3 0x284A JUMP JUMPDEST DUP3 MSTORE POP POP JUMP JUMPDEST PUSH1 0xE0 DUP3 ADD PUSH1 0x0 DUP3 ADD MLOAD PUSH3 0x2BD0 PUSH1 0x0 DUP6 ADD DUP3 PUSH3 0x2B96 JUMP JUMPDEST POP PUSH1 0x20 DUP3 ADD MLOAD PUSH3 0x2BE5 PUSH1 0x20 DUP6 ADD DUP3 PUSH3 0x2B96 JUMP JUMPDEST POP PUSH1 0x40 DUP3 ADD MLOAD PUSH3 0x2BFA PUSH1 0x40 DUP6 ADD DUP3 PUSH3 0x2B96 JUMP JUMPDEST POP PUSH1 0x60 DUP3 ADD MLOAD PUSH3 0x2C0F PUSH1 0x60 DUP6 ADD DUP3 PUSH3 0x2B96 JUMP JUMPDEST POP PUSH1 0x80 DUP3 ADD MLOAD PUSH3 0x2C24 PUSH1 0x80 DUP6 ADD DUP3 PUSH3 0x2BA7 JUMP JUMPDEST POP PUSH1 0xA0 DUP3 ADD MLOAD PUSH3 0x2C39 PUSH1 0xA0 DUP6 ADD DUP3 PUSH3 0x2BA7 JUMP JUMPDEST POP PUSH1 0xC0 DUP3 ADD MLOAD PUSH3 0x2C4E PUSH1 0xC0 DUP6 ADD DUP3 PUSH3 0x2BA7 JUMP JUMPDEST POP POP POP POP JUMP JUMPDEST PUSH1 0x0 PUSH3 0x2C62 DUP4 DUP4 PUSH3 0x2BB8 JUMP JUMPDEST PUSH1 0xE0 DUP4 ADD SWAP1 POP SWAP3 SWAP2 POP POP JUMP JUMPDEST PUSH1 0x0 PUSH1 0x20 DUP3 ADD SWAP1 POP SWAP2 SWAP1 POP JUMP JUMPDEST PUSH1 0x0 PUSH3 0x2C88 DUP3 PUSH3 0x2B6A JUMP JUMPDEST PUSH3 0x2C94 DUP2 DUP6 PUSH3 0x2B75 JUMP JUMPDEST SWAP4 POP PUSH3 0x2CA1 DUP4 PUSH3 0x2B86 JUMP JUMPDEST DUP1 PUSH1 0x0 JUMPDEST DUP4 DUP2 LT ISZERO PUSH3 0x2CD8 JUMPI DUP2 MLOAD PUSH3 0x2CBC DUP9 DUP3 PUSH3 0x2C54 JUMP JUMPDEST SWAP8 POP PUSH3 0x2CC9 DUP4 PUSH3 0x2C6E JUMP JUMPDEST SWAP3 POP POP PUSH1 0x1 DUP2 ADD SWAP1 POP PUSH3 0x2CA5 JUMP JUMPDEST POP DUP6 SWAP4 POP POP POP POP SWAP3 SWAP2 POP POP JUMP JUMPDEST PUSH1 0x0 PUSH1 0x20 DUP3 ADD SWAP1 POP DUP2 DUP2 SUB PUSH1 0x0 DUP4 ADD MSTORE PUSH3 0x2D01 DUP2 DUP5 PUSH3 0x2C7B JUMP JUMPDEST SWAP1 POP SWAP3 SWAP2 POP POP JUMP JUMPDEST PUSH1 0x0 PUSH1 0x20 DUP3 ADD SWAP1 POP PUSH3 0x2D20 PUSH1 0x0 DUP4 ADD DUP5 PUSH3 0x2A23 JUMP JUMPDEST SWAP3 SWAP2 POP POP JUMP JUMPDEST PUSH3 0x2D31 DUP2 PUSH3 0x28EB JUMP JUMPDEST DUP2 EQ PUSH3 0x2D3D JUMPI PUSH1 0x0 DUP1 REVERT JUMPDEST POP JUMP JUMPDEST PUSH1 0x0 DUP2 CALLDATALOAD SWAP1 POP PUSH3 0x2D51 DUP2 PUSH3 0x2D26 JUMP JUMPDEST SWAP3 SWAP2 POP POP JUMP JUMPDEST PUSH1 0x0 DUP1 PUSH1 0x0 DUP1 PUSH1 0x80 DUP6 DUP8 SUB SLT ISZERO PUSH3 0x2D74 JUMPI PUSH3 0x2D73 PUSH3 0x27EA JUMP JUMPDEST JUMPDEST PUSH1 0x0 PUSH3 0x2D84 DUP8 DUP3 DUP9 ADD PUSH3 0x2813 JUMP JUMPDEST SWAP5 POP POP PUSH1 0x20 PUSH3 0x2D97 DUP8 DUP3 DUP9 ADD PUSH3 0x2813 JUMP JUMPDEST SWAP4 POP POP PUSH1 0x40 PUSH3 0x2DAA DUP8 DUP3 DUP9 ADD PUSH3 0x2878 JUMP JUMPDEST SWAP3 POP POP PUSH1 0x60 PUSH3 0x2DBD DUP8 DUP3 DUP9 ADD PUSH3 0x2D40 JUMP JUMPDEST SWAP2 POP POP SWAP3 SWAP6 SWAP2 SWAP5 POP SWAP3 POP JUMP JUMPDEST PUSH1 0x0 PUSH1 0x20 DUP3 DUP5 SUB SLT ISZERO PUSH3 0x2DE2 JUMPI PUSH3 0x2DE1 PUSH3 0x27EA JUMP JUMPDEST JUMPDEST PUSH1 0x0 PUSH3 0x2DF2 DUP5 DUP3 DUP6 ADD PUSH3 0x2878 JUMP JUMPDEST SWAP2 POP POP SWAP3 SWAP2 POP POP JUMP JUMPDEST PUSH32 0x4E487B7100000000000000000000000000000000000000000000000000000000 PUSH1 0x0 MSTORE PUSH1 0x32 PUSH1 0x4 MSTORE PUSH1 0x24 PUSH1 0x0 REVERT JUMPDEST PUSH1 0x0 DUP3 DUP3 MSTORE PUSH1 0x20 DUP3 ADD SWAP1 POP SWAP3 SWAP2 POP POP JUMP JUMPDEST PUSH32 0x54686973206F6666657220646F6573206E6F7420657869737400000000000000 PUSH1 0x0 DUP3 ADD MSTORE POP JUMP JUMPDEST PUSH1 0x0 PUSH3 0x2E73 PUSH1 0x19 DUP4 PUSH3 0x2E2A JUMP JUMPDEST SWAP2 POP PUSH3 0x2E80 DUP3 PUSH3 0x2E3B JUMP JUMPDEST PUSH1 0x20 DUP3 ADD SWAP1 POP SWAP2 SWAP1 POP JUMP JUMPDEST PUSH1 0x0 PUSH1 0x20 DUP3 ADD SWAP1 POP DUP2 DUP2 SUB PUSH1 0x0 DUP4 ADD MSTORE PUSH3 0x2EA6 DUP2 PUSH3 0x2E64 JUMP JUMPDEST SWAP1 POP SWAP2 SWAP1 POP JUMP JUMPDEST PUSH32 0x546869732061646472657373206973206E6F74207468652073656C6C6572206F PUSH1 0x0 DUP3 ADD MSTORE PUSH32 0x662074686973204E465400000000000000000000000000000000000000000000 PUSH1 0x20 DUP3 ADD MSTORE POP JUMP JUMPDEST PUSH1 0x0 PUSH3 0x2F0B PUSH1 0x2A DUP4 PUSH3 0x2E2A JUMP JUMPDEST SWAP2 POP PUSH3 0x2F18 DUP3 PUSH3 0x2EAD JUMP JUMPDEST PUSH1 0x40 DUP3 ADD SWAP1 POP SWAP2 SWAP1 POP JUMP JUMPDEST PUSH1 0x0 PUSH1 0x20 DUP3 ADD SWAP1 POP DUP2 DUP2 SUB PUSH1 0x0 DUP4 ADD MSTORE PUSH3 0x2F3E DUP2 PUSH3 0x2EFC JUMP JUMPDEST SWAP1 POP SWAP2 SWAP1 POP JUMP JUMPDEST PUSH32 0x73656C6C65720000000000000000000000000000000000000000000000000000 PUSH1 0x0 DUP3 ADD MSTORE POP JUMP JUMPDEST PUSH1 0x0 PUSH3 0x2F7D PUSH1 0x6 DUP4 PUSH3 0x2E2A JUMP JUMPDEST SWAP2 POP PUSH3 0x2F8A DUP3 PUSH3 0x2F45 JUMP JUMPDEST PUSH1 0x20 DUP3 ADD SWAP1 POP SWAP2 SWAP1 POP JUMP JUMPDEST PUSH1 0x0 PUSH1 0x60 DUP3 ADD SWAP1 POP PUSH3 0x2FAC PUSH1 0x0 DUP4 ADD DUP6 PUSH3 0x296C JUMP JUMPDEST PUSH3 0x2FBB PUSH1 0x20 DUP4 ADD DUP5 PUSH3 0x2A23 JUMP JUMPDEST DUP2 DUP2 SUB PUSH1 0x40 DUP4 ADD MSTORE PUSH3 0x2FCE DUP2 PUSH3 0x2F6E JUMP JUMPDEST SWAP1 POP SWAP4 SWAP3 POP POP POP JUMP JUMPDEST PUSH32 0x4E487B7100000000000000000000000000000000000000000000000000000000 PUSH1 0x0 MSTORE PUSH1 0x11 PUSH1 0x4 MSTORE PUSH1 0x24 PUSH1 0x0 REVERT JUMPDEST PUSH1 0x0 PUSH3 0x3013 DUP3 PUSH3 0x27EF JUMP JUMPDEST SWAP2 POP PUSH32 0xFFFFFFFFFFFFFFFFFFFFFFFFFFFFFFFFFFFFFFFFFFFFFFFFFFFFFFFFFFFFFFFF DUP3 SUB PUSH3 0x3048 JUMPI PUSH3 0x3047 PUSH3 0x2FD7 JUMP JUMPDEST JUMPDEST PUSH1 0x1 DUP3 ADD SWAP1 POP SWAP2 SWAP1 POP JUMP JUMPDEST PUSH32 0x43616C6C6572206973206E6F74206F776E657200000000000000000000000000 PUSH1 0x0 DUP3 ADD MSTORE POP JUMP JUMPDEST PUSH1 0x0 PUSH3 0x308B PUSH1 0x13 DUP4 PUSH3 0x2E2A JUMP JUMPDEST SWAP2 POP PUSH3 0x3098 DUP3 PUSH3 0x3053 JUMP JUMPDEST PUSH1 0x20 DUP3 ADD SWAP1 POP SWAP2 SWAP1 POP JUMP JUMPDEST PUSH1 0x0 PUSH1 0x20 DUP3 ADD SWAP1 POP DUP2 DUP2 SUB PUSH1 0x0 DUP4 ADD MSTORE PUSH3 0x30BE DUP2 PUSH3 0x307C JUMP JUMPDEST SWAP1 POP SWAP2 SWAP1 POP JUMP JUMPDEST PUSH32 0x43616E6E6F7420736574207A65726F2066656573000000000000000000000000 PUSH1 0x0 DUP3 ADD MSTORE POP JUMP JUMPDEST PUSH1 0x0 PUSH3 0x30FD PUSH1 0x14 DUP4 PUSH3 0x2E2A JUMP JUMPDEST SWAP2 POP PUSH3 0x310A DUP3 PUSH3 0x30C5 JUMP JUMPDEST PUSH1 0x20 DUP3 ADD SWAP1 POP SWAP2 SWAP1 POP JUMP JUMPDEST PUSH1 0x0 PUSH1 0x20 DUP3 ADD SWAP1 POP DUP2 DUP2 SUB PUSH1 0x0 DUP4 ADD MSTORE PUSH3 0x3130 DUP2 PUSH3 0x30EE JUMP JUMPDEST SWAP1 POP SWAP2 SWAP1 POP JUMP JUMPDEST PUSH32 0x53454C4C4552204645452050455243454E540000000000000000000000000000 PUSH1 0x0 DUP3 ADD MSTORE POP JUMP JUMPDEST PUSH1 0x0 PUSH3 0x316F PUSH1 0x12 DUP4 PUSH3 0x2E2A JUMP JUMPDEST SWAP2 POP PUSH3 0x317C DUP3 PUSH3 0x3137 JUMP JUMPDEST PUSH1 0x20 DUP3 ADD SWAP1 POP SWAP2 SWAP1 POP JUMP JUMPDEST PUSH1 0x0 PUSH1 0x40 DUP3 ADD SWAP1 POP PUSH3 0x319E PUSH1 0x0 DUP4 ADD DUP5 PUSH3 0x296C JUMP JUMPDEST DUP2 DUP2 SUB PUSH1 0x20 DUP4 ADD MSTORE PUSH3 0x31B1 DUP2 PUSH3 0x3160 JUMP JUMPDEST SWAP1 POP SWAP3 SWAP2 POP POP JUMP JUMPDEST PUSH32 0x596F75206861766520616C7265616479206D61646520616E206F666665720000 PUSH1 0x0 DUP3 ADD MSTORE POP JUMP JUMPDEST PUSH1 0x0 PUSH3 0x31F1 PUSH1 0x1E DUP4 PUSH3 0x2E2A JUMP JUMPDEST SWAP2 POP PUSH3 0x31FE DUP3 PUSH3 0x31B9 JUMP JUMPDEST PUSH1 0x20 DUP3 ADD SWAP1 POP SWAP2 SWAP1 POP JUMP JUMPDEST PUSH1 0x0 PUSH1 0x20 DUP3 ADD SWAP1 POP DUP2 DUP2 SUB PUSH1 0x0 DUP4 ADD MSTORE PUSH3 0x3224 DUP2 PUSH3 0x31E2 JUMP JUMPDEST SWAP1 POP SWAP2 SWAP1 POP JUMP JUMPDEST PUSH1 0x0 PUSH3 0x3238 DUP3 PUSH3 0x27EF JUMP JUMPDEST SWAP2 POP PUSH3 0x3245 DUP4 PUSH3 0x27EF JUMP JUMPDEST SWAP3 POP DUP3 DUP3 ADD SWAP1 POP DUP1 DUP3 GT ISZERO PUSH3 0x3260 JUMPI PUSH3 0x325F PUSH3 0x2FD7 JUMP JUMPDEST JUMPDEST SWAP3 SWAP2 POP POP JUMP JUMPDEST PUSH1 0x0 DUP2 MLOAD SWAP1 POP PUSH3 0x3277 DUP2 PUSH3 0x27F9 JUMP JUMPDEST SWAP3 SWAP2 POP POP JUMP JUMPDEST PUSH1 0x0 PUSH1 0x20 DUP3 DUP5 SUB SLT ISZERO PUSH3 0x3296 JUMPI PUSH3 0x3295 PUSH3 0x27EA JUMP JUMPDEST JUMPDEST PUSH1 0x0 PUSH3 0x32A6 DUP5 DUP3 DUP6 ADD PUSH3 0x3266 JUMP JUMPDEST SWAP2 POP POP SWAP3 SWAP2 POP POP JUMP JUMPDEST PUSH32 0x496E737566666963656E7420534E4320746F6B656E7320666F72207468697320 PUSH1 0x0 DUP3 ADD MSTORE PUSH32 0x6F66666572000000000000000000000000000000000000000000000000000000 PUSH1 0x20 DUP3 ADD MSTORE POP JUMP JUMPDEST PUSH1 0x0 PUSH3 0x330D PUSH1 0x25 DUP4 PUSH3 0x2E2A JUMP JUMPDEST SWAP2 POP PUSH3 0x331A DUP3 PUSH3 0x32AF JUMP JUMPDEST PUSH1 0x40 DUP3 ADD SWAP1 POP SWAP2 SWAP1 POP JUMP JUMPDEST PUSH1 0x0 PUSH1 0x20 DUP3 ADD SWAP1 POP DUP2 DUP2 SUB PUSH1 0x0 DUP4 ADD MSTORE PUSH3 0x3340 DUP2 PUSH3 0x32FE JUMP JUMPDEST SWAP1 POP SWAP2 SWAP1 POP JUMP JUMPDEST PUSH32 0x4F66666572206475726174696F6E206578706972656400000000000000000000 PUSH1 0x0 DUP3 ADD MSTORE POP JUMP JUMPDEST PUSH1 0x0 PUSH3 0x337F PUSH1 0x16 DUP4 PUSH3 0x2E2A JUMP JUMPDEST SWAP2 POP PUSH3 0x338C DUP3 PUSH3 0x3347 JUMP JUMPDEST PUSH1 0x20 DUP3 ADD SWAP1 POP SWAP2 SWAP1 POP JUMP JUMPDEST PUSH1 0x0 PUSH1 0x20 DUP3 ADD SWAP1 POP DUP2 DUP2 SUB PUSH1 0x0 DUP4 ADD MSTORE PUSH3 0x33B2 DUP2 PUSH3 0x3370 JUMP JUMPDEST SWAP1 POP SWAP2 SWAP1 POP JUMP JUMPDEST PUSH1 0x0 PUSH1 0x60 DUP3 ADD SWAP1 POP PUSH3 0x33D0 PUSH1 0x0 DUP4 ADD DUP7 PUSH3 0x2A23 JUMP JUMPDEST PUSH3 0x33DF PUSH1 0x20 DUP4 ADD DUP6 PUSH3 0x296C JUMP JUMPDEST PUSH3 0x33EE PUSH1 0x40 DUP4 ADD DUP5 PUSH3 0x2A23 JUMP JUMPDEST SWAP5 SWAP4 POP POP POP POP JUMP JUMPDEST PUSH1 0x0 PUSH1 0x60 DUP3 ADD SWAP1 POP PUSH3 0x340D PUSH1 0x0 DUP4 ADD DUP7 PUSH3 0x2A23 JUMP JUMPDEST PUSH3 0x341C PUSH1 0x20 DUP4 ADD DUP6 PUSH3 0x2A23 JUMP JUMPDEST PUSH3 0x342B PUSH1 0x40 DUP4 ADD DUP5 PUSH3 0x296C JUMP JUMPDEST SWAP5 SWAP4 POP POP POP POP JUMP JUMPDEST PUSH1 0x0 DUP2 MLOAD SWAP1 POP PUSH3 0x3444 DUP2 PUSH3 0x2D26 JUMP JUMPDEST SWAP3 SWAP2 POP POP JUMP JUMPDEST PUSH1 0x0 PUSH1 0x20 DUP3 DUP5 SUB SLT ISZERO PUSH3 0x3463 JUMPI PUSH3 0x3462 PUSH3 0x27EA JUMP JUMPDEST JUMPDEST PUSH1 0x0 PUSH3 0x3473 DUP5 DUP3 DUP6 ADD PUSH3 0x3433 JUMP JUMPDEST SWAP2 POP POP SWAP3 SWAP2 POP POP JUMP JUMPDEST PUSH1 0x0 PUSH1 0x80 DUP3 ADD SWAP1 POP PUSH3 0x3493 PUSH1 0x0 DUP4 ADD DUP8 PUSH3 0x2A23 JUMP JUMPDEST PUSH3 0x34A2 PUSH1 0x20 DUP4 ADD DUP7 PUSH3 0x296C JUMP JUMPDEST PUSH3 0x34B1 PUSH1 0x40 DUP4 ADD DUP6 PUSH3 0x296C JUMP JUMPDEST PUSH3 0x34C0 PUSH1 0x60 DUP4 ADD DUP5 PUSH3 0x296C JUMP JUMPDEST SWAP6 SWAP5 POP POP POP POP POP JUMP JUMPDEST PUSH1 0x0 PUSH3 0x34D6 DUP3 PUSH3 0x27EF JUMP JUMPDEST SWAP2 POP PUSH3 0x34E3 DUP4 PUSH3 0x27EF JUMP JUMPDEST SWAP3 POP DUP3 DUP3 SUB SWAP1 POP DUP2 DUP2 GT ISZERO PUSH3 0x34FE JUMPI PUSH3 0x34FD PUSH3 0x2FD7 JUMP JUMPDEST JUMPDEST SWAP3 SWAP2 POP POP JUMP JUMPDEST PUSH32 0x48617320616C726561647920616363657074656420616E206F66666572000000 PUSH1 0x0 DUP3 ADD MSTORE POP JUMP JUMPDEST PUSH1 0x0 PUSH3 0x353C PUSH1 0x1D DUP4 PUSH3 0x2E2A JUMP JUMPDEST SWAP2 POP PUSH3 0x3549 DUP3 PUSH3 0x3504 JUMP JUMPDEST PUSH1 0x20 DUP3 ADD SWAP1 POP SWAP2 SWAP1 POP JUMP JUMPDEST PUSH1 0x0 PUSH1 0x20 DUP3 ADD SWAP1 POP DUP2 DUP2 SUB PUSH1 0x0 DUP4 ADD MSTORE PUSH3 0x356F DUP2 PUSH3 0x352D JUMP JUMPDEST SWAP1 POP SWAP2 SWAP1 POP JUMP JUMPDEST PUSH1 0x0 PUSH3 0x3583 DUP3 PUSH3 0x27EF JUMP JUMPDEST SWAP2 POP PUSH3 0x3590 DUP4 PUSH3 0x27EF JUMP JUMPDEST SWAP3 POP DUP3 DUP3 MUL PUSH3 0x35A0 DUP2 PUSH3 0x27EF JUMP JUMPDEST SWAP2 POP DUP3 DUP3 DIV DUP5 EQ DUP4 ISZERO OR PUSH3 0x35BA JUMPI PUSH3 0x35B9 PUSH3 0x2FD7 JUMP JUMPDEST JUMPDEST POP SWAP3 SWAP2 POP POP JUMP JUMPDEST PUSH32 0x4E487B7100000000000000000000000000000000000000000000000000000000 PUSH1 0x0 MSTORE PUSH1 0x12 PUSH1 0x4 MSTORE PUSH1 0x24 PUSH1 0x0 REVERT JUMPDEST PUSH1 0x0 PUSH3 0x35FD DUP3 PUSH3 0x27EF JUMP JUMPDEST SWAP2 POP PUSH3 0x360A DUP4 PUSH3 0x27EF JUMP JUMPDEST SWAP3 POP DUP3 PUSH3 0x361D JUMPI PUSH3 0x361C PUSH3 0x35C1 JUMP JUMPDEST JUMPDEST DUP3 DUP3 DIV SWAP1 POP SWAP3 SWAP2 POP POP JUMP JUMPDEST PUSH32 0x4E6F7420656E6F75676820534E4320746F6B656E7320696E20657363726F7720 PUSH1 0x0 DUP3 ADD MSTORE PUSH32 0x746F20616C6C6F7720666F72207472616E736665720000000000000000000000 PUSH1 0x20 DUP3 ADD MSTORE POP JUMP JUMPDEST PUSH1 0x0 PUSH3 0x3686 PUSH1 0x35 DUP4 PUSH3 0x2E2A JUMP JUMPDEST SWAP2 POP PUSH3 0x3693 DUP3 PUSH3 0x3628 JUMP JUMPDEST PUSH1 0x40 DUP3 ADD SWAP1 POP SWAP2 SWAP1 POP JUMP JUMPDEST PUSH1 0x0 PUSH1 0x20 DUP3 ADD SWAP1 POP DUP2 DUP2 SUB PUSH1 0x0 DUP4 ADD MSTORE PUSH3 0x36B9 DUP2 PUSH3 0x3677 JUMP JUMPDEST SWAP1 POP SWAP2 SWAP1 POP JUMP JUMPDEST PUSH1 0x0 DUP2 SWAP1 POP SWAP2 SWAP1 POP JUMP JUMPDEST PUSH1 0x0 DUP2 SWAP1 POP SWAP2 SWAP1 POP JUMP JUMPDEST PUSH1 0x0 PUSH3 0x36F5 PUSH3 0x36EF PUSH3 0x36E9 DUP5 PUSH3 0x36C0 JUMP JUMPDEST PUSH3 0x36CA JUMP JUMPDEST PUSH3 0x27EF JUMP JUMPDEST SWAP1 POP SWAP2 SWAP1 POP JUMP JUMPDEST PUSH3 0x3707 DUP2 PUSH3 0x36D4 JUMP JUMPDEST DUP3 MSTORE POP POP JUMP JUMPDEST PUSH1 0x0 DUP3 DUP3 MSTORE PUSH1 0x20 DUP3 ADD SWAP1 POP SWAP3 SWAP2 POP POP JUMP JUMPDEST POP JUMP JUMPDEST PUSH1 0x0 PUSH3 0x3730 PUSH1 0x0 DUP4 PUSH3 0x370D JUMP JUMPDEST SWAP2 POP PUSH3 0x373D DUP3 PUSH3 0x371E JUMP JUMPDEST PUSH1 0x0 DUP3 ADD SWAP1 POP SWAP2 SWAP1 POP JUMP JUMPDEST PUSH1 0x0 PUSH1 0xA0 DUP3 ADD SWAP1 POP PUSH3 0x375F PUSH1 0x0 DUP4 ADD DUP8 PUSH3 0x2A23 JUMP JUMPDEST PUSH3 0x376E PUSH1 0x20 DUP4 ADD DUP7 PUSH3 0x2A23 JUMP JUMPDEST PUSH3 0x377D PUSH1 0x40 DUP4 ADD DUP6 PUSH3 0x296C JUMP JUMPDEST PUSH3 0x378C PUSH1 0x60 DUP4 ADD DUP5 PUSH3 0x36FC JUMP JUMPDEST DUP2 DUP2 SUB PUSH1 0x80 DUP4 ADD MSTORE PUSH3 0x379F DUP2 PUSH3 0x3721 JUMP JUMPDEST SWAP1 POP SWAP6 SWAP5 POP POP POP POP POP JUMP JUMPDEST PUSH1 0x0 PUSH1 0x60 DUP3 ADD SWAP1 POP PUSH3 0x37C1 PUSH1 0x0 DUP4 ADD DUP7 PUSH3 0x296C JUMP JUMPDEST PUSH3 0x37D0 PUSH1 0x20 DUP4 ADD DUP6 PUSH3 0x2A23 JUMP JUMPDEST PUSH3 0x37DF PUSH1 0x40 DUP4 ADD DUP5 PUSH3 0x296C JUMP JUMPDEST SWAP5 SWAP4 POP POP POP POP JUMP JUMPDEST PUSH1 0x0 PUSH1 0x40 DUP3 ADD SWAP1 POP PUSH3 0x37FE PUSH1 0x0 DUP4 ADD DUP6 PUSH3 0x2A23 JUMP JUMPDEST PUSH3 0x380D PUSH1 0x20 DUP4 ADD DUP5 PUSH3 0x296C JUMP JUMPDEST SWAP4 SWAP3 POP POP POP JUMP JUMPDEST PUSH32 0x4E487B7100000000000000000000000000000000000000000000000000000000 PUSH1 0x0 MSTORE PUSH1 0x41 PUSH1 0x4 MSTORE PUSH1 0x24 PUSH1 0x0 REVERT JUMPDEST PUSH32 0x4E6F206F6666657220686173206265656E206D61646520627920746869732062 PUSH1 0x0 DUP3 ADD MSTORE PUSH32 0x7579657200000000000000000000000000000000000000000000000000000000 PUSH1 0x20 DUP3 ADD MSTORE POP JUMP JUMPDEST PUSH1 0x0 PUSH3 0x38A1 PUSH1 0x24 DUP4 PUSH3 0x2E2A JUMP JUMPDEST SWAP2 POP PUSH3 0x38AE DUP3 PUSH3 0x3843 JUMP JUMPDEST PUSH1 0x40 DUP3 ADD SWAP1 POP SWAP2 SWAP1 POP JUMP JUMPDEST PUSH1 0x0 PUSH1 0x20 DUP3 ADD SWAP1 POP DUP2 DUP2 SUB PUSH1 0x0 DUP4 ADD MSTORE PUSH3 0x38D4 DUP2 PUSH3 0x3892 JUMP JUMPDEST SWAP1 POP SWAP2 SWAP1 POP JUMP JUMPDEST PUSH32 0x6275796572000000000000000000000000000000000000000000000000000000 PUSH1 0x0 DUP3 ADD MSTORE POP JUMP JUMPDEST PUSH1 0x0 PUSH3 0x3913 PUSH1 0x5 DUP4 PUSH3 0x2E2A JUMP JUMPDEST SWAP2 POP PUSH3 0x3920 DUP3 PUSH3 0x38DB JUMP JUMPDEST PUSH1 0x20 DUP3 ADD SWAP1 POP SWAP2 SWAP1 POP JUMP JUMPDEST PUSH1 0x0 PUSH1 0x60 DUP3 ADD SWAP1 POP PUSH3 0x3942 PUSH1 0x0 DUP4 ADD DUP6 PUSH3 0x296C JUMP JUMPDEST PUSH3 0x3951 PUSH1 0x20 DUP4 ADD DUP5 PUSH3 0x2A23 JUMP JUMPDEST DUP2 DUP2 SUB PUSH1 0x40 DUP4 ADD MSTORE PUSH3 0x3964 DUP2 PUSH3 0x3904 JUMP JUMPDEST SWAP1 POP SWAP4 SWAP3 POP POP POP JUMP JUMPDEST PUSH32 0x4255594552204645452050455243454E54000000000000000000000000000000 PUSH1 0x0 DUP3 ADD MSTORE POP JUMP JUMPDEST PUSH1 0x0 PUSH3 0x39A5 PUSH1 0x11 DUP4 PUSH3 0x2E2A JUMP JUMPDEST SWAP2 POP PUSH3 0x39B2 DUP3 PUSH3 0x396D JUMP JUMPDEST PUSH1 0x20 DUP3 ADD SWAP1 POP SWAP2 SWAP1 POP JUMP JUMPDEST PUSH1 0x0 PUSH1 0x40 DUP3 ADD SWAP1 POP PUSH3 0x39D4 PUSH1 0x0 DUP4 ADD DUP5 PUSH3 0x296C JUMP JUMPDEST DUP2 DUP2 SUB PUSH1 0x20 DUP4 ADD MSTORE PUSH3 0x39E7 DUP2 PUSH3 0x3996 JUMP JUMPDEST SWAP1 POP SWAP3 SWAP2 POP POP JUMP JUMPDEST PUSH32 0x54686973206F6666657220776173206E6F74206D616465206279207468697320 PUSH1 0x0 DUP3 ADD MSTORE PUSH32 0x6275796572000000000000000000000000000000000000000000000000000000 PUSH1 0x20 DUP3 ADD MSTORE POP JUMP JUMPDEST PUSH1 0x0 PUSH3 0x3A4D PUSH1 0x25 DUP4 PUSH3 0x2E2A JUMP JUMPDEST SWAP2 POP PUSH3 0x3A5A DUP3 PUSH3 0x39EF JUMP JUMPDEST PUSH1 0x40 DUP3 ADD SWAP1 POP SWAP2 SWAP1 POP JUMP JUMPDEST PUSH1 0x0 PUSH1 0x20 DUP3 ADD SWAP1 POP DUP2 DUP2 SUB PUSH1 0x0 DUP4 ADD MSTORE PUSH3 0x3A80 DUP2 PUSH3 0x3A3E JUMP JUMPDEST SWAP1 POP SWAP2 SWAP1 POP JUMP JUMPDEST PUSH32 0x4E487B7100000000000000000000000000000000000000000000000000000000 PUSH1 0x0 MSTORE PUSH1 0x31 PUSH1 0x4 MSTORE PUSH1 0x24 PUSH1 0x0 REVERT INVALID PUSH1 0x80 PUSH1 0x40 MSTORE CALLVALUE DUP1 ISZERO PUSH3 0x11 JUMPI PUSH1 0x0 DUP1 REVERT JUMPDEST POP PUSH1 0x40 MLOAD PUSH3 0x14E1 CODESIZE SUB DUP1 PUSH3 0x14E1 DUP4 CODECOPY DUP2 DUP2 ADD PUSH1 0x40 MSTORE DUP2 ADD SWAP1 PUSH3 0x37 SWAP2 SWAP1 PUSH3 0x3CB JUMP JUMPDEST DUP3 PUSH1 0x0 DUP1 PUSH2 0x100 EXP DUP2 SLOAD DUP2 PUSH20 0xFFFFFFFFFFFFFFFFFFFFFFFFFFFFFFFFFFFFFFFF MUL NOT AND SWAP1 DUP4 PUSH20 0xFFFFFFFFFFFFFFFFFFFFFFFFFFFFFFFFFFFFFFFF AND MUL OR SWAP1 SSTORE POP DUP2 PUSH1 0x2 DUP2 SWAP1 SSTORE POP DUP1 PUSH1 0x1 PUSH1 0x0 PUSH2 0x100 EXP DUP2 SLOAD DUP2 PUSH20 0xFFFFFFFFFFFFFFFFFFFFFFFFFFFFFFFFFFFFFFFF MUL NOT AND SWAP1 DUP4 PUSH20 0xFFFFFFFFFFFFFFFFFFFFFFFFFFFFFFFFFFFFFFFF AND MUL OR SWAP1 SSTORE POP PUSH1 0x0 PUSH1 0x1 PUSH1 0x0 SWAP1 SLOAD SWAP1 PUSH2 0x100 EXP SWAP1 DIV PUSH20 0xFFFFFFFFFFFFFFFFFFFFFFFFFFFFFFFFFFFFFFFF AND PUSH20 0xFFFFFFFFFFFFFFFFFFFFFFFFFFFFFFFFFFFFFFFF AND PUSH4 0x70A08231 ADDRESS PUSH1 0x40 MLOAD DUP3 PUSH4 0xFFFFFFFF AND PUSH1 0xE0 SHL DUP2 MSTORE PUSH1 0x4 ADD PUSH3 0x11E SWAP2 SWAP1 PUSH3 0x438 JUMP JUMPDEST PUSH1 0x20 PUSH1 0x40 MLOAD DUP1 DUP4 SUB DUP2 DUP7 GAS STATICCALL ISZERO DUP1 ISZERO PUSH3 0x13C JUMPI RETURNDATASIZE PUSH1 0x0 DUP1 RETURNDATACOPY RETURNDATASIZE PUSH1 0x0 REVERT JUMPDEST POP POP POP POP PUSH1 0x40 MLOAD RETURNDATASIZE PUSH1 0x1F NOT PUSH1 0x1F DUP3 ADD AND DUP3 ADD DUP1 PUSH1 0x40 MSTORE POP DUP2 ADD SWAP1 PUSH3 0x162 SWAP2 SWAP1 PUSH3 0x455 JUMP JUMPDEST EQ PUSH3 0x1A5 JUMPI PUSH1 0x40 MLOAD PUSH32 0x8C379A000000000000000000000000000000000000000000000000000000000 DUP2 MSTORE PUSH1 0x4 ADD PUSH3 0x19C SWAP1 PUSH3 0x4E8 JUMP JUMPDEST PUSH1 0x40 MLOAD DUP1 SWAP2 SUB SWAP1 REVERT JUMPDEST PUSH1 0x0 DUP1 PUSH1 0x0 SWAP1 SLOAD SWAP1 PUSH2 0x100 EXP SWAP1 DIV PUSH20 0xFFFFFFFFFFFFFFFFFFFFFFFFFFFFFFFFFFFFFFFF AND PUSH20 0xFFFFFFFFFFFFFFFFFFFFFFFFFFFFFFFFFFFFFFFF AND PUSH3 0xFDD58E ADDRESS DUP6 PUSH1 0x40 MLOAD DUP4 PUSH4 0xFFFFFFFF AND PUSH1 0xE0 SHL DUP2 MSTORE PUSH1 0x4 ADD PUSH3 0x204 SWAP3 SWAP2 SWAP1 PUSH3 0x51B JUMP JUMPDEST PUSH1 0x20 PUSH1 0x40 MLOAD DUP1 DUP4 SUB DUP2 DUP7 GAS STATICCALL ISZERO DUP1 ISZERO PUSH3 0x222 JUMPI RETURNDATASIZE PUSH1 0x0 DUP1 RETURNDATACOPY RETURNDATASIZE PUSH1 0x0 REVERT JUMPDEST POP POP POP POP PUSH1 0x40 MLOAD RETURNDATASIZE PUSH1 0x1F NOT PUSH1 0x1F DUP3 ADD AND DUP3 ADD DUP1 PUSH1 0x40 MSTORE POP DUP2 ADD SWAP1 PUSH3 0x248 SWAP2 SWAP1 PUSH3 0x455 JUMP JUMPDEST EQ PUSH3 0x28B JUMPI PUSH1 0x40 MLOAD PUSH32 0x8C379A000000000000000000000000000000000000000000000000000000000 DUP2 MSTORE PUSH1 0x4 ADD PUSH3 0x282 SWAP1 PUSH3 0x598 JUMP JUMPDEST PUSH1 0x40 MLOAD DUP1 SWAP2 SUB SWAP1 REVERT JUMPDEST PUSH1 0x0 DUP1 SLOAD SWAP1 PUSH2 0x100 EXP SWAP1 DIV PUSH20 0xFFFFFFFFFFFFFFFFFFFFFFFFFFFFFFFFFFFFFFFF AND PUSH20 0xFFFFFFFFFFFFFFFFFFFFFFFFFFFFFFFFFFFFFFFF AND PUSH4 0xA22CB465 CALLER PUSH1 0x1 PUSH1 0x40 MLOAD DUP4 PUSH4 0xFFFFFFFF AND PUSH1 0xE0 SHL DUP2 MSTORE PUSH1 0x4 ADD PUSH3 0x2E9 SWAP3 SWAP2 SWAP1 PUSH3 0x5D7 JUMP JUMPDEST PUSH1 0x0 PUSH1 0x40 MLOAD DUP1 DUP4 SUB DUP2 PUSH1 0x0 DUP8 DUP1 EXTCODESIZE ISZERO DUP1 ISZERO PUSH3 0x304 JUMPI PUSH1 0x0 DUP1 REVERT JUMPDEST POP GAS CALL ISZERO DUP1 ISZERO PUSH3 0x319 JUMPI RETURNDATASIZE PUSH1 0x0 DUP1 RETURNDATACOPY RETURNDATASIZE PUSH1 0x0 REVERT JUMPDEST POP POP POP POP POP POP POP PUSH3 0x604 JUMP JUMPDEST PUSH1 0x0 DUP1 REVERT JUMPDEST PUSH1 0x0 PUSH20 0xFFFFFFFFFFFFFFFFFFFFFFFFFFFFFFFFFFFFFFFF DUP3 AND SWAP1 POP SWAP2 SWAP1 POP JUMP JUMPDEST PUSH1 0x0 PUSH3 0x358 DUP3 PUSH3 0x32B JUMP JUMPDEST SWAP1 POP SWAP2 SWAP1 POP JUMP JUMPDEST PUSH3 0x36A DUP2 PUSH3 0x34B JUMP JUMPDEST DUP2 EQ PUSH3 0x376 JUMPI PUSH1 0x0 DUP1 REVERT JUMPDEST POP JUMP JUMPDEST PUSH1 0x0 DUP2 MLOAD SWAP1 POP PUSH3 0x38A DUP2 PUSH3 0x35F JUMP JUMPDEST SWAP3 SWAP2 POP POP JUMP JUMPDEST PUSH1 0x0 DUP2 SWAP1 POP SWAP2 SWAP1 POP JUMP JUMPDEST PUSH3 0x3A5 DUP2 PUSH3 0x390 JUMP JUMPDEST DUP2 EQ PUSH3 0x3B1 JUMPI PUSH1 0x0 DUP1 REVERT JUMPDEST POP JUMP JUMPDEST PUSH1 0x0 DUP2 MLOAD SWAP1 POP PUSH3 0x3C5 DUP2 PUSH3 0x39A JUMP JUMPDEST SWAP3 SWAP2 POP POP JUMP JUMPDEST PUSH1 0x0 DUP1 PUSH1 0x0 PUSH1 0x60 DUP5 DUP7 SUB SLT ISZERO PUSH3 0x3E7 JUMPI PUSH3 0x3E6 PUSH3 0x326 JUMP JUMPDEST JUMPDEST PUSH1 0x0 PUSH3 0x3F7 DUP7 DUP3 DUP8 ADD PUSH3 0x379 JUMP JUMPDEST SWAP4 POP POP PUSH1 0x20 PUSH3 0x40A DUP7 DUP3 DUP8 ADD PUSH3 0x3B4 JUMP JUMPDEST SWAP3 POP POP PUSH1 0x40 PUSH3 0x41D DUP7 DUP3 DUP8 ADD PUSH3 0x379 JUMP JUMPDEST SWAP2 POP POP SWAP3 POP SWAP3 POP SWAP3 JUMP JUMPDEST PUSH3 0x432 DUP2 PUSH3 0x34B JUMP JUMPDEST DUP3 MSTORE POP POP JUMP JUMPDEST PUSH1 0x0 PUSH1 0x20 DUP3 ADD SWAP1 POP PUSH3 0x44F PUSH1 0x0 DUP4 ADD DUP5 PUSH3 0x427 JUMP JUMPDEST SWAP3 SWAP2 POP POP JUMP JUMPDEST PUSH1 0x0 PUSH1 0x20 DUP3 DUP5 SUB SLT ISZERO PUSH3 0x46E JUMPI PUSH3 0x46D PUSH3 0x326 JUMP JUMPDEST JUMPDEST PUSH1 0x0 PUSH3 0x47E DUP5 DUP3 DUP6 ADD PUSH3 0x3B4 JUMP JUMPDEST SWAP2 POP POP SWAP3 SWAP2 POP POP JUMP JUMPDEST PUSH1 0x0 DUP3 DUP3 MSTORE PUSH1 0x20 DUP3 ADD SWAP1 POP SWAP3 SWAP2 POP POP JUMP JUMPDEST PUSH32 0x496E76616C696420455243323020436F6E747261637420616464726573730000 PUSH1 0x0 DUP3 ADD MSTORE POP JUMP JUMPDEST PUSH1 0x0 PUSH3 0x4D0 PUSH1 0x1E DUP4 PUSH3 0x487 JUMP JUMPDEST SWAP2 POP PUSH3 0x4DD DUP3 PUSH3 0x498 JUMP JUMPDEST PUSH1 0x20 DUP3 ADD SWAP1 POP SWAP2 SWAP1 POP JUMP JUMPDEST PUSH1 0x0 PUSH1 0x20 DUP3 ADD SWAP1 POP DUP2 DUP2 SUB PUSH1 0x0 DUP4 ADD MSTORE PUSH3 0x503 DUP2 PUSH3 0x4C1 JUMP JUMPDEST SWAP1 POP SWAP2 SWAP1 POP JUMP JUMPDEST PUSH3 0x515 DUP2 PUSH3 0x390 JUMP JUMPDEST DUP3 MSTORE POP POP JUMP JUMPDEST PUSH1 0x0 PUSH1 0x40 DUP3 ADD SWAP1 POP PUSH3 0x532 PUSH1 0x0 DUP4 ADD DUP6 PUSH3 0x427 JUMP JUMPDEST PUSH3 0x541 PUSH1 0x20 DUP4 ADD DUP5 PUSH3 0x50A JUMP JUMPDEST SWAP4 SWAP3 POP POP POP JUMP JUMPDEST PUSH32 0x496E76616C6964204E465420436F6E7472616374000000000000000000000000 PUSH1 0x0 DUP3 ADD MSTORE POP JUMP JUMPDEST PUSH1 0x0 PUSH3 0x580 PUSH1 0x14 DUP4 PUSH3 0x487 JUMP JUMPDEST SWAP2 POP PUSH3 0x58D DUP3 PUSH3 0x548 JUMP JUMPDEST PUSH1 0x20 DUP3 ADD SWAP1 POP SWAP2 SWAP1 POP JUMP JUMPDEST PUSH1 0x0 PUSH1 0x20 DUP3 ADD SWAP1 POP DUP2 DUP2 SUB PUSH1 0x0 DUP4 ADD MSTORE PUSH3 0x5B3 DUP2 PUSH3 0x571 JUMP JUMPDEST SWAP1 POP SWAP2 SWAP1 POP JUMP JUMPDEST PUSH1 0x0 DUP2 ISZERO ISZERO SWAP1 POP SWAP2 SWAP1 POP JUMP JUMPDEST PUSH3 0x5D1 DUP2 PUSH3 0x5BA JUMP JUMPDEST DUP3 MSTORE POP POP JUMP JUMPDEST PUSH1 0x0 PUSH1 0x40 DUP3 ADD SWAP1 POP PUSH3 0x5EE PUSH1 0x0 DUP4 ADD DUP6 PUSH3 0x427 JUMP JUMPDEST PUSH3 0x5FD PUSH1 0x20 DUP4 ADD DUP5 PUSH3 0x5C6 JUMP JUMPDEST SWAP4 SWAP3 POP POP POP JUMP JUMPDEST PUSH2 0xECD DUP1 PUSH3 0x614 PUSH1 0x0 CODECOPY PUSH1 0x0 RETURN INVALID PUSH1 0x80 PUSH1 0x40 MSTORE CALLVALUE DUP1 ISZERO PUSH2 0x10 JUMPI PUSH1 0x0 DUP1 REVERT JUMPDEST POP PUSH1 0x4 CALLDATASIZE LT PUSH2 0x62 JUMPI PUSH1 0x0 CALLDATALOAD PUSH1 0xE0 SHR DUP1 PUSH4 0x1FFC9A7 EQ PUSH2 0x67 JUMPI DUP1 PUSH4 0x8F04A18F EQ PUSH2 0x97 JUMPI DUP1 PUSH4 0xBC197C81 EQ PUSH2 0xC7 JUMPI DUP1 PUSH4 0xCEFF9468 EQ PUSH2 0xF7 JUMPI DUP1 PUSH4 0xD580408A EQ PUSH2 0x127 JUMPI DUP1 PUSH4 0xF23A6E61 EQ PUSH2 0x157 JUMPI JUMPDEST PUSH1 0x0 DUP1 REVERT JUMPDEST PUSH2 0x81 PUSH1 0x4 DUP1 CALLDATASIZE SUB DUP2 ADD SWAP1 PUSH2 0x7C SWAP2 SWAP1 PUSH2 0x71E JUMP JUMPDEST PUSH2 0x187 JUMP JUMPDEST PUSH1 0x40 MLOAD PUSH2 0x8E SWAP2 SWAP1 PUSH2 0x766 JUMP JUMPDEST PUSH1 0x40 MLOAD DUP1 SWAP2 SUB SWAP1 RETURN JUMPDEST PUSH2 0xB1 PUSH1 0x4 DUP1 CALLDATASIZE SUB DUP2 ADD SWAP1 PUSH2 0xAC SWAP2 SWAP1 PUSH2 0x7DF JUMP JUMPDEST PUSH2 0x201 JUMP JUMPDEST PUSH1 0x40 MLOAD PUSH2 0xBE SWAP2 SWAP1 PUSH2 0x766 JUMP JUMPDEST PUSH1 0x40 MLOAD DUP1 SWAP2 SUB SWAP1 RETURN JUMPDEST PUSH2 0xE1 PUSH1 0x4 DUP1 CALLDATASIZE SUB DUP2 ADD SWAP1 PUSH2 0xDC SWAP2 SWAP1 PUSH2 0xA50 JUMP JUMPDEST PUSH2 0x37F JUMP JUMPDEST PUSH1 0x40 MLOAD PUSH2 0xEE SWAP2 SWAP1 PUSH2 0xB2E JUMP JUMPDEST PUSH1 0x40 MLOAD DUP1 SWAP2 SUB SWAP1 RETURN JUMPDEST PUSH2 0x111 PUSH1 0x4 DUP1 CALLDATASIZE SUB DUP2 ADD SWAP1 PUSH2 0x10C SWAP2 SWAP1 PUSH2 0x7DF JUMP JUMPDEST PUSH2 0x394 JUMP JUMPDEST PUSH1 0x40 MLOAD PUSH2 0x11E SWAP2 SWAP1 PUSH2 0x766 JUMP JUMPDEST PUSH1 0x40 MLOAD DUP1 SWAP2 SUB SWAP1 RETURN JUMPDEST PUSH2 0x141 PUSH1 0x4 DUP1 CALLDATASIZE SUB DUP2 ADD SWAP1 PUSH2 0x13C SWAP2 SWAP1 PUSH2 0xB49 JUMP JUMPDEST PUSH2 0x46F JUMP JUMPDEST PUSH1 0x40 MLOAD PUSH2 0x14E SWAP2 SWAP1 PUSH2 0x766 JUMP JUMPDEST PUSH1 0x40 MLOAD DUP1 SWAP2 SUB SWAP1 RETURN JUMPDEST PUSH2 0x171 PUSH1 0x4 DUP1 CALLDATASIZE SUB DUP2 ADD SWAP1 PUSH2 0x16C SWAP2 SWAP1 PUSH2 0xB89 JUMP JUMPDEST PUSH2 0x633 JUMP JUMPDEST PUSH1 0x40 MLOAD PUSH2 0x17E SWAP2 SWAP1 PUSH2 0xB2E JUMP JUMPDEST PUSH1 0x40 MLOAD DUP1 SWAP2 SUB SWAP1 RETURN JUMPDEST PUSH1 0x0 PUSH32 0x4E2312E000000000000000000000000000000000000000000000000000000000 PUSH28 0xFFFFFFFFFFFFFFFFFFFFFFFFFFFFFFFFFFFFFFFFFFFFFFFFFFFFFFFF NOT AND DUP3 PUSH28 0xFFFFFFFFFFFFFFFFFFFFFFFFFFFFFFFFFFFFFFFFFFFFFFFFFFFFFFFF NOT AND EQ DUP1 PUSH2 0x1FA JUMPI POP PUSH2 0x1F9 DUP3 PUSH2 0x648 JUMP JUMPDEST JUMPDEST SWAP1 POP SWAP2 SWAP1 POP JUMP JUMPDEST PUSH1 0x0 DUP1 PUSH1 0x0 DUP1 SLOAD SWAP1 PUSH2 0x100 EXP SWAP1 DIV PUSH20 0xFFFFFFFFFFFFFFFFFFFFFFFFFFFFFFFFFFFFFFFF AND PUSH20 0xFFFFFFFFFFFFFFFFFFFFFFFFFFFFFFFFFFFFFFFF AND PUSH3 0xFDD58E ADDRESS PUSH1 0x2 SLOAD PUSH1 0x40 MLOAD DUP4 PUSH4 0xFFFFFFFF AND PUSH1 0xE0 SHL DUP2 MSTORE PUSH1 0x4 ADD PUSH2 0x260 SWAP3 SWAP2 SWAP1 PUSH2 0xC3E JUMP JUMPDEST PUSH1 0x20 PUSH1 0x40 MLOAD DUP1 DUP4 SUB DUP2 DUP7 GAS STATICCALL ISZERO DUP1 ISZERO PUSH2 0x27D JUMPI RETURNDATASIZE PUSH1 0x0 DUP1 RETURNDATACOPY RETURNDATASIZE PUSH1 0x0 REVERT JUMPDEST POP POP POP POP PUSH1 0x40 MLOAD RETURNDATASIZE PUSH1 0x1F NOT PUSH1 0x1F DUP3 ADD AND DUP3 ADD DUP1 PUSH1 0x40 MSTORE POP DUP2 ADD SWAP1 PUSH2 0x2A1 SWAP2 SWAP1 PUSH2 0xC7C JUMP JUMPDEST LT PUSH2 0x33B JUMPI PUSH1 0x0 DUP1 SLOAD SWAP1 PUSH2 0x100 EXP SWAP1 DIV PUSH20 0xFFFFFFFFFFFFFFFFFFFFFFFFFFFFFFFFFFFFFFFF AND PUSH20 0xFFFFFFFFFFFFFFFFFFFFFFFFFFFFFFFFFFFFFFFF AND PUSH4 0xF242432A ADDRESS DUP5 PUSH1 0x2 SLOAD PUSH1 0x1 PUSH1 0x40 MLOAD DUP6 PUSH4 0xFFFFFFFF AND PUSH1 0xE0 SHL DUP2 MSTORE PUSH1 0x4 ADD PUSH2 0x308 SWAP5 SWAP4 SWAP3 SWAP2 SWAP1 PUSH2 0xD25 JUMP JUMPDEST PUSH1 0x0 PUSH1 0x40 MLOAD DUP1 DUP4 SUB DUP2 PUSH1 0x0 DUP8 DUP1 EXTCODESIZE ISZERO DUP1 ISZERO PUSH2 0x322 JUMPI PUSH1 0x0 DUP1 REVERT JUMPDEST POP GAS CALL ISZERO DUP1 ISZERO PUSH2 0x336 JUMPI RETURNDATASIZE PUSH1 0x0 DUP1 RETURNDATACOPY RETURNDATASIZE PUSH1 0x0 REVERT JUMPDEST POP POP POP POP JUMPDEST PUSH32 0xE2D73AE83743672762E50BA9D1F270913A16BC698D3887FAC465B25009BF6467 PUSH1 0x2 SLOAD DUP4 PUSH1 0x40 MLOAD PUSH2 0x36E SWAP3 SWAP2 SWAP1 PUSH2 0xD7D JUMP JUMPDEST PUSH1 0x40 MLOAD DUP1 SWAP2 SUB SWAP1 LOG1 PUSH1 0x1 SWAP1 POP SWAP2 SWAP1 POP JUMP JUMPDEST PUSH1 0x0 PUSH4 0xBC197C81 PUSH1 0xE0 SHL SWAP1 POP SWAP6 SWAP5 POP POP POP POP POP JUMP JUMPDEST PUSH1 0x0 DUP1 PUSH1 0x0 SWAP1 SLOAD SWAP1 PUSH2 0x100 EXP SWAP1 DIV PUSH20 0xFFFFFFFFFFFFFFFFFFFFFFFFFFFFFFFFFFFFFFFF AND PUSH20 0xFFFFFFFFFFFFFFFFFFFFFFFFFFFFFFFFFFFFFFFF AND PUSH4 0xF242432A ADDRESS DUP5 PUSH1 0x2 SLOAD PUSH1 0x1 PUSH1 0x40 MLOAD DUP6 PUSH4 0xFFFFFFFF AND PUSH1 0xE0 SHL DUP2 MSTORE PUSH1 0x4 ADD PUSH2 0x3F9 SWAP5 SWAP4 SWAP3 SWAP2 SWAP1 PUSH2 0xD25 JUMP JUMPDEST PUSH1 0x0 PUSH1 0x40 MLOAD DUP1 DUP4 SUB DUP2 PUSH1 0x0 DUP8 DUP1 EXTCODESIZE ISZERO DUP1 ISZERO PUSH2 0x413 JUMPI PUSH1 0x0 DUP1 REVERT JUMPDEST POP GAS CALL ISZERO DUP1 ISZERO PUSH2 0x427 JUMPI RETURNDATASIZE PUSH1 0x0 DUP1 RETURNDATACOPY RETURNDATASIZE PUSH1 0x0 REVERT JUMPDEST POP POP POP POP PUSH32 0xE2D73AE83743672762E50BA9D1F270913A16BC698D3887FAC465B25009BF6467 PUSH1 0x2 SLOAD DUP4 PUSH1 0x40 MLOAD PUSH2 0x45E SWAP3 SWAP2 SWAP1 PUSH2 0xD7D JUMP JUMPDEST PUSH1 0x40 MLOAD DUP1 SWAP2 SUB SWAP1 LOG1 PUSH1 0x1 SWAP1 POP SWAP2 SWAP1 POP JUMP JUMPDEST PUSH1 0x0 DUP2 PUSH1 0x1 PUSH1 0x0 SWAP1 SLOAD SWAP1 PUSH2 0x100 EXP SWAP1 DIV PUSH20 0xFFFFFFFFFFFFFFFFFFFFFFFFFFFFFFFFFFFFFFFF AND PUSH20 0xFFFFFFFFFFFFFFFFFFFFFFFFFFFFFFFFFFFFFFFF AND PUSH4 0x70A08231 ADDRESS PUSH1 0x40 MLOAD DUP3 PUSH4 0xFFFFFFFF AND PUSH1 0xE0 SHL DUP2 MSTORE PUSH1 0x4 ADD PUSH2 0x4CD SWAP2 SWAP1 PUSH2 0xDA6 JUMP JUMPDEST PUSH1 0x20 PUSH1 0x40 MLOAD DUP1 DUP4 SUB DUP2 DUP7 GAS STATICCALL ISZERO DUP1 ISZERO PUSH2 0x4EA JUMPI RETURNDATASIZE PUSH1 0x0 DUP1 RETURNDATACOPY RETURNDATASIZE PUSH1 0x0 REVERT JUMPDEST POP POP POP POP PUSH1 0x40 MLOAD RETURNDATASIZE PUSH1 0x1F NOT PUSH1 0x1F DUP3 ADD AND DUP3 ADD DUP1 PUSH1 0x40 MSTORE POP DUP2 ADD SWAP1 PUSH2 0x50E SWAP2 SWAP1 PUSH2 0xC7C JUMP JUMPDEST LT ISZERO PUSH2 0x54F JUMPI PUSH1 0x40 MLOAD PUSH32 0x8C379A000000000000000000000000000000000000000000000000000000000 DUP2 MSTORE PUSH1 0x4 ADD PUSH2 0x546 SWAP1 PUSH2 0xE1E JUMP JUMPDEST PUSH1 0x40 MLOAD DUP1 SWAP2 SUB SWAP1 REVERT JUMPDEST PUSH1 0x1 PUSH1 0x0 SWAP1 SLOAD SWAP1 PUSH2 0x100 EXP SWAP1 DIV PUSH20 0xFFFFFFFFFFFFFFFFFFFFFFFFFFFFFFFFFFFFFFFF AND PUSH20 0xFFFFFFFFFFFFFFFFFFFFFFFFFFFFFFFFFFFFFFFF AND PUSH4 0xA9059CBB DUP5 DUP5 PUSH1 0x40 MLOAD DUP4 PUSH4 0xFFFFFFFF AND PUSH1 0xE0 SHL DUP2 MSTORE PUSH1 0x4 ADD PUSH2 0x5AC SWAP3 SWAP2 SWAP1 PUSH2 0xC3E JUMP JUMPDEST PUSH1 0x20 PUSH1 0x40 MLOAD DUP1 DUP4 SUB DUP2 PUSH1 0x0 DUP8 GAS CALL ISZERO DUP1 ISZERO PUSH2 0x5CB JUMPI RETURNDATASIZE PUSH1 0x0 DUP1 RETURNDATACOPY RETURNDATASIZE PUSH1 0x0 REVERT JUMPDEST POP POP POP POP PUSH1 0x40 MLOAD RETURNDATASIZE PUSH1 0x1F NOT PUSH1 0x1F DUP3 ADD AND DUP3 ADD DUP1 PUSH1 0x40 MSTORE POP DUP2 ADD SWAP1 PUSH2 0x5EF SWAP2 SWAP1 PUSH2 0xE6A JUMP JUMPDEST POP PUSH32 0x5C1BA46FD05D3BB0363A63330A5F560F2014F27D055A39108694F295973AE203 DUP3 DUP5 PUSH1 0x40 MLOAD PUSH2 0x621 SWAP3 SWAP2 SWAP1 PUSH2 0xD7D JUMP JUMPDEST PUSH1 0x40 MLOAD DUP1 SWAP2 SUB SWAP1 LOG1 PUSH1 0x1 SWAP1 POP SWAP3 SWAP2 POP POP JUMP JUMPDEST PUSH1 0x0 PUSH4 0xF23A6E61 PUSH1 0xE0 SHL SWAP1 POP SWAP6 SWAP5 POP POP POP POP POP JUMP JUMPDEST PUSH1 0x0 PUSH32 0x1FFC9A700000000000000000000000000000000000000000000000000000000 PUSH28 0xFFFFFFFFFFFFFFFFFFFFFFFFFFFFFFFFFFFFFFFFFFFFFFFFFFFFFFFF NOT AND DUP3 PUSH28 0xFFFFFFFFFFFFFFFFFFFFFFFFFFFFFFFFFFFFFFFFFFFFFFFFFFFFFFFF NOT AND EQ SWAP1 POP SWAP2 SWAP1 POP JUMP JUMPDEST PUSH1 0x0 PUSH1 0x40 MLOAD SWAP1 POP SWAP1 JUMP JUMPDEST PUSH1 0x0 DUP1 REVERT JUMPDEST PUSH1 0x0 DUP1 REVERT JUMPDEST PUSH1 0x0 PUSH32 0xFFFFFFFF00000000000000000000000000000000000000000000000000000000 DUP3 AND SWAP1 POP SWAP2 SWAP1 POP JUMP JUMPDEST PUSH2 0x6FB DUP2 PUSH2 0x6C6 JUMP JUMPDEST DUP2 EQ PUSH2 0x706 JUMPI PUSH1 0x0 DUP1 REVERT JUMPDEST POP JUMP JUMPDEST PUSH1 0x0 DUP2 CALLDATALOAD SWAP1 POP PUSH2 0x718 DUP2 PUSH2 0x6F2 JUMP JUMPDEST SWAP3 SWAP2 POP POP JUMP JUMPDEST PUSH1 0x0 PUSH1 0x20 DUP3 DUP5 SUB SLT ISZERO PUSH2 0x734 JUMPI PUSH2 0x733 PUSH2 0x6BC JUMP JUMPDEST JUMPDEST PUSH1 0x0 PUSH2 0x742 DUP5 DUP3 DUP6 ADD PUSH2 0x709 JUMP JUMPDEST SWAP2 POP POP SWAP3 SWAP2 POP POP JUMP JUMPDEST PUSH1 0x0 DUP2 ISZERO ISZERO SWAP1 POP SWAP2 SWAP1 POP JUMP JUMPDEST PUSH2 0x760 DUP2 PUSH2 0x74B JUMP JUMPDEST DUP3 MSTORE POP POP JUMP JUMPDEST PUSH1 0x0 PUSH1 0x20 DUP3 ADD SWAP1 POP PUSH2 0x77B PUSH1 0x0 DUP4 ADD DUP5 PUSH2 0x757 JUMP JUMPDEST SWAP3 SWAP2 POP POP JUMP JUMPDEST PUSH1 0x0 PUSH20 0xFFFFFFFFFFFFFFFFFFFFFFFFFFFFFFFFFFFFFFFF DUP3 AND SWAP1 POP SWAP2 SWAP1 POP JUMP JUMPDEST PUSH1 0x0 PUSH2 0x7AC DUP3 PUSH2 0x781 JUMP JUMPDEST SWAP1 POP SWAP2 SWAP1 POP JUMP JUMPDEST PUSH2 0x7BC DUP2 PUSH2 0x7A1 JUMP JUMPDEST DUP2 EQ PUSH2 0x7C7 JUMPI PUSH1 0x0 DUP1 REVERT JUMPDEST POP JUMP JUMPDEST PUSH1 0x0 DUP2 CALLDATALOAD SWAP1 POP PUSH2 0x7D9 DUP2 PUSH2 0x7B3 JUMP JUMPDEST SWAP3 SWAP2 POP POP JUMP JUMPDEST PUSH1 0x0 PUSH1 0x20 DUP3 DUP5 SUB SLT ISZERO PUSH2 0x7F5 JUMPI PUSH2 0x7F4 PUSH2 0x6BC JUMP JUMPDEST JUMPDEST PUSH1 0x0 PUSH2 0x803 DUP5 DUP3 DUP6 ADD PUSH2 0x7CA JUMP JUMPDEST SWAP2 POP POP SWAP3 SWAP2 POP POP JUMP JUMPDEST PUSH1 0x0 DUP1 REVERT JUMPDEST PUSH1 0x0 PUSH1 0x1F NOT PUSH1 0x1F DUP4 ADD AND SWAP1 POP SWAP2 SWAP1 POP JUMP JUMPDEST PUSH32 0x4E487B7100000000000000000000000000000000000000000000000000000000 PUSH1 0x0 MSTORE PUSH1 0x41 PUSH1 0x4 MSTORE PUSH1 0x24 PUSH1 0x0 REVERT JUMPDEST PUSH2 0x85A DUP3 PUSH2 0x811 JUMP JUMPDEST DUP2 ADD DUP2 DUP2 LT PUSH8 0xFFFFFFFFFFFFFFFF DUP3 GT OR ISZERO PUSH2 0x879 JUMPI PUSH2 0x878 PUSH2 0x822 JUMP JUMPDEST JUMPDEST DUP1 PUSH1 0x40 MSTORE POP POP POP JUMP JUMPDEST PUSH1 0x0 PUSH2 0x88C PUSH2 0x6B2 JUMP JUMPDEST SWAP1 POP PUSH2 0x898 DUP3 DUP3 PUSH2 0x851 JUMP JUMPDEST SWAP2 SWAP1 POP JUMP JUMPDEST PUSH1 0x0 PUSH8 0xFFFFFFFFFFFFFFFF DUP3 GT ISZERO PUSH2 0x8B8 JUMPI PUSH2 0x8B7 PUSH2 0x822 JUMP JUMPDEST JUMPDEST PUSH1 0x20 DUP3 MUL SWAP1 POP PUSH1 0x20 DUP2 ADD SWAP1 POP SWAP2 SWAP1 POP JUMP JUMPDEST PUSH1 0x0 DUP1 REVERT JUMPDEST PUSH1 0x0 DUP2 SWAP1 POP SWAP2 SWAP1 POP JUMP JUMPDEST PUSH2 0x8E1 DUP2 PUSH2 0x8CE JUMP JUMPDEST DUP2 EQ PUSH2 0x8EC JUMPI PUSH1 0x0 DUP1 REVERT JUMPDEST POP JUMP JUMPDEST PUSH1 0x0 DUP2 CALLDATALOAD SWAP1 POP PUSH2 0x8FE DUP2 PUSH2 0x8D8 JUMP JUMPDEST SWAP3 SWAP2 POP POP JUMP JUMPDEST PUSH1 0x0 PUSH2 0x917 PUSH2 0x912 DUP5 PUSH2 0x89D JUMP JUMPDEST PUSH2 0x882 JUMP JUMPDEST SWAP1 POP DUP1 DUP4 DUP3 MSTORE PUSH1 0x20 DUP3 ADD SWAP1 POP PUSH1 0x20 DUP5 MUL DUP4 ADD DUP6 DUP2 GT ISZERO PUSH2 0x93A JUMPI PUSH2 0x939 PUSH2 0x8C9 JUMP JUMPDEST JUMPDEST DUP4 JUMPDEST DUP2 DUP2 LT ISZERO PUSH2 0x963 JUMPI DUP1 PUSH2 0x94F DUP9 DUP3 PUSH2 0x8EF JUMP JUMPDEST DUP5 MSTORE PUSH1 0x20 DUP5 ADD SWAP4 POP POP PUSH1 0x20 DUP2 ADD SWAP1 POP PUSH2 0x93C JUMP JUMPDEST POP POP POP SWAP4 SWAP3 POP POP POP JUMP JUMPDEST PUSH1 0x0 DUP3 PUSH1 0x1F DUP4 ADD SLT PUSH2 0x982 JUMPI PUSH2 0x981 PUSH2 0x80C JUMP JUMPDEST JUMPDEST DUP2 CALLDATALOAD PUSH2 0x992 DUP5 DUP3 PUSH1 0x20 DUP7 ADD PUSH2 0x904 JUMP JUMPDEST SWAP2 POP POP SWAP3 SWAP2 POP POP JUMP JUMPDEST PUSH1 0x0 DUP1 REVERT JUMPDEST PUSH1 0x0 PUSH8 0xFFFFFFFFFFFFFFFF DUP3 GT ISZERO PUSH2 0x9BB JUMPI PUSH2 0x9BA PUSH2 0x822 JUMP JUMPDEST JUMPDEST PUSH2 0x9C4 DUP3 PUSH2 0x811 JUMP JUMPDEST SWAP1 POP PUSH1 0x20 DUP2 ADD SWAP1 POP SWAP2 SWAP1 POP JUMP JUMPDEST DUP3 DUP2 DUP4 CALLDATACOPY PUSH1 0x0 DUP4 DUP4 ADD MSTORE POP POP POP JUMP JUMPDEST PUSH1 0x0 PUSH2 0x9F3 PUSH2 0x9EE DUP5 PUSH2 0x9A0 JUMP JUMPDEST PUSH2 0x882 JUMP JUMPDEST SWAP1 POP DUP3 DUP2 MSTORE PUSH1 0x20 DUP2 ADD DUP5 DUP5 DUP5 ADD GT ISZERO PUSH2 0xA0F JUMPI PUSH2 0xA0E PUSH2 0x99B JUMP JUMPDEST JUMPDEST PUSH2 0xA1A DUP5 DUP3 DUP6 PUSH2 0x9D1 JUMP JUMPDEST POP SWAP4 SWAP3 POP POP POP JUMP JUMPDEST PUSH1 0x0 DUP3 PUSH1 0x1F DUP4 ADD SLT PUSH2 0xA37 JUMPI PUSH2 0xA36 PUSH2 0x80C JUMP JUMPDEST JUMPDEST DUP2 CALLDATALOAD PUSH2 0xA47 DUP5 DUP3 PUSH1 0x20 DUP7 ADD PUSH2 0x9E0 JUMP JUMPDEST SWAP2 POP POP SWAP3 SWAP2 POP POP JUMP JUMPDEST PUSH1 0x0 DUP1 PUSH1 0x0 DUP1 PUSH1 0x0 PUSH1 0xA0 DUP7 DUP9 SUB SLT ISZERO PUSH2 0xA6C JUMPI PUSH2 0xA6B PUSH2 0x6BC JUMP JUMPDEST JUMPDEST PUSH1 0x0 PUSH2 0xA7A DUP9 DUP3 DUP10 ADD PUSH2 0x7CA JUMP JUMPDEST SWAP6 POP POP PUSH1 0x20 PUSH2 0xA8B DUP9 DUP3 DUP10 ADD PUSH2 0x7CA JUMP JUMPDEST SWAP5 POP POP PUSH1 0x40 DUP7 ADD CALLDATALOAD PUSH8 0xFFFFFFFFFFFFFFFF DUP2 GT ISZERO PUSH2 0xAAC JUMPI PUSH2 0xAAB PUSH2 0x6C1 JUMP JUMPDEST JUMPDEST PUSH2 0xAB8 DUP9 DUP3 DUP10 ADD PUSH2 0x96D JUMP JUMPDEST SWAP4 POP POP PUSH1 0x60 DUP7 ADD CALLDATALOAD PUSH8 0xFFFFFFFFFFFFFFFF DUP2 GT ISZERO PUSH2 0xAD9 JUMPI PUSH2 0xAD8 PUSH2 0x6C1 JUMP JUMPDEST JUMPDEST PUSH2 0xAE5 DUP9 DUP3 DUP10 ADD PUSH2 0x96D JUMP JUMPDEST SWAP3 POP POP PUSH1 0x80 DUP7 ADD CALLDATALOAD PUSH8 0xFFFFFFFFFFFFFFFF DUP2 GT ISZERO PUSH2 0xB06 JUMPI PUSH2 0xB05 PUSH2 0x6C1 JUMP JUMPDEST JUMPDEST PUSH2 0xB12 DUP9 DUP3 DUP10 ADD PUSH2 0xA22 JUMP JUMPDEST SWAP2 POP POP SWAP3 SWAP6 POP SWAP3 SWAP6 SWAP1 SWAP4 POP JUMP JUMPDEST PUSH2 0xB28 DUP2 PUSH2 0x6C6 JUMP JUMPDEST DUP3 MSTORE POP POP JUMP JUMPDEST PUSH1 0x0 PUSH1 0x20 DUP3 ADD SWAP1 POP PUSH2 0xB43 PUSH1 0x0 DUP4 ADD DUP5 PUSH2 0xB1F JUMP JUMPDEST SWAP3 SWAP2 POP POP JUMP JUMPDEST PUSH1 0x0 DUP1 PUSH1 0x40 DUP4 DUP6 SUB SLT ISZERO PUSH2 0xB60 JUMPI PUSH2 0xB5F PUSH2 0x6BC JUMP JUMPDEST JUMPDEST PUSH1 0x0 PUSH2 0xB6E DUP6 DUP3 DUP7 ADD PUSH2 0x7CA JUMP JUMPDEST SWAP3 POP POP PUSH1 0x20 PUSH2 0xB7F DUP6 DUP3 DUP7 ADD PUSH2 0x8EF JUMP JUMPDEST SWAP2 POP POP SWAP3 POP SWAP3 SWAP1 POP JUMP JUMPDEST PUSH1 0x0 DUP1 PUSH1 0x0 DUP1 PUSH1 0x0 PUSH1 0xA0 DUP7 DUP9 SUB SLT ISZERO PUSH2 0xBA5 JUMPI PUSH2 0xBA4 PUSH2 0x6BC JUMP JUMPDEST JUMPDEST PUSH1 0x0 PUSH2 0xBB3 DUP9 DUP3 DUP10 ADD PUSH2 0x7CA JUMP JUMPDEST SWAP6 POP POP PUSH1 0x20 PUSH2 0xBC4 DUP9 DUP3 DUP10 ADD PUSH2 0x7CA JUMP JUMPDEST SWAP5 POP POP PUSH1 0x40 PUSH2 0xBD5 DUP9 DUP3 DUP10 ADD PUSH2 0x8EF JUMP JUMPDEST SWAP4 POP POP PUSH1 0x60 PUSH2 0xBE6 DUP9 DUP3 DUP10 ADD PUSH2 0x8EF JUMP JUMPDEST SWAP3 POP POP PUSH1 0x80 DUP7 ADD CALLDATALOAD PUSH8 0xFFFFFFFFFFFFFFFF DUP2 GT ISZERO PUSH2 0xC07 JUMPI PUSH2 0xC06 PUSH2 0x6C1 JUMP JUMPDEST JUMPDEST PUSH2 0xC13 DUP9 DUP3 DUP10 ADD PUSH2 0xA22 JUMP JUMPDEST SWAP2 POP POP SWAP3 SWAP6 POP SWAP3 SWAP6 SWAP1 SWAP4 POP JUMP JUMPDEST PUSH2 0xC29 DUP2 PUSH2 0x7A1 JUMP JUMPDEST DUP3 MSTORE POP POP JUMP JUMPDEST PUSH2 0xC38 DUP2 PUSH2 0x8CE JUMP JUMPDEST DUP3 MSTORE POP POP JUMP JUMPDEST PUSH1 0x0 PUSH1 0x40 DUP3 ADD SWAP1 POP PUSH2 0xC53 PUSH1 0x0 DUP4 ADD DUP6 PUSH2 0xC20 JUMP JUMPDEST PUSH2 0xC60 PUSH1 0x20 DUP4 ADD DUP5 PUSH2 0xC2F JUMP JUMPDEST SWAP4 SWAP3 POP POP POP JUMP JUMPDEST PUSH1 0x0 DUP2 MLOAD SWAP1 POP PUSH2 0xC76 DUP2 PUSH2 0x8D8 JUMP JUMPDEST SWAP3 SWAP2 POP POP JUMP JUMPDEST PUSH1 0x0 PUSH1 0x20 DUP3 DUP5 SUB SLT ISZERO PUSH2 0xC92 JUMPI PUSH2 0xC91 PUSH2 0x6BC JUMP JUMPDEST JUMPDEST PUSH1 0x0 PUSH2 0xCA0 DUP5 DUP3 DUP6 ADD PUSH2 0xC67 JUMP JUMPDEST SWAP2 POP POP SWAP3 SWAP2 POP POP JUMP JUMPDEST PUSH1 0x0 DUP2 SWAP1 POP SWAP2 SWAP1 POP JUMP JUMPDEST PUSH1 0x0 DUP2 SWAP1 POP SWAP2 SWAP1 POP JUMP JUMPDEST PUSH1 0x0 PUSH2 0xCD8 PUSH2 0xCD3 PUSH2 0xCCE DUP5 PUSH2 0xCA9 JUMP JUMPDEST PUSH2 0xCB3 JUMP JUMPDEST PUSH2 0x8CE JUMP JUMPDEST SWAP1 POP SWAP2 SWAP1 POP JUMP JUMPDEST PUSH2 0xCE8 DUP2 PUSH2 0xCBD JUMP JUMPDEST DUP3 MSTORE POP POP JUMP JUMPDEST PUSH1 0x0 DUP3 DUP3 MSTORE PUSH1 0x20 DUP3 ADD SWAP1 POP SWAP3 SWAP2 POP POP JUMP JUMPDEST POP JUMP JUMPDEST PUSH1 0x0 PUSH2 0xD0F PUSH1 0x0 DUP4 PUSH2 0xCEE JUMP JUMPDEST SWAP2 POP PUSH2 0xD1A DUP3 PUSH2 0xCFF JUMP JUMPDEST PUSH1 0x0 DUP3 ADD SWAP1 POP SWAP2 SWAP1 POP JUMP JUMPDEST PUSH1 0x0 PUSH1 0xA0 DUP3 ADD SWAP1 POP PUSH2 0xD3A PUSH1 0x0 DUP4 ADD DUP8 PUSH2 0xC20 JUMP JUMPDEST PUSH2 0xD47 PUSH1 0x20 DUP4 ADD DUP7 PUSH2 0xC20 JUMP JUMPDEST PUSH2 0xD54 PUSH1 0x40 DUP4 ADD DUP6 PUSH2 0xC2F JUMP JUMPDEST PUSH2 0xD61 PUSH1 0x60 DUP4 ADD DUP5 PUSH2 0xCDF JUMP JUMPDEST DUP2 DUP2 SUB PUSH1 0x80 DUP4 ADD MSTORE PUSH2 0xD72 DUP2 PUSH2 0xD02 JUMP JUMPDEST SWAP1 POP SWAP6 SWAP5 POP POP POP POP POP JUMP JUMPDEST PUSH1 0x0 PUSH1 0x40 DUP3 ADD SWAP1 POP PUSH2 0xD92 PUSH1 0x0 DUP4 ADD DUP6 PUSH2 0xC2F JUMP JUMPDEST PUSH2 0xD9F PUSH1 0x20 DUP4 ADD DUP5 PUSH2 0xC20 JUMP JUMPDEST SWAP4 SWAP3 POP POP POP JUMP JUMPDEST PUSH1 0x0 PUSH1 0x20 DUP3 ADD SWAP1 POP PUSH2 0xDBB PUSH1 0x0 DUP4 ADD DUP5 PUSH2 0xC20 JUMP JUMPDEST SWAP3 SWAP2 POP POP JUMP JUMPDEST PUSH1 0x0 DUP3 DUP3 MSTORE PUSH1 0x20 DUP3 ADD SWAP1 POP SWAP3 SWAP2 POP POP JUMP JUMPDEST PUSH32 0x496E73756666696369656E7420534E4320746F6B656E73000000000000000000 PUSH1 0x0 DUP3 ADD MSTORE POP JUMP JUMPDEST PUSH1 0x0 PUSH2 0xE08 PUSH1 0x17 DUP4 PUSH2 0xDC1 JUMP JUMPDEST SWAP2 POP PUSH2 0xE13 DUP3 PUSH2 0xDD2 JUMP JUMPDEST PUSH1 0x20 DUP3 ADD SWAP1 POP SWAP2 SWAP1 POP JUMP JUMPDEST PUSH1 0x0 PUSH1 0x20 DUP3 ADD SWAP1 POP DUP2 DUP2 SUB PUSH1 0x0 DUP4 ADD MSTORE PUSH2 0xE37 DUP2 PUSH2 0xDFB JUMP JUMPDEST SWAP1 POP SWAP2 SWAP1 POP JUMP JUMPDEST PUSH2 0xE47 DUP2 PUSH2 0x74B JUMP JUMPDEST DUP2 EQ PUSH2 0xE52 JUMPI PUSH1 0x0 DUP1 REVERT JUMPDEST POP JUMP JUMPDEST PUSH1 0x0 DUP2 MLOAD SWAP1 POP PUSH2 0xE64 DUP2 PUSH2 0xE3E JUMP JUMPDEST SWAP3 SWAP2 POP POP JUMP JUMPDEST PUSH1 0x0 PUSH1 0x20 DUP3 DUP5 SUB SLT ISZERO PUSH2 0xE80 JUMPI PUSH2 0xE7F PUSH2 0x6BC JUMP JUMPDEST JUMPDEST PUSH1 0x0 PUSH2 0xE8E DUP5 DUP3 DUP6 ADD PUSH2 0xE55 JUMP JUMPDEST SWAP2 POP POP SWAP3 SWAP2 POP POP JUMP INVALID LOG2 PUSH5 0x6970667358 0x22 SLT KECCAK256 NUMBER SWAP10 0xC3 DUP13 0xEC DUP16 0xC4 0xE GASLIMIT SWAP10 GAS 0xB7 SWAP1 ORIGIN POP SWAP1 SWAP8 LT LT PUSH28 0xFEF3B5243A41EF9947A9FC5F64736F6C63430008120033A264697066 PUSH20 0x5822122066BB3674DE8B99D8014B699D3123818B 0xCF 0xC7 0xC4 0xFB 0xE1 EXP REVERT PREVRANDAO 0xCE DUP14 0xD3 0xD4 0x5F CALLVALUE PUSH29 0x1864736F6C634300081200330000000000000000000000000000000000 "},"methodIdentifiers":{"BUYER_FEE_PERCENT()":"9e580dbe","CHANGE_FEE()":"7ec775ed","NFT_ADDRESS()":"b32c5c45","NFT_OFFERS(uint256,uint256)":"3d1f8373","NFT_OFFER_COMPLETED(uint256)":"217df120","SELLER_FEE_PERCENT()":"cf0a8085","SNC_ADDRESS()":"652c8843","acceptOffer(uint256,uint256,address,bool)":"7142bb8d","cancelOfferBuyer(address,uint256)":"bfa5d42d","cancelOfferSeller(uint256,uint256,address)":"0cc4b47d","changeOwner(address)":"a6f9dae1","checkIfOfferMade(address,uint256)":"15eaa5f8","getOwner()":"893d20e8","makeOffer(uint256,uint256,uint256,address,address,uint256)":"4f663a4e","setBuyerFee(uint256)":"fa7da19d","setSellerFee(uint256)":"1bfee121","viewAllOffer(uint256)":"60a8899e"}}}}}