{
  "_format": "hh-sol-artifact-1",
  "contractName": "Escrow",
  "sourceName": "contracts/escrow_20.sol",
  "abi": [
    {
      "inputs": [
        {
          "internalType": "address",
          "name": "sncAddress",
          "type": "address"
        }
      ],
      "stateMutability": "nonpayable",
      "type": "constructor"
    },
    {
      "inputs": [
        {
          "internalType": "address",
          "name": "userAddress",
          "type": "address"
        },
        {
          "internalType": "uint256",
          "name": "amount",
          "type": "uint256"
        }
      ],
      "name": "transferFromEscrowtoUser",
      "outputs": [
        {
          "internalType": "bool",
          "name": "",
          "type": "bool"
        }
      ],
      "stateMutability": "nonpayable",
      "type": "function"
    },
    {
      "inputs": [
        {
          "internalType": "uint256",
          "name": "amount",
          "type": "uint256"
        }
      ],
      "name": "transferFromUserToEscrow",
      "outputs": [
        {
          "internalType": "bool",
          "name": "",
          "type": "bool"
        }
      ],
      "stateMutability": "view",
      "type": "function"
    }
  ],
  "bytecode": "0x60806040523480156200001157600080fd5b5060405162000b2a38038062000b2a833981810160405281019062000037919062000280565b806000806101000a81548173ffffffffffffffffffffffffffffffffffffffff021916908373ffffffffffffffffffffffffffffffffffffffff16021790555060008060009054906101000a900473ffffffffffffffffffffffffffffffffffffffff1673ffffffffffffffffffffffffffffffffffffffff166370a08231306040518263ffffffff1660e01b8152600401620000d59190620002c3565b602060405180830381865afa158015620000f3573d6000803e3d6000fd5b505050506040513d601f19601f820116820180604052508101906200011991906200031b565b146200015c576040517f08c379a00000000000000000000000000000000000000000000000000000000081526004016200015390620003ae565b60405180910390fd5b60008054906101000a900473ffffffffffffffffffffffffffffffffffffffff1673ffffffffffffffffffffffffffffffffffffffff1663095ea7b3336ec097ce7bc90715b34b9f0fffffffff6040518363ffffffff1660e01b8152600401620001c89291906200041d565b6020604051808303816000875af1158015620001e8573d6000803e3d6000fd5b505050506040513d601f19601f820116820180604052508101906200020e919062000487565b5050620004b9565b600080fd5b600073ffffffffffffffffffffffffffffffffffffffff82169050919050565b600062000248826200021b565b9050919050565b6200025a816200023b565b81146200026657600080fd5b50565b6000815190506200027a816200024f565b92915050565b60006020828403121562000299576200029862000216565b5b6000620002a98482850162000269565b91505092915050565b620002bd816200023b565b82525050565b6000602082019050620002da6000830184620002b2565b92915050565b6000819050919050565b620002f581620002e0565b81146200030157600080fd5b50565b6000815190506200031581620002ea565b92915050565b60006020828403121562000334576200033362000216565b5b6000620003448482850162000304565b91505092915050565b600082825260208201905092915050565b7f496e76616c696420455243323020436f6e747261637420616464726573730000600082015250565b600062000396601e836200034d565b9150620003a3826200035e565b602082019050919050565b60006020820190508181036000830152620003c98162000387565b9050919050565b6000819050919050565b6000819050919050565b600062000405620003ff620003f984620003d0565b620003da565b620002e0565b9050919050565b6200041781620003e4565b82525050565b6000604082019050620004346000830185620002b2565b6200044360208301846200040c565b9392505050565b60008115159050919050565b62000461816200044a565b81146200046d57600080fd5b50565b600081519050620004818162000456565b92915050565b600060208284031215620004a0576200049f62000216565b5b6000620004b08482850162000470565b91505092915050565b61066180620004c96000396000f3fe608060405234801561001057600080fd5b50600436106100365760003560e01c8063bae352d31461003b578063d580408a1461006b575b600080fd5b61005560048036038101906100509190610344565b61009b565b604051610062919061038c565b60405180910390f35b61008560048036038101906100809190610405565b610182565b604051610092919061038c565b60405180910390f35b60008160008054906101000a900473ffffffffffffffffffffffffffffffffffffffff1673ffffffffffffffffffffffffffffffffffffffff166370a08231306040518263ffffffff1660e01b81526004016100f79190610454565b602060405180830381865afa158015610114573d6000803e3d6000fd5b505050506040513d601f19601f820116820180604052508101906101389190610484565b1015610179576040517f08c379a00000000000000000000000000000000000000000000000000000000081526004016101709061050e565b60405180910390fd5b60019050919050565b60008160008054906101000a900473ffffffffffffffffffffffffffffffffffffffff1673ffffffffffffffffffffffffffffffffffffffff166370a08231306040518263ffffffff1660e01b81526004016101de9190610454565b602060405180830381865afa1580156101fb573d6000803e3d6000fd5b505050506040513d601f19601f8201168201806040525081019061021f9190610484565b1015610260576040517f08c379a00000000000000000000000000000000000000000000000000000000081526004016102579061057a565b60405180910390fd5b60008054906101000a900473ffffffffffffffffffffffffffffffffffffffff1673ffffffffffffffffffffffffffffffffffffffff1663a9059cbb84846040518363ffffffff1660e01b81526004016102bb9291906105a9565b6020604051808303816000875af11580156102da573d6000803e3d6000fd5b505050506040513d601f19601f820116820180604052508101906102fe91906105fe565b506001905092915050565b600080fd5b6000819050919050565b6103218161030e565b811461032c57600080fd5b50565b60008135905061033e81610318565b92915050565b60006020828403121561035a57610359610309565b5b60006103688482850161032f565b91505092915050565b60008115159050919050565b61038681610371565b82525050565b60006020820190506103a1600083018461037d565b92915050565b600073ffffffffffffffffffffffffffffffffffffffff82169050919050565b60006103d2826103a7565b9050919050565b6103e2816103c7565b81146103ed57600080fd5b50565b6000813590506103ff816103d9565b92915050565b6000806040838503121561041c5761041b610309565b5b600061042a858286016103f0565b925050602061043b8582860161032f565b9150509250929050565b61044e816103c7565b82525050565b60006020820190506104696000830184610445565b92915050565b60008151905061047e81610318565b92915050565b60006020828403121561049a57610499610309565b5b60006104a88482850161046f565b91505092915050565b600082825260208201905092915050565b7f556e636f6e6669726d6564207472616e73666572000000000000000000000000600082015250565b60006104f86014836104b1565b9150610503826104c2565b602082019050919050565b60006020820190508181036000830152610527816104eb565b9050919050565b7f496e73756666696369656e7420534e4320746f6b656e73000000000000000000600082015250565b60006105646017836104b1565b915061056f8261052e565b602082019050919050565b6000602082019050818103600083015261059381610557565b9050919050565b6105a38161030e565b82525050565b60006040820190506105be6000830185610445565b6105cb602083018461059a565b9392505050565b6105db81610371565b81146105e657600080fd5b50565b6000815190506105f8816105d2565b92915050565b60006020828403121561061457610613610309565b5b6000610622848285016105e9565b9150509291505056fea2646970667358221220757af7d939126a6fbeda94481021631d2c708dae9180730ba9290096e8b2c38964736f6c63430008120033",
  "linkReferences": {},
  "deployedLinkReferences": {}
}