{
  "_format": "hh-sol-artifact-1",
  "contractName": "MarketSale",
  "sourceName": "contracts/market.sol",
  "abi": [
    {
      "inputs": [
        {
          "internalType": "address",
          "name": "sncAddress",
          "type": "address"
        },
        {
          "internalType": "address",
          "name": "nftAddress",
          "type": "address"
        },
        {
          "internalType": "address",
          "name": "_changeFee",
          "type": "address"
        },
        {
          "internalType": "uint256",
          "name": "buyerFee",
          "type": "uint256"
        },
        {
          "internalType": "uint256",
          "name": "sellerFee",
          "type": "uint256"
        }
      ],
      "stateMutability": "nonpayable",
      "type": "constructor"
    },
    {
      "anonymous": false,
      "inputs": [
        {
          "indexed": true,
          "internalType": "address",
          "name": "oldOwner",
          "type": "address"
        },
        {
          "indexed": true,
          "internalType": "address",
          "name": "newOwner",
          "type": "address"
        }
      ],
      "name": "OwnerSet",
      "type": "event"
    },
    {
      "anonymous": false,
      "inputs": [
        {
          "indexed": false,
          "internalType": "uint256",
          "name": "tokenId",
          "type": "uint256"
        },
        {
          "indexed": false,
          "internalType": "address",
          "name": "seller",
          "type": "address"
        }
      ],
      "name": "canceledSale",
      "type": "event"
    },
    {
      "anonymous": false,
      "inputs": [
        {
          "indexed": false,
          "internalType": "uint256",
          "name": "newFee",
          "type": "uint256"
        },
        {
          "indexed": false,
          "internalType": "string",
          "name": "_type",
          "type": "string"
        }
      ],
      "name": "changeFee",
      "type": "event"
    },
    {
      "anonymous": false,
      "inputs": [
        {
          "indexed": false,
          "internalType": "address",
          "name": "_address",
          "type": "address"
        }
      ],
      "name": "changeTreasury",
      "type": "event"
    },
    {
      "anonymous": false,
      "inputs": [
        {
          "indexed": false,
          "internalType": "uint256",
          "name": "tokenId",
          "type": "uint256"
        },
        {
          "indexed": false,
          "internalType": "uint256",
          "name": "duration",
          "type": "uint256"
        },
        {
          "indexed": false,
          "internalType": "address",
          "name": "seller",
          "type": "address"
        }
      ],
      "name": "expiredSale",
      "type": "event"
    },
    {
      "anonymous": false,
      "inputs": [
        {
          "indexed": false,
          "internalType": "address",
          "name": "seller",
          "type": "address"
        },
        {
          "indexed": false,
          "internalType": "uint256",
          "name": "price",
          "type": "uint256"
        },
        {
          "indexed": false,
          "internalType": "uint256",
          "name": "duration",
          "type": "uint256"
        },
        {
          "indexed": false,
          "internalType": "uint256",
          "name": "tokenId",
          "type": "uint256"
        }
      ],
      "name": "onSale",
      "type": "event"
    },
    {
      "anonymous": false,
      "inputs": [
        {
          "indexed": false,
          "internalType": "address",
          "name": "seller",
          "type": "address"
        },
        {
          "indexed": false,
          "internalType": "address",
          "name": "buyer",
          "type": "address"
        },
        {
          "indexed": false,
          "internalType": "uint256",
          "name": "price",
          "type": "uint256"
        },
        {
          "indexed": false,
          "internalType": "uint256",
          "name": "tokenId",
          "type": "uint256"
        }
      ],
      "name": "sold",
      "type": "event"
    },
    {
      "anonymous": false,
      "inputs": [
        {
          "indexed": false,
          "internalType": "uint256",
          "name": "tokenId",
          "type": "uint256"
        },
        {
          "indexed": false,
          "internalType": "address",
          "name": "seller",
          "type": "address"
        },
        {
          "indexed": false,
          "internalType": "string",
          "name": "_type",
          "type": "string"
        }
      ],
      "name": "updatedSale",
      "type": "event"
    },
    {
      "inputs": [],
      "name": "BUYER_FEE_PERCENT",
      "outputs": [
        {
          "internalType": "uint256",
          "name": "",
          "type": "uint256"
        }
      ],
      "stateMutability": "view",
      "type": "function"
    },
    {
      "inputs": [],
      "name": "CHANGE_FEE",
      "outputs": [
        {
          "internalType": "address",
          "name": "",
          "type": "address"
        }
      ],
      "stateMutability": "view",
      "type": "function"
    },
    {
      "inputs": [],
      "name": "NFT_ADDRESS",
      "outputs": [
        {
          "internalType": "address",
          "name": "",
          "type": "address"
        }
      ],
      "stateMutability": "view",
      "type": "function"
    },
    {
      "inputs": [
        {
          "internalType": "uint256",
          "name": "",
          "type": "uint256"
        }
      ],
      "name": "NFT_SALES",
      "outputs": [
        {
          "internalType": "uint256",
          "name": "price",
          "type": "uint256"
        },
        {
          "internalType": "uint256",
          "name": "tokenId",
          "type": "uint256"
        },
        {
          "internalType": "uint256",
          "name": "duration",
          "type": "uint256"
        },
        {
          "internalType": "address",
          "name": "buyer",
          "type": "address"
        },
        {
          "internalType": "address",
          "name": "seller",
          "type": "address"
        },
        {
          "internalType": "address",
          "name": "escrow",
          "type": "address"
        },
        {
          "internalType": "address",
          "name": "marketPlace",
          "type": "address"
        },
        {
          "internalType": "bool",
          "name": "sellerFee",
          "type": "bool"
        },
        {
          "internalType": "bool",
          "name": "complete",
          "type": "bool"
        }
      ],
      "stateMutability": "view",
      "type": "function"
    },
    {
      "inputs": [],
      "name": "SELLER_FEE_PERCENT",
      "outputs": [
        {
          "internalType": "uint256",
          "name": "",
          "type": "uint256"
        }
      ],
      "stateMutability": "view",
      "type": "function"
    },
    {
      "inputs": [],
      "name": "SNC_ADDRESS",
      "outputs": [
        {
          "internalType": "address",
          "name": "",
          "type": "address"
        }
      ],
      "stateMutability": "view",
      "type": "function"
    },
    {
      "inputs": [
        {
          "internalType": "address",
          "name": "buyerAddress",
          "type": "address"
        },
        {
          "internalType": "uint256",
          "name": "tokenId",
          "type": "uint256"
        },
        {
          "internalType": "uint256",
          "name": "sncAmount",
          "type": "uint256"
        },
        {
          "internalType": "uint256",
          "name": "buyerFee",
          "type": "uint256"
        }
      ],
      "name": "buyNft",
      "outputs": [
        {
          "internalType": "bool",
          "name": "",
          "type": "bool"
        }
      ],
      "stateMutability": "nonpayable",
      "type": "function"
    },
    {
      "inputs": [
        {
          "internalType": "uint256",
          "name": "tokenId",
          "type": "uint256"
        }
      ],
      "name": "cancelSale",
      "outputs": [
        {
          "internalType": "bool",
          "name": "",
          "type": "bool"
        }
      ],
      "stateMutability": "nonpayable",
      "type": "function"
    },
    {
      "inputs": [
        {
          "internalType": "address",
          "name": "_changeFee",
          "type": "address"
        }
      ],
      "name": "changeFeeAddress",
      "outputs": [
        {
          "internalType": "bool",
          "name": "",
          "type": "bool"
        }
      ],
      "stateMutability": "nonpayable",
      "type": "function"
    },
    {
      "inputs": [
        {
          "internalType": "address",
          "name": "newOwner",
          "type": "address"
        }
      ],
      "name": "changeOwner",
      "outputs": [],
      "stateMutability": "nonpayable",
      "type": "function"
    },
    {
      "inputs": [],
      "name": "getBuyerFee",
      "outputs": [
        {
          "internalType": "uint256",
          "name": "",
          "type": "uint256"
        }
      ],
      "stateMutability": "view",
      "type": "function"
    },
    {
      "inputs": [],
      "name": "getOwner",
      "outputs": [
        {
          "internalType": "address",
          "name": "",
          "type": "address"
        }
      ],
      "stateMutability": "view",
      "type": "function"
    },
    {
      "inputs": [
        {
          "internalType": "uint256",
          "name": "tokenId",
          "type": "uint256"
        }
      ],
      "name": "monitorNftSale",
      "outputs": [
        {
          "internalType": "bool",
          "name": "",
          "type": "bool"
        }
      ],
      "stateMutability": "nonpayable",
      "type": "function"
    },
    {
      "inputs": [
        {
          "internalType": "address",
          "name": "marketPlace",
          "type": "address"
        },
        {
          "internalType": "uint256",
          "name": "tokenId",
          "type": "uint256"
        },
        {
          "internalType": "uint256",
          "name": "price",
          "type": "uint256"
        },
        {
          "internalType": "uint256",
          "name": "duration",
          "type": "uint256"
        },
        {
          "internalType": "bool",
          "name": "sellerFee",
          "type": "bool"
        }
      ],
      "name": "putForSale",
      "outputs": [
        {
          "internalType": "bool",
          "name": "",
          "type": "bool"
        }
      ],
      "stateMutability": "nonpayable",
      "type": "function"
    },
    {
      "inputs": [
        {
          "internalType": "uint256",
          "name": "feePercent",
          "type": "uint256"
        }
      ],
      "name": "setBuyerFee",
      "outputs": [
        {
          "internalType": "bool",
          "name": "",
          "type": "bool"
        }
      ],
      "stateMutability": "nonpayable",
      "type": "function"
    },
    {
      "inputs": [
        {
          "internalType": "uint256",
          "name": "feePercent",
          "type": "uint256"
        }
      ],
      "name": "setSellerFee",
      "outputs": [
        {
          "internalType": "bool",
          "name": "",
          "type": "bool"
        }
      ],
      "stateMutability": "nonpayable",
      "type": "function"
    },
    {
      "inputs": [
        {
          "internalType": "uint256",
          "name": "duration",
          "type": "uint256"
        },
        {
          "internalType": "uint256",
          "name": "tokenId",
          "type": "uint256"
        }
      ],
      "name": "updateDuration",
      "outputs": [
        {
          "internalType": "uint256",
          "name": "",
          "type": "uint256"
        }
      ],
      "stateMutability": "nonpayable",
      "type": "function"
    },
    {
      "inputs": [
        {
          "internalType": "uint256",
          "name": "price",
          "type": "uint256"
        },
        {
          "internalType": "uint256",
          "name": "tokenId",
          "type": "uint256"
        }
      ],
      "name": "updateSalePrice",
      "outputs": [
        {
          "internalType": "bool",
          "name": "",
          "type": "bool"
        }
      ],
      "stateMutability": "nonpayable",
      "type": "function"
    }
  ],
  "bytecode": "0x60806040523480156200001157600080fd5b506040516200516538038062005165833981810160405281019062000037919062000503565b336000806101000a81548173ffffffffffffffffffffffffffffffffffffffff021916908373ffffffffffffffffffffffffffffffffffffffff16021790555060008054906101000a900473ffffffffffffffffffffffffffffffffffffffff1673ffffffffffffffffffffffffffffffffffffffff16600073ffffffffffffffffffffffffffffffffffffffff167f342827c97908e5e2f71151c08502a66d44b6f758e3ac2f1de95f02eb95f0a73560405160405180910390a384600660006101000a81548173ffffffffffffffffffffffffffffffffffffffff021916908373ffffffffffffffffffffffffffffffffffffffff16021790555083600760006101000a81548173ffffffffffffffffffffffffffffffffffffffff021916908373ffffffffffffffffffffffffffffffffffffffff16021790555082600360006101000a81548173ffffffffffffffffffffffffffffffffffffffff021916908373ffffffffffffffffffffffffffffffffffffffff16021790555084600160006101000a81548173ffffffffffffffffffffffffffffffffffffffff021916908373ffffffffffffffffffffffffffffffffffffffff16021790555083600260006101000a81548173ffffffffffffffffffffffffffffffffffffffff021916908373ffffffffffffffffffffffffffffffffffffffff1602179055508160058190555080600481905550336000806101000a81548173ffffffffffffffffffffffffffffffffffffffff021916908373ffffffffffffffffffffffffffffffffffffffff1602179055506000600660009054906101000a900473ffffffffffffffffffffffffffffffffffffffff1673ffffffffffffffffffffffffffffffffffffffff166370a08231306040518263ffffffff1660e01b8152600401620002e491906200059c565b602060405180830381865afa15801562000302573d6000803e3d6000fd5b505050506040513d601f19601f82011682018060405250810190620003289190620005b9565b146200036b576040517f08c379a0000000000000000000000000000000000000000000000000000000008152600401620003629062000672565b60405180910390fd5b6000600760009054906101000a900473ffffffffffffffffffffffffffffffffffffffff1673ffffffffffffffffffffffffffffffffffffffff1662fdd58e3060006040518363ffffffff1660e01b8152600401620003cc929190620006e1565b602060405180830381865afa158015620003ea573d6000803e3d6000fd5b505050506040513d601f19601f82011682018060405250810190620004109190620005b9565b1462000453576040517f08c379a00000000000000000000000000000000000000000000000000000000081526004016200044a906200075e565b60405180910390fd5b505050505062000780565b600080fd5b600073ffffffffffffffffffffffffffffffffffffffff82169050919050565b6000620004908262000463565b9050919050565b620004a28162000483565b8114620004ae57600080fd5b50565b600081519050620004c28162000497565b92915050565b6000819050919050565b620004dd81620004c8565b8114620004e957600080fd5b50565b600081519050620004fd81620004d2565b92915050565b600080600080600060a086880312156200052257620005216200045e565b5b60006200053288828901620004b1565b95505060206200054588828901620004b1565b94505060406200055888828901620004b1565b93505060606200056b88828901620004ec565b92505060806200057e88828901620004ec565b9150509295509295909350565b620005968162000483565b82525050565b6000602082019050620005b360008301846200058b565b92915050565b600060208284031215620005d257620005d16200045e565b5b6000620005e284828501620004ec565b91505092915050565b600082825260208201905092915050565b7f496e76616c696420455243323020534e4320436f6e747261637420616464726560008201527f7373000000000000000000000000000000000000000000000000000000000000602082015250565b60006200065a602283620005eb565b91506200066782620005fc565b604082019050919050565b600060208201905081810360008301526200068d816200064b565b9050919050565b6000819050919050565b6000819050919050565b6000620006c9620006c3620006bd8462000694565b6200069e565b620004c8565b9050919050565b620006db81620006a8565b82525050565b6000604082019050620006f860008301856200058b565b620007076020830184620006d0565b9392505050565b7f496e76616c6964204e465420436f6e7472616374000000000000000000000000600082015250565b600062000746601483620005eb565b915062000753826200070e565b602082019050919050565b60006020820190508181036000830152620007798162000737565b9050919050565b6149d580620007906000396000f3fe60806040523480156200001157600080fd5b5060043610620001305760003560e01c806396c4fbe011620000b1578063bd94b005116200007b578063bd94b0051462000381578063cf0a808514620003b7578063e5a3b3c914620003d9578063f5151e5b146200040f578063fa7da19d14620004315762000130565b806396c4fbe014620002e75780639e580dbe146200031d578063a6f9dae1146200033f578063b32c5c45146200035f5762000130565b8063652c884311620000ff578063652c8843146200020d5780637bb6e85c146200022f5780637ec775ed146200026d578063893d20e8146200028f57806395dbd32b14620002b15762000130565b80631bfee1211462000135578063285e1406146200016b5780632ad1f1db14620001a15780634896672e14620001d7575b600080fd5b6200015360048036038101906200014d9190620025fd565b62000467565b6040516200016291906200264c565b60405180910390f35b620001896004803603810190620001839190620026ce565b6200058a565b6040516200019891906200264c565b60405180910390f35b620001bf6004803603810190620001b9919062002700565b62000713565b604051620001ce919062002758565b60405180910390f35b620001f56004803603810190620001ef919062002700565b6200099d565b6040516200020491906200264c565b60405180910390f35b6200021762000b58565b60405162000226919062002786565b60405180910390f35b6200024d6004803603810190620002479190620025fd565b62000b7e565b6040516200026499989796959493929190620027a3565b60405180910390f35b6200027762000c66565b60405162000286919062002786565b60405180910390f35b6200029962000c8c565b604051620002a8919062002786565b60405180910390f35b620002cf6004803603810190620002c99190620025fd565b62000cb5565b604051620002de91906200264c565b60405180910390f35b620003056004803603810190620002ff919062002873565b620010fa565b6040516200031491906200264c565b60405180910390f35b6200032762001556565b60405162000336919062002758565b60405180910390f35b6200035d6004803603810190620003579190620026ce565b6200155c565b005b62000369620016aa565b60405162000378919062002786565b60405180910390f35b6200039f6004803603810190620003999190620025fd565b620016d0565b604051620003ae91906200264c565b60405180910390f35b620003c162001ab1565b604051620003d0919062002758565b60405180910390f35b620003f76004803603810190620003f19190620028fb565b62001ab7565b6040516200040691906200264c565b60405180910390f35b6200041962002482565b60405162000428919062002758565b60405180910390f35b6200044f6004803603810190620004499190620025fd565b6200248c565b6040516200045e91906200264c565b60405180910390f35b60008060009054906101000a900473ffffffffffffffffffffffffffffffffffffffff1673ffffffffffffffffffffffffffffffffffffffff163373ffffffffffffffffffffffffffffffffffffffff1614620004fb576040517f08c379a0000000000000000000000000000000000000000000000000000000008152600401620004f290620029ce565b60405180910390fd5b6000821162000541576040517f08c379a0000000000000000000000000000000000000000000000000000000008152600401620005389062002a40565b60405180910390fd5b816004819055507fcfbf529b549d5a8851c7cb749d69134057323acbc44e369f97f3600c719f40a88260405162000579919062002ab2565b60405180910390a160019050919050565b60008060009054906101000a900473ffffffffffffffffffffffffffffffffffffffff1673ffffffffffffffffffffffffffffffffffffffff163373ffffffffffffffffffffffffffffffffffffffff16146200061e576040517f08c379a00000000000000000000000000000000000000000000000000000000081526004016200061590620029ce565b60405180910390fd5b600073ffffffffffffffffffffffffffffffffffffffff168273ffffffffffffffffffffffffffffffffffffffff160362000690576040517f08c379a0000000000000000000000000000000000000000000000000000000008152600401620006879062002b34565b60405180910390fd5b81600360006101000a81548173ffffffffffffffffffffffffffffffffffffffff021916908373ffffffffffffffffffffffffffffffffffffffff1602179055507fb14f2a39bb21fda32827bbdb4be629c94036e10a3f6055a6454f884ca1b33fa18260405162000702919062002786565b60405180910390a160019050919050565b60003373ffffffffffffffffffffffffffffffffffffffff166008600084815260200190815260200160002060040160009054906101000a900473ffffffffffffffffffffffffffffffffffffffff1673ffffffffffffffffffffffffffffffffffffffff1614620007bc576040517f08c379a0000000000000000000000000000000000000000000000000000000008152600401620007b39062002ba6565b60405180910390fd5b60006008600084815260200190815260200160002060020154146200083857426008600084815260200190815260200160002060020154101562000837576040517f08c379a00000000000000000000000000000000000000000000000000000000081526004016200082e9062002c18565b60405180910390fd5b5b6000600860008481526020019081526020016000206002015414620008b8576000831462000895578260086000848152602001908152602001600020600201600082825462000888919062002c69565b92505081905550620008b2565b600060086000848152602001908152602001600020600201819055505b6200090d565b60008314620008ef578242620008cf919062002c69565b60086000848152602001908152602001600020600201819055506200090c565b600060086000848152602001908152602001600020600201819055505b5b7f14648e7038c0929281f622b76d021d0ce4193527a3e788e9e533a0110f475804826008600085815260200190815260200160002060040160009054906101000a900473ffffffffffffffffffffffffffffffffffffffff166040516200097692919062002cf4565b60405180910390a16008600083815260200190815260200160002060020154905092915050565b60003373ffffffffffffffffffffffffffffffffffffffff166008600084815260200190815260200160002060040160009054906101000a900473ffffffffffffffffffffffffffffffffffffffff1673ffffffffffffffffffffffffffffffffffffffff161462000a46576040517f08c379a000000000000000000000000000000000000000000000000000000000815260040162000a3d9062002ba6565b60405180910390fd5b600060086000848152602001908152602001600020600201541462000ac257426008600084815260200190815260200160002060020154101562000ac1576040517f08c379a000000000000000000000000000000000000000000000000000000000815260040162000ab89062002c18565b60405180910390fd5b5b8260086000848152602001908152602001600020600001819055507f14648e7038c0929281f622b76d021d0ce4193527a3e788e9e533a0110f475804826008600085815260200190815260200160002060040160009054906101000a900473ffffffffffffffffffffffffffffffffffffffff1660405162000b4692919062002d86565b60405180910390a16001905092915050565b600160009054906101000a900473ffffffffffffffffffffffffffffffffffffffff1681565b60086020528060005260406000206000915090508060000154908060010154908060020154908060030160009054906101000a900473ffffffffffffffffffffffffffffffffffffffff16908060040160009054906101000a900473ffffffffffffffffffffffffffffffffffffffff16908060050160009054906101000a900473ffffffffffffffffffffffffffffffffffffffff16908060060160009054906101000a900473ffffffffffffffffffffffffffffffffffffffff16908060060160149054906101000a900460ff16908060060160159054906101000a900460ff16905089565b600360009054906101000a900473ffffffffffffffffffffffffffffffffffffffff1681565b60008060009054906101000a900473ffffffffffffffffffffffffffffffffffffffff16905090565b600080600860008481526020019081526020016000206002015414620010f157426008600084815260200190815260200160002060020154111562000d31576040517f08c379a000000000000000000000000000000000000000000000000000000000815260040162000d289062002e18565b60405180910390fd5b60006008600084815260200190815260200160002060050160009054906101000a900473ffffffffffffffffffffffffffffffffffffffff1690508073ffffffffffffffffffffffffffffffffffffffff1663ceff94686008600086815260200190815260200160002060040160009054906101000a900473ffffffffffffffffffffffffffffffffffffffff166040518263ffffffff1660e01b815260040162000ddd919062002786565b6020604051808303816000875af115801562000dfd573d6000803e3d6000fd5b505050506040513d601f19601f8201168201806040525081019062000e23919062002e51565b5060006008600085815260200190815260200160002060020154905060006008600086815260200190815260200160002060040160009054906101000a900473ffffffffffffffffffffffffffffffffffffffff169050604051806101200160405280600081526020016000815260200160008152602001600073ffffffffffffffffffffffffffffffffffffffff168152602001600073ffffffffffffffffffffffffffffffffffffffff168152602001600073ffffffffffffffffffffffffffffffffffffffff168152602001600073ffffffffffffffffffffffffffffffffffffffff168152602001600015158152602001600015158152506008600087815260200190815260200160002060008201518160000155602082015181600101556040820151816002015560608201518160030160006101000a81548173ffffffffffffffffffffffffffffffffffffffff021916908373ffffffffffffffffffffffffffffffffffffffff16021790555060808201518160040160006101000a81548173ffffffffffffffffffffffffffffffffffffffff021916908373ffffffffffffffffffffffffffffffffffffffff16021790555060a08201518160050160006101000a81548173ffffffffffffffffffffffffffffffffffffffff021916908373ffffffffffffffffffffffffffffffffffffffff16021790555060c08201518160060160006101000a81548173ffffffffffffffffffffffffffffffffffffffff021916908373ffffffffffffffffffffffffffffffffffffffff16021790555060e08201518160060160146101000a81548160ff0219169083151502179055506101008201518160060160156101000a81548160ff0219169083151502179055509050507f8710c2fc922121e15743483efad26ada3e25e774b5985ba1c60906d77cb95528858383604051620010e59392919062002e83565b60405180910390a15050505b60019050919050565b60008073ffffffffffffffffffffffffffffffffffffffff166008600087815260200190815260200160002060040160009054906101000a900473ffffffffffffffffffffffffffffffffffffffff1673ffffffffffffffffffffffffffffffffffffffff1614620011a3576040517f08c379a00000000000000000000000000000000000000000000000000000000081526004016200119a9062002f10565b60405180910390fd5b6000600260009054906101000a900473ffffffffffffffffffffffffffffffffffffffff1686600160009054906101000a900473ffffffffffffffffffffffffffffffffffffffff16604051620011fa90620025af565b620012089392919062002f32565b604051809103906000f08015801562001225573d6000803e3d6000fd5b509050600760009054906101000a900473ffffffffffffffffffffffffffffffffffffffff1673ffffffffffffffffffffffffffffffffffffffff1663f242432a33838960016040518563ffffffff1660e01b81526004016200128c949392919062002ff7565b600060405180830381600087803b158015620012a757600080fd5b505af1158015620012bc573d6000803e3d6000fd5b5050505060008414620012da578342620012d7919062002c69565b93505b604051806101200160405280868152602001878152602001858152602001600073ffffffffffffffffffffffffffffffffffffffff1681526020013373ffffffffffffffffffffffffffffffffffffffff1681526020018273ffffffffffffffffffffffffffffffffffffffff1681526020018873ffffffffffffffffffffffffffffffffffffffff1681526020018415158152602001600015158152506008600088815260200190815260200160002060008201518160000155602082015181600101556040820151816002015560608201518160030160006101000a81548173ffffffffffffffffffffffffffffffffffffffff021916908373ffffffffffffffffffffffffffffffffffffffff16021790555060808201518160040160006101000a81548173ffffffffffffffffffffffffffffffffffffffff021916908373ffffffffffffffffffffffffffffffffffffffff16021790555060a08201518160050160006101000a81548173ffffffffffffffffffffffffffffffffffffffff021916908373ffffffffffffffffffffffffffffffffffffffff16021790555060c08201518160060160006101000a81548173ffffffffffffffffffffffffffffffffffffffff021916908373ffffffffffffffffffffffffffffffffffffffff16021790555060e08201518160060160146101000a81548160ff0219169083151502179055506101008201518160060160156101000a81548160ff0219169083151502179055509050507f0bf90bbf5835a59146a7acafd02a232619e7295a4f6886e866d1f26ec03d56d83386868960405162001540949392919062003059565b60405180910390a1600191505095945050505050565b60055481565b60008054906101000a900473ffffffffffffffffffffffffffffffffffffffff1673ffffffffffffffffffffffffffffffffffffffff163373ffffffffffffffffffffffffffffffffffffffff1614620015ed576040517f08c379a0000000000000000000000000000000000000000000000000000000008152600401620015e490620029ce565b60405180910390fd5b8073ffffffffffffffffffffffffffffffffffffffff1660008054906101000a900473ffffffffffffffffffffffffffffffffffffffff1673ffffffffffffffffffffffffffffffffffffffff167f342827c97908e5e2f71151c08502a66d44b6f758e3ac2f1de95f02eb95f0a73560405160405180910390a3806000806101000a81548173ffffffffffffffffffffffffffffffffffffffff021916908373ffffffffffffffffffffffffffffffffffffffff16021790555050565b600260009054906101000a900473ffffffffffffffffffffffffffffffffffffffff1681565b60003373ffffffffffffffffffffffffffffffffffffffff166008600084815260200190815260200160002060040160009054906101000a900473ffffffffffffffffffffffffffffffffffffffff1673ffffffffffffffffffffffffffffffffffffffff161462001779576040517f08c379a0000000000000000000000000000000000000000000000000000000008152600401620017709062002ba6565b60405180910390fd5b60006008600084815260200190815260200160002060050160009054906101000a900473ffffffffffffffffffffffffffffffffffffffff169050604051806101200160405280600081526020016000815260200160008152602001600073ffffffffffffffffffffffffffffffffffffffff168152602001600073ffffffffffffffffffffffffffffffffffffffff168152602001600073ffffffffffffffffffffffffffffffffffffffff168152602001600073ffffffffffffffffffffffffffffffffffffffff168152602001600015158152602001600015158152506008600085815260200190815260200160002060008201518160000155602082015181600101556040820151816002015560608201518160030160006101000a81548173ffffffffffffffffffffffffffffffffffffffff021916908373ffffffffffffffffffffffffffffffffffffffff16021790555060808201518160040160006101000a81548173ffffffffffffffffffffffffffffffffffffffff021916908373ffffffffffffffffffffffffffffffffffffffff16021790555060a08201518160050160006101000a81548173ffffffffffffffffffffffffffffffffffffffff021916908373ffffffffffffffffffffffffffffffffffffffff16021790555060c08201518160060160006101000a81548173ffffffffffffffffffffffffffffffffffffffff021916908373ffffffffffffffffffffffffffffffffffffffff16021790555060e08201518160060160146101000a81548160ff0219169083151502179055506101008201518160060160156101000a81548160ff0219169083151502179055509050508073ffffffffffffffffffffffffffffffffffffffff1663ceff9468336040518263ffffffff1660e01b815260040162001a25919062002786565b6020604051808303816000875af115801562001a45573d6000803e3d6000fd5b505050506040513d601f19601f8201168201806040525081019062001a6b919062002e51565b507f9dd5def5b2ccab1bf0078c3dd32b7653a9147b4297fb4cfe63c18fe58ffb0b08833360405162001a9f929190620030a6565b60405180910390a16001915050919050565b60045481565b60008073ffffffffffffffffffffffffffffffffffffffff166008600086815260200190815260200160002060040160009054906101000a900473ffffffffffffffffffffffffffffffffffffffff1673ffffffffffffffffffffffffffffffffffffffff160362001b60576040517f08c379a000000000000000000000000000000000000000000000000000000000815260040162001b579062003123565b60405180910390fd5b600060086000868152602001908152602001600020600201541462001bdc57426008600086815260200190815260200160002060020154101562001bdb576040517f08c379a000000000000000000000000000000000000000000000000000000000815260040162001bd29062002c18565b60405180910390fd5b5b600860008581526020019081526020016000206000015483101562001c38576040517f08c379a000000000000000000000000000000000000000000000000000000000815260040162001c2f90620031bb565b60405180910390fd5b828262001c46919062002c69565b600660009054906101000a900473ffffffffffffffffffffffffffffffffffffffff1673ffffffffffffffffffffffffffffffffffffffff166370a08231876040518263ffffffff1660e01b815260040162001ca3919062002786565b602060405180830381865afa15801562001cc1573d6000803e3d6000fd5b505050506040513d601f19601f8201168201806040525081019062001ce79190620031f4565b101562001d2b576040517f08c379a000000000000000000000000000000000000000000000000000000000815260040162001d229062003276565b60405180910390fd5b60006008600086815260200190815260200160002060050160009054906101000a900473ffffffffffffffffffffffffffffffffffffffff16905060006008600087815260200190815260200160002060000154905060006008600088815260200190815260200160002060060160149054906101000a900460ff16905060006008600089815260200190815260200160002060040160009054906101000a900473ffffffffffffffffffffffffffffffffffffffff169050604051806101200160405280600081526020016000815260200160008152602001600073ffffffffffffffffffffffffffffffffffffffff168152602001600073ffffffffffffffffffffffffffffffffffffffff168152602001600073ffffffffffffffffffffffffffffffffffffffff168152602001600073ffffffffffffffffffffffffffffffffffffffff16815260200160001515815260200160001515815250600860008a815260200190815260200160002060008201518160000155602082015181600101556040820151816002015560608201518160030160006101000a81548173ffffffffffffffffffffffffffffffffffffffff021916908373ffffffffffffffffffffffffffffffffffffffff16021790555060808201518160040160006101000a81548173ffffffffffffffffffffffffffffffffffffffff021916908373ffffffffffffffffffffffffffffffffffffffff16021790555060a08201518160050160006101000a81548173ffffffffffffffffffffffffffffffffffffffff021916908373ffffffffffffffffffffffffffffffffffffffff16021790555060c08201518160060160006101000a81548173ffffffffffffffffffffffffffffffffffffffff021916908373ffffffffffffffffffffffffffffffffffffffff16021790555060e08201518160060160146101000a81548160ff0219169083151502179055506101008201518160060160156101000a81548160ff0219169083151502179055509050508373ffffffffffffffffffffffffffffffffffffffff1663ceff94688a6040518263ffffffff1660e01b815260040162002055919062002786565b6020604051808303816000875af115801562002075573d6000803e3d6000fd5b505050506040513d601f19601f820116820180604052508101906200209b919062002e51565b50600660009054906101000a900473ffffffffffffffffffffffffffffffffffffffff1673ffffffffffffffffffffffffffffffffffffffff166323b872dd8a868987620020ea919062002c69565b6040518463ffffffff1660e01b81526004016200210a9392919062003298565b6020604051808303816000875af11580156200212a573d6000803e3d6000fd5b505050506040513d601f19601f8201168201806040525081019062002150919062002e51565b508373ffffffffffffffffffffffffffffffffffffffff1663d580408a600360009054906101000a900473ffffffffffffffffffffffffffffffffffffffff16886040518363ffffffff1660e01b8152600401620021b0929190620032d5565b6020604051808303816000875af1158015620021d0573d6000803e3d6000fd5b505050506040513d601f19601f82011682018060405250810190620021f6919062002e51565b508115620023ae5760006127106004548562002213919062003302565b6200221f91906200337c565b905080846200222f9190620033b4565b93508473ffffffffffffffffffffffffffffffffffffffff1663d580408a600360009054906101000a900473ffffffffffffffffffffffffffffffffffffffff16836040518363ffffffff1660e01b815260040162002290929190620032d5565b6020604051808303816000875af1158015620022b0573d6000803e3d6000fd5b505050506040513d601f19601f82011682018060405250810190620022d6919062002e51565b508473ffffffffffffffffffffffffffffffffffffffff1663d580408a83866040518363ffffffff1660e01b815260040162002314929190620032d5565b6020604051808303816000875af115801562002334573d6000803e3d6000fd5b505050506040513d601f19601f820116820180604052508101906200235a919062002e51565b507f419b6357af0f5c7846ee6bf7766f7dd98cda5392b840d1e0829ffdee4575bdcd828b83876200238c919062002c69565b8c6040516200239f9493929190620033ef565b60405180910390a15062002472565b8373ffffffffffffffffffffffffffffffffffffffff1663d580408a82856040518363ffffffff1660e01b8152600401620023eb929190620032d5565b6020604051808303816000875af11580156200240b573d6000803e3d6000fd5b505050506040513d601f19601f8201168201806040525081019062002431919062002e51565b507f419b6357af0f5c7846ee6bf7766f7dd98cda5392b840d1e0829ffdee4575bdcd818a858b604051620024699493929190620033ef565b60405180910390a15b6001945050505050949350505050565b6000600554905090565b60008060009054906101000a900473ffffffffffffffffffffffffffffffffffffffff1673ffffffffffffffffffffffffffffffffffffffff163373ffffffffffffffffffffffffffffffffffffffff161462002520576040517f08c379a00000000000000000000000000000000000000000000000000000000081526004016200251790620029ce565b60405180910390fd5b6000821162002566576040517f08c379a00000000000000000000000000000000000000000000000000000000081526004016200255d9062002a40565b60405180910390fd5b816005819055507fcfbf529b549d5a8851c7cb749d69134057323acbc44e369f97f3600c719f40a8826040516200259e91906200348c565b60405180910390a160019050919050565b6114e180620034bf83390190565b600080fd5b6000819050919050565b620025d781620025c2565b8114620025e357600080fd5b50565b600081359050620025f781620025cc565b92915050565b600060208284031215620026165762002615620025bd565b5b60006200262684828501620025e6565b91505092915050565b60008115159050919050565b62002646816200262f565b82525050565b60006020820190506200266360008301846200263b565b92915050565b600073ffffffffffffffffffffffffffffffffffffffff82169050919050565b6000620026968262002669565b9050919050565b620026a88162002689565b8114620026b457600080fd5b50565b600081359050620026c8816200269d565b92915050565b600060208284031215620026e757620026e6620025bd565b5b6000620026f784828501620026b7565b91505092915050565b600080604083850312156200271a5762002719620025bd565b5b60006200272a85828601620025e6565b92505060206200273d85828601620025e6565b9150509250929050565b6200275281620025c2565b82525050565b60006020820190506200276f600083018462002747565b92915050565b620027808162002689565b82525050565b60006020820190506200279d600083018462002775565b92915050565b600061012082019050620027bb600083018c62002747565b620027ca602083018b62002747565b620027d9604083018a62002747565b620027e8606083018962002775565b620027f7608083018862002775565b6200280660a083018762002775565b6200281560c083018662002775565b6200282460e08301856200263b565b620028346101008301846200263b565b9a9950505050505050505050565b6200284d816200262f565b81146200285957600080fd5b50565b6000813590506200286d8162002842565b92915050565b600080600080600060a08688031215620028925762002891620025bd565b5b6000620028a288828901620026b7565b9550506020620028b588828901620025e6565b9450506040620028c888828901620025e6565b9350506060620028db88828901620025e6565b9250506080620028ee888289016200285c565b9150509295509295909350565b60008060008060808587031215620029185762002917620025bd565b5b60006200292887828801620026b7565b94505060206200293b87828801620025e6565b93505060406200294e87828801620025e6565b92505060606200296187828801620025e6565b91505092959194509250565b600082825260208201905092915050565b7f43616c6c6572206973206e6f74206f776e657200000000000000000000000000600082015250565b6000620029b66013836200296d565b9150620029c3826200297e565b602082019050919050565b60006020820190508181036000830152620029e981620029a7565b9050919050565b7f43616e6e6f7420736574207a65726f2066656573000000000000000000000000600082015250565b600062002a286014836200296d565b915062002a3582620029f0565b602082019050919050565b6000602082019050818103600083015262002a5b8162002a19565b9050919050565b7f53454c4c4552204645452050455243454e540000000000000000000000000000600082015250565b600062002a9a6012836200296d565b915062002aa78262002a62565b602082019050919050565b600060408201905062002ac9600083018462002747565b818103602083015262002adc8162002a8b565b905092915050565b7f43616e6e6f7420736574207a65726f2061646472657373000000000000000000600082015250565b600062002b1c6017836200296d565b915062002b298262002ae4565b602082019050919050565b6000602082019050818103600083015262002b4f8162002b0d565b9050919050565b7f4e6f74207468652073656c6c6572206f662074686973204e4654000000000000600082015250565b600062002b8e601a836200296d565b915062002b9b8262002b56565b602082019050919050565b6000602082019050818103600083015262002bc18162002b7f565b9050919050565b7f4e46542053616c65206861732065787069726564000000000000000000000000600082015250565b600062002c006014836200296d565b915062002c0d8262002bc8565b602082019050919050565b6000602082019050818103600083015262002c338162002bf1565b9050919050565b7f4e487b7100000000000000000000000000000000000000000000000000000000600052601160045260246000fd5b600062002c7682620025c2565b915062002c8383620025c2565b925082820190508082111562002c9e5762002c9d62002c3a565b5b92915050565b7f555044415445204455524154494f4e0000000000000000000000000000000000600082015250565b600062002cdc600f836200296d565b915062002ce98262002ca4565b602082019050919050565b600060608201905062002d0b600083018562002747565b62002d1a602083018462002775565b818103604083015262002d2d8162002ccd565b90509392505050565b7f5550444154452050524943450000000000000000000000000000000000000000600082015250565b600062002d6e600c836200296d565b915062002d7b8262002d36565b602082019050919050565b600060608201905062002d9d600083018562002747565b62002dac602083018462002775565b818103604083015262002dbf8162002d5f565b90509392505050565b7f4e46542053616c6520686173206e6f7420657870697265640000000000000000600082015250565b600062002e006018836200296d565b915062002e0d8262002dc8565b602082019050919050565b6000602082019050818103600083015262002e338162002df1565b9050919050565b60008151905062002e4b8162002842565b92915050565b60006020828403121562002e6a5762002e69620025bd565b5b600062002e7a8482850162002e3a565b91505092915050565b600060608201905062002e9a600083018662002747565b62002ea9602083018562002747565b62002eb8604083018462002775565b949350505050565b7f54686973204e4654206973206f6e2073616c6520616c72656164790000000000600082015250565b600062002ef8601b836200296d565b915062002f058262002ec0565b602082019050919050565b6000602082019050818103600083015262002f2b8162002ee9565b9050919050565b600060608201905062002f49600083018662002775565b62002f58602083018562002747565b62002f67604083018462002775565b949350505050565b6000819050919050565b6000819050919050565b600062002fa462002f9e62002f988462002f6f565b62002f79565b620025c2565b9050919050565b62002fb68162002f83565b82525050565b600082825260208201905092915050565b50565b600062002fdf60008362002fbc565b915062002fec8262002fcd565b600082019050919050565b600060a0820190506200300e600083018762002775565b6200301d602083018662002775565b6200302c604083018562002747565b6200303b606083018462002fab565b81810360808301526200304e8162002fd0565b905095945050505050565b600060808201905062003070600083018762002775565b6200307f602083018662002747565b6200308e604083018562002747565b6200309d606083018462002747565b95945050505050565b6000604082019050620030bd600083018562002747565b620030cc602083018462002775565b9392505050565b7f54686973204e4654206973206e6f74206f6e2073616c65000000000000000000600082015250565b60006200310b6017836200296d565b91506200311882620030d3565b602082019050919050565b600060208201905081810360008301526200313e81620030fc565b9050919050565b7f534e4320616d6f756e742070726f7669646564206c6573736572207468616e2060008201527f4e46542073616c65207072696365000000000000000000000000000000000000602082015250565b6000620031a3602e836200296d565b9150620031b08262003145565b604082019050919050565b60006020820190508181036000830152620031d68162003194565b9050919050565b600081519050620031ee81620025cc565b92915050565b6000602082840312156200320d576200320c620025bd565b5b60006200321d84828501620031dd565b91505092915050565b7f496e73756666696369656e7420534e4320746f6b656e73000000000000000000600082015250565b60006200325e6017836200296d565b91506200326b8262003226565b602082019050919050565b6000602082019050818103600083015262003291816200324f565b9050919050565b6000606082019050620032af600083018662002775565b620032be602083018562002775565b620032cd604083018462002747565b949350505050565b6000604082019050620032ec600083018562002775565b620032fb602083018462002747565b9392505050565b60006200330f82620025c2565b91506200331c83620025c2565b92508282026200332c81620025c2565b9150828204841483151762003346576200334562002c3a565b5b5092915050565b7f4e487b7100000000000000000000000000000000000000000000000000000000600052601260045260246000fd5b60006200338982620025c2565b91506200339683620025c2565b925082620033a957620033a86200334d565b5b828204905092915050565b6000620033c182620025c2565b9150620033ce83620025c2565b9250828203905081811115620033e957620033e862002c3a565b5b92915050565b600060808201905062003406600083018762002775565b62003415602083018662002775565b62003424604083018562002747565b62003433606083018462002747565b95945050505050565b7f4255594552204645452050455243454e54000000000000000000000000000000600082015250565b6000620034746011836200296d565b915062003481826200343c565b602082019050919050565b6000604082019050620034a3600083018462002747565b8181036020830152620034b68162003465565b90509291505056fe60806040523480156200001157600080fd5b50604051620014e1380380620014e18339818101604052810190620000379190620003cb565b826000806101000a81548173ffffffffffffffffffffffffffffffffffffffff021916908373ffffffffffffffffffffffffffffffffffffffff1602179055508160028190555080600160006101000a81548173ffffffffffffffffffffffffffffffffffffffff021916908373ffffffffffffffffffffffffffffffffffffffff1602179055506000600160009054906101000a900473ffffffffffffffffffffffffffffffffffffffff1673ffffffffffffffffffffffffffffffffffffffff166370a08231306040518263ffffffff1660e01b81526004016200011e919062000438565b602060405180830381865afa1580156200013c573d6000803e3d6000fd5b505050506040513d601f19601f8201168201806040525081019062000162919062000455565b14620001a5576040517f08c379a00000000000000000000000000000000000000000000000000000000081526004016200019c90620004e8565b60405180910390fd5b60008060009054906101000a900473ffffffffffffffffffffffffffffffffffffffff1673ffffffffffffffffffffffffffffffffffffffff1662fdd58e30856040518363ffffffff1660e01b8152600401620002049291906200051b565b602060405180830381865afa15801562000222573d6000803e3d6000fd5b505050506040513d601f19601f8201168201806040525081019062000248919062000455565b146200028b576040517f08c379a0000000000000000000000000000000000000000000000000000000008152600401620002829062000598565b60405180910390fd5b60008054906101000a900473ffffffffffffffffffffffffffffffffffffffff1673ffffffffffffffffffffffffffffffffffffffff1663a22cb4653360016040518363ffffffff1660e01b8152600401620002e9929190620005d7565b600060405180830381600087803b1580156200030457600080fd5b505af115801562000319573d6000803e3d6000fd5b5050505050505062000604565b600080fd5b600073ffffffffffffffffffffffffffffffffffffffff82169050919050565b600062000358826200032b565b9050919050565b6200036a816200034b565b81146200037657600080fd5b50565b6000815190506200038a816200035f565b92915050565b6000819050919050565b620003a58162000390565b8114620003b157600080fd5b50565b600081519050620003c5816200039a565b92915050565b600080600060608486031215620003e757620003e662000326565b5b6000620003f78682870162000379565b93505060206200040a86828701620003b4565b92505060406200041d8682870162000379565b9150509250925092565b62000432816200034b565b82525050565b60006020820190506200044f600083018462000427565b92915050565b6000602082840312156200046e576200046d62000326565b5b60006200047e84828501620003b4565b91505092915050565b600082825260208201905092915050565b7f496e76616c696420455243323020436f6e747261637420616464726573730000600082015250565b6000620004d0601e8362000487565b9150620004dd8262000498565b602082019050919050565b600060208201905081810360008301526200050381620004c1565b9050919050565b620005158162000390565b82525050565b600060408201905062000532600083018562000427565b6200054160208301846200050a565b9392505050565b7f496e76616c6964204e465420436f6e7472616374000000000000000000000000600082015250565b60006200058060148362000487565b91506200058d8262000548565b602082019050919050565b60006020820190508181036000830152620005b38162000571565b9050919050565b60008115159050919050565b620005d181620005ba565b82525050565b6000604082019050620005ee600083018562000427565b620005fd6020830184620005c6565b9392505050565b610ecd80620006146000396000f3fe608060405234801561001057600080fd5b50600436106100625760003560e01c806301ffc9a7146100675780638f04a18f14610097578063bc197c81146100c7578063ceff9468146100f7578063d580408a14610127578063f23a6e6114610157575b600080fd5b610081600480360381019061007c919061071e565b610187565b60405161008e9190610766565b60405180910390f35b6100b160048036038101906100ac91906107df565b610201565b6040516100be9190610766565b60405180910390f35b6100e160048036038101906100dc9190610a50565b61037f565b6040516100ee9190610b2e565b60405180910390f35b610111600480360381019061010c91906107df565b610394565b60405161011e9190610766565b60405180910390f35b610141600480360381019061013c9190610b49565b61046f565b60405161014e9190610766565b60405180910390f35b610171600480360381019061016c9190610b89565b610633565b60405161017e9190610b2e565b60405180910390f35b60007f4e2312e0000000000000000000000000000000000000000000000000000000007bffffffffffffffffffffffffffffffffffffffffffffffffffffffff1916827bffffffffffffffffffffffffffffffffffffffffffffffffffffffff191614806101fa57506101f982610648565b5b9050919050565b60008060008054906101000a900473ffffffffffffffffffffffffffffffffffffffff1673ffffffffffffffffffffffffffffffffffffffff1662fdd58e306002546040518363ffffffff1660e01b8152600401610260929190610c3e565b602060405180830381865afa15801561027d573d6000803e3d6000fd5b505050506040513d601f19601f820116820180604052508101906102a19190610c7c565b1061033b5760008054906101000a900473ffffffffffffffffffffffffffffffffffffffff1673ffffffffffffffffffffffffffffffffffffffff1663f242432a308460025460016040518563ffffffff1660e01b81526004016103089493929190610d25565b600060405180830381600087803b15801561032257600080fd5b505af1158015610336573d6000803e3d6000fd5b505050505b7fe2d73ae83743672762e50ba9d1f270913a16bc698d3887fac465b25009bf64676002548360405161036e929190610d7d565b60405180910390a160019050919050565b600063bc197c8160e01b905095945050505050565b60008060009054906101000a900473ffffffffffffffffffffffffffffffffffffffff1673ffffffffffffffffffffffffffffffffffffffff1663f242432a308460025460016040518563ffffffff1660e01b81526004016103f99493929190610d25565b600060405180830381600087803b15801561041357600080fd5b505af1158015610427573d6000803e3d6000fd5b505050507fe2d73ae83743672762e50ba9d1f270913a16bc698d3887fac465b25009bf64676002548360405161045e929190610d7d565b60405180910390a160019050919050565b600081600160009054906101000a900473ffffffffffffffffffffffffffffffffffffffff1673ffffffffffffffffffffffffffffffffffffffff166370a08231306040518263ffffffff1660e01b81526004016104cd9190610da6565b602060405180830381865afa1580156104ea573d6000803e3d6000fd5b505050506040513d601f19601f8201168201806040525081019061050e9190610c7c565b101561054f576040517f08c379a000000000000000000000000000000000000000000000000000000000815260040161054690610e1e565b60405180910390fd5b600160009054906101000a900473ffffffffffffffffffffffffffffffffffffffff1673ffffffffffffffffffffffffffffffffffffffff1663a9059cbb84846040518363ffffffff1660e01b81526004016105ac929190610c3e565b6020604051808303816000875af11580156105cb573d6000803e3d6000fd5b505050506040513d601f19601f820116820180604052508101906105ef9190610e6a565b507f5c1ba46fd05d3bb0363a63330a5f560f2014f27d055a39108694f295973ae2038284604051610621929190610d7d565b60405180910390a16001905092915050565b600063f23a6e6160e01b905095945050505050565b60007f01ffc9a7000000000000000000000000000000000000000000000000000000007bffffffffffffffffffffffffffffffffffffffffffffffffffffffff1916827bffffffffffffffffffffffffffffffffffffffffffffffffffffffff1916149050919050565b6000604051905090565b600080fd5b600080fd5b60007fffffffff0000000000000000000000000000000000000000000000000000000082169050919050565b6106fb816106c6565b811461070657600080fd5b50565b600081359050610718816106f2565b92915050565b600060208284031215610734576107336106bc565b5b600061074284828501610709565b91505092915050565b60008115159050919050565b6107608161074b565b82525050565b600060208201905061077b6000830184610757565b92915050565b600073ffffffffffffffffffffffffffffffffffffffff82169050919050565b60006107ac82610781565b9050919050565b6107bc816107a1565b81146107c757600080fd5b50565b6000813590506107d9816107b3565b92915050565b6000602082840312156107f5576107f46106bc565b5b6000610803848285016107ca565b91505092915050565b600080fd5b6000601f19601f8301169050919050565b7f4e487b7100000000000000000000000000000000000000000000000000000000600052604160045260246000fd5b61085a82610811565b810181811067ffffffffffffffff8211171561087957610878610822565b5b80604052505050565b600061088c6106b2565b90506108988282610851565b919050565b600067ffffffffffffffff8211156108b8576108b7610822565b5b602082029050602081019050919050565b600080fd5b6000819050919050565b6108e1816108ce565b81146108ec57600080fd5b50565b6000813590506108fe816108d8565b92915050565b60006109176109128461089d565b610882565b9050808382526020820190506020840283018581111561093a576109396108c9565b5b835b81811015610963578061094f88826108ef565b84526020840193505060208101905061093c565b5050509392505050565b600082601f8301126109825761098161080c565b5b8135610992848260208601610904565b91505092915050565b600080fd5b600067ffffffffffffffff8211156109bb576109ba610822565b5b6109c482610811565b9050602081019050919050565b82818337600083830152505050565b60006109f36109ee846109a0565b610882565b905082815260208101848484011115610a0f57610a0e61099b565b5b610a1a8482856109d1565b509392505050565b600082601f830112610a3757610a3661080c565b5b8135610a478482602086016109e0565b91505092915050565b600080600080600060a08688031215610a6c57610a6b6106bc565b5b6000610a7a888289016107ca565b9550506020610a8b888289016107ca565b945050604086013567ffffffffffffffff811115610aac57610aab6106c1565b5b610ab88882890161096d565b935050606086013567ffffffffffffffff811115610ad957610ad86106c1565b5b610ae58882890161096d565b925050608086013567ffffffffffffffff811115610b0657610b056106c1565b5b610b1288828901610a22565b9150509295509295909350565b610b28816106c6565b82525050565b6000602082019050610b436000830184610b1f565b92915050565b60008060408385031215610b6057610b5f6106bc565b5b6000610b6e858286016107ca565b9250506020610b7f858286016108ef565b9150509250929050565b600080600080600060a08688031215610ba557610ba46106bc565b5b6000610bb3888289016107ca565b9550506020610bc4888289016107ca565b9450506040610bd5888289016108ef565b9350506060610be6888289016108ef565b925050608086013567ffffffffffffffff811115610c0757610c066106c1565b5b610c1388828901610a22565b9150509295509295909350565b610c29816107a1565b82525050565b610c38816108ce565b82525050565b6000604082019050610c536000830185610c20565b610c606020830184610c2f565b9392505050565b600081519050610c76816108d8565b92915050565b600060208284031215610c9257610c916106bc565b5b6000610ca084828501610c67565b91505092915050565b6000819050919050565b6000819050919050565b6000610cd8610cd3610cce84610ca9565b610cb3565b6108ce565b9050919050565b610ce881610cbd565b82525050565b600082825260208201905092915050565b50565b6000610d0f600083610cee565b9150610d1a82610cff565b600082019050919050565b600060a082019050610d3a6000830187610c20565b610d476020830186610c20565b610d546040830185610c2f565b610d616060830184610cdf565b8181036080830152610d7281610d02565b905095945050505050565b6000604082019050610d926000830185610c2f565b610d9f6020830184610c20565b9392505050565b6000602082019050610dbb6000830184610c20565b92915050565b600082825260208201905092915050565b7f496e73756666696369656e7420534e4320746f6b656e73000000000000000000600082015250565b6000610e08601783610dc1565b9150610e1382610dd2565b602082019050919050565b60006020820190508181036000830152610e3781610dfb565b9050919050565b610e478161074b565b8114610e5257600080fd5b50565b600081519050610e6481610e3e565b92915050565b600060208284031215610e8057610e7f6106bc565b5b6000610e8e84828501610e55565b9150509291505056fea26469706673582212204399c38cec8fc40e45995ab7903250909710107bfef3b5243a41ef9947a9fc5f64736f6c63430008120033a26469706673582212208f12ab9a85761a321f0a9038055b0ea55634784a4c7f655cbc9d169f5f9f3de864736f6c63430008120033",
  "linkReferences": {},
  "deployedLinkReferences": {}
}