{
  "_format": "hh-sol-artifact-1",
  "contractName": "NFTMinter",
  "sourceName": "contracts/nFTMinting.sol",
  "abi": [
    {
      "inputs": [
        {
          "internalType": "address",
          "name": "_houseAddress",
          "type": "address"
        }
      ],
      "stateMutability": "nonpayable",
      "type": "constructor"
    },
    {
      "anonymous": false,
      "inputs": [
        {
          "indexed": true,
          "internalType": "address",
          "name": "account",
          "type": "address"
        },
        {
          "indexed": true,
          "internalType": "address",
          "name": "operator",
          "type": "address"
        },
        {
          "indexed": false,
          "internalType": "bool",
          "name": "approved",
          "type": "bool"
        }
      ],
      "name": "ApprovalForAll",
      "type": "event"
    },
    {
      "anonymous": false,
      "inputs": [
        {
          "indexed": true,
          "internalType": "address",
          "name": "previousOwner",
          "type": "address"
        },
        {
          "indexed": true,
          "internalType": "address",
          "name": "newOwner",
          "type": "address"
        }
      ],
      "name": "OwnershipTransferred",
      "type": "event"
    },
    {
      "anonymous": false,
      "inputs": [
        {
          "indexed": false,
          "internalType": "address",
          "name": "account",
          "type": "address"
        }
      ],
      "name": "Paused",
      "type": "event"
    },
    {
      "anonymous": false,
      "inputs": [
        {
          "indexed": true,
          "internalType": "address",
          "name": "operator",
          "type": "address"
        },
        {
          "indexed": true,
          "internalType": "address",
          "name": "from",
          "type": "address"
        },
        {
          "indexed": true,
          "internalType": "address",
          "name": "to",
          "type": "address"
        },
        {
          "indexed": false,
          "internalType": "uint256[]",
          "name": "ids",
          "type": "uint256[]"
        },
        {
          "indexed": false,
          "internalType": "uint256[]",
          "name": "values",
          "type": "uint256[]"
        }
      ],
      "name": "TransferBatch",
      "type": "event"
    },
    {
      "anonymous": false,
      "inputs": [
        {
          "indexed": true,
          "internalType": "address",
          "name": "operator",
          "type": "address"
        },
        {
          "indexed": true,
          "internalType": "address",
          "name": "from",
          "type": "address"
        },
        {
          "indexed": true,
          "internalType": "address",
          "name": "to",
          "type": "address"
        },
        {
          "indexed": false,
          "internalType": "uint256",
          "name": "id",
          "type": "uint256"
        },
        {
          "indexed": false,
          "internalType": "uint256",
          "name": "value",
          "type": "uint256"
        }
      ],
      "name": "TransferSingle",
      "type": "event"
    },
    {
      "anonymous": false,
      "inputs": [
        {
          "indexed": false,
          "internalType": "string",
          "name": "value",
          "type": "string"
        },
        {
          "indexed": true,
          "internalType": "uint256",
          "name": "id",
          "type": "uint256"
        }
      ],
      "name": "URI",
      "type": "event"
    },
    {
      "anonymous": false,
      "inputs": [
        {
          "indexed": false,
          "internalType": "address",
          "name": "account",
          "type": "address"
        }
      ],
      "name": "Unpaused",
      "type": "event"
    },
    {
      "inputs": [],
      "name": "HOUSE_ADDRESS",
      "outputs": [
        {
          "internalType": "address",
          "name": "",
          "type": "address"
        }
      ],
      "stateMutability": "view",
      "type": "function"
    },
    {
      "inputs": [
        {
          "internalType": "uint256",
          "name": "",
          "type": "uint256"
        }
      ],
      "name": "NFT_DATA",
      "outputs": [
        {
          "internalType": "uint256",
          "name": "duration",
          "type": "uint256"
        }
      ],
      "stateMutability": "view",
      "type": "function"
    },
    {
      "inputs": [
        {
          "internalType": "address",
          "name": "account",
          "type": "address"
        },
        {
          "internalType": "uint256",
          "name": "id",
          "type": "uint256"
        }
      ],
      "name": "balanceOf",
      "outputs": [
        {
          "internalType": "uint256",
          "name": "",
          "type": "uint256"
        }
      ],
      "stateMutability": "view",
      "type": "function"
    },
    {
      "inputs": [
        {
          "internalType": "address[]",
          "name": "accounts",
          "type": "address[]"
        },
        {
          "internalType": "uint256[]",
          "name": "ids",
          "type": "uint256[]"
        }
      ],
      "name": "balanceOfBatch",
      "outputs": [
        {
          "internalType": "uint256[]",
          "name": "",
          "type": "uint256[]"
        }
      ],
      "stateMutability": "view",
      "type": "function"
    },
    {
      "inputs": [
        {
          "internalType": "uint256",
          "name": "id",
          "type": "uint256"
        }
      ],
      "name": "exists",
      "outputs": [
        {
          "internalType": "bool",
          "name": "",
          "type": "bool"
        }
      ],
      "stateMutability": "view",
      "type": "function"
    },
    {
      "inputs": [
        {
          "internalType": "uint256",
          "name": "_tokenId",
          "type": "uint256"
        }
      ],
      "name": "getDuration",
      "outputs": [
        {
          "internalType": "uint256",
          "name": "duration",
          "type": "uint256"
        }
      ],
      "stateMutability": "view",
      "type": "function"
    },
    {
      "inputs": [
        {
          "internalType": "address",
          "name": "account",
          "type": "address"
        },
        {
          "internalType": "address",
          "name": "operator",
          "type": "address"
        }
      ],
      "name": "isApprovedForAll",
      "outputs": [
        {
          "internalType": "bool",
          "name": "",
          "type": "bool"
        }
      ],
      "stateMutability": "view",
      "type": "function"
    },
    {
      "inputs": [
        {
          "internalType": "uint256",
          "name": "_duration",
          "type": "uint256"
        }
      ],
      "name": "mint",
      "outputs": [
        {
          "internalType": "uint256",
          "name": "",
          "type": "uint256"
        }
      ],
      "stateMutability": "nonpayable",
      "type": "function"
    },
    {
      "inputs": [
        {
          "internalType": "address",
          "name": "to",
          "type": "address"
        },
        {
          "internalType": "uint256[]",
          "name": "ids",
          "type": "uint256[]"
        },
        {
          "internalType": "uint256[]",
          "name": "amounts",
          "type": "uint256[]"
        },
        {
          "internalType": "bytes",
          "name": "data",
          "type": "bytes"
        }
      ],
      "name": "mintBatch",
      "outputs": [],
      "stateMutability": "nonpayable",
      "type": "function"
    },
    {
      "inputs": [],
      "name": "owner",
      "outputs": [
        {
          "internalType": "address",
          "name": "",
          "type": "address"
        }
      ],
      "stateMutability": "view",
      "type": "function"
    },
    {
      "inputs": [],
      "name": "pause",
      "outputs": [],
      "stateMutability": "nonpayable",
      "type": "function"
    },
    {
      "inputs": [],
      "name": "paused",
      "outputs": [
        {
          "internalType": "bool",
          "name": "",
          "type": "bool"
        }
      ],
      "stateMutability": "view",
      "type": "function"
    },
    {
      "inputs": [],
      "name": "renounceOwnership",
      "outputs": [],
      "stateMutability": "nonpayable",
      "type": "function"
    },
    {
      "inputs": [
        {
          "internalType": "address",
          "name": "from",
          "type": "address"
        },
        {
          "internalType": "address",
          "name": "to",
          "type": "address"
        },
        {
          "internalType": "uint256[]",
          "name": "ids",
          "type": "uint256[]"
        },
        {
          "internalType": "uint256[]",
          "name": "amounts",
          "type": "uint256[]"
        },
        {
          "internalType": "bytes",
          "name": "data",
          "type": "bytes"
        }
      ],
      "name": "safeBatchTransferFrom",
      "outputs": [],
      "stateMutability": "nonpayable",
      "type": "function"
    },
    {
      "inputs": [
        {
          "internalType": "address",
          "name": "from",
          "type": "address"
        },
        {
          "internalType": "address",
          "name": "to",
          "type": "address"
        },
        {
          "internalType": "uint256",
          "name": "id",
          "type": "uint256"
        },
        {
          "internalType": "uint256",
          "name": "amount",
          "type": "uint256"
        },
        {
          "internalType": "bytes",
          "name": "data",
          "type": "bytes"
        }
      ],
      "name": "safeTransferFrom",
      "outputs": [],
      "stateMutability": "nonpayable",
      "type": "function"
    },
    {
      "inputs": [
        {
          "internalType": "address",
          "name": "operator",
          "type": "address"
        },
        {
          "internalType": "bool",
          "name": "approved",
          "type": "bool"
        }
      ],
      "name": "setApprovalForAll",
      "outputs": [],
      "stateMutability": "nonpayable",
      "type": "function"
    },
    {
      "inputs": [
        {
          "internalType": "address",
          "name": "_houseAddress",
          "type": "address"
        }
      ],
      "name": "setHouseAddress",
      "outputs": [],
      "stateMutability": "nonpayable",
      "type": "function"
    },
    {
      "inputs": [
        {
          "internalType": "string",
          "name": "newuri",
          "type": "string"
        }
      ],
      "name": "setURI",
      "outputs": [],
      "stateMutability": "nonpayable",
      "type": "function"
    },
    {
      "inputs": [
        {
          "internalType": "bytes4",
          "name": "interfaceId",
          "type": "bytes4"
        }
      ],
      "name": "supportsInterface",
      "outputs": [
        {
          "internalType": "bool",
          "name": "",
          "type": "bool"
        }
      ],
      "stateMutability": "view",
      "type": "function"
    },
    {
      "inputs": [
        {
          "internalType": "uint256",
          "name": "id",
          "type": "uint256"
        }
      ],
      "name": "totalSupply",
      "outputs": [
        {
          "internalType": "uint256",
          "name": "",
          "type": "uint256"
        }
      ],
      "stateMutability": "view",
      "type": "function"
    },
    {
      "inputs": [
        {
          "internalType": "address",
          "name": "newOwner",
          "type": "address"
        }
      ],
      "name": "transferOwnership",
      "outputs": [],
      "stateMutability": "nonpayable",
      "type": "function"
    },
    {
      "inputs": [],
      "name": "unpause",
      "outputs": [],
      "stateMutability": "nonpayable",
      "type": "function"
    },
    {
      "inputs": [
        {
          "internalType": "uint256",
          "name": "_tokenId",
          "type": "uint256"
        },
        {
          "internalType": "uint256",
          "name": "_duration",
          "type": "uint256"
        }
      ],
      "name": "updateDuration",
      "outputs": [],
      "stateMutability": "payable",
      "type": "function"
    },
    {
      "inputs": [
        {
          "internalType": "uint256",
          "name": "",
          "type": "uint256"
        }
      ],
      "name": "uri",
      "outputs": [
        {
          "internalType": "string",
          "name": "",
          "type": "string"
        }
      ],
      "stateMutability": "view",
      "type": "function"
    }
  ],
  "bytecode": "0x60806040523480156200001157600080fd5b506040516200423138038062004231833981810160405281019062000037919062000233565b6040518060a0016040528060618152602001620041d0606191396200006281620000e660201b60201c565b506200008362000077620000fb60201b60201c565b6200010360201b60201c565b6000600360146101000a81548160ff02191690831515021790555080600760006101000a81548173ffffffffffffffffffffffffffffffffffffffff021916908373ffffffffffffffffffffffffffffffffffffffff16021790555050620005c6565b8060029081620000f79190620004df565b5050565b600033905090565b6000600360009054906101000a900473ffffffffffffffffffffffffffffffffffffffff16905081600360006101000a81548173ffffffffffffffffffffffffffffffffffffffff021916908373ffffffffffffffffffffffffffffffffffffffff1602179055508173ffffffffffffffffffffffffffffffffffffffff168173ffffffffffffffffffffffffffffffffffffffff167f8be0079c531659141344cd1fd0a4f28419497f9722a3daafe3b4186f6b6457e060405160405180910390a35050565b600080fd5b600073ffffffffffffffffffffffffffffffffffffffff82169050919050565b6000620001fb82620001ce565b9050919050565b6200020d81620001ee565b81146200021957600080fd5b50565b6000815190506200022d8162000202565b92915050565b6000602082840312156200024c576200024b620001c9565b5b60006200025c848285016200021c565b91505092915050565b600081519050919050565b7f4e487b7100000000000000000000000000000000000000000000000000000000600052604160045260246000fd5b7f4e487b7100000000000000000000000000000000000000000000000000000000600052602260045260246000fd5b60006002820490506001821680620002e757607f821691505b602082108103620002fd57620002fc6200029f565b5b50919050565b60008190508160005260206000209050919050565b60006020601f8301049050919050565b600082821b905092915050565b600060088302620003677fffffffffffffffffffffffffffffffffffffffffffffffffffffffffffffffff8262000328565b62000373868362000328565b95508019841693508086168417925050509392505050565b6000819050919050565b6000819050919050565b6000620003c0620003ba620003b4846200038b565b62000395565b6200038b565b9050919050565b6000819050919050565b620003dc836200039f565b620003f4620003eb82620003c7565b84845462000335565b825550505050565b600090565b6200040b620003fc565b62000418818484620003d1565b505050565b5b8181101562000440576200043460008262000401565b6001810190506200041e565b5050565b601f8211156200048f57620004598162000303565b620004648462000318565b8101602085101562000474578190505b6200048c620004838562000318565b8301826200041d565b50505b505050565b600082821c905092915050565b6000620004b46000198460080262000494565b1980831691505092915050565b6000620004cf8383620004a1565b9150826002028217905092915050565b620004ea8262000265565b67ffffffffffffffff81111562000506576200050562000270565b5b620005128254620002ce565b6200051f82828562000444565b600060209050601f83116001811462000557576000841562000542578287015190505b6200054e8582620004c1565b865550620005be565b601f198416620005678662000303565b60005b8281101562000591578489015182556001820191506020850194506020810190506200056a565b86831015620005b15784890151620005ad601f891682620004a1565b8355505b6001600288020188555050505b505050505050565b613bfa80620005d66000396000f3fe60806040526004361061014a5760003560e01c80638456cb59116100b6578063bd85b0391161006f578063bd85b03914610480578063d2d5f934146104bd578063e985e9c5146104fa578063ef3aaf5414610537578063f242432a14610560578063f2fde38b146105895761014a565b80638456cb59146103705780638aa4e473146103875780638bb126a7146103b25780638da5cb5b146103ef578063a0712d681461041a578063a22cb465146104575761014a565b80632eb2c2d6116101085780632eb2c2d6146102745780633f4ba83a1461029d5780634e1273f4146102b45780634f558e79146102f15780635c975abb1461032e578063715018a6146103595761014a565b8062fdd58e1461014f57806301ffc9a71461018c57806302fe5305146101c95780630e89341c146101f25780631f7fdffa1461022f5780632ad1f1db14610258575b600080fd5b34801561015b57600080fd5b506101766004803603810190610171919061230e565b6105b2565b604051610183919061235d565b60405180910390f35b34801561019857600080fd5b506101b360048036038101906101ae91906123d0565b61067a565b6040516101c09190612418565b60405180910390f35b3480156101d557600080fd5b506101f060048036038101906101eb9190612579565b61075c565b005b3480156101fe57600080fd5b50610219600480360381019061021491906125c2565b610770565b604051610226919061266e565b60405180910390f35b34801561023b57600080fd5b50610256600480360381019061025191906127f9565b610804565b005b610272600480360381019061026d91906128b4565b61081e565b005b34801561028057600080fd5b5061029b600480360381019061029691906128f4565b610859565b005b3480156102a957600080fd5b506102b26108fa565b005b3480156102c057600080fd5b506102db60048036038101906102d69190612a86565b61090c565b6040516102e89190612bbc565b60405180910390f35b3480156102fd57600080fd5b50610318600480360381019061031391906125c2565b610a25565b6040516103259190612418565b60405180910390f35b34801561033a57600080fd5b50610343610a39565b6040516103509190612418565b60405180910390f35b34801561036557600080fd5b5061036e610a50565b005b34801561037c57600080fd5b50610385610a64565b005b34801561039357600080fd5b5061039c610a76565b6040516103a99190612bed565b60405180910390f35b3480156103be57600080fd5b506103d960048036038101906103d491906125c2565b610a9c565b6040516103e6919061235d565b60405180910390f35b3480156103fb57600080fd5b50610404610abc565b6040516104119190612bed565b60405180910390f35b34801561042657600080fd5b50610441600480360381019061043c91906125c2565b610ae6565b60405161044e919061235d565b60405180910390f35b34801561046357600080fd5b5061047e60048036038101906104799190612c34565b610b7e565b005b34801561048c57600080fd5b506104a760048036038101906104a291906125c2565b610b94565b6040516104b4919061235d565b60405180910390f35b3480156104c957600080fd5b506104e460048036038101906104df91906125c2565b610bb1565b6040516104f1919061235d565b60405180910390f35b34801561050657600080fd5b50610521600480360381019061051c9190612c74565b610bcf565b60405161052e9190612418565b60405180910390f35b34801561054357600080fd5b5061055e60048036038101906105599190612cb4565b610c63565b005b34801561056c57600080fd5b5061058760048036038101906105829190612ce1565b610caf565b005b34801561059557600080fd5b506105b060048036038101906105ab9190612cb4565b610d50565b005b60008073ffffffffffffffffffffffffffffffffffffffff168373ffffffffffffffffffffffffffffffffffffffff1603610622576040517f08c379a000000000000000000000000000000000000000000000000000000000815260040161061990612dea565b60405180910390fd5b60008083815260200190815260200160002060008473ffffffffffffffffffffffffffffffffffffffff1673ffffffffffffffffffffffffffffffffffffffff16815260200190815260200160002054905092915050565b60007fd9b67a26000000000000000000000000000000000000000000000000000000007bffffffffffffffffffffffffffffffffffffffffffffffffffffffff1916827bffffffffffffffffffffffffffffffffffffffffffffffffffffffff1916148061074557507f0e89341c000000000000000000000000000000000000000000000000000000007bffffffffffffffffffffffffffffffffffffffffffffffffffffffff1916827bffffffffffffffffffffffffffffffffffffffffffffffffffffffff1916145b80610755575061075482610dd3565b5b9050919050565b610764610e3d565b61076d81610ebb565b50565b60606002805461077f90612e39565b80601f01602080910402602001604051908101604052809291908181526020018280546107ab90612e39565b80156107f85780601f106107cd576101008083540402835291602001916107f8565b820191906000526020600020905b8154815290600101906020018083116107db57829003601f168201915b50505050509050919050565b61080c610e3d565b61081884848484610ece565b50505050565b610826610e3d565b60405180602001604052808281525060066000848152602001908152602001600020600082015181600001559050505050565b6108616110fa565b73ffffffffffffffffffffffffffffffffffffffff168573ffffffffffffffffffffffffffffffffffffffff1614806108a757506108a6856108a16110fa565b610bcf565b5b6108e6576040517f08c379a00000000000000000000000000000000000000000000000000000000081526004016108dd90612edc565b60405180910390fd5b6108f38585858585611102565b5050505050565b610902610e3d565b61090a611423565b565b60608151835114610952576040517f08c379a000000000000000000000000000000000000000000000000000000000815260040161094990612f6e565b60405180910390fd5b6000835167ffffffffffffffff81111561096f5761096e61244e565b5b60405190808252806020026020018201604052801561099d5781602001602082028036833780820191505090505b50905060005b8451811015610a1a576109ea8582815181106109c2576109c1612f8e565b5b60200260200101518583815181106109dd576109dc612f8e565b5b60200260200101516105b2565b8282815181106109fd576109fc612f8e565b5b60200260200101818152505080610a1390612fec565b90506109a3565b508091505092915050565b600080610a3183610b94565b119050919050565b6000600360149054906101000a900460ff16905090565b610a58610e3d565b610a626000611486565b565b610a6c610e3d565b610a7461154c565b565b600760009054906101000a900473ffffffffffffffffffffffffffffffffffffffff1681565b600060066000838152602001908152602001600020600001549050919050565b6000600360009054906101000a900473ffffffffffffffffffffffffffffffffffffffff16905090565b6000610af0610e3d565b610afa60056115af565b6000610b0660056115c5565b9050610b46600760009054906101000a900473ffffffffffffffffffffffffffffffffffffffff16826001604051806020016040528060008152506115d3565b604051806020016040528084815250600660008381526020019081526020016000206000820151816000015590505080915050919050565b610b90610b896110fa565b8383611783565b5050565b600060046000838152602001908152602001600020549050919050565b60066020528060005260406000206000915090508060000154905081565b6000600160008473ffffffffffffffffffffffffffffffffffffffff1673ffffffffffffffffffffffffffffffffffffffff16815260200190815260200160002060008373ffffffffffffffffffffffffffffffffffffffff1673ffffffffffffffffffffffffffffffffffffffff16815260200190815260200160002060009054906101000a900460ff16905092915050565b610c6b610e3d565b80600760006101000a81548173ffffffffffffffffffffffffffffffffffffffff021916908373ffffffffffffffffffffffffffffffffffffffff16021790555050565b610cb76110fa565b73ffffffffffffffffffffffffffffffffffffffff168573ffffffffffffffffffffffffffffffffffffffff161480610cfd5750610cfc85610cf76110fa565b610bcf565b5b610d3c576040517f08c379a0000000000000000000000000000000000000000000000000000000008152600401610d3390612edc565b60405180910390fd5b610d4985858585856118ef565b5050505050565b610d58610e3d565b600073ffffffffffffffffffffffffffffffffffffffff168173ffffffffffffffffffffffffffffffffffffffff1603610dc7576040517f08c379a0000000000000000000000000000000000000000000000000000000008152600401610dbe906130a6565b60405180910390fd5b610dd081611486565b50565b60007f01ffc9a7000000000000000000000000000000000000000000000000000000007bffffffffffffffffffffffffffffffffffffffffffffffffffffffff1916827bffffffffffffffffffffffffffffffffffffffffffffffffffffffff1916149050919050565b610e456110fa565b73ffffffffffffffffffffffffffffffffffffffff16610e63610abc565b73ffffffffffffffffffffffffffffffffffffffff1614610eb9576040517f08c379a0000000000000000000000000000000000000000000000000000000008152600401610eb090613112565b60405180910390fd5b565b8060029081610eca91906132de565b5050565b600073ffffffffffffffffffffffffffffffffffffffff168473ffffffffffffffffffffffffffffffffffffffff1603610f3d576040517f08c379a0000000000000000000000000000000000000000000000000000000008152600401610f3490613422565b60405180910390fd5b8151835114610f81576040517f08c379a0000000000000000000000000000000000000000000000000000000008152600401610f78906134b4565b60405180910390fd5b6000610f8b6110fa565b9050610f9c81600087878787611b8a565b60005b845181101561105557838181518110610fbb57610fba612f8e565b5b6020026020010151600080878481518110610fd957610fd8612f8e565b5b6020026020010151815260200190815260200160002060008873ffffffffffffffffffffffffffffffffffffffff1673ffffffffffffffffffffffffffffffffffffffff168152602001908152602001600020600082825461103b91906134d4565b92505081905550808061104d90612fec565b915050610f9f565b508473ffffffffffffffffffffffffffffffffffffffff16600073ffffffffffffffffffffffffffffffffffffffff168273ffffffffffffffffffffffffffffffffffffffff167f4a39dc06d4c0dbc64b70af90fd698a233a518aa5d07e595d983b8c0526c8f7fb87876040516110cd929190613508565b60405180910390a46110e481600087878787611ba8565b6110f381600087878787611bb0565b5050505050565b600033905090565b8151835114611146576040517f08c379a000000000000000000000000000000000000000000000000000000000815260040161113d906134b4565b60405180910390fd5b600073ffffffffffffffffffffffffffffffffffffffff168473ffffffffffffffffffffffffffffffffffffffff16036111b5576040517f08c379a00000000000000000000000000000000000000000000000000000000081526004016111ac906135b1565b60405180910390fd5b60006111bf6110fa565b90506111cf818787878787611b8a565b60005b84518110156113805760008582815181106111f0576111ef612f8e565b5b60200260200101519050600085838151811061120f5761120e612f8e565b5b60200260200101519050600080600084815260200190815260200160002060008b73ffffffffffffffffffffffffffffffffffffffff1673ffffffffffffffffffffffffffffffffffffffff168152602001908152602001600020549050818110156112b0576040517f08c379a00000000000000000000000000000000000000000000000000000000081526004016112a790613643565b60405180910390fd5b81810360008085815260200190815260200160002060008c73ffffffffffffffffffffffffffffffffffffffff1673ffffffffffffffffffffffffffffffffffffffff168152602001908152602001600020819055508160008085815260200190815260200160002060008b73ffffffffffffffffffffffffffffffffffffffff1673ffffffffffffffffffffffffffffffffffffffff168152602001908152602001600020600082825461136591906134d4565b925050819055505050508061137990612fec565b90506111d2565b508473ffffffffffffffffffffffffffffffffffffffff168673ffffffffffffffffffffffffffffffffffffffff168273ffffffffffffffffffffffffffffffffffffffff167f4a39dc06d4c0dbc64b70af90fd698a233a518aa5d07e595d983b8c0526c8f7fb87876040516113f7929190613508565b60405180910390a461140d818787878787611ba8565b61141b818787878787611bb0565b505050505050565b61142b611d87565b6000600360146101000a81548160ff0219169083151502179055507f5db9ee0a495bf2e6ff9c91a7834c1ba4fdd244a5e8aa4e537bd38aeae4b073aa61146f6110fa565b60405161147c9190612bed565b60405180910390a1565b6000600360009054906101000a900473ffffffffffffffffffffffffffffffffffffffff16905081600360006101000a81548173ffffffffffffffffffffffffffffffffffffffff021916908373ffffffffffffffffffffffffffffffffffffffff1602179055508173ffffffffffffffffffffffffffffffffffffffff168173ffffffffffffffffffffffffffffffffffffffff167f8be0079c531659141344cd1fd0a4f28419497f9722a3daafe3b4186f6b6457e060405160405180910390a35050565b611554611dd0565b6001600360146101000a81548160ff0219169083151502179055507f62e78cea01bee320cd4e420270b5ea74000d11b0c9f74754ebdbfc544b05a2586115986110fa565b6040516115a59190612bed565b60405180910390a1565b6001816000016000828254019250508190555050565b600081600001549050919050565b600073ffffffffffffffffffffffffffffffffffffffff168473ffffffffffffffffffffffffffffffffffffffff1603611642576040517f08c379a000000000000000000000000000000000000000000000000000000000815260040161163990613422565b60405180910390fd5b600061164c6110fa565b9050600061165985611e1a565b9050600061166685611e1a565b905061167783600089858589611b8a565b8460008088815260200190815260200160002060008973ffffffffffffffffffffffffffffffffffffffff1673ffffffffffffffffffffffffffffffffffffffff16815260200190815260200160002060008282546116d691906134d4565b925050819055508673ffffffffffffffffffffffffffffffffffffffff16600073ffffffffffffffffffffffffffffffffffffffff168473ffffffffffffffffffffffffffffffffffffffff167fc3d58168c5ae7397731d063d5bbf3d657854427343f4c083240f7aacaa2d0f628989604051611754929190613663565b60405180910390a461176b83600089858589611ba8565b61177a83600089898989611e94565b50505050505050565b8173ffffffffffffffffffffffffffffffffffffffff168373ffffffffffffffffffffffffffffffffffffffff16036117f1576040517f08c379a00000000000000000000000000000000000000000000000000000000081526004016117e8906136fe565b60405180910390fd5b80600160008573ffffffffffffffffffffffffffffffffffffffff1673ffffffffffffffffffffffffffffffffffffffff16815260200190815260200160002060008473ffffffffffffffffffffffffffffffffffffffff1673ffffffffffffffffffffffffffffffffffffffff16815260200190815260200160002060006101000a81548160ff0219169083151502179055508173ffffffffffffffffffffffffffffffffffffffff168373ffffffffffffffffffffffffffffffffffffffff167f17307eab39ab6107e8899845ad3d59bd9653f200f220920489ca2b5937696c31836040516118e29190612418565b60405180910390a3505050565b600073ffffffffffffffffffffffffffffffffffffffff168473ffffffffffffffffffffffffffffffffffffffff160361195e576040517f08c379a0000000000000000000000000000000000000000000000000000000008152600401611955906135b1565b60405180910390fd5b60006119686110fa565b9050600061197585611e1a565b9050600061198285611e1a565b9050611992838989858589611b8a565b600080600088815260200190815260200160002060008a73ffffffffffffffffffffffffffffffffffffffff1673ffffffffffffffffffffffffffffffffffffffff16815260200190815260200160002054905085811015611a29576040517f08c379a0000000000000000000000000000000000000000000000000000000008152600401611a2090613643565b60405180910390fd5b85810360008089815260200190815260200160002060008b73ffffffffffffffffffffffffffffffffffffffff1673ffffffffffffffffffffffffffffffffffffffff168152602001908152602001600020819055508560008089815260200190815260200160002060008a73ffffffffffffffffffffffffffffffffffffffff1673ffffffffffffffffffffffffffffffffffffffff1681526020019081526020016000206000828254611ade91906134d4565b925050819055508773ffffffffffffffffffffffffffffffffffffffff168973ffffffffffffffffffffffffffffffffffffffff168573ffffffffffffffffffffffffffffffffffffffff167fc3d58168c5ae7397731d063d5bbf3d657854427343f4c083240f7aacaa2d0f628a8a604051611b5b929190613663565b60405180910390a4611b71848a8a86868a611ba8565b611b7f848a8a8a8a8a611e94565b505050505050505050565b611b92611dd0565b611ba086868686868661206b565b505050505050565b505050505050565b611bcf8473ffffffffffffffffffffffffffffffffffffffff1661223b565b15611d7f578373ffffffffffffffffffffffffffffffffffffffff1663bc197c8187878686866040518663ffffffff1660e01b8152600401611c15959493929190613773565b6020604051808303816000875af1925050508015611c5157506040513d601f19601f82011682018060405250810190611c4e91906137f0565b60015b611cf657611c5d61382a565b806308c379a003611cb95750611c7161384c565b80611c7c5750611cbb565b806040517f08c379a0000000000000000000000000000000000000000000000000000000008152600401611cb0919061266e565b60405180910390fd5b505b6040517f08c379a0000000000000000000000000000000000000000000000000000000008152600401611ced9061394e565b60405180910390fd5b63bc197c8160e01b7bffffffffffffffffffffffffffffffffffffffffffffffffffffffff1916817bffffffffffffffffffffffffffffffffffffffffffffffffffffffff191614611d7d576040517f08c379a0000000000000000000000000000000000000000000000000000000008152600401611d74906139e0565b60405180910390fd5b505b505050505050565b611d8f610a39565b611dce576040517f08c379a0000000000000000000000000000000000000000000000000000000008152600401611dc590613a4c565b60405180910390fd5b565b611dd8610a39565b15611e18576040517f08c379a0000000000000000000000000000000000000000000000000000000008152600401611e0f90613ab8565b60405180910390fd5b565b60606000600167ffffffffffffffff811115611e3957611e3861244e565b5b604051908082528060200260200182016040528015611e675781602001602082028036833780820191505090505b5090508281600081518110611e7f57611e7e612f8e565b5b60200260200101818152505080915050919050565b611eb38473ffffffffffffffffffffffffffffffffffffffff1661223b565b15612063578373ffffffffffffffffffffffffffffffffffffffff1663f23a6e6187878686866040518663ffffffff1660e01b8152600401611ef9959493929190613ad8565b6020604051808303816000875af1925050508015611f3557506040513d601f19601f82011682018060405250810190611f3291906137f0565b60015b611fda57611f4161382a565b806308c379a003611f9d5750611f5561384c565b80611f605750611f9f565b806040517f08c379a0000000000000000000000000000000000000000000000000000000008152600401611f94919061266e565b60405180910390fd5b505b6040517f08c379a0000000000000000000000000000000000000000000000000000000008152600401611fd19061394e565b60405180910390fd5b63f23a6e6160e01b7bffffffffffffffffffffffffffffffffffffffffffffffffffffffff1916817bffffffffffffffffffffffffffffffffffffffffffffffffffffffff191614612061576040517f08c379a0000000000000000000000000000000000000000000000000000000008152600401612058906139e0565b60405180910390fd5b505b505050505050565b61207986868686868661225e565b600073ffffffffffffffffffffffffffffffffffffffff168573ffffffffffffffffffffffffffffffffffffffff160361212a5760005b8351811015612128578281815181106120cc576120cb612f8e565b5b6020026020010151600460008684815181106120eb576120ea612f8e565b5b60200260200101518152602001908152602001600020600082825461211091906134d4565b925050819055508061212190612fec565b90506120b0565b505b600073ffffffffffffffffffffffffffffffffffffffff168473ffffffffffffffffffffffffffffffffffffffff16036122335760005b835181101561223157600084828151811061217f5761217e612f8e565b5b60200260200101519050600084838151811061219e5761219d612f8e565b5b6020026020010151905060006004600084815260200190815260200160002054905081811015612203576040517f08c379a00000000000000000000000000000000000000000000000000000000081526004016121fa90613ba4565b60405180910390fd5b81810360046000858152602001908152602001600020819055505050508061222a90612fec565b9050612161565b505b505050505050565b6000808273ffffffffffffffffffffffffffffffffffffffff163b119050919050565b505050505050565b6000604051905090565b600080fd5b600080fd5b600073ffffffffffffffffffffffffffffffffffffffff82169050919050565b60006122a58261227a565b9050919050565b6122b58161229a565b81146122c057600080fd5b50565b6000813590506122d2816122ac565b92915050565b6000819050919050565b6122eb816122d8565b81146122f657600080fd5b50565b600081359050612308816122e2565b92915050565b6000806040838503121561232557612324612270565b5b6000612333858286016122c3565b9250506020612344858286016122f9565b9150509250929050565b612357816122d8565b82525050565b6000602082019050612372600083018461234e565b92915050565b60007fffffffff0000000000000000000000000000000000000000000000000000000082169050919050565b6123ad81612378565b81146123b857600080fd5b50565b6000813590506123ca816123a4565b92915050565b6000602082840312156123e6576123e5612270565b5b60006123f4848285016123bb565b91505092915050565b60008115159050919050565b612412816123fd565b82525050565b600060208201905061242d6000830184612409565b92915050565b600080fd5b600080fd5b6000601f19601f8301169050919050565b7f4e487b7100000000000000000000000000000000000000000000000000000000600052604160045260246000fd5b6124868261243d565b810181811067ffffffffffffffff821117156124a5576124a461244e565b5b80604052505050565b60006124b8612266565b90506124c4828261247d565b919050565b600067ffffffffffffffff8211156124e4576124e361244e565b5b6124ed8261243d565b9050602081019050919050565b82818337600083830152505050565b600061251c612517846124c9565b6124ae565b90508281526020810184848401111561253857612537612438565b5b6125438482856124fa565b509392505050565b600082601f8301126125605761255f612433565b5b8135612570848260208601612509565b91505092915050565b60006020828403121561258f5761258e612270565b5b600082013567ffffffffffffffff8111156125ad576125ac612275565b5b6125b98482850161254b565b91505092915050565b6000602082840312156125d8576125d7612270565b5b60006125e6848285016122f9565b91505092915050565b600081519050919050565b600082825260208201905092915050565b60005b8381101561262957808201518184015260208101905061260e565b60008484015250505050565b6000612640826125ef565b61264a81856125fa565b935061265a81856020860161260b565b6126638161243d565b840191505092915050565b600060208201905081810360008301526126888184612635565b905092915050565b600067ffffffffffffffff8211156126ab576126aa61244e565b5b602082029050602081019050919050565b600080fd5b60006126d46126cf84612690565b6124ae565b905080838252602082019050602084028301858111156126f7576126f66126bc565b5b835b81811015612720578061270c88826122f9565b8452602084019350506020810190506126f9565b5050509392505050565b600082601f83011261273f5761273e612433565b5b813561274f8482602086016126c1565b91505092915050565b600067ffffffffffffffff8211156127735761277261244e565b5b61277c8261243d565b9050602081019050919050565b600061279c61279784612758565b6124ae565b9050828152602081018484840111156127b8576127b7612438565b5b6127c38482856124fa565b509392505050565b600082601f8301126127e0576127df612433565b5b81356127f0848260208601612789565b91505092915050565b6000806000806080858703121561281357612812612270565b5b6000612821878288016122c3565b945050602085013567ffffffffffffffff81111561284257612841612275565b5b61284e8782880161272a565b935050604085013567ffffffffffffffff81111561286f5761286e612275565b5b61287b8782880161272a565b925050606085013567ffffffffffffffff81111561289c5761289b612275565b5b6128a8878288016127cb565b91505092959194509250565b600080604083850312156128cb576128ca612270565b5b60006128d9858286016122f9565b92505060206128ea858286016122f9565b9150509250929050565b600080600080600060a086880312156129105761290f612270565b5b600061291e888289016122c3565b955050602061292f888289016122c3565b945050604086013567ffffffffffffffff8111156129505761294f612275565b5b61295c8882890161272a565b935050606086013567ffffffffffffffff81111561297d5761297c612275565b5b6129898882890161272a565b925050608086013567ffffffffffffffff8111156129aa576129a9612275565b5b6129b6888289016127cb565b9150509295509295909350565b600067ffffffffffffffff8211156129de576129dd61244e565b5b602082029050602081019050919050565b6000612a026129fd846129c3565b6124ae565b90508083825260208201905060208402830185811115612a2557612a246126bc565b5b835b81811015612a4e5780612a3a88826122c3565b845260208401935050602081019050612a27565b5050509392505050565b600082601f830112612a6d57612a6c612433565b5b8135612a7d8482602086016129ef565b91505092915050565b60008060408385031215612a9d57612a9c612270565b5b600083013567ffffffffffffffff811115612abb57612aba612275565b5b612ac785828601612a58565b925050602083013567ffffffffffffffff811115612ae857612ae7612275565b5b612af48582860161272a565b9150509250929050565b600081519050919050565b600082825260208201905092915050565b6000819050602082019050919050565b612b33816122d8565b82525050565b6000612b458383612b2a565b60208301905092915050565b6000602082019050919050565b6000612b6982612afe565b612b738185612b09565b9350612b7e83612b1a565b8060005b83811015612baf578151612b968882612b39565b9750612ba183612b51565b925050600181019050612b82565b5085935050505092915050565b60006020820190508181036000830152612bd68184612b5e565b905092915050565b612be78161229a565b82525050565b6000602082019050612c026000830184612bde565b92915050565b612c11816123fd565b8114612c1c57600080fd5b50565b600081359050612c2e81612c08565b92915050565b60008060408385031215612c4b57612c4a612270565b5b6000612c59858286016122c3565b9250506020612c6a85828601612c1f565b9150509250929050565b60008060408385031215612c8b57612c8a612270565b5b6000612c99858286016122c3565b9250506020612caa858286016122c3565b9150509250929050565b600060208284031215612cca57612cc9612270565b5b6000612cd8848285016122c3565b91505092915050565b600080600080600060a08688031215612cfd57612cfc612270565b5b6000612d0b888289016122c3565b9550506020612d1c888289016122c3565b9450506040612d2d888289016122f9565b9350506060612d3e888289016122f9565b925050608086013567ffffffffffffffff811115612d5f57612d5e612275565b5b612d6b888289016127cb565b9150509295509295909350565b7f455243313135353a2061646472657373207a65726f206973206e6f742061207660008201527f616c6964206f776e657200000000000000000000000000000000000000000000602082015250565b6000612dd4602a836125fa565b9150612ddf82612d78565b604082019050919050565b60006020820190508181036000830152612e0381612dc7565b9050919050565b7f4e487b7100000000000000000000000000000000000000000000000000000000600052602260045260246000fd5b60006002820490506001821680612e5157607f821691505b602082108103612e6457612e63612e0a565b5b50919050565b7f455243313135353a2063616c6c6572206973206e6f7420746f6b656e206f776e60008201527f6572206f7220617070726f766564000000000000000000000000000000000000602082015250565b6000612ec6602e836125fa565b9150612ed182612e6a565b604082019050919050565b60006020820190508181036000830152612ef581612eb9565b9050919050565b7f455243313135353a206163636f756e747320616e6420696473206c656e67746860008201527f206d69736d617463680000000000000000000000000000000000000000000000602082015250565b6000612f586029836125fa565b9150612f6382612efc565b604082019050919050565b60006020820190508181036000830152612f8781612f4b565b9050919050565b7f4e487b7100000000000000000000000000000000000000000000000000000000600052603260045260246000fd5b7f4e487b7100000000000000000000000000000000000000000000000000000000600052601160045260246000fd5b6000612ff7826122d8565b91507fffffffffffffffffffffffffffffffffffffffffffffffffffffffffffffffff820361302957613028612fbd565b5b600182019050919050565b7f4f776e61626c653a206e6577206f776e657220697320746865207a65726f206160008201527f6464726573730000000000000000000000000000000000000000000000000000602082015250565b60006130906026836125fa565b915061309b82613034565b604082019050919050565b600060208201905081810360008301526130bf81613083565b9050919050565b7f4f776e61626c653a2063616c6c6572206973206e6f7420746865206f776e6572600082015250565b60006130fc6020836125fa565b9150613107826130c6565b602082019050919050565b6000602082019050818103600083015261312b816130ef565b9050919050565b60008190508160005260206000209050919050565b60006020601f8301049050919050565b600082821b905092915050565b6000600883026131947fffffffffffffffffffffffffffffffffffffffffffffffffffffffffffffffff82613157565b61319e8683613157565b95508019841693508086168417925050509392505050565b6000819050919050565b60006131db6131d66131d1846122d8565b6131b6565b6122d8565b9050919050565b6000819050919050565b6131f5836131c0565b613209613201826131e2565b848454613164565b825550505050565b600090565b61321e613211565b6132298184846131ec565b505050565b5b8181101561324d57613242600082613216565b60018101905061322f565b5050565b601f8211156132925761326381613132565b61326c84613147565b8101602085101561327b578190505b61328f61328785613147565b83018261322e565b50505b505050565b600082821c905092915050565b60006132b560001984600802613297565b1980831691505092915050565b60006132ce83836132a4565b9150826002028217905092915050565b6132e7826125ef565b67ffffffffffffffff811115613300576132ff61244e565b5b61330a8254612e39565b613315828285613251565b600060209050601f8311600181146133485760008415613336578287015190505b61334085826132c2565b8655506133a8565b601f19841661335686613132565b60005b8281101561337e57848901518255600182019150602085019450602081019050613359565b8683101561339b5784890151613397601f8916826132a4565b8355505b6001600288020188555050505b505050505050565b7f455243313135353a206d696e7420746f20746865207a65726f2061646472657360008201527f7300000000000000000000000000000000000000000000000000000000000000602082015250565b600061340c6021836125fa565b9150613417826133b0565b604082019050919050565b6000602082019050818103600083015261343b816133ff565b9050919050565b7f455243313135353a2069647320616e6420616d6f756e7473206c656e6774682060008201527f6d69736d61746368000000000000000000000000000000000000000000000000602082015250565b600061349e6028836125fa565b91506134a982613442565b604082019050919050565b600060208201905081810360008301526134cd81613491565b9050919050565b60006134df826122d8565b91506134ea836122d8565b925082820190508082111561350257613501612fbd565b5b92915050565b600060408201905081810360008301526135228185612b5e565b905081810360208301526135368184612b5e565b90509392505050565b7f455243313135353a207472616e7366657220746f20746865207a65726f20616460008201527f6472657373000000000000000000000000000000000000000000000000000000602082015250565b600061359b6025836125fa565b91506135a68261353f565b604082019050919050565b600060208201905081810360008301526135ca8161358e565b9050919050565b7f455243313135353a20696e73756666696369656e742062616c616e636520666f60008201527f72207472616e7366657200000000000000000000000000000000000000000000602082015250565b600061362d602a836125fa565b9150613638826135d1565b604082019050919050565b6000602082019050818103600083015261365c81613620565b9050919050565b6000604082019050613678600083018561234e565b613685602083018461234e565b9392505050565b7f455243313135353a2073657474696e6720617070726f76616c2073746174757360008201527f20666f722073656c660000000000000000000000000000000000000000000000602082015250565b60006136e86029836125fa565b91506136f38261368c565b604082019050919050565b60006020820190508181036000830152613717816136db565b9050919050565b600081519050919050565b600082825260208201905092915050565b60006137458261371e565b61374f8185613729565b935061375f81856020860161260b565b6137688161243d565b840191505092915050565b600060a0820190506137886000830188612bde565b6137956020830187612bde565b81810360408301526137a78186612b5e565b905081810360608301526137bb8185612b5e565b905081810360808301526137cf818461373a565b90509695505050505050565b6000815190506137ea816123a4565b92915050565b60006020828403121561380657613805612270565b5b6000613814848285016137db565b91505092915050565b60008160e01c9050919050565b600060033d11156138495760046000803e61384660005161381d565b90505b90565b600060443d106138d95761385e612266565b60043d036004823e80513d602482011167ffffffffffffffff821117156138865750506138d9565b808201805167ffffffffffffffff8111156138a457505050506138d9565b80602083010160043d0385018111156138c15750505050506138d9565b6138d08260200185018661247d565b82955050505050505b90565b7f455243313135353a207472616e7366657220746f206e6f6e2d4552433131353560008201527f526563656976657220696d706c656d656e746572000000000000000000000000602082015250565b60006139386034836125fa565b9150613943826138dc565b604082019050919050565b600060208201905081810360008301526139678161392b565b9050919050565b7f455243313135353a204552433131353552656365697665722072656a6563746560008201527f6420746f6b656e73000000000000000000000000000000000000000000000000602082015250565b60006139ca6028836125fa565b91506139d58261396e565b604082019050919050565b600060208201905081810360008301526139f9816139bd565b9050919050565b7f5061757361626c653a206e6f7420706175736564000000000000000000000000600082015250565b6000613a366014836125fa565b9150613a4182613a00565b602082019050919050565b60006020820190508181036000830152613a6581613a29565b9050919050565b7f5061757361626c653a2070617573656400000000000000000000000000000000600082015250565b6000613aa26010836125fa565b9150613aad82613a6c565b602082019050919050565b60006020820190508181036000830152613ad181613a95565b9050919050565b600060a082019050613aed6000830188612bde565b613afa6020830187612bde565b613b07604083018661234e565b613b14606083018561234e565b8181036080830152613b26818461373a565b90509695505050505050565b7f455243313135353a206275726e20616d6f756e74206578636565647320746f7460008201527f616c537570706c79000000000000000000000000000000000000000000000000602082015250565b6000613b8e6028836125fa565b9150613b9982613b32565b604082019050919050565b60006020820190508181036000830152613bbd81613b81565b905091905056fea2646970667358221220628d6e5cd4030f7a712938e9884a69ec247d7c4158641f7e8a6d9fef8607072b64736f6c6343000812003368747470733a2f2f666972656261736573746f726167652e676f6f676c65617069732e636f6d2f76302f622f6e7531306e6674732e61707073706f742e636f6d2f6f2f6d657461646174612532467b69647d2e6a736f6e3f616c743d6d65646961",
  "linkReferences": {},
  "deployedLinkReferences": {}
}