{
  "_format": "hh-sol-artifact-1",
  "contractName": "Offer",
  "sourceName": "contracts/offer.sol",
  "abi": [
    {
      "inputs": [
        {
          "internalType": "address",
          "name": "sncAddress",
          "type": "address"
        },
        {
          "internalType": "address",
          "name": "nftAddress",
          "type": "address"
        },
        {
          "internalType": "address",
          "name": "_changeFee",
          "type": "address"
        },
        {
          "internalType": "uint256",
          "name": "buyerFee",
          "type": "uint256"
        },
        {
          "internalType": "uint256",
          "name": "sellerFee",
          "type": "uint256"
        }
      ],
      "stateMutability": "nonpayable",
      "type": "constructor"
    },
    {
      "anonymous": false,
      "inputs": [
        {
          "indexed": true,
          "internalType": "address",
          "name": "oldOwner",
          "type": "address"
        },
        {
          "indexed": true,
          "internalType": "address",
          "name": "newOwner",
          "type": "address"
        }
      ],
      "name": "OwnerSet",
      "type": "event"
    },
    {
      "anonymous": false,
      "inputs": [
        {
          "indexed": false,
          "internalType": "uint256",
          "name": "offerId",
          "type": "uint256"
        },
        {
          "indexed": false,
          "internalType": "address",
          "name": "buyer",
          "type": "address"
        },
        {
          "indexed": false,
          "internalType": "uint256",
          "name": "price",
          "type": "uint256"
        }
      ],
      "name": "acceptedOffer",
      "type": "event"
    },
    {
      "anonymous": false,
      "inputs": [
        {
          "indexed": false,
          "internalType": "uint256",
          "name": "tokenId",
          "type": "uint256"
        },
        {
          "indexed": false,
          "internalType": "address",
          "name": "seller",
          "type": "address"
        }
      ],
      "name": "cancelAllOffer",
      "type": "event"
    },
    {
      "anonymous": false,
      "inputs": [
        {
          "indexed": false,
          "internalType": "uint256",
          "name": "offerId",
          "type": "uint256"
        },
        {
          "indexed": false,
          "internalType": "address",
          "name": "buyer",
          "type": "address"
        },
        {
          "indexed": false,
          "internalType": "string",
          "name": "cancelType",
          "type": "string"
        }
      ],
      "name": "cancelOffer",
      "type": "event"
    },
    {
      "anonymous": false,
      "inputs": [
        {
          "indexed": false,
          "internalType": "uint256",
          "name": "newFee",
          "type": "uint256"
        },
        {
          "indexed": false,
          "internalType": "string",
          "name": "_type",
          "type": "string"
        }
      ],
      "name": "changeFee",
      "type": "event"
    },
    {
      "anonymous": false,
      "inputs": [
        {
          "indexed": false,
          "internalType": "uint256",
          "name": "tokenId",
          "type": "uint256"
        },
        {
          "indexed": false,
          "internalType": "uint256",
          "name": "offerId",
          "type": "uint256"
        },
        {
          "indexed": false,
          "internalType": "address",
          "name": "buyer",
          "type": "address"
        },
        {
          "indexed": false,
          "internalType": "uint256",
          "name": "duration",
          "type": "uint256"
        }
      ],
      "name": "expiredOffer",
      "type": "event"
    },
    {
      "anonymous": false,
      "inputs": [
        {
          "indexed": false,
          "internalType": "address",
          "name": "buyer",
          "type": "address"
        },
        {
          "indexed": false,
          "internalType": "uint256",
          "name": "amount",
          "type": "uint256"
        },
        {
          "indexed": false,
          "internalType": "uint256",
          "name": "duration",
          "type": "uint256"
        },
        {
          "indexed": false,
          "internalType": "uint256",
          "name": "tokenId",
          "type": "uint256"
        }
      ],
      "name": "newOffer",
      "type": "event"
    },
    {
      "inputs": [],
      "name": "BUYER_FEE_PERCENT",
      "outputs": [
        {
          "internalType": "uint256",
          "name": "",
          "type": "uint256"
        }
      ],
      "stateMutability": "view",
      "type": "function"
    },
    {
      "inputs": [],
      "name": "CHANGE_FEE",
      "outputs": [
        {
          "internalType": "address",
          "name": "",
          "type": "address"
        }
      ],
      "stateMutability": "view",
      "type": "function"
    },
    {
      "inputs": [],
      "name": "NFT_ADDRESS",
      "outputs": [
        {
          "internalType": "address",
          "name": "",
          "type": "address"
        }
      ],
      "stateMutability": "view",
      "type": "function"
    },
    {
      "inputs": [
        {
          "internalType": "uint256",
          "name": "",
          "type": "uint256"
        },
        {
          "internalType": "uint256",
          "name": "",
          "type": "uint256"
        }
      ],
      "name": "NFT_OFFERS",
      "outputs": [
        {
          "internalType": "uint256",
          "name": "offerId",
          "type": "uint256"
        },
        {
          "internalType": "uint256",
          "name": "price",
          "type": "uint256"
        },
        {
          "internalType": "uint256",
          "name": "tokenId",
          "type": "uint256"
        },
        {
          "internalType": "uint256",
          "name": "duration",
          "type": "uint256"
        },
        {
          "internalType": "address",
          "name": "buyer",
          "type": "address"
        },
        {
          "internalType": "address",
          "name": "seller",
          "type": "address"
        },
        {
          "internalType": "address",
          "name": "escrow",
          "type": "address"
        }
      ],
      "stateMutability": "view",
      "type": "function"
    },
    {
      "inputs": [
        {
          "internalType": "uint256",
          "name": "",
          "type": "uint256"
        }
      ],
      "name": "NFT_OFFER_COMPLETED",
      "outputs": [
        {
          "internalType": "bool",
          "name": "",
          "type": "bool"
        }
      ],
      "stateMutability": "view",
      "type": "function"
    },
    {
      "inputs": [],
      "name": "SELLER_FEE_PERCENT",
      "outputs": [
        {
          "internalType": "uint256",
          "name": "",
          "type": "uint256"
        }
      ],
      "stateMutability": "view",
      "type": "function"
    },
    {
      "inputs": [],
      "name": "SNC_ADDRESS",
      "outputs": [
        {
          "internalType": "address",
          "name": "",
          "type": "address"
        }
      ],
      "stateMutability": "view",
      "type": "function"
    },
    {
      "inputs": [
        {
          "internalType": "uint256",
          "name": "tokenId",
          "type": "uint256"
        },
        {
          "internalType": "uint256",
          "name": "offerId",
          "type": "uint256"
        },
        {
          "internalType": "address",
          "name": "seller",
          "type": "address"
        },
        {
          "internalType": "bool",
          "name": "forceReject",
          "type": "bool"
        }
      ],
      "name": "acceptOffer",
      "outputs": [
        {
          "internalType": "bool",
          "name": "",
          "type": "bool"
        }
      ],
      "stateMutability": "nonpayable",
      "type": "function"
    },
    {
      "inputs": [
        {
          "internalType": "uint256",
          "name": "tokenId",
          "type": "uint256"
        }
      ],
      "name": "cancelAll",
      "outputs": [
        {
          "internalType": "bool",
          "name": "",
          "type": "bool"
        }
      ],
      "stateMutability": "nonpayable",
      "type": "function"
    },
    {
      "inputs": [
        {
          "internalType": "address",
          "name": "buyer",
          "type": "address"
        },
        {
          "internalType": "uint256",
          "name": "tokenId",
          "type": "uint256"
        }
      ],
      "name": "cancelOfferBuyer",
      "outputs": [
        {
          "internalType": "bool",
          "name": "",
          "type": "bool"
        }
      ],
      "stateMutability": "nonpayable",
      "type": "function"
    },
    {
      "inputs": [
        {
          "internalType": "uint256",
          "name": "tokenId",
          "type": "uint256"
        },
        {
          "internalType": "uint256",
          "name": "offerId",
          "type": "uint256"
        },
        {
          "internalType": "address",
          "name": "seller",
          "type": "address"
        }
      ],
      "name": "cancelOfferSeller",
      "outputs": [
        {
          "internalType": "bool",
          "name": "",
          "type": "bool"
        }
      ],
      "stateMutability": "nonpayable",
      "type": "function"
    },
    {
      "inputs": [
        {
          "internalType": "address",
          "name": "newOwner",
          "type": "address"
        }
      ],
      "name": "changeOwner",
      "outputs": [],
      "stateMutability": "nonpayable",
      "type": "function"
    },
    {
      "inputs": [
        {
          "internalType": "address",
          "name": "buyer",
          "type": "address"
        },
        {
          "internalType": "uint256",
          "name": "tokenId",
          "type": "uint256"
        }
      ],
      "name": "checkIfOfferMade",
      "outputs": [
        {
          "internalType": "bool",
          "name": "",
          "type": "bool"
        },
        {
          "internalType": "uint256",
          "name": "",
          "type": "uint256"
        }
      ],
      "stateMutability": "view",
      "type": "function"
    },
    {
      "inputs": [],
      "name": "getOwner",
      "outputs": [
        {
          "internalType": "address",
          "name": "",
          "type": "address"
        }
      ],
      "stateMutability": "view",
      "type": "function"
    },
    {
      "inputs": [
        {
          "internalType": "uint256",
          "name": "tokenId",
          "type": "uint256"
        },
        {
          "internalType": "uint256",
          "name": "offerPrice",
          "type": "uint256"
        },
        {
          "internalType": "uint256",
          "name": "duration",
          "type": "uint256"
        },
        {
          "internalType": "address",
          "name": "buyerAddress",
          "type": "address"
        },
        {
          "internalType": "address",
          "name": "seller",
          "type": "address"
        },
        {
          "internalType": "uint256",
          "name": "buyerFee",
          "type": "uint256"
        }
      ],
      "name": "makeOffer",
      "outputs": [
        {
          "internalType": "uint256",
          "name": "",
          "type": "uint256"
        }
      ],
      "stateMutability": "nonpayable",
      "type": "function"
    },
    {
      "inputs": [
        {
          "internalType": "uint256",
          "name": "tokenId",
          "type": "uint256"
        },
        {
          "internalType": "uint256",
          "name": "offerId",
          "type": "uint256"
        }
      ],
      "name": "monitorNftOffer",
      "outputs": [
        {
          "internalType": "bool",
          "name": "",
          "type": "bool"
        }
      ],
      "stateMutability": "nonpayable",
      "type": "function"
    },
    {
      "inputs": [
        {
          "internalType": "uint256",
          "name": "feePercent",
          "type": "uint256"
        }
      ],
      "name": "setBuyerFee",
      "outputs": [
        {
          "internalType": "bool",
          "name": "",
          "type": "bool"
        }
      ],
      "stateMutability": "nonpayable",
      "type": "function"
    },
    {
      "inputs": [
        {
          "internalType": "uint256",
          "name": "feePercent",
          "type": "uint256"
        }
      ],
      "name": "setSellerFee",
      "outputs": [
        {
          "internalType": "bool",
          "name": "",
          "type": "bool"
        }
      ],
      "stateMutability": "nonpayable",
      "type": "function"
    },
    {
      "inputs": [
        {
          "internalType": "uint256",
          "name": "tokenId",
          "type": "uint256"
        }
      ],
      "name": "viewAllOffer",
      "outputs": [
        {
          "components": [
            {
              "internalType": "uint256",
              "name": "offerId",
              "type": "uint256"
            },
            {
              "internalType": "uint256",
              "name": "price",
              "type": "uint256"
            },
            {
              "internalType": "uint256",
              "name": "tokenId",
              "type": "uint256"
            },
            {
              "internalType": "uint256",
              "name": "duration",
              "type": "uint256"
            },
            {
              "internalType": "address",
              "name": "buyer",
              "type": "address"
            },
            {
              "internalType": "address",
              "name": "seller",
              "type": "address"
            },
            {
              "internalType": "address",
              "name": "escrow",
              "type": "address"
            }
          ],
          "internalType": "struct Offer.offer[]",
          "name": "",
          "type": "tuple[]"
        }
      ],
      "stateMutability": "view",
      "type": "function"
    }
  ],
  "bytecode": "0x60806040523480156200001157600080fd5b5060405162005ad938038062005ad9833981810160405281019062000037919062000503565b336000806101000a81548173ffffffffffffffffffffffffffffffffffffffff021916908373ffffffffffffffffffffffffffffffffffffffff16021790555060008054906101000a900473ffffffffffffffffffffffffffffffffffffffff1673ffffffffffffffffffffffffffffffffffffffff16600073ffffffffffffffffffffffffffffffffffffffff167f342827c97908e5e2f71151c08502a66d44b6f758e3ac2f1de95f02eb95f0a73560405160405180910390a384600660006101000a81548173ffffffffffffffffffffffffffffffffffffffff021916908373ffffffffffffffffffffffffffffffffffffffff16021790555083600760006101000a81548173ffffffffffffffffffffffffffffffffffffffff021916908373ffffffffffffffffffffffffffffffffffffffff16021790555082600360006101000a81548173ffffffffffffffffffffffffffffffffffffffff021916908373ffffffffffffffffffffffffffffffffffffffff16021790555084600160006101000a81548173ffffffffffffffffffffffffffffffffffffffff021916908373ffffffffffffffffffffffffffffffffffffffff16021790555083600260006101000a81548173ffffffffffffffffffffffffffffffffffffffff021916908373ffffffffffffffffffffffffffffffffffffffff1602179055508160058190555080600481905550336000806101000a81548173ffffffffffffffffffffffffffffffffffffffff021916908373ffffffffffffffffffffffffffffffffffffffff1602179055506000600660009054906101000a900473ffffffffffffffffffffffffffffffffffffffff1673ffffffffffffffffffffffffffffffffffffffff166370a08231306040518263ffffffff1660e01b8152600401620002e491906200059c565b602060405180830381865afa15801562000302573d6000803e3d6000fd5b505050506040513d601f19601f82011682018060405250810190620003289190620005b9565b146200036b576040517f08c379a0000000000000000000000000000000000000000000000000000000008152600401620003629062000672565b60405180910390fd5b6000600760009054906101000a900473ffffffffffffffffffffffffffffffffffffffff1673ffffffffffffffffffffffffffffffffffffffff1662fdd58e3060006040518363ffffffff1660e01b8152600401620003cc929190620006e1565b602060405180830381865afa158015620003ea573d6000803e3d6000fd5b505050506040513d601f19601f82011682018060405250810190620004109190620005b9565b1462000453576040517f08c379a00000000000000000000000000000000000000000000000000000000081526004016200044a906200075e565b60405180910390fd5b505050505062000780565b600080fd5b600073ffffffffffffffffffffffffffffffffffffffff82169050919050565b6000620004908262000463565b9050919050565b620004a28162000483565b8114620004ae57600080fd5b50565b600081519050620004c28162000497565b92915050565b6000819050919050565b620004dd81620004c8565b8114620004e957600080fd5b50565b600081519050620004fd81620004d2565b92915050565b600080600080600060a086880312156200052257620005216200045e565b5b60006200053288828901620004b1565b95505060206200054588828901620004b1565b94505060406200055888828901620004b1565b93505060606200056b88828901620004ec565b92505060806200057e88828901620004ec565b9150509295509295909350565b620005968162000483565b82525050565b6000602082019050620005b360008301846200058b565b92915050565b600060208284031215620005d257620005d16200045e565b5b6000620005e284828501620004ec565b91505092915050565b600082825260208201905092915050565b7f496e76616c696420455243323020534e4320436f6e747261637420616464726560008201527f7373000000000000000000000000000000000000000000000000000000000000602082015250565b60006200065a602283620005eb565b91506200066782620005fc565b604082019050919050565b600060208201905081810360008301526200068d816200064b565b9050919050565b6000819050919050565b6000819050919050565b6000620006c9620006c3620006bd8462000694565b6200069e565b620004c8565b9050919050565b620006db81620006a8565b82525050565b6000604082019050620006f860008301856200058b565b620007076020830184620006d0565b9392505050565b7f496e76616c6964204e465420436f6e7472616374000000000000000000000000600082015250565b600062000746601483620005eb565b915062000753826200070e565b602082019050919050565b60006020820190508181036000830152620007798162000737565b9050919050565b61534980620007906000396000f3fe60806040523480156200001157600080fd5b50600436106200013c5760003560e01c8063652c884311620000bd578063a6f9dae1116200007b578063a6f9dae114620003ec578063b32c5c45146200040c578063bfa5d42d146200042e578063cf0a80851462000464578063fa7da19d1462000486576200013c565b8063652c8843146200032e5780637142bb8d14620003505780637ec775ed1462000386578063893d20e814620003a85780639e580dbe14620003ca576200013c565b8063217df120116200010b578063217df120146200021a5780633d1f837314620002505780634f663a4e146200028c578063513969c714620002c257806360a8899e14620002f8576200013c565b80630cc4b47d1462000141578063146fce32146200017757806315eaa5f814620001ad5780631bfee12114620001e4575b600080fd5b6200015f600480360381019062000159919062002b4e565b620004bc565b6040516200016e919062002bc7565b60405180910390f35b6200019560048036038101906200018f919062002be4565b62000707565b604051620001a4919062002bc7565b60405180910390f35b620001cb6004803603810190620001c5919062002c16565b62000974565b604051620001db92919062002c6e565b60405180910390f35b620002026004803603810190620001fc919062002be4565b62000a5a565b60405162000211919062002bc7565b60405180910390f35b62000238600480360381019062000232919062002be4565b62000b7d565b60405162000247919062002bc7565b60405180910390f35b6200026e600480360381019062000268919062002c9b565b62000b9d565b60405162000283979695949392919062002cf3565b60405180910390f35b620002aa6004803603810190620002a4919062002d70565b62000c5d565b604051620002b9919062002e0c565b60405180910390f35b620002e06004803603810190620002da919062002c9b565b6200115d565b604051620002ef919062002bc7565b60405180910390f35b62000316600480360381019062000310919062002be4565b62001299565b60405162000325919062002fa4565b60405180910390f35b6200033862001437565b60405162000347919062002fc8565b60405180910390f35b6200036e600480360381019062000368919062003016565b6200145d565b6040516200037d919062002bc7565b60405180910390f35b6200039062001df9565b6040516200039f919062002fc8565b60405180910390f35b620003b262001e1f565b604051620003c1919062002fc8565b60405180910390f35b620003d462001e48565b604051620003e3919062002e0c565b60405180910390f35b6200040a600480360381019062000404919062003088565b62001e4e565b005b6200041662001f9c565b60405162000425919062002fc8565b60405180910390f35b6200044c600480360381019062000446919062002c16565b62001fc2565b6040516200045b919062002bc7565b60405180910390f35b6200046e62002071565b6040516200047d919062002e0c565b60405180910390f35b620004a460048036038101906200049e919062002be4565b62002077565b604051620004b3919062002bc7565b60405180910390f35b60008073ffffffffffffffffffffffffffffffffffffffff16600860008681526020019081526020016000208481548110620004fd57620004fc620030ba565b5b906000526020600020906007020160040160009054906101000a900473ffffffffffffffffffffffffffffffffffffffff1673ffffffffffffffffffffffffffffffffffffffff160362000588576040517f08c379a00000000000000000000000000000000000000000000000000000000081526004016200057f906200314a565b60405180910390fd5b8173ffffffffffffffffffffffffffffffffffffffff16600860008681526020019081526020016000208481548110620005c757620005c6620030ba565b5b906000526020600020906007020160050160009054906101000a900473ffffffffffffffffffffffffffffffffffffffff1673ffffffffffffffffffffffffffffffffffffffff161462000652576040517f08c379a00000000000000000000000000000000000000000000000000000000081526004016200064990620031e2565b60405180910390fd5b60006008600086815260200190815260200160002084815481106200067c576200067b620030ba565b5b906000526020600020906007020160040160009054906101000a900473ffffffffffffffffffffffffffffffffffffffff169050620006bf85858360016200219a565b507f0d6032776afded2c5b6c20c518992c74c512297654f179ddf79620beca2248e68482604051620006f392919062003254565b60405180910390a160019150509392505050565b600080600860008481526020019081526020016000208054905011156200096b5760086000838152602001908152602001600020600081548110620007515762000750620030ba565b5b906000526020600020906007020160050160009054906101000a900473ffffffffffffffffffffffffffffffffffffffff1673ffffffffffffffffffffffffffffffffffffffff163373ffffffffffffffffffffffffffffffffffffffff1614620007f3576040517f08c379a0000000000000000000000000000000000000000000000000000000008152600401620007ea90620032e6565b60405180910390fd5b600080600090505b600860008581526020019081526020016000208054905081116200092d57600073ffffffffffffffffffffffffffffffffffffffff16600860008681526020019081526020016000206000815481106200085a5762000859620030ba565b5b906000526020600020906007020160040160009054906101000a900473ffffffffffffffffffffffffffffffffffffffff1673ffffffffffffffffffffffffffffffffffffffff1614620009175760086000858152602001908152602001600020600081548110620008d157620008d0620030ba565b5b906000526020600020906007020160040160009054906101000a900473ffffffffffffffffffffffffffffffffffffffff169150620009158460008460016200219a565b505b8080620009249062003337565b915050620007fb565b507fa323919c4a213965285bde415962e51c1c8661cc2190ea2c5c33d3e41cfc1b9483336040516200096192919062003384565b60405180910390a1505b60019050919050565b60008060005b600860008581526020019081526020016000208054905081101562000a4a578473ffffffffffffffffffffffffffffffffffffffff16600860008681526020019081526020016000208281548110620009d857620009d7620030ba565b5b906000526020600020906007020160040160009054906101000a900473ffffffffffffffffffffffffffffffffffffffff1673ffffffffffffffffffffffffffffffffffffffff160362000a3457600181925092505062000a53565b808062000a419062003337565b9150506200097a565b50600080915091505b9250929050565b60008060009054906101000a900473ffffffffffffffffffffffffffffffffffffffff1673ffffffffffffffffffffffffffffffffffffffff163373ffffffffffffffffffffffffffffffffffffffff161462000aee576040517f08c379a000000000000000000000000000000000000000000000000000000000815260040162000ae59062003401565b60405180910390fd5b6000821162000b34576040517f08c379a000000000000000000000000000000000000000000000000000000000815260040162000b2b9062003473565b60405180910390fd5b816004819055507fcfbf529b549d5a8851c7cb749d69134057323acbc44e369f97f3600c719f40a88260405162000b6c9190620034e5565b60405180910390a160019050919050565b60096020528060005260406000206000915054906101000a900460ff1681565b6008602052816000526040600020818154811062000bba57600080fd5b9060005260206000209060070201600091509150508060000154908060010154908060020154908060030154908060040160009054906101000a900473ffffffffffffffffffffffffffffffffffffffff16908060050160009054906101000a900473ffffffffffffffffffffffffffffffffffffffff16908060060160009054906101000a900473ffffffffffffffffffffffffffffffffffffffff16905087565b60008062000c6c858962000974565b509050801562000cb3576040517f08c379a000000000000000000000000000000000000000000000000000000000815260040162000caa9062003567565b60405180910390fd5b828762000cc1919062003589565b600660009054906101000a900473ffffffffffffffffffffffffffffffffffffffff1673ffffffffffffffffffffffffffffffffffffffff166370a08231876040518263ffffffff1660e01b815260040162000d1e919062002fc8565b602060405180830381865afa15801562000d3c573d6000803e3d6000fd5b505050506040513d601f19601f8201168201806040525081019062000d629190620035db565b101562000da6576040517f08c379a000000000000000000000000000000000000000000000000000000000815260040162000d9d9062003683565b60405180910390fd5b85421062000deb576040517f08c379a000000000000000000000000000000000000000000000000000000000815260040162000de290620036f5565b60405180910390fd5b6000600260009054906101000a900473ffffffffffffffffffffffffffffffffffffffff1689600160009054906101000a900473ffffffffffffffffffffffffffffffffffffffff1660405162000e429062002a9b565b62000e509392919062003717565b604051809103906000f08015801562000e6d573d6000803e3d6000fd5b509050600860008a81526020019081526020016000206040518060e00160405280600860008d81526020019081526020016000208054905081526020018a81526020018b81526020018981526020018873ffffffffffffffffffffffffffffffffffffffff1681526020018773ffffffffffffffffffffffffffffffffffffffff1681526020018373ffffffffffffffffffffffffffffffffffffffff1681525090806001815401808255809150506001900390600052602060002090600702016000909190919091506000820151816000015560208201518160010155604082015181600201556060820151816003015560808201518160040160006101000a81548173ffffffffffffffffffffffffffffffffffffffff021916908373ffffffffffffffffffffffffffffffffffffffff16021790555060a08201518160050160006101000a81548173ffffffffffffffffffffffffffffffffffffffff021916908373ffffffffffffffffffffffffffffffffffffffff16021790555060c08201518160060160006101000a81548173ffffffffffffffffffffffffffffffffffffffff021916908373ffffffffffffffffffffffffffffffffffffffff1602179055505050600660009054906101000a900473ffffffffffffffffffffffffffffffffffffffff1673ffffffffffffffffffffffffffffffffffffffff166323b872dd8783878c62001084919062003589565b6040518463ffffffff1660e01b8152600401620010a49392919062003754565b6020604051808303816000875af1158015620010c4573d6000803e3d6000fd5b505050506040513d601f19601f82011682018060405250810190620010ea9190620037a8565b507f43cafc0ec23327f2412f46818bb8615ebc3eb3081d0cb3f1c60521bfebf86bf08689898c604051620011229493929190620037da565b60405180910390a16001600860008b8152602001908152602001600020805490506200114f919062003827565b925050509695505050505050565b600042600860008581526020019081526020016000208381548110620011885762001187620030ba565b5b90600052602060002090600702016003015410156200128f576000600860008581526020019081526020016000208381548110620011cb57620011ca620030ba565b5b906000526020600020906007020160040160009054906101000a900473ffffffffffffffffffffffffffffffffffffffff1690506000600860008681526020019081526020016000208481548110620012295762001228620030ba565b5b90600052602060002090600702016003015490506200124c85858460016200219a565b507f1a21cc7f9626debacfc6d4b00d87b4629a1b832e2b5583096fcb3f5de82600cd8585848460405162001284949392919062003862565b60405180910390a150505b6001905092915050565b606060086000838152602001908152602001600020805480602002602001604051908101604052809291908181526020016000905b828210156200142c57838290600052602060002090600702016040518060e0016040529081600082015481526020016001820154815260200160028201548152602001600382015481526020016004820160009054906101000a900473ffffffffffffffffffffffffffffffffffffffff1673ffffffffffffffffffffffffffffffffffffffff1673ffffffffffffffffffffffffffffffffffffffff1681526020016005820160009054906101000a900473ffffffffffffffffffffffffffffffffffffffff1673ffffffffffffffffffffffffffffffffffffffff1673ffffffffffffffffffffffffffffffffffffffff1681526020016006820160009054906101000a900473ffffffffffffffffffffffffffffffffffffffff1673ffffffffffffffffffffffffffffffffffffffff1673ffffffffffffffffffffffffffffffffffffffff168152505081526020019060010190620012ce565b505050509050919050565b600160009054906101000a900473ffffffffffffffffffffffffffffffffffffffff1681565b60006009600086815260200190815260200160002060009054906101000a900460ff1615620014c3576040517f08c379a0000000000000000000000000000000000000000000000000000000008152600401620014ba90620038ff565b60405180910390fd5b600073ffffffffffffffffffffffffffffffffffffffff16600860008781526020019081526020016000208581548110620015035762001502620030ba565b5b906000526020600020906007020160040160009054906101000a900473ffffffffffffffffffffffffffffffffffffffff1673ffffffffffffffffffffffffffffffffffffffff16036200158e576040517f08c379a000000000000000000000000000000000000000000000000000000000815260040162001585906200314a565b60405180910390fd5b8273ffffffffffffffffffffffffffffffffffffffff16600860008781526020019081526020016000208581548110620015cd57620015cc620030ba565b5b906000526020600020906007020160050160009054906101000a900473ffffffffffffffffffffffffffffffffffffffff1673ffffffffffffffffffffffffffffffffffffffff161462001658576040517f08c379a00000000000000000000000000000000000000000000000000000000081526004016200164f90620031e2565b60405180910390fd5b6000600860008781526020019081526020016000208581548110620016825762001681620030ba565b5b906000526020600020906007020160040160009054906101000a900473ffffffffffffffffffffffffffffffffffffffff1690506000600860008881526020019081526020016000208681548110620016e057620016df620030ba565b5b906000526020600020906007020160060160009054906101000a900473ffffffffffffffffffffffffffffffffffffffff16905060006008600089815260200190815260200160002087815481106200173e576200173d620030ba565b5b9060005260206000209060070201600101549050600081600660009054906101000a900473ffffffffffffffffffffffffffffffffffffffff1673ffffffffffffffffffffffffffffffffffffffff166370a08231856040518263ffffffff1660e01b8152600401620017b2919062002fc8565b602060405180830381865afa158015620017d0573d6000803e3d6000fd5b505050506040513d601f19601f82011682018060405250810190620017f69190620035db565b62001802919062003827565b905060006127106004548462001819919062003921565b6200182591906200399b565b9050808362001835919062003827565b9250818362001845919062003589565b600660009054906101000a900473ffffffffffffffffffffffffffffffffffffffff1673ffffffffffffffffffffffffffffffffffffffff166370a08231866040518263ffffffff1660e01b8152600401620018a2919062002fc8565b602060405180830381865afa158015620018c0573d6000803e3d6000fd5b505050506040513d601f19601f82011682018060405250810190620018e69190620035db565b10156200192a576040517f08c379a0000000000000000000000000000000000000000000000000000000008152600401620019219062003a49565b60405180910390fd5b620019398a8a8760006200219a565b50600760009054906101000a900473ffffffffffffffffffffffffffffffffffffffff1673ffffffffffffffffffffffffffffffffffffffff1663f242432a89868d60016040518563ffffffff1660e01b81526004016200199e949392919062003af3565b600060405180830381600087803b158015620019b957600080fd5b505af1158015620019ce573d6000803e3d6000fd5b505050508373ffffffffffffffffffffffffffffffffffffffff1663ceff9468866040518263ffffffff1660e01b815260040162001a0d919062002fc8565b6020604051808303816000875af115801562001a2d573d6000803e3d6000fd5b505050506040513d601f19601f8201168201806040525081019062001a539190620037a8565b507facf2539a66a8b6c88e83f5bff8bf90d5cd86386709023449efd0190dfdd1514c89868560405162001a899392919062003b55565b60405180910390a18373ffffffffffffffffffffffffffffffffffffffff1663d580408a89856040518363ffffffff1660e01b815260040162001ace92919062003b92565b6020604051808303816000875af115801562001aee573d6000803e3d6000fd5b505050506040513d601f19601f8201168201806040525081019062001b149190620037a8565b508373ffffffffffffffffffffffffffffffffffffffff1663d580408a600360009054906101000a900473ffffffffffffffffffffffffffffffffffffffff16846040518363ffffffff1660e01b815260040162001b7492919062003b92565b6020604051808303816000875af115801562001b94573d6000803e3d6000fd5b505050506040513d601f19601f8201168201806040525081019062001bba9190620037a8565b508373ffffffffffffffffffffffffffffffffffffffff1663d580408a600360009054906101000a900473ffffffffffffffffffffffffffffffffffffffff16836040518363ffffffff1660e01b815260040162001c1a92919062003b92565b6020604051808303816000875af115801562001c3a573d6000803e3d6000fd5b505050506040513d601f19601f8201168201806040525081019062001c609190620037a8565b5086801562001c8557506000600860008c815260200190815260200160002080549050115b1562001d685760008060005b600860008e81526020019081526020016000208054905081101562001d3357600860008e815260200190815260200160002060008154811062001cd95762001cd8620030ba565b5b906000526020600020906007020160040160009054906101000a900473ffffffffffffffffffffffffffffffffffffffff16915062001d1c8d848460016200219a565b50808062001d2a9062003337565b91505062001c91565b506000600960008e815260200190815260200160002060006101000a81548160ff021916908315150217905550505062001de8565b6000600860008c815260200190815260200160002080549050111562001dba576001600960008c815260200190815260200160002060006101000a81548160ff02191690831515021790555062001de7565b6001600960008c815260200190815260200160002060006101000a81548160ff0219169083151502179055505b5b600195505050505050949350505050565b600360009054906101000a900473ffffffffffffffffffffffffffffffffffffffff1681565b60008060009054906101000a900473ffffffffffffffffffffffffffffffffffffffff16905090565b60055481565b60008054906101000a900473ffffffffffffffffffffffffffffffffffffffff1673ffffffffffffffffffffffffffffffffffffffff163373ffffffffffffffffffffffffffffffffffffffff161462001edf576040517f08c379a000000000000000000000000000000000000000000000000000000000815260040162001ed69062003401565b60405180910390fd5b8073ffffffffffffffffffffffffffffffffffffffff1660008054906101000a900473ffffffffffffffffffffffffffffffffffffffff1673ffffffffffffffffffffffffffffffffffffffff167f342827c97908e5e2f71151c08502a66d44b6f758e3ac2f1de95f02eb95f0a73560405160405180910390a3806000806101000a81548173ffffffffffffffffffffffffffffffffffffffff021916908373ffffffffffffffffffffffffffffffffffffffff16021790555050565b600260009054906101000a900473ffffffffffffffffffffffffffffffffffffffff1681565b600080600062001fd3858562000974565b91509150816200201a576040517f08c379a0000000000000000000000000000000000000000000000000000000008152600401620020119062003c35565b60405180910390fd5b6200202984828760016200219a565b507f0d6032776afded2c5b6c20c518992c74c512297654f179ddf79620beca2248e681866040516200205d92919062003ca7565b60405180910390a160019250505092915050565b60045481565b60008060009054906101000a900473ffffffffffffffffffffffffffffffffffffffff1673ffffffffffffffffffffffffffffffffffffffff163373ffffffffffffffffffffffffffffffffffffffff16146200210b576040517f08c379a0000000000000000000000000000000000000000000000000000000008152600401620021029062003401565b60405180910390fd5b6000821162002151576040517f08c379a0000000000000000000000000000000000000000000000000000000008152600401620021489062003473565b60405180910390fd5b816005819055507fcfbf529b549d5a8851c7cb749d69134057323acbc44e369f97f3600c719f40a88260405162002189919062003d39565b60405180910390a160019050919050565b60008273ffffffffffffffffffffffffffffffffffffffff16600860008781526020019081526020016000208581548110620021db57620021da620030ba565b5b906000526020600020906007020160040160009054906101000a900473ffffffffffffffffffffffffffffffffffffffff1673ffffffffffffffffffffffffffffffffffffffff161462002266576040517f08c379a00000000000000000000000000000000000000000000000000000000081526004016200225d9062003de1565b60405180910390fd5b600060086000878152602001908152602001600020858154811062002290576200228f620030ba565b5b906000526020600020906007020160060160009054906101000a900473ffffffffffffffffffffffffffffffffffffffff1690506000600860008881526020019081526020016000208681548110620022ee57620022ed620030ba565b5b906000526020600020906007020160010154600660009054906101000a900473ffffffffffffffffffffffffffffffffffffffff1673ffffffffffffffffffffffffffffffffffffffff166370a08231846040518263ffffffff1660e01b81526004016200235d919062002fc8565b602060405180830381865afa1580156200237b573d6000803e3d6000fd5b505050506040513d601f19601f82011682018060405250810190620023a19190620035db565b620023ad919062003827565b90506040518060e00160405280878152602001600081526020016000815260200160008152602001600073ffffffffffffffffffffffffffffffffffffffff168152602001600073ffffffffffffffffffffffffffffffffffffffff168152602001600073ffffffffffffffffffffffffffffffffffffffff16815250600860008981526020019081526020016000208781548110620024525762002451620030ba565b5b90600052602060002090600702016000820151816000015560208201518160010155604082015181600201556060820151816003015560808201518160040160006101000a81548173ffffffffffffffffffffffffffffffffffffffff021916908373ffffffffffffffffffffffffffffffffffffffff16021790555060a08201518160050160006101000a81548173ffffffffffffffffffffffffffffffffffffffff021916908373ffffffffffffffffffffffffffffffffffffffff16021790555060c08201518160060160006101000a81548173ffffffffffffffffffffffffffffffffffffffff021916908373ffffffffffffffffffffffffffffffffffffffff160217905550905050600860008881526020019081526020016000206001600860008a81526020019081526020016000208054905062002598919062003827565b81548110620025ac57620025ab620030ba565b5b9060005260206000209060070201600860008981526020019081526020016000208781548110620025e257620025e1620030ba565b5b9060005260206000209060070201600082015481600001556001820154816001015560028201548160020155600382015481600301556004820160009054906101000a900473ffffffffffffffffffffffffffffffffffffffff168160040160006101000a81548173ffffffffffffffffffffffffffffffffffffffff021916908373ffffffffffffffffffffffffffffffffffffffff1602179055506005820160009054906101000a900473ffffffffffffffffffffffffffffffffffffffff168160050160006101000a81548173ffffffffffffffffffffffffffffffffffffffff021916908373ffffffffffffffffffffffffffffffffffffffff1602179055506006820160009054906101000a900473ffffffffffffffffffffffffffffffffffffffff168160060160006101000a81548173ffffffffffffffffffffffffffffffffffffffff021916908373ffffffffffffffffffffffffffffffffffffffff16021790555090505085600860008981526020019081526020016000208781548110620027795762002778620030ba565b5b90600052602060002090600702016000018190555060086000888152602001908152602001600020805480620027b457620027b362003e03565b5b60019003818190600052602060002090600702016000808201600090556001820160009055600282016000905560038201600090556004820160006101000a81549073ffffffffffffffffffffffffffffffffffffffff02191690556005820160006101000a81549073ffffffffffffffffffffffffffffffffffffffff02191690556006820160006101000a81549073ffffffffffffffffffffffffffffffffffffffff0219169055505090556000600860008981526020019081526020016000208054905003620028ae5760006009600089815260200190815260200160002060006101000a81548160ff0219169083151502179055505b831562002a8d578173ffffffffffffffffffffffffffffffffffffffff1663d580408a8683600660009054906101000a900473ffffffffffffffffffffffffffffffffffffffff1673ffffffffffffffffffffffffffffffffffffffff166370a08231876040518263ffffffff1660e01b815260040162002930919062002fc8565b602060405180830381865afa1580156200294e573d6000803e3d6000fd5b505050506040513d601f19601f82011682018060405250810190620029749190620035db565b62002980919062003827565b6040518363ffffffff1660e01b81526004016200299f92919062003b92565b6020604051808303816000875af1158015620029bf573d6000803e3d6000fd5b505050506040513d601f19601f82011682018060405250810190620029e59190620037a8565b508173ffffffffffffffffffffffffffffffffffffffff1663d580408a600360009054906101000a900473ffffffffffffffffffffffffffffffffffffffff16836040518363ffffffff1660e01b815260040162002a4592919062003b92565b6020604051808303816000875af115801562002a65573d6000803e3d6000fd5b505050506040513d601f19601f8201168201806040525081019062002a8b9190620037a8565b505b600192505050949350505050565b6114e18062003e3383390190565b600080fd5b6000819050919050565b62002ac38162002aae565b811462002acf57600080fd5b50565b60008135905062002ae38162002ab8565b92915050565b600073ffffffffffffffffffffffffffffffffffffffff82169050919050565b600062002b168262002ae9565b9050919050565b62002b288162002b09565b811462002b3457600080fd5b50565b60008135905062002b488162002b1d565b92915050565b60008060006060848603121562002b6a5762002b6962002aa9565b5b600062002b7a8682870162002ad2565b935050602062002b8d8682870162002ad2565b925050604062002ba08682870162002b37565b9150509250925092565b60008115159050919050565b62002bc18162002baa565b82525050565b600060208201905062002bde600083018462002bb6565b92915050565b60006020828403121562002bfd5762002bfc62002aa9565b5b600062002c0d8482850162002ad2565b91505092915050565b6000806040838503121562002c305762002c2f62002aa9565b5b600062002c408582860162002b37565b925050602062002c538582860162002ad2565b9150509250929050565b62002c688162002aae565b82525050565b600060408201905062002c85600083018562002bb6565b62002c94602083018462002c5d565b9392505050565b6000806040838503121562002cb55762002cb462002aa9565b5b600062002cc58582860162002ad2565b925050602062002cd88582860162002ad2565b9150509250929050565b62002ced8162002b09565b82525050565b600060e08201905062002d0a600083018a62002c5d565b62002d19602083018962002c5d565b62002d28604083018862002c5d565b62002d37606083018762002c5d565b62002d46608083018662002ce2565b62002d5560a083018562002ce2565b62002d6460c083018462002ce2565b98975050505050505050565b60008060008060008060c0878903121562002d905762002d8f62002aa9565b5b600062002da089828a0162002ad2565b965050602062002db389828a0162002ad2565b955050604062002dc689828a0162002ad2565b945050606062002dd989828a0162002b37565b935050608062002dec89828a0162002b37565b92505060a062002dff89828a0162002ad2565b9150509295509295509295565b600060208201905062002e23600083018462002c5d565b92915050565b600081519050919050565b600082825260208201905092915050565b6000819050602082019050919050565b62002e608162002aae565b82525050565b62002e718162002b09565b82525050565b60e08201600082015162002e8f600085018262002e55565b50602082015162002ea4602085018262002e55565b50604082015162002eb9604085018262002e55565b50606082015162002ece606085018262002e55565b50608082015162002ee3608085018262002e66565b5060a082015162002ef860a085018262002e66565b5060c082015162002f0d60c085018262002e66565b50505050565b600062002f21838362002e77565b60e08301905092915050565b6000602082019050919050565b600062002f478262002e29565b62002f53818562002e34565b935062002f608362002e45565b8060005b8381101562002f9757815162002f7b888262002f13565b975062002f888362002f2d565b92505060018101905062002f64565b5085935050505092915050565b6000602082019050818103600083015262002fc0818462002f3a565b905092915050565b600060208201905062002fdf600083018462002ce2565b92915050565b62002ff08162002baa565b811462002ffc57600080fd5b50565b600081359050620030108162002fe5565b92915050565b6000806000806080858703121562003033576200303262002aa9565b5b6000620030438782880162002ad2565b9450506020620030568782880162002ad2565b9350506040620030698782880162002b37565b92505060606200307c8782880162002fff565b91505092959194509250565b600060208284031215620030a157620030a062002aa9565b5b6000620030b18482850162002b37565b91505092915050565b7f4e487b7100000000000000000000000000000000000000000000000000000000600052603260045260246000fd5b600082825260208201905092915050565b7f54686973206f6666657220646f6573206e6f7420657869737400000000000000600082015250565b600062003132601983620030e9565b91506200313f82620030fa565b602082019050919050565b60006020820190508181036000830152620031658162003123565b9050919050565b7f546869732061646472657373206973206e6f74207468652073656c6c6572206f60008201527f662074686973204e465400000000000000000000000000000000000000000000602082015250565b6000620031ca602a83620030e9565b9150620031d7826200316c565b604082019050919050565b60006020820190508181036000830152620031fd81620031bb565b9050919050565b7f73656c6c65720000000000000000000000000000000000000000000000000000600082015250565b60006200323c600683620030e9565b9150620032498262003204565b602082019050919050565b60006060820190506200326b600083018562002c5d565b6200327a602083018462002ce2565b81810360408301526200328d816200322d565b90509392505050565b7f4e6f74207468652073656c6c6572206f662074686973204e4654000000000000600082015250565b6000620032ce601a83620030e9565b9150620032db8262003296565b602082019050919050565b600060208201905081810360008301526200330181620032bf565b9050919050565b7f4e487b7100000000000000000000000000000000000000000000000000000000600052601160045260246000fd5b6000620033448262002aae565b91507fffffffffffffffffffffffffffffffffffffffffffffffffffffffffffffffff820362003379576200337862003308565b5b600182019050919050565b60006040820190506200339b600083018562002c5d565b620033aa602083018462002ce2565b9392505050565b7f43616c6c6572206973206e6f74206f776e657200000000000000000000000000600082015250565b6000620033e9601383620030e9565b9150620033f682620033b1565b602082019050919050565b600060208201905081810360008301526200341c81620033da565b9050919050565b7f43616e6e6f7420736574207a65726f2066656573000000000000000000000000600082015250565b60006200345b601483620030e9565b9150620034688262003423565b602082019050919050565b600060208201905081810360008301526200348e816200344c565b9050919050565b7f53454c4c4552204645452050455243454e540000000000000000000000000000600082015250565b6000620034cd601283620030e9565b9150620034da8262003495565b602082019050919050565b6000604082019050620034fc600083018462002c5d565b81810360208301526200350f81620034be565b905092915050565b7f596f75206861766520616c7265616479206d61646520616e206f666665720000600082015250565b60006200354f601e83620030e9565b91506200355c8262003517565b602082019050919050565b60006020820190508181036000830152620035828162003540565b9050919050565b6000620035968262002aae565b9150620035a38362002aae565b9250828201905080821115620035be57620035bd62003308565b5b92915050565b600081519050620035d58162002ab8565b92915050565b600060208284031215620035f457620035f362002aa9565b5b60006200360484828501620035c4565b91505092915050565b7f496e737566666963656e7420534e4320746f6b656e7320666f7220746869732060008201527f6f66666572000000000000000000000000000000000000000000000000000000602082015250565b60006200366b602583620030e9565b915062003678826200360d565b604082019050919050565b600060208201905081810360008301526200369e816200365c565b9050919050565b7f4f66666572206475726174696f6e206578706972656400000000000000000000600082015250565b6000620036dd601683620030e9565b9150620036ea82620036a5565b602082019050919050565b600060208201905081810360008301526200371081620036ce565b9050919050565b60006060820190506200372e600083018662002ce2565b6200373d602083018562002c5d565b6200374c604083018462002ce2565b949350505050565b60006060820190506200376b600083018662002ce2565b6200377a602083018562002ce2565b62003789604083018462002c5d565b949350505050565b600081519050620037a28162002fe5565b92915050565b600060208284031215620037c157620037c062002aa9565b5b6000620037d18482850162003791565b91505092915050565b6000608082019050620037f1600083018762002ce2565b62003800602083018662002c5d565b6200380f604083018562002c5d565b6200381e606083018462002c5d565b95945050505050565b6000620038348262002aae565b9150620038418362002aae565b92508282039050818111156200385c576200385b62003308565b5b92915050565b600060808201905062003879600083018762002c5d565b62003888602083018662002c5d565b62003897604083018562002ce2565b620038a6606083018462002c5d565b95945050505050565b7f48617320616c726561647920616363657074656420616e206f66666572000000600082015250565b6000620038e7601d83620030e9565b9150620038f482620038af565b602082019050919050565b600060208201905081810360008301526200391a81620038d8565b9050919050565b60006200392e8262002aae565b91506200393b8362002aae565b92508282026200394b8162002aae565b9150828204841483151762003965576200396462003308565b5b5092915050565b7f4e487b7100000000000000000000000000000000000000000000000000000000600052601260045260246000fd5b6000620039a88262002aae565b9150620039b58362002aae565b925082620039c857620039c76200396c565b5b828204905092915050565b7f4e6f7420656e6f75676820534e4320746f6b656e7320696e20657363726f772060008201527f746f20616c6c6f7720666f72207472616e736665720000000000000000000000602082015250565b600062003a31603583620030e9565b915062003a3e82620039d3565b604082019050919050565b6000602082019050818103600083015262003a648162003a22565b9050919050565b6000819050919050565b6000819050919050565b600062003aa062003a9a62003a948462003a6b565b62003a75565b62002aae565b9050919050565b62003ab28162003a7f565b82525050565b600082825260208201905092915050565b50565b600062003adb60008362003ab8565b915062003ae88262003ac9565b600082019050919050565b600060a08201905062003b0a600083018762002ce2565b62003b19602083018662002ce2565b62003b28604083018562002c5d565b62003b37606083018462003aa7565b818103608083015262003b4a8162003acc565b905095945050505050565b600060608201905062003b6c600083018662002c5d565b62003b7b602083018562002ce2565b62003b8a604083018462002c5d565b949350505050565b600060408201905062003ba9600083018562002ce2565b62003bb8602083018462002c5d565b9392505050565b7f4e6f206f6666657220686173206265656e206d6164652062792074686973206260008201527f7579657200000000000000000000000000000000000000000000000000000000602082015250565b600062003c1d602483620030e9565b915062003c2a8262003bbf565b604082019050919050565b6000602082019050818103600083015262003c508162003c0e565b9050919050565b7f6275796572000000000000000000000000000000000000000000000000000000600082015250565b600062003c8f600583620030e9565b915062003c9c8262003c57565b602082019050919050565b600060608201905062003cbe600083018562002c5d565b62003ccd602083018462002ce2565b818103604083015262003ce08162003c80565b90509392505050565b7f4255594552204645452050455243454e54000000000000000000000000000000600082015250565b600062003d21601183620030e9565b915062003d2e8262003ce9565b602082019050919050565b600060408201905062003d50600083018462002c5d565b818103602083015262003d638162003d12565b905092915050565b7f54686973206f6666657220776173206e6f74206d61646520627920746869732060008201527f6275796572000000000000000000000000000000000000000000000000000000602082015250565b600062003dc9602583620030e9565b915062003dd68262003d6b565b604082019050919050565b6000602082019050818103600083015262003dfc8162003dba565b9050919050565b7f4e487b7100000000000000000000000000000000000000000000000000000000600052603160045260246000fdfe60806040523480156200001157600080fd5b50604051620014e1380380620014e18339818101604052810190620000379190620003cb565b826000806101000a81548173ffffffffffffffffffffffffffffffffffffffff021916908373ffffffffffffffffffffffffffffffffffffffff1602179055508160028190555080600160006101000a81548173ffffffffffffffffffffffffffffffffffffffff021916908373ffffffffffffffffffffffffffffffffffffffff1602179055506000600160009054906101000a900473ffffffffffffffffffffffffffffffffffffffff1673ffffffffffffffffffffffffffffffffffffffff166370a08231306040518263ffffffff1660e01b81526004016200011e919062000438565b602060405180830381865afa1580156200013c573d6000803e3d6000fd5b505050506040513d601f19601f8201168201806040525081019062000162919062000455565b14620001a5576040517f08c379a00000000000000000000000000000000000000000000000000000000081526004016200019c90620004e8565b60405180910390fd5b60008060009054906101000a900473ffffffffffffffffffffffffffffffffffffffff1673ffffffffffffffffffffffffffffffffffffffff1662fdd58e30856040518363ffffffff1660e01b8152600401620002049291906200051b565b602060405180830381865afa15801562000222573d6000803e3d6000fd5b505050506040513d601f19601f8201168201806040525081019062000248919062000455565b146200028b576040517f08c379a0000000000000000000000000000000000000000000000000000000008152600401620002829062000598565b60405180910390fd5b60008054906101000a900473ffffffffffffffffffffffffffffffffffffffff1673ffffffffffffffffffffffffffffffffffffffff1663a22cb4653360016040518363ffffffff1660e01b8152600401620002e9929190620005d7565b600060405180830381600087803b1580156200030457600080fd5b505af115801562000319573d6000803e3d6000fd5b5050505050505062000604565b600080fd5b600073ffffffffffffffffffffffffffffffffffffffff82169050919050565b600062000358826200032b565b9050919050565b6200036a816200034b565b81146200037657600080fd5b50565b6000815190506200038a816200035f565b92915050565b6000819050919050565b620003a58162000390565b8114620003b157600080fd5b50565b600081519050620003c5816200039a565b92915050565b600080600060608486031215620003e757620003e662000326565b5b6000620003f78682870162000379565b93505060206200040a86828701620003b4565b92505060406200041d8682870162000379565b9150509250925092565b62000432816200034b565b82525050565b60006020820190506200044f600083018462000427565b92915050565b6000602082840312156200046e576200046d62000326565b5b60006200047e84828501620003b4565b91505092915050565b600082825260208201905092915050565b7f496e76616c696420455243323020436f6e747261637420616464726573730000600082015250565b6000620004d0601e8362000487565b9150620004dd8262000498565b602082019050919050565b600060208201905081810360008301526200050381620004c1565b9050919050565b620005158162000390565b82525050565b600060408201905062000532600083018562000427565b6200054160208301846200050a565b9392505050565b7f496e76616c6964204e465420436f6e7472616374000000000000000000000000600082015250565b60006200058060148362000487565b91506200058d8262000548565b602082019050919050565b60006020820190508181036000830152620005b38162000571565b9050919050565b60008115159050919050565b620005d181620005ba565b82525050565b6000604082019050620005ee600083018562000427565b620005fd6020830184620005c6565b9392505050565b610ecd80620006146000396000f3fe608060405234801561001057600080fd5b50600436106100625760003560e01c806301ffc9a7146100675780638f04a18f14610097578063bc197c81146100c7578063ceff9468146100f7578063d580408a14610127578063f23a6e6114610157575b600080fd5b610081600480360381019061007c919061071e565b610187565b60405161008e9190610766565b60405180910390f35b6100b160048036038101906100ac91906107df565b610201565b6040516100be9190610766565b60405180910390f35b6100e160048036038101906100dc9190610a50565b61037f565b6040516100ee9190610b2e565b60405180910390f35b610111600480360381019061010c91906107df565b610394565b60405161011e9190610766565b60405180910390f35b610141600480360381019061013c9190610b49565b61046f565b60405161014e9190610766565b60405180910390f35b610171600480360381019061016c9190610b89565b610633565b60405161017e9190610b2e565b60405180910390f35b60007f4e2312e0000000000000000000000000000000000000000000000000000000007bffffffffffffffffffffffffffffffffffffffffffffffffffffffff1916827bffffffffffffffffffffffffffffffffffffffffffffffffffffffff191614806101fa57506101f982610648565b5b9050919050565b60008060008054906101000a900473ffffffffffffffffffffffffffffffffffffffff1673ffffffffffffffffffffffffffffffffffffffff1662fdd58e306002546040518363ffffffff1660e01b8152600401610260929190610c3e565b602060405180830381865afa15801561027d573d6000803e3d6000fd5b505050506040513d601f19601f820116820180604052508101906102a19190610c7c565b1061033b5760008054906101000a900473ffffffffffffffffffffffffffffffffffffffff1673ffffffffffffffffffffffffffffffffffffffff1663f242432a308460025460016040518563ffffffff1660e01b81526004016103089493929190610d25565b600060405180830381600087803b15801561032257600080fd5b505af1158015610336573d6000803e3d6000fd5b505050505b7fe2d73ae83743672762e50ba9d1f270913a16bc698d3887fac465b25009bf64676002548360405161036e929190610d7d565b60405180910390a160019050919050565b600063bc197c8160e01b905095945050505050565b60008060009054906101000a900473ffffffffffffffffffffffffffffffffffffffff1673ffffffffffffffffffffffffffffffffffffffff1663f242432a308460025460016040518563ffffffff1660e01b81526004016103f99493929190610d25565b600060405180830381600087803b15801561041357600080fd5b505af1158015610427573d6000803e3d6000fd5b505050507fe2d73ae83743672762e50ba9d1f270913a16bc698d3887fac465b25009bf64676002548360405161045e929190610d7d565b60405180910390a160019050919050565b600081600160009054906101000a900473ffffffffffffffffffffffffffffffffffffffff1673ffffffffffffffffffffffffffffffffffffffff166370a08231306040518263ffffffff1660e01b81526004016104cd9190610da6565b602060405180830381865afa1580156104ea573d6000803e3d6000fd5b505050506040513d601f19601f8201168201806040525081019061050e9190610c7c565b101561054f576040517f08c379a000000000000000000000000000000000000000000000000000000000815260040161054690610e1e565b60405180910390fd5b600160009054906101000a900473ffffffffffffffffffffffffffffffffffffffff1673ffffffffffffffffffffffffffffffffffffffff1663a9059cbb84846040518363ffffffff1660e01b81526004016105ac929190610c3e565b6020604051808303816000875af11580156105cb573d6000803e3d6000fd5b505050506040513d601f19601f820116820180604052508101906105ef9190610e6a565b507f5c1ba46fd05d3bb0363a63330a5f560f2014f27d055a39108694f295973ae2038284604051610621929190610d7d565b60405180910390a16001905092915050565b600063f23a6e6160e01b905095945050505050565b60007f01ffc9a7000000000000000000000000000000000000000000000000000000007bffffffffffffffffffffffffffffffffffffffffffffffffffffffff1916827bffffffffffffffffffffffffffffffffffffffffffffffffffffffff1916149050919050565b6000604051905090565b600080fd5b600080fd5b60007fffffffff0000000000000000000000000000000000000000000000000000000082169050919050565b6106fb816106c6565b811461070657600080fd5b50565b600081359050610718816106f2565b92915050565b600060208284031215610734576107336106bc565b5b600061074284828501610709565b91505092915050565b60008115159050919050565b6107608161074b565b82525050565b600060208201905061077b6000830184610757565b92915050565b600073ffffffffffffffffffffffffffffffffffffffff82169050919050565b60006107ac82610781565b9050919050565b6107bc816107a1565b81146107c757600080fd5b50565b6000813590506107d9816107b3565b92915050565b6000602082840312156107f5576107f46106bc565b5b6000610803848285016107ca565b91505092915050565b600080fd5b6000601f19601f8301169050919050565b7f4e487b7100000000000000000000000000000000000000000000000000000000600052604160045260246000fd5b61085a82610811565b810181811067ffffffffffffffff8211171561087957610878610822565b5b80604052505050565b600061088c6106b2565b90506108988282610851565b919050565b600067ffffffffffffffff8211156108b8576108b7610822565b5b602082029050602081019050919050565b600080fd5b6000819050919050565b6108e1816108ce565b81146108ec57600080fd5b50565b6000813590506108fe816108d8565b92915050565b60006109176109128461089d565b610882565b9050808382526020820190506020840283018581111561093a576109396108c9565b5b835b81811015610963578061094f88826108ef565b84526020840193505060208101905061093c565b5050509392505050565b600082601f8301126109825761098161080c565b5b8135610992848260208601610904565b91505092915050565b600080fd5b600067ffffffffffffffff8211156109bb576109ba610822565b5b6109c482610811565b9050602081019050919050565b82818337600083830152505050565b60006109f36109ee846109a0565b610882565b905082815260208101848484011115610a0f57610a0e61099b565b5b610a1a8482856109d1565b509392505050565b600082601f830112610a3757610a3661080c565b5b8135610a478482602086016109e0565b91505092915050565b600080600080600060a08688031215610a6c57610a6b6106bc565b5b6000610a7a888289016107ca565b9550506020610a8b888289016107ca565b945050604086013567ffffffffffffffff811115610aac57610aab6106c1565b5b610ab88882890161096d565b935050606086013567ffffffffffffffff811115610ad957610ad86106c1565b5b610ae58882890161096d565b925050608086013567ffffffffffffffff811115610b0657610b056106c1565b5b610b1288828901610a22565b9150509295509295909350565b610b28816106c6565b82525050565b6000602082019050610b436000830184610b1f565b92915050565b60008060408385031215610b6057610b5f6106bc565b5b6000610b6e858286016107ca565b9250506020610b7f858286016108ef565b9150509250929050565b600080600080600060a08688031215610ba557610ba46106bc565b5b6000610bb3888289016107ca565b9550506020610bc4888289016107ca565b9450506040610bd5888289016108ef565b9350506060610be6888289016108ef565b925050608086013567ffffffffffffffff811115610c0757610c066106c1565b5b610c1388828901610a22565b9150509295509295909350565b610c29816107a1565b82525050565b610c38816108ce565b82525050565b6000604082019050610c536000830185610c20565b610c606020830184610c2f565b9392505050565b600081519050610c76816108d8565b92915050565b600060208284031215610c9257610c916106bc565b5b6000610ca084828501610c67565b91505092915050565b6000819050919050565b6000819050919050565b6000610cd8610cd3610cce84610ca9565b610cb3565b6108ce565b9050919050565b610ce881610cbd565b82525050565b600082825260208201905092915050565b50565b6000610d0f600083610cee565b9150610d1a82610cff565b600082019050919050565b600060a082019050610d3a6000830187610c20565b610d476020830186610c20565b610d546040830185610c2f565b610d616060830184610cdf565b8181036080830152610d7281610d02565b905095945050505050565b6000604082019050610d926000830185610c2f565b610d9f6020830184610c20565b9392505050565b6000602082019050610dbb6000830184610c20565b92915050565b600082825260208201905092915050565b7f496e73756666696369656e7420534e4320746f6b656e73000000000000000000600082015250565b6000610e08601783610dc1565b9150610e1382610dd2565b602082019050919050565b60006020820190508181036000830152610e3781610dfb565b9050919050565b610e478161074b565b8114610e5257600080fd5b50565b600081519050610e6481610e3e565b92915050565b600060208284031215610e8057610e7f6106bc565b5b6000610e8e84828501610e55565b9150509291505056fea26469706673582212204399c38cec8fc40e45995ab7903250909710107bfef3b5243a41ef9947a9fc5f64736f6c63430008120033a2646970667358221220f64dd9c54775aa9eba626d7596e12bd673700b7d4f5ec7c437ee1bfc30acb14164736f6c63430008120033",
  "linkReferences": {},
  "deployedLinkReferences": {}
}